{
  "_format": "hh-sol-artifact-1",
  "contractName": "WriterVault",
  "sourceName": "contracts/WriterVault.sol",
  "abi": [
    {
      "inputs": [
        {
          "internalType": "address",
          "name": "_usycToken",
          "type": "address"
        },
        {
          "internalType": "address",
          "name": "_teller",
          "type": "address"
        }
      ],
      "stateMutability": "nonpayable",
      "type": "constructor"
    },
    {
      "inputs": [],
      "name": "InsufficientBalance",
      "type": "error"
    },
    {
      "inputs": [],
      "name": "TransferFailed",
      "type": "error"
    },
    {
      "inputs": [],
      "name": "Unauthorized",
      "type": "error"
    },
    {
      "anonymous": false,
      "inputs": [
        {
          "indexed": true,
          "internalType": "address",
          "name": "writer",
          "type": "address"
        },
        {
          "indexed": false,
          "internalType": "uint256",
          "name": "usdcAmount",
          "type": "uint256"
        },
        {
          "indexed": false,
          "internalType": "uint256",
          "name": "usycMinted",
          "type": "uint256"
        },
        {
          "indexed": false,
          "internalType": "string",
          "name": "slug",
          "type": "string"
        },
        {
          "indexed": false,
          "internalType": "enum IWriterVault.PaymentType",
          "name": "pType",
          "type": "uint8"
        }
      ],
      "name": "EarningsReceived",
      "type": "event"
    },
    {
      "anonymous": false,
      "inputs": [
        {
          "indexed": true,
          "internalType": "address",
          "name": "writer",
          "type": "address"
        },
        {
          "indexed": false,
          "internalType": "uint256",
          "name": "usdcAmount",
          "type": "uint256"
        }
      ],
      "name": "EarningsWithdrawn",
      "type": "event"
    },
    {
      "inputs": [
        {
          "internalType": "address",
          "name": "writer",
          "type": "address"
        }
      ],
      "name": "earningsOf",
      "outputs": [
        {
          "internalType": "uint256",
          "name": "usyc",
          "type": "uint256"
        },
        {
          "internalType": "uint256",
          "name": "estimatedUsdc",
          "type": "uint256"
        },
        {
          "internalType": "uint256",
          "name": "reads",
          "type": "uint256"
        },
        {
          "internalType": "uint256",
          "name": "claps",
          "type": "uint256"
        },
        {
          "internalType": "uint256",
          "name": "comments",
          "type": "uint256"
        },
        {
          "internalType": "uint256",
          "name": "lifetimeUsdc",
          "type": "uint256"
        }
      ],
      "stateMutability": "view",
      "type": "function"
    },
    {
      "inputs": [],
      "name": "owner",
      "outputs": [
        {
          "internalType": "address",
          "name": "",
          "type": "address"
        }
      ],
      "stateMutability": "view",
      "type": "function"
    },
    {
      "inputs": [
        {
          "internalType": "address",
          "name": "writer",
          "type": "address"
        },
        {
          "internalType": "string",
          "name": "slug",
          "type": "string"
        },
        {
          "internalType": "enum IWriterVault.PaymentType",
          "name": "pType",
          "type": "uint8"
        }
      ],
      "name": "receivePayment",
      "outputs": [],
      "stateMutability": "payable",
      "type": "function"
    },
    {
      "inputs": [],
      "name": "teller",
      "outputs": [
        {
          "internalType": "contract ITeller",
          "name": "",
          "type": "address"
        }
      ],
      "stateMutability": "view",
      "type": "function"
    },
    {
      "inputs": [
        {
          "internalType": "address",
          "name": "",
          "type": "address"
        }
      ],
      "name": "totalClaps",
      "outputs": [
        {
          "internalType": "uint256",
          "name": "",
          "type": "uint256"
        }
      ],
      "stateMutability": "view",
      "type": "function"
    },
    {
      "inputs": [
        {
          "internalType": "address",
          "name": "",
          "type": "address"
        }
      ],
      "name": "totalComments",
      "outputs": [
        {
          "internalType": "uint256",
          "name": "",
          "type": "uint256"
        }
      ],
      "stateMutability": "view",
      "type": "function"
    },
    {
      "inputs": [
        {
          "internalType": "address",
          "name": "",
          "type": "address"
        }
      ],
      "name": "totalReads",
      "outputs": [
        {
          "internalType": "uint256",
          "name": "",
          "type": "uint256"
        }
      ],
      "stateMutability": "view",
      "type": "function"
    },
    {
      "inputs": [
        {
          "internalType": "address",
          "name": "",
          "type": "address"
        }
      ],
      "name": "totalUsdcEarned",
      "outputs": [
        {
          "internalType": "uint256",
          "name": "",
          "type": "uint256"
        }
      ],
      "stateMutability": "view",
      "type": "function"
    },
    {
      "inputs": [
        {
          "internalType": "address",
          "name": "",
          "type": "address"
        }
      ],
      "name": "usycBalance",
      "outputs": [
        {
          "internalType": "uint256",
          "name": "",
          "type": "uint256"
        }
      ],
      "stateMutability": "view",
      "type": "function"
    },
    {
      "inputs": [],
      "name": "usycToken",
      "outputs": [
        {
          "internalType": "contract IUSYC",
          "name": "",
          "type": "address"
        }
      ],
      "stateMutability": "view",
      "type": "function"
    },
    {
      "inputs": [],
      "name": "withdraw",
      "outputs": [],
      "stateMutability": "nonpayable",
      "type": "function"
    },
    {
      "stateMutability": "payable",
      "type": "receive"
    }
  ],
  "bytecode": "0x60e060405234801561001057600080fd5b50604051610a0b380380610a0b83398101604081905261002f91610066565b6001600160a01b039182166080521660a0523360c052610099565b80516001600160a01b038116811461006157600080fd5b919050565b6000806040838503121561007957600080fd5b6100828361004a565b91506100906020840161004a565b90509250929050565b60805160a05160c05161092e6100dd600039600061021501526000818161019c0152818161033801528181610485015261055d015260006102a9015261092e6000f3fe6080604052600436106100a05760003560e01c806357edab4e1161006457806357edab4e1461018a5780635c15eae9146101d65780638da5cb5b146102035780638df08bd414610237578063bfbd979514610284578063c8c3f3661461029757600080fd5b80632cd7b409146100ac578063355a18ec146100ec5780633ccfd60b146101195780635185342014610130578063556c5a121461015d57600080fd5b366100a757005b600080fd5b3480156100b857600080fd5b506100d96100c7366004610781565b60026020526000908152604090205481565b6040519081526020015b60405180910390f35b3480156100f857600080fd5b506100d9610107366004610781565b60016020526000908152604090205481565b34801561012557600080fd5b5061012e6102cb565b005b34801561013c57600080fd5b506100d961014b366004610781565b60036020526000908152604090205481565b34801561016957600080fd5b506100d9610178366004610781565b60046020526000908152604090205481565b34801561019657600080fd5b506101be7f000000000000000000000000000000000000000000000000000000000000000081565b6040516001600160a01b0390911681526020016100e3565b3480156101e257600080fd5b506100d96101f1366004610781565b60006020819052908152604090205481565b34801561020f57600080fd5b506101be7f000000000000000000000000000000000000000000000000000000000000000081565b34801561024357600080fd5b50610257610252366004610781565b61044b565b604080519687526020870195909552938501929092526060840152608083015260a082015260c0016100e3565b61012e6102923660046107a3565b610538565b3480156102a357600080fd5b506101be7f000000000000000000000000000000000000000000000000000000000000000081565b33600090815260208190526040812054908190036102fc57604051631e9acf1760e31b815260040160405180910390fd5b3360009081526020819052604080822082905551635d043b2960e11b815260048101839052306024820181905260448201526001600160a01b037f0000000000000000000000000000000000000000000000000000000000000000169063ba087652906064016020604051808303816000875af1158015610381573d6000803e3d6000fd5b505050506040513d601f19601f820116820180604052508101906103a5919061083d565b604051909150600090339083908381818185875af1925050503d80600081146103ea576040519150601f19603f3d011682016040523d82523d6000602084013e6103ef565b606091505b5050905080610411576040516312171d8360e31b815260040160405180910390fd5b60405182815233907f48dc35af7b45e2a81fffad55f6e2fafacdb1d3d0d50d24ebdc16324f5ba757f19060200160405180910390a2505050565b6001600160a01b038181166000908152602081905260408082205490516303d1689d60e11b815260048101829052909282918291829182917f000000000000000000000000000000000000000000000000000000000000000016906307a2d13a90602401602060405180830381865afa1580156104cc573d6000803e3d6000fd5b505050506040513d601f19601f820116820180604052508101906104f0919061083d565b6001600160a01b039097166000908152600260209081526040808320546003835281842054600484528285205460019094529190932054989a92989097509095509350915050565b346000811561063d57604051636e553f6560e01b8152600481018390523060248201527f00000000000000000000000000000000000000000000000000000000000000006001600160a01b031690636e553f6590849060440160206040518083038185885af11580156105af573d6000803e3d6000fd5b50505050506040513d601f19601f820116820180604052508101906105d4919061083d565b905080600080886001600160a01b03166001600160a01b03168152602001908152602001600020600082825461060a9190610856565b90915550506001600160a01b03861660009081526001602052604081208054849290610637908490610856565b90915550505b60008360028111156106515761065161087d565b0361068a576001600160a01b038616600090815260026020526040812080546001929061067f908490610856565b909155506107149050565b600183600281111561069e5761069e61087d565b036106cc576001600160a01b038616600090815260036020526040812080546001929061067f908490610856565b60028360028111156106e0576106e061087d565b03610714576001600160a01b038616600090815260046020526040812080546001929061070e908490610856565b90915550505b856001600160a01b03167f273a241b024d104d3f3d5b337e8b2aecacaf3e59ba7fa41bbc4cd1d9511b07468383888888604051610755959493929190610893565b60405180910390a2505050505050565b80356001600160a01b038116811461077c57600080fd5b919050565b60006020828403121561079357600080fd5b61079c82610765565b9392505050565b600080600080606085870312156107b957600080fd5b6107c285610765565b9350602085013567ffffffffffffffff808211156107df57600080fd5b818701915087601f8301126107f357600080fd5b81358181111561080257600080fd5b88602082850101111561081457600080fd5b60208301955080945050505060408501356003811061083257600080fd5b939692955090935050565b60006020828403121561084f57600080fd5b5051919050565b8082018082111561087757634e487b7160e01b600052601160045260246000fd5b92915050565b634e487b7160e01b600052602160045260246000fd5b85815284602082015260806040820152826080820152828460a0830137600060a08483010152600060a0601f19601f8601168301019050600383106108e857634e487b7160e01b600052602160045260246000fd5b826060830152969550505050505056fea26469706673582212205459eca402fc69522d9aa29c73d5b6d2529bcdbf95fc58c0680f3e3fa87c08a764736f6c63430008180033",
  "linkReferences": {},
  "deployedLinkReferences": {}
}