{
  "_format": "hh-sol-artifact-1",
  "contractName": "MockTeller",
  "sourceName": "contracts/MockTeller.sol",
  "abi": [
    {
      "inputs": [],
      "stateMutability": "nonpayable",
      "type": "constructor"
    },
    {
      "inputs": [],
      "name": "asset",
      "outputs": [
        {
          "internalType": "address",
          "name": "",
          "type": "address"
        }
      ],
      "stateMutability": "view",
      "type": "function"
    },
    {
      "inputs": [
        {
          "internalType": "uint256",
          "name": "shares",
          "type": "uint256"
        }
      ],
      "name": "convertToAssets",
      "outputs": [
        {
          "internalType": "uint256",
          "name": "",
          "type": "uint256"
        }
      ],
      "stateMutability": "pure",
      "type": "function"
    },
    {
      "inputs": [
        {
          "internalType": "uint256",
          "name": "assets",
          "type": "uint256"
        }
      ],
      "name": "convertToShares",
      "outputs": [
        {
          "internalType": "uint256",
          "name": "",
          "type": "uint256"
        }
      ],
      "stateMutability": "pure",
      "type": "function"
    },
    {
      "inputs": [
        {
          "internalType": "uint256",
          "name": "assets",
          "type": "uint256"
        },
        {
          "internalType": "address",
          "name": "receiver",
          "type": "address"
        }
      ],
      "name": "deposit",
      "outputs": [
        {
          "internalType": "uint256",
          "name": "shares",
          "type": "uint256"
        }
      ],
      "stateMutability": "payable",
      "type": "function"
    },
    {
      "inputs": [],
      "name": "dummyAsset",
      "outputs": [
        {
          "internalType": "address",
          "name": "",
          "type": "address"
        }
      ],
      "stateMutability": "view",
      "type": "function"
    },
    {
      "inputs": [
        {
          "internalType": "uint256",
          "name": "assets",
          "type": "uint256"
        }
      ],
      "name": "previewDeposit",
      "outputs": [
        {
          "internalType": "uint256",
          "name": "",
          "type": "uint256"
        }
      ],
      "stateMutability": "pure",
      "type": "function"
    },
    {
      "inputs": [
        {
          "internalType": "uint256",
          "name": "shares",
          "type": "uint256"
        }
      ],
      "name": "previewRedeem",
      "outputs": [
        {
          "internalType": "uint256",
          "name": "",
          "type": "uint256"
        }
      ],
      "stateMutability": "pure",
      "type": "function"
    },
    {
      "inputs": [
        {
          "internalType": "uint256",
          "name": "shares",
          "type": "uint256"
        },
        {
          "internalType": "address",
          "name": "receiver",
          "type": "address"
        },
        {
          "internalType": "address",
          "name": "owner",
          "type": "address"
        }
      ],
      "name": "redeem",
      "outputs": [
        {
          "internalType": "uint256",
          "name": "assets",
          "type": "uint256"
        }
      ],
      "stateMutability": "nonpayable",
      "type": "function"
    },
    {
      "inputs": [],
      "name": "usycToken",
      "outputs": [
        {
          "internalType": "contract MockUSYC",
          "name": "",
          "type": "address"
        }
      ],
      "stateMutability": "view",
      "type": "function"
    }
  ],
  "bytecode": "0x6080604052600180546001600160a01b0319163017905534801561002257600080fd5b5060405161002f90610071565b604051809103906000f08015801561004b573d6000803e3d6000fd5b50600080546001600160a01b0319166001600160a01b039290921691909117905561007e565b6104958061048983390190565b6103fc8061008d6000396000f3fe6080604052600436106100865760003560e01c8063ba08765211610059578063ba08765214610101578063c6e6f5921461008b578063c8c3f36614610121578063ef8b30f71461008b578063f1d3c3371461014157600080fd5b806307a2d13a1461008b57806338d52e0f146100bc5780634cdad5061461008b5780636e553f65146100ee575b600080fd5b34801561009757600080fd5b506100a96100a6366004610329565b90565b6040519081526020015b60405180910390f35b3480156100c857600080fd5b506001546001600160a01b03165b6040516001600160a01b0390911681526020016100b3565b6100a96100fc36600461035e565b610161565b34801561010d57600080fd5b506100a961011c36600461038a565b610224565b34801561012d57600080fd5b506000546100d6906001600160a01b031681565b34801561014d57600080fd5b506001546100d6906001600160a01b031681565b60008234146101b75760405162461bcd60e51b815260206004820152601c60248201527f4d7573742073656e64206578616374206e61746976652076616c75650000000060448201526064015b60405180910390fd5b6000546040516340c10f1960e01b81526001600160a01b03848116600483015260248201869052909116906340c10f1990604401600060405180830381600087803b15801561020557600080fd5b505af1158015610219573d6000803e3d6000fd5b509495945050505050565b60008054604051632770a7eb60e21b81526001600160a01b0384811660048301526024820187905290911690639dc29fac90604401600060405180830381600087803b15801561027357600080fd5b505af1158015610287573d6000803e3d6000fd5b505050506000836001600160a01b03168560405160006040518083038185875af1925050503d80600081146102d8576040519150601f19603f3d011682016040523d82523d6000602084013e6102dd565b606091505b50509050806103205760405162461bcd60e51b815260206004820152600f60248201526e151c985b9cd9995c8819985a5b1959608a1b60448201526064016101ae565b50929392505050565b60006020828403121561033b57600080fd5b5035919050565b80356001600160a01b038116811461035957600080fd5b919050565b6000806040838503121561037157600080fd5b8235915061038160208401610342565b90509250929050565b60008060006060848603121561039f57600080fd5b833592506103af60208501610342565b91506103bd60408501610342565b9050925092509256fea2646970667358221220ed698a034179a4eef404d1f69d8f3d0489f2be5f7d221aa54fac9fb38b5592f364736f6c63430008180033608060405234801561001057600080fd5b50610475806100206000396000f3fe608060405234801561001057600080fd5b50600436106100935760003560e01c806370a082311161006657806370a08231146100ff5780639dc29fac1461011f578063a9059cbb14610132578063c1590cd714610145578063dd62ed3e1461014e57600080fd5b8063095ea7b31461009857806318160ddd146100c057806323b872dd146100d757806340c10f19146100ea575b600080fd5b6100ab6100a6366004610348565b610179565b60405190151581526020015b60405180910390f35b6100c960025481565b6040519081526020016100b7565b6100ab6100e5366004610372565b6101a7565b6100fd6100f8366004610348565b610245565b005b6100c961010d3660046103ae565b60006020819052908152604090205481565b6100fd61012d366004610348565b61028f565b6100ab610140366004610348565b6102d0565b620f42406100c9565b6100c961015c3660046103d0565b600160209081526000928352604080842090915290825290205481565b3360009081526001602081815260408084206001600160a01b03871685529091529091208290555b92915050565b6001600160a01b03831660009081526001602090815260408083203384529091528120805483919083906101dc908490610419565b90915550506001600160a01b03841660009081526020819052604081208054849290610209908490610419565b90915550506001600160a01b0383166000908152602081905260408120805484929061023690849061042c565b90915550600195945050505050565b6001600160a01b0382166000908152602081905260408120805483929061026d90849061042c565b925050819055508060026000828254610286919061042c565b90915550505050565b6001600160a01b038216600090815260208190526040812080548392906102b7908490610419565b9250508190555080600260008282546102869190610419565b336000908152602081905260408120805483919083906102f1908490610419565b90915550506001600160a01b0383166000908152602081905260408120805484929061031e90849061042c565b909155506001949350505050565b80356001600160a01b038116811461034357600080fd5b919050565b6000806040838503121561035b57600080fd5b6103648361032c565b946020939093013593505050565b60008060006060848603121561038757600080fd5b6103908461032c565b925061039e6020850161032c565b9150604084013590509250925092565b6000602082840312156103c057600080fd5b6103c98261032c565b9392505050565b600080604083850312156103e357600080fd5b6103ec8361032c565b91506103fa6020840161032c565b90509250929050565b634e487b7160e01b600052601160045260246000fd5b818103818111156101a1576101a1610403565b808201808211156101a1576101a161040356fea2646970667358221220ff2fdfa8eb9581c273ba981385728b000b84387b0cfa3895ffea5835f01fe8e764736f6c63430008180033",
  "linkReferences": {},
  "deployedLinkReferences": {}
}