{"contracts/MockTeller.sol":{"MockTeller":{"abi":[{"inputs":[],"stateMutability":"nonpayable","type":"constructor"},{"inputs":[],"name":"asset","outputs":[{"internalType":"address","name":"","type":"address"}],"stateMutability":"view","type":"function"},{"inputs":[{"internalType":"uint256","name":"shares","type":"uint256"}],"name":"convertToAssets","outputs":[{"internalType":"uint256","name":"","type":"uint256"}],"stateMutability":"pure","type":"function"},{"inputs":[{"internalType":"uint256","name":"assets","type":"uint256"}],"name":"convertToShares","outputs":[{"internalType":"uint256","name":"","type":"uint256"}],"stateMutability":"pure","type":"function"},{"inputs":[{"internalType":"uint256","name":"assets","type":"uint256"},{"internalType":"address","name":"receiver","type":"address"}],"name":"deposit","outputs":[{"internalType":"uint256","name":"shares","type":"uint256"}],"stateMutability":"payable","type":"function"},{"inputs":[],"name":"dummyAsset","outputs":[{"internalType":"address","name":"","type":"address"}],"stateMutability":"view","type":"function"},{"inputs":[{"internalType":"uint256","name":"assets","type":"uint256"}],"name":"previewDeposit","outputs":[{"internalType":"uint256","name":"","type":"uint256"}],"stateMutability":"pure","type":"function"},{"inputs":[{"internalType":"uint256","name":"shares","type":"uint256"}],"name":"previewRedeem","outputs":[{"internalType":"uint256","name":"","type":"uint256"}],"stateMutability":"pure","type":"function"},{"inputs":[{"internalType":"uint256","name":"shares","type":"uint256"},{"internalType":"address","name":"receiver","type":"address"},{"internalType":"address","name":"owner","type":"address"}],"name":"redeem","outputs":[{"internalType":"uint256","name":"assets","type":"uint256"}],"stateMutability":"nonpayable","type":"function"},{"inputs":[],"name":"usycToken","outputs":[{"internalType":"contract MockUSYC","name":"","type":"address"}],"stateMutability":"view","type":"function"}],"evm":{"bytecode":{"linkReferences":{},"object":"6080604052600180546001600160a01b0319163017905534801561002257600080fd5b5060405161002f90610071565b604051809103906000f08015801561004b573d6000803e3d6000fd5b50600080546001600160a01b0319166001600160a01b039290921691909117905561007e565b6104958061048983390190565b6103fc8061008d6000396000f3fe6080604052600436106100865760003560e01c8063ba08765211610059578063ba08765214610101578063c6e6f5921461008b578063c8c3f36614610121578063ef8b30f71461008b578063f1d3c3371461014157600080fd5b806307a2d13a1461008b57806338d52e0f146100bc5780634cdad5061461008b5780636e553f65146100ee575b600080fd5b34801561009757600080fd5b506100a96100a6366004610329565b90565b6040519081526020015b60405180910390f35b3480156100c857600080fd5b506001546001600160a01b03165b6040516001600160a01b0390911681526020016100b3565b6100a96100fc36600461035e565b610161565b34801561010d57600080fd5b506100a961011c36600461038a565b610224565b34801561012d57600080fd5b506000546100d6906001600160a01b031681565b34801561014d57600080fd5b506001546100d6906001600160a01b031681565b60008234146101b75760405162461bcd60e51b815260206004820152601c60248201527f4d7573742073656e64206578616374206e61746976652076616c75650000000060448201526064015b60405180910390fd5b6000546040516340c10f1960e01b81526001600160a01b03848116600483015260248201869052909116906340c10f1990604401600060405180830381600087803b15801561020557600080fd5b505af1158015610219573d6000803e3d6000fd5b509495945050505050565b60008054604051632770a7eb60e21b81526001600160a01b0384811660048301526024820187905290911690639dc29fac90604401600060405180830381600087803b15801561027357600080fd5b505af1158015610287573d6000803e3d6000fd5b505050506000836001600160a01b03168560405160006040518083038185875af1925050503d80600081146102d8576040519150601f19603f3d011682016040523d82523d6000602084013e6102dd565b606091505b50509050806103205760405162461bcd60e51b815260206004820152600f60248201526e151c985b9cd9995c8819985a5b1959608a1b60448201526064016101ae565b50929392505050565b60006020828403121561033b57600080fd5b5035919050565b80356001600160a01b038116811461035957600080fd5b919050565b6000806040838503121561037157600080fd5b8235915061038160208401610342565b90509250929050565b60008060006060848603121561039f57600080fd5b833592506103af60208501610342565b91506103bd60408501610342565b9050925092509256fea2646970667358221220ed698a034179a4eef404d1f69d8f3d0489f2be5f7d221aa54fac9fb38b5592f364736f6c63430008180033608060405234801561001057600080fd5b50610475806100206000396000f3fe608060405234801561001057600080fd5b50600436106100935760003560e01c806370a082311161006657806370a08231146100ff5780639dc29fac1461011f578063a9059cbb14610132578063c1590cd714610145578063dd62ed3e1461014e57600080fd5b8063095ea7b31461009857806318160ddd146100c057806323b872dd146100d757806340c10f19146100ea575b600080fd5b6100ab6100a6366004610348565b610179565b60405190151581526020015b60405180910390f35b6100c960025481565b6040519081526020016100b7565b6100ab6100e5366004610372565b6101a7565b6100fd6100f8366004610348565b610245565b005b6100c961010d3660046103ae565b60006020819052908152604090205481565b6100fd61012d366004610348565b61028f565b6100ab610140366004610348565b6102d0565b620f42406100c9565b6100c961015c3660046103d0565b600160209081526000928352604080842090915290825290205481565b3360009081526001602081815260408084206001600160a01b03871685529091529091208290555b92915050565b6001600160a01b03831660009081526001602090815260408083203384529091528120805483919083906101dc908490610419565b90915550506001600160a01b03841660009081526020819052604081208054849290610209908490610419565b90915550506001600160a01b0383166000908152602081905260408120805484929061023690849061042c565b90915550600195945050505050565b6001600160a01b0382166000908152602081905260408120805483929061026d90849061042c565b925050819055508060026000828254610286919061042c565b90915550505050565b6001600160a01b038216600090815260208190526040812080548392906102b7908490610419565b9250508190555080600260008282546102869190610419565b336000908152602081905260408120805483919083906102f1908490610419565b90915550506001600160a01b0383166000908152602081905260408120805484929061031e90849061042c565b909155506001949350505050565b80356001600160a01b038116811461034357600080fd5b919050565b6000806040838503121561035b57600080fd5b6103648361032c565b946020939093013593505050565b60008060006060848603121561038757600080fd5b6103908461032c565b925061039e6020850161032c565b9150604084013590509250925092565b6000602082840312156103c057600080fd5b6103c98261032c565b9392505050565b600080604083850312156103e357600080fd5b6103ec8361032c565b91506103fa6020840161032c565b90509250929050565b634e487b7160e01b600052601160045260246000fd5b818103818111156101a1576101a1610403565b808201808211156101a1576101a161040356fea2646970667358221220ff2fdfa8eb9581c273ba981385728b000b84387b0cfa3895ffea5835f01fe8e764736f6c63430008180033","opcodes":"PUSH1 0x80 PUSH1 0x40 MSTORE PUSH1 0x1 DUP1 SLOAD PUSH1 0x1 PUSH1 0x1 PUSH1 0xA0 SHL SUB NOT AND ADDRESS OR SWAP1 SSTORE CALLVALUE DUP1 ISZERO PUSH2 0x22 JUMPI PUSH1 0x0 DUP1 REVERT JUMPDEST POP PUSH1 0x40 MLOAD PUSH2 0x2F SWAP1 PUSH2 0x71 JUMP JUMPDEST PUSH1 0x40 MLOAD DUP1 SWAP2 SUB SWAP1 PUSH1 0x0 CREATE DUP1 ISZERO DUP1 ISZERO PUSH2 0x4B JUMPI RETURNDATASIZE PUSH1 0x0 DUP1 RETURNDATACOPY RETURNDATASIZE PUSH1 0x0 REVERT JUMPDEST POP PUSH1 0x0 DUP1 SLOAD PUSH1 0x1 PUSH1 0x1 PUSH1 0xA0 SHL SUB NOT AND PUSH1 0x1 PUSH1 0x1 PUSH1 0xA0 SHL SUB SWAP3 SWAP1 SWAP3 AND SWAP2 SWAP1 SWAP2 OR SWAP1 SSTORE PUSH2 0x7E JUMP JUMPDEST PUSH2 0x495 DUP1 PUSH2 0x489 DUP4 CODECOPY ADD SWAP1 JUMP JUMPDEST PUSH2 0x3FC DUP1 PUSH2 0x8D PUSH1 0x0 CODECOPY PUSH1 0x0 RETURN INVALID PUSH1 0x80 PUSH1 0x40 MSTORE PUSH1 0x4 CALLDATASIZE LT PUSH2 0x86 JUMPI PUSH1 0x0 CALLDATALOAD PUSH1 0xE0 SHR DUP1 PUSH4 0xBA087652 GT PUSH2 0x59 JUMPI DUP1 PUSH4 0xBA087652 EQ PUSH2 0x101 JUMPI DUP1 PUSH4 0xC6E6F592 EQ PUSH2 0x8B JUMPI DUP1 PUSH4 0xC8C3F366 EQ PUSH2 0x121 JUMPI DUP1 PUSH4 0xEF8B30F7 EQ PUSH2 0x8B JUMPI DUP1 PUSH4 0xF1D3C337 EQ PUSH2 0x141 JUMPI PUSH1 0x0 DUP1 REVERT JUMPDEST DUP1 PUSH4 0x7A2D13A EQ PUSH2 0x8B JUMPI DUP1 PUSH4 0x38D52E0F EQ PUSH2 0xBC JUMPI DUP1 PUSH4 0x4CDAD506 EQ PUSH2 0x8B JUMPI DUP1 PUSH4 0x6E553F65 EQ PUSH2 0xEE JUMPI JUMPDEST PUSH1 0x0 DUP1 REVERT JUMPDEST CALLVALUE DUP1 ISZERO PUSH2 0x97 JUMPI PUSH1 0x0 DUP1 REVERT JUMPDEST POP PUSH2 0xA9 PUSH2 0xA6 CALLDATASIZE PUSH1 0x4 PUSH2 0x329 JUMP JUMPDEST SWAP1 JUMP JUMPDEST PUSH1 0x40 MLOAD SWAP1 DUP2 MSTORE PUSH1 0x20 ADD JUMPDEST PUSH1 0x40 MLOAD DUP1 SWAP2 SUB SWAP1 RETURN JUMPDEST CALLVALUE DUP1 ISZERO PUSH2 0xC8 JUMPI PUSH1 0x0 DUP1 REVERT JUMPDEST POP PUSH1 0x1 SLOAD PUSH1 0x1 PUSH1 0x1 PUSH1 0xA0 SHL SUB AND JUMPDEST PUSH1 0x40 MLOAD PUSH1 0x1 PUSH1 0x1 PUSH1 0xA0 SHL SUB SWAP1 SWAP2 AND DUP2 MSTORE PUSH1 0x20 ADD PUSH2 0xB3 JUMP JUMPDEST PUSH2 0xA9 PUSH2 0xFC CALLDATASIZE PUSH1 0x4 PUSH2 0x35E JUMP JUMPDEST PUSH2 0x161 JUMP JUMPDEST CALLVALUE DUP1 ISZERO PUSH2 0x10D JUMPI PUSH1 0x0 DUP1 REVERT JUMPDEST POP PUSH2 0xA9 PUSH2 0x11C CALLDATASIZE PUSH1 0x4 PUSH2 0x38A JUMP JUMPDEST PUSH2 0x224 JUMP JUMPDEST CALLVALUE DUP1 ISZERO PUSH2 0x12D JUMPI PUSH1 0x0 DUP1 REVERT JUMPDEST POP PUSH1 0x0 SLOAD PUSH2 0xD6 SWAP1 PUSH1 0x1 PUSH1 0x1 PUSH1 0xA0 SHL SUB AND DUP2 JUMP JUMPDEST CALLVALUE DUP1 ISZERO PUSH2 0x14D JUMPI PUSH1 0x0 DUP1 REVERT JUMPDEST POP PUSH1 0x1 SLOAD PUSH2 0xD6 SWAP1 PUSH1 0x1 PUSH1 0x1 PUSH1 0xA0 SHL SUB AND DUP2 JUMP JUMPDEST PUSH1 0x0 DUP3 CALLVALUE EQ PUSH2 0x1B7 JUMPI PUSH1 0x40 MLOAD PUSH3 0x461BCD PUSH1 0xE5 SHL DUP2 MSTORE PUSH1 0x20 PUSH1 0x4 DUP3 ADD MSTORE PUSH1 0x1C PUSH1 0x24 DUP3 ADD MSTORE PUSH32 0x4D7573742073656E64206578616374206E61746976652076616C756500000000 PUSH1 0x44 DUP3 ADD MSTORE PUSH1 0x64 ADD JUMPDEST PUSH1 0x40 MLOAD DUP1 SWAP2 SUB SWAP1 REVERT JUMPDEST PUSH1 0x0 SLOAD PUSH1 0x40 MLOAD PUSH4 0x40C10F19 PUSH1 0xE0 SHL DUP2 MSTORE PUSH1 0x1 PUSH1 0x1 PUSH1 0xA0 SHL SUB DUP5 DUP2 AND PUSH1 0x4 DUP4 ADD MSTORE PUSH1 0x24 DUP3 ADD DUP7 SWAP1 MSTORE SWAP1 SWAP2 AND SWAP1 PUSH4 0x40C10F19 SWAP1 PUSH1 0x44 ADD PUSH1 0x0 PUSH1 0x40 MLOAD DUP1 DUP4 SUB DUP2 PUSH1 0x0 DUP8 DUP1 EXTCODESIZE ISZERO DUP1 ISZERO PUSH2 0x205 JUMPI PUSH1 0x0 DUP1 REVERT JUMPDEST POP GAS CALL ISZERO DUP1 ISZERO PUSH2 0x219 JUMPI RETURNDATASIZE PUSH1 0x0 DUP1 RETURNDATACOPY RETURNDATASIZE PUSH1 0x0 REVERT JUMPDEST POP SWAP5 SWAP6 SWAP5 POP POP POP POP POP JUMP JUMPDEST PUSH1 0x0 DUP1 SLOAD PUSH1 0x40 MLOAD PUSH4 0x2770A7EB PUSH1 0xE2 SHL DUP2 MSTORE PUSH1 0x1 PUSH1 0x1 PUSH1 0xA0 SHL SUB DUP5 DUP2 AND PUSH1 0x4 DUP4 ADD MSTORE PUSH1 0x24 DUP3 ADD DUP8 SWAP1 MSTORE SWAP1 SWAP2 AND SWAP1 PUSH4 0x9DC29FAC SWAP1 PUSH1 0x44 ADD PUSH1 0x0 PUSH1 0x40 MLOAD DUP1 DUP4 SUB DUP2 PUSH1 0x0 DUP8 DUP1 EXTCODESIZE ISZERO DUP1 ISZERO PUSH2 0x273 JUMPI PUSH1 0x0 DUP1 REVERT JUMPDEST POP GAS CALL ISZERO DUP1 ISZERO PUSH2 0x287 JUMPI RETURNDATASIZE PUSH1 0x0 DUP1 RETURNDATACOPY RETURNDATASIZE PUSH1 0x0 REVERT JUMPDEST POP POP POP POP PUSH1 0x0 DUP4 PUSH1 0x1 PUSH1 0x1 PUSH1 0xA0 SHL SUB AND DUP6 PUSH1 0x40 MLOAD PUSH1 0x0 PUSH1 0x40 MLOAD DUP1 DUP4 SUB DUP2 DUP6 DUP8 GAS CALL SWAP3 POP POP POP RETURNDATASIZE DUP1 PUSH1 0x0 DUP2 EQ PUSH2 0x2D8 JUMPI PUSH1 0x40 MLOAD SWAP2 POP PUSH1 0x1F NOT PUSH1 0x3F RETURNDATASIZE ADD AND DUP3 ADD PUSH1 0x40 MSTORE RETURNDATASIZE DUP3 MSTORE RETURNDATASIZE PUSH1 0x0 PUSH1 0x20 DUP5 ADD RETURNDATACOPY PUSH2 0x2DD JUMP JUMPDEST PUSH1 0x60 SWAP2 POP JUMPDEST POP POP SWAP1 POP DUP1 PUSH2 0x320 JUMPI PUSH1 0x40 MLOAD PUSH3 0x461BCD PUSH1 0xE5 SHL DUP2 MSTORE PUSH1 0x20 PUSH1 0x4 DUP3 ADD MSTORE PUSH1 0xF PUSH1 0x24 DUP3 ADD MSTORE PUSH15 0x151C985B9CD9995C8819985A5B1959 PUSH1 0x8A SHL PUSH1 0x44 DUP3 ADD MSTORE PUSH1 0x64 ADD PUSH2 0x1AE JUMP JUMPDEST POP SWAP3 SWAP4 SWAP3 POP POP POP JUMP JUMPDEST PUSH1 0x0 PUSH1 0x20 DUP3 DUP5 SUB SLT ISZERO PUSH2 0x33B JUMPI PUSH1 0x0 DUP1 REVERT JUMPDEST POP CALLDATALOAD SWAP2 SWAP1 POP JUMP JUMPDEST DUP1 CALLDATALOAD PUSH1 0x1 PUSH1 0x1 PUSH1 0xA0 SHL SUB DUP2 AND DUP2 EQ PUSH2 0x359 JUMPI PUSH1 0x0 DUP1 REVERT JUMPDEST SWAP2 SWAP1 POP JUMP JUMPDEST PUSH1 0x0 DUP1 PUSH1 0x40 DUP4 DUP6 SUB SLT ISZERO PUSH2 0x371 JUMPI PUSH1 0x0 DUP1 REVERT JUMPDEST DUP3 CALLDATALOAD SWAP2 POP PUSH2 0x381 PUSH1 0x20 DUP5 ADD PUSH2 0x342 JUMP JUMPDEST SWAP1 POP SWAP3 POP SWAP3 SWAP1 POP JUMP JUMPDEST PUSH1 0x0 DUP1 PUSH1 0x0 PUSH1 0x60 DUP5 DUP7 SUB SLT ISZERO PUSH2 0x39F JUMPI PUSH1 0x0 DUP1 REVERT JUMPDEST DUP4 CALLDATALOAD SWAP3 POP PUSH2 0x3AF PUSH1 0x20 DUP6 ADD PUSH2 0x342 JUMP JUMPDEST SWAP2 POP PUSH2 0x3BD PUSH1 0x40 DUP6 ADD PUSH2 0x342 JUMP JUMPDEST SWAP1 POP SWAP3 POP SWAP3 POP SWAP3 JUMP INVALID LOG2 PUSH5 0x6970667358 0x22 SLT KECCAK256 0xED PUSH10 0x8A034179A4EEF404D1F6 SWAP14 DUP16 RETURNDATASIZE DIV DUP10 CALLCODE 0xBE PUSH0 PUSH30 0x221AA54FAC9FB38B5592F364736F6C634300081800336080604052348015 PUSH2 0x10 JUMPI PUSH1 0x0 DUP1 REVERT JUMPDEST POP PUSH2 0x475 DUP1 PUSH2 0x20 PUSH1 0x0 CODECOPY PUSH1 0x0 RETURN INVALID PUSH1 0x80 PUSH1 0x40 MSTORE CALLVALUE DUP1 ISZERO PUSH2 0x10 JUMPI PUSH1 0x0 DUP1 REVERT JUMPDEST POP PUSH1 0x4 CALLDATASIZE LT PUSH2 0x93 JUMPI PUSH1 0x0 CALLDATALOAD PUSH1 0xE0 SHR DUP1 PUSH4 0x70A08231 GT PUSH2 0x66 JUMPI DUP1 PUSH4 0x70A08231 EQ PUSH2 0xFF JUMPI DUP1 PUSH4 0x9DC29FAC EQ PUSH2 0x11F JUMPI DUP1 PUSH4 0xA9059CBB EQ PUSH2 0x132 JUMPI DUP1 PUSH4 0xC1590CD7 EQ PUSH2 0x145 JUMPI DUP1 PUSH4 0xDD62ED3E EQ PUSH2 0x14E JUMPI PUSH1 0x0 DUP1 REVERT JUMPDEST DUP1 PUSH4 0x95EA7B3 EQ PUSH2 0x98 JUMPI DUP1 PUSH4 0x18160DDD EQ PUSH2 0xC0 JUMPI DUP1 PUSH4 0x23B872DD EQ PUSH2 0xD7 JUMPI DUP1 PUSH4 0x40C10F19 EQ PUSH2 0xEA JUMPI JUMPDEST PUSH1 0x0 DUP1 REVERT JUMPDEST PUSH2 0xAB PUSH2 0xA6 CALLDATASIZE PUSH1 0x4 PUSH2 0x348 JUMP JUMPDEST PUSH2 0x179 JUMP JUMPDEST PUSH1 0x40 MLOAD SWAP1 ISZERO ISZERO DUP2 MSTORE PUSH1 0x20 ADD JUMPDEST PUSH1 0x40 MLOAD DUP1 SWAP2 SUB SWAP1 RETURN JUMPDEST PUSH2 0xC9 PUSH1 0x2 SLOAD DUP2 JUMP JUMPDEST PUSH1 0x40 MLOAD SWAP1 DUP2 MSTORE PUSH1 0x20 ADD PUSH2 0xB7 JUMP JUMPDEST PUSH2 0xAB PUSH2 0xE5 CALLDATASIZE PUSH1 0x4 PUSH2 0x372 JUMP JUMPDEST PUSH2 0x1A7 JUMP JUMPDEST PUSH2 0xFD PUSH2 0xF8 CALLDATASIZE PUSH1 0x4 PUSH2 0x348 JUMP JUMPDEST PUSH2 0x245 JUMP JUMPDEST STOP JUMPDEST PUSH2 0xC9 PUSH2 0x10D CALLDATASIZE PUSH1 0x4 PUSH2 0x3AE JUMP JUMPDEST PUSH1 0x0 PUSH1 0x20 DUP2 SWAP1 MSTORE SWAP1 DUP2 MSTORE PUSH1 0x40 SWAP1 KECCAK256 SLOAD DUP2 JUMP JUMPDEST PUSH2 0xFD PUSH2 0x12D CALLDATASIZE PUSH1 0x4 PUSH2 0x348 JUMP JUMPDEST PUSH2 0x28F JUMP JUMPDEST PUSH2 0xAB PUSH2 0x140 CALLDATASIZE PUSH1 0x4 PUSH2 0x348 JUMP JUMPDEST PUSH2 0x2D0 JUMP JUMPDEST PUSH3 0xF4240 PUSH2 0xC9 JUMP JUMPDEST PUSH2 0xC9 PUSH2 0x15C CALLDATASIZE PUSH1 0x4 PUSH2 0x3D0 JUMP JUMPDEST PUSH1 0x1 PUSH1 0x20 SWAP1 DUP2 MSTORE PUSH1 0x0 SWAP3 DUP4 MSTORE PUSH1 0x40 DUP1 DUP5 KECCAK256 SWAP1 SWAP2 MSTORE SWAP1 DUP3 MSTORE SWAP1 KECCAK256 SLOAD DUP2 JUMP JUMPDEST CALLER PUSH1 0x0 SWAP1 DUP2 MSTORE PUSH1 0x1 PUSH1 0x20 DUP2 DUP2 MSTORE PUSH1 0x40 DUP1 DUP5 KECCAK256 PUSH1 0x1 PUSH1 0x1 PUSH1 0xA0 SHL SUB DUP8 AND DUP6 MSTORE SWAP1 SWAP2 MSTORE SWAP1 SWAP2 KECCAK256 DUP3 SWAP1 SSTORE JUMPDEST SWAP3 SWAP2 POP POP JUMP JUMPDEST PUSH1 0x1 PUSH1 0x1 PUSH1 0xA0 SHL SUB DUP4 AND PUSH1 0x0 SWAP1 DUP2 MSTORE PUSH1 0x1 PUSH1 0x20 SWAP1 DUP2 MSTORE PUSH1 0x40 DUP1 DUP4 KECCAK256 CALLER DUP5 MSTORE SWAP1 SWAP2 MSTORE DUP2 KECCAK256 DUP1 SLOAD DUP4 SWAP2 SWAP1 DUP4 SWAP1 PUSH2 0x1DC SWAP1 DUP5 SWAP1 PUSH2 0x419 JUMP JUMPDEST SWAP1 SWAP2 SSTORE POP POP PUSH1 0x1 PUSH1 0x1 PUSH1 0xA0 SHL SUB DUP5 AND PUSH1 0x0 SWAP1 DUP2 MSTORE PUSH1 0x20 DUP2 SWAP1 MSTORE PUSH1 0x40 DUP2 KECCAK256 DUP1 SLOAD DUP5 SWAP3 SWAP1 PUSH2 0x209 SWAP1 DUP5 SWAP1 PUSH2 0x419 JUMP JUMPDEST SWAP1 SWAP2 SSTORE POP POP PUSH1 0x1 PUSH1 0x1 PUSH1 0xA0 SHL SUB DUP4 AND PUSH1 0x0 SWAP1 DUP2 MSTORE PUSH1 0x20 DUP2 SWAP1 MSTORE PUSH1 0x40 DUP2 KECCAK256 DUP1 SLOAD DUP5 SWAP3 SWAP1 PUSH2 0x236 SWAP1 DUP5 SWAP1 PUSH2 0x42C JUMP JUMPDEST SWAP1 SWAP2 SSTORE POP PUSH1 0x1 SWAP6 SWAP5 POP POP POP POP POP JUMP JUMPDEST PUSH1 0x1 PUSH1 0x1 PUSH1 0xA0 SHL SUB DUP3 AND PUSH1 0x0 SWAP1 DUP2 MSTORE PUSH1 0x20 DUP2 SWAP1 MSTORE PUSH1 0x40 DUP2 KECCAK256 DUP1 SLOAD DUP4 SWAP3 SWAP1 PUSH2 0x26D SWAP1 DUP5 SWAP1 PUSH2 0x42C JUMP JUMPDEST SWAP3 POP POP DUP2 SWAP1 SSTORE POP DUP1 PUSH1 0x2 PUSH1 0x0 DUP3 DUP3 SLOAD PUSH2 0x286 SWAP2 SWAP1 PUSH2 0x42C JUMP JUMPDEST SWAP1 SWAP2 SSTORE POP POP POP POP JUMP JUMPDEST PUSH1 0x1 PUSH1 0x1 PUSH1 0xA0 SHL SUB DUP3 AND PUSH1 0x0 SWAP1 DUP2 MSTORE PUSH1 0x20 DUP2 SWAP1 MSTORE PUSH1 0x40 DUP2 KECCAK256 DUP1 SLOAD DUP4 SWAP3 SWAP1 PUSH2 0x2B7 SWAP1 DUP5 SWAP1 PUSH2 0x419 JUMP JUMPDEST SWAP3 POP POP DUP2 SWAP1 SSTORE POP DUP1 PUSH1 0x2 PUSH1 0x0 DUP3 DUP3 SLOAD PUSH2 0x286 SWAP2 SWAP1 PUSH2 0x419 JUMP JUMPDEST CALLER PUSH1 0x0 SWAP1 DUP2 MSTORE PUSH1 0x20 DUP2 SWAP1 MSTORE PUSH1 0x40 DUP2 KECCAK256 DUP1 SLOAD DUP4 SWAP2 SWAP1 DUP4 SWAP1 PUSH2 0x2F1 SWAP1 DUP5 SWAP1 PUSH2 0x419 JUMP JUMPDEST SWAP1 SWAP2 SSTORE POP POP PUSH1 0x1 PUSH1 0x1 PUSH1 0xA0 SHL SUB DUP4 AND PUSH1 0x0 SWAP1 DUP2 MSTORE PUSH1 0x20 DUP2 SWAP1 MSTORE PUSH1 0x40 DUP2 KECCAK256 DUP1 SLOAD DUP5 SWAP3 SWAP1 PUSH2 0x31E SWAP1 DUP5 SWAP1 PUSH2 0x42C JUMP JUMPDEST SWAP1 SWAP2 SSTORE POP PUSH1 0x1 SWAP5 SWAP4 POP POP POP POP JUMP JUMPDEST DUP1 CALLDATALOAD PUSH1 0x1 PUSH1 0x1 PUSH1 0xA0 SHL SUB DUP2 AND DUP2 EQ PUSH2 0x343 JUMPI PUSH1 0x0 DUP1 REVERT JUMPDEST SWAP2 SWAP1 POP JUMP JUMPDEST PUSH1 0x0 DUP1 PUSH1 0x40 DUP4 DUP6 SUB SLT ISZERO PUSH2 0x35B JUMPI PUSH1 0x0 DUP1 REVERT JUMPDEST PUSH2 0x364 DUP4 PUSH2 0x32C JUMP JUMPDEST SWAP5 PUSH1 0x20 SWAP4 SWAP1 SWAP4 ADD CALLDATALOAD SWAP4 POP POP POP JUMP JUMPDEST PUSH1 0x0 DUP1 PUSH1 0x0 PUSH1 0x60 DUP5 DUP7 SUB SLT ISZERO PUSH2 0x387 JUMPI PUSH1 0x0 DUP1 REVERT JUMPDEST PUSH2 0x390 DUP5 PUSH2 0x32C JUMP JUMPDEST SWAP3 POP PUSH2 0x39E PUSH1 0x20 DUP6 ADD PUSH2 0x32C JUMP JUMPDEST SWAP2 POP PUSH1 0x40 DUP5 ADD CALLDATALOAD SWAP1 POP SWAP3 POP SWAP3 POP SWAP3 JUMP JUMPDEST PUSH1 0x0 PUSH1 0x20 DUP3 DUP5 SUB SLT ISZERO PUSH2 0x3C0 JUMPI PUSH1 0x0 DUP1 REVERT JUMPDEST PUSH2 0x3C9 DUP3 PUSH2 0x32C JUMP JUMPDEST SWAP4 SWAP3 POP POP POP JUMP JUMPDEST PUSH1 0x0 DUP1 PUSH1 0x40 DUP4 DUP6 SUB SLT ISZERO PUSH2 0x3E3 JUMPI PUSH1 0x0 DUP1 REVERT JUMPDEST PUSH2 0x3EC DUP4 PUSH2 0x32C JUMP JUMPDEST SWAP2 POP PUSH2 0x3FA PUSH1 0x20 DUP5 ADD PUSH2 0x32C JUMP JUMPDEST SWAP1 POP SWAP3 POP SWAP3 SWAP1 POP JUMP JUMPDEST PUSH4 0x4E487B71 PUSH1 0xE0 SHL PUSH1 0x0 MSTORE PUSH1 0x11 PUSH1 0x4 MSTORE PUSH1 0x24 PUSH1 0x0 REVERT JUMPDEST DUP2 DUP2 SUB DUP2 DUP2 GT ISZERO PUSH2 0x1A1 JUMPI PUSH2 0x1A1 PUSH2 0x403 JUMP JUMPDEST DUP1 DUP3 ADD DUP1 DUP3 GT ISZERO PUSH2 0x1A1 JUMPI PUSH2 0x1A1 PUSH2 0x403 JUMP INVALID LOG2 PUSH5 0x6970667358 0x22 SLT KECCAK256 SELFDESTRUCT 0x2F 0xDF 0xA8 0xEB SWAP6 DUP2 0xC2 PUSH20 0xBA981385728B000B84387B0CFA3895FFEA5835F0 0x1F 0xE8 0xE7 PUSH5 0x736F6C6343 STOP ADDMOD XOR STOP CALLER "},"methodIdentifiers":{"asset()":"38d52e0f","convertToAssets(uint256)":"07a2d13a","convertToShares(uint256)":"c6e6f592","deposit(uint256,address)":"6e553f65","dummyAsset()":"f1d3c337","previewDeposit(uint256)":"ef8b30f7","previewRedeem(uint256)":"4cdad506","redeem(uint256,address,address)":"ba087652","usycToken()":"c8c3f366"}}}}}