{"contracts/ReaderVault.sol":{"ReaderVault":{"abi":[{"inputs":[{"internalType":"address","name":"_usycToken","type":"address"},{"internalType":"address","name":"_teller","type":"address"},{"internalType":"address","name":"_writerVault","type":"address"}],"stateMutability":"nonpayable","type":"constructor"},{"inputs":[],"name":"ArrayLengthMismatch","type":"error"},{"inputs":[],"name":"InsufficientBalance","type":"error"},{"inputs":[],"name":"TransferFailed","type":"error"},{"anonymous":false,"inputs":[{"indexed":true,"internalType":"address","name":"reader","type":"address"},{"indexed":false,"internalType":"uint256","name":"totalFee","type":"uint256"},{"indexed":false,"internalType":"uint256","name":"platformFee","type":"uint256"}],"name":"AgentSearchPaid","type":"event"},{"anonymous":false,"inputs":[{"indexed":true,"internalType":"address","name":"reader","type":"address"},{"indexed":true,"internalType":"address","name":"writer","type":"address"},{"indexed":false,"internalType":"string","name":"slug","type":"string"},{"indexed":false,"internalType":"uint256","name":"usdcPaid","type":"uint256"}],"name":"ArticleRead","type":"event"},{"anonymous":false,"inputs":[{"indexed":true,"internalType":"address","name":"reader","type":"address"},{"indexed":true,"internalType":"address","name":"writer","type":"address"},{"indexed":false,"internalType":"string","name":"slug","type":"string"},{"indexed":false,"internalType":"uint256","name":"usdcPaid","type":"uint256"}],"name":"ClapPaid","type":"event"},{"anonymous":false,"inputs":[{"indexed":true,"internalType":"address","name":"reader","type":"address"},{"indexed":true,"internalType":"address","name":"writer","type":"address"},{"indexed":false,"internalType":"string","name":"slug","type":"string"},{"indexed":false,"internalType":"uint256","name":"usdcPaid","type":"uint256"},{"indexed":false,"internalType":"string","name":"commentHash","type":"string"}],"name":"CommentPaid","type":"event"},{"anonymous":false,"inputs":[{"indexed":true,"internalType":"address","name":"reader","type":"address"},{"indexed":false,"internalType":"uint256","name":"usdcAmount","type":"uint256"},{"indexed":false,"internalType":"uint256","name":"usycMinted","type":"uint256"}],"name":"Deposited","type":"event"},{"anonymous":false,"inputs":[{"indexed":true,"internalType":"address","name":"reader","type":"address"},{"indexed":false,"internalType":"uint256","name":"usdcAmount","type":"uint256"}],"name":"Withdrawn","type":"event"},{"inputs":[],"name":"FLOAT_AMOUNT","outputs":[{"internalType":"uint256","name":"","type":"uint256"}],"stateMutability":"view","type":"function"},{"inputs":[],"name":"PLATFORM_FEE","outputs":[{"internalType":"uint256","name":"","type":"uint256"}],"stateMutability":"view","type":"function"},{"inputs":[{"internalType":"address","name":"reader","type":"address"}],"name":"activityOf","outputs":[{"internalType":"uint256","name":"reads","type":"uint256"},{"internalType":"uint256","name":"claps","type":"uint256"},{"internalType":"uint256","name":"comments","type":"uint256"}],"stateMutability":"view","type":"function"},{"inputs":[{"internalType":"address","name":"reader","type":"address"}],"name":"balanceOf","outputs":[{"internalType":"uint256","name":"usdcBalance","type":"uint256"},{"internalType":"uint256","name":"usycBalance","type":"uint256"},{"internalType":"uint256","name":"estimatedUsdcValue","type":"uint256"}],"stateMutability":"view","type":"function"},{"inputs":[],"name":"deposit","outputs":[],"stateMutability":"payable","type":"function"},{"inputs":[],"name":"owner","outputs":[{"internalType":"address","name":"","type":"address"}],"stateMutability":"view","type":"function"},{"inputs":[{"internalType":"address","name":"reader","type":"address"},{"internalType":"address[]","name":"writers","type":"address[]"},{"internalType":"string[]","name":"slugs","type":"string[]"},{"internalType":"uint256[]","name":"authorShares","type":"uint256[]"},{"internalType":"uint256","name":"totalPrice","type":"uint256"}],"name":"payForAgentSearch","outputs":[],"stateMutability":"nonpayable","type":"function"},{"inputs":[{"internalType":"address","name":"reader","type":"address"},{"internalType":"address","name":"writer","type":"address"},{"internalType":"string","name":"slug","type":"string"}],"name":"payForClap","outputs":[],"stateMutability":"nonpayable","type":"function"},{"inputs":[{"internalType":"address","name":"reader","type":"address"},{"internalType":"address","name":"writer","type":"address"},{"internalType":"string","name":"slug","type":"string"},{"internalType":"uint256","name":"price","type":"uint256"},{"internalType":"string","name":"commentHash","type":"string"}],"name":"payForComment","outputs":[],"stateMutability":"nonpayable","type":"function"},{"inputs":[{"internalType":"address","name":"reader","type":"address"},{"internalType":"address","name":"writer","type":"address"},{"internalType":"string","name":"slug","type":"string"},{"internalType":"uint256","name":"price","type":"uint256"}],"name":"payForRead","outputs":[],"stateMutability":"nonpayable","type":"function"},{"inputs":[],"name":"teller","outputs":[{"internalType":"contract ITeller","name":"","type":"address"}],"stateMutability":"view","type":"function"},{"inputs":[{"internalType":"address","name":"","type":"address"}],"name":"totalClapsGiven","outputs":[{"internalType":"uint256","name":"","type":"uint256"}],"stateMutability":"view","type":"function"},{"inputs":[{"internalType":"address","name":"","type":"address"}],"name":"totalCommentsGiven","outputs":[{"internalType":"uint256","name":"","type":"uint256"}],"stateMutability":"view","type":"function"},{"inputs":[{"internalType":"address","name":"","type":"address"}],"name":"totalReadsPerformed","outputs":[{"internalType":"uint256","name":"","type":"uint256"}],"stateMutability":"view","type":"function"},{"inputs":[{"internalType":"address","name":"","type":"address"}],"name":"usdcFloat","outputs":[{"internalType":"uint256","name":"","type":"uint256"}],"stateMutability":"view","type":"function"},{"inputs":[{"internalType":"address","name":"","type":"address"}],"name":"usycStaked","outputs":[{"internalType":"uint256","name":"","type":"uint256"}],"stateMutability":"view","type":"function"},{"inputs":[],"name":"usycToken","outputs":[{"internalType":"contract IUSYC","name":"","type":"address"}],"stateMutability":"view","type":"function"},{"inputs":[],"name":"withdraw","outputs":[],"stateMutability":"nonpayable","type":"function"},{"inputs":[],"name":"writerVault","outputs":[{"internalType":"address","name":"","type":"address"}],"stateMutability":"view","type":"function"},{"stateMutability":"payable","type":"receive"}],"evm":{"bytecode":{"linkReferences":{},"object":"6101006040523480156200001257600080fd5b5060405162001a4938038062001a49833981016040819052620000359162000074565b6001600160a01b0392831660805290821660a0521660c0523360e052620000be565b80516001600160a01b03811681146200006f57600080fd5b919050565b6000806000606084860312156200008a57600080fd5b620000958462000057565b9250620000a56020850162000057565b9150620000b56040850162000057565b90509250925092565b60805160a05160c05160e0516118f662000153600039600081816102ab01528181610aa90152818161100b01526112e5015260008181610191015281816109ba015281816110b4015261138e01526000818161020f015281816104af015281816106370152818161079e015281816108a001528181610dd40152818161114101526112430152600061039901526118f66000f3fe6080604052600436106101185760003560e01c80639b185757116100a0578063cfe2d66811610064578063cfe2d668146103bb578063d0e30db0146103db578063d89ca275146103e3578063e2745d8514610403578063e885c5421461043057600080fd5b80639b185757146102cd578063abb62556146102fa578063bd96b12314610347578063c37fdd7214610367578063c8c3f3661461038757600080fd5b80634cc61391116100e75780634cc61391146101e257806357edab4e146101fd57806370a082311461023157806377c947f81461026c5780638da5cb5b1461029957600080fd5b80632790fb4d1461012457806334fbc9a11461016457806335d299091461017f5780633ccfd60b146101cb57600080fd5b3661011f57005b600080fd5b34801561013057600080fd5b5061015161013f366004611467565b60026020526000908152604090205481565b6040519081526020015b60405180910390f35b34801561017057600080fd5b5061015166038d7ea4c6800081565b34801561018b57600080fd5b506101b37f000000000000000000000000000000000000000000000000000000000000000081565b6040516001600160a01b03909116815260200161015b565b3480156101d757600080fd5b506101e061045d565b005b3480156101ee57600080fd5b50610151662386f26fc1000081565b34801561020957600080fd5b506101b37f000000000000000000000000000000000000000000000000000000000000000081565b34801561023d57600080fd5b5061025161024c366004611467565b6105f9565b6040805193845260208401929092529082015260600161015b565b34801561027857600080fd5b50610151610287366004611467565b60006020819052908152604090205481565b3480156102a557600080fd5b506101b37f000000000000000000000000000000000000000000000000000000000000000081565b3480156102d957600080fd5b506101516102e8366004611467565b60036020526000908152604090205481565b34801561030657600080fd5b50610251610315366004611467565b6001600160a01b0316600090815260026020908152604080832054600383528184205460049093529220549192909190565b34801561035357600080fd5b506101e06103623660046114d5565b6106b6565b34801561037357600080fd5b506101e06103823660046115c9565b610b8c565b34801561039357600080fd5b506101b37f000000000000000000000000000000000000000000000000000000000000000081565b3480156103c757600080fd5b506101e06103d636600461162a565b610c2b565b6101e0610cde565b3480156103ef57600080fd5b506101e06103fe366004611693565b610eb8565b34801561040f57600080fd5b5061015161041e366004611467565b60016020526000908152604090205481565b34801561043c57600080fd5b5061015161044b366004611467565b60046020526000908152604090205481565b3360009081526020818152604080832080546001909352908320805491849055929092559081811561053457604051635d043b2960e11b815260048101839052306024820181905260448201526000907f00000000000000000000000000000000000000000000000000000000000000006001600160a01b03169063ba087652906064016020604051808303816000875af1158015610500573d6000803e3d6000fd5b505050506040513d601f19601f82011682018060405250810190610524919061172e565b9050610530818361175d565b9150505b8060000361055557604051631e9acf1760e31b815260040160405180910390fd5b604051600090339083908381818185875af1925050503d8060008114610597576040519150601f19603f3d011682016040523d82523d6000602084013e61059c565b606091505b50509050806105be576040516312171d8360e31b815260040160405180910390fd5b60405182815233907f7084f5476618d8e60b11ef0d7d3f06914655adb8793e28ff7f018d4c76d505d59060200160405180910390a250505050565b6001600160a01b038181166000908152602081815260408083205460019092528083205490516303d1689d60e11b81526004810182905291939092917f0000000000000000000000000000000000000000000000000000000000000000909116906307a2d13a90602401602060405180830381865afa158015610680573d6000803e3d6000fd5b505050506040513d601f19601f820116820180604052508101906106a4919061172e565b6106ae908461175d565b929491935050565b85841415806106c55750858214155b156106e35760405163512509d360e11b815260040160405180910390fd5b600081116107315760405162461bcd60e51b8152602060048201526016602482015275053656172636820666565206d757374206265203e20360541b60448201526064015b60405180910390fd5b6001600160a01b03881660009081526020819052604081205490828210610785576001600160a01b038a166000908152602081905260408120805485929061077a908490611776565b9091555061097b9050565b6040516363737ac960e11b8152600481018490526000907f00000000000000000000000000000000000000000000000000000000000000006001600160a01b03169063c6e6f59290602401602060405180830381865afa1580156107ed573d6000803e3d6000fd5b505050506040513d601f19601f82011682018060405250810190610811919061172e565b6001600160a01b038c1660009081526001602052604090205490915081111561084d57604051631e9acf1760e31b815260040160405180910390fd5b6001600160a01b038b1660009081526001602052604081208054839290610875908490611776565b9091555050604051635d043b2960e11b815260048101829052306024820181905260448201526000907f00000000000000000000000000000000000000000000000000000000000000006001600160a01b03169063ba087652906064016020604051808303816000875af11580156108f1573d6000803e3d6000fd5b505050506040513d601f19601f82011682018060405250810190610915919061172e565b90508481101561093857604051631e9acf1760e31b815260040160405180910390fd5b848111156109785761094a8582611776565b6001600160a01b038d166000908152602081905260408120805490919061097290849061175d565b90915550505b50505b60005b88811015610a9057600086868381811061099a5761099a611789565b9050602002013590506000811115610a87576109b6818461175d565b92507f00000000000000000000000000000000000000000000000000000000000000006001600160a01b031663bfbd9795828d8d868181106109fa576109fa611789565b9050602002016020810190610a0f9190611467565b8c8c87818110610a2157610a21611789565b9050602002810190610a33919061179f565b60036040518663ffffffff1660e01b8152600401610a54949392919061180f565b6000604051808303818588803b158015610a6d57600080fd5b505af1158015610a81573d6000803e3d6000fd5b50505050505b5060010161097e565b506000610a9d8285611776565b90508015610b3b5760007f00000000000000000000000000000000000000000000000000000000000000006001600160a01b03168260405160006040518083038185875af1925050503d8060008114610b12576040519150601f19603f3d011682016040523d82523d6000602084013e610b17565b606091505b5050905080610b39576040516312171d8360e31b815260040160405180910390fd5b505b60408051858152602081018390526001600160a01b038d16917f7cfe7feeaf05128465e7e59a67c9bcd580388d8f5427d50bafb5ea6c00658109910160405180910390a25050505050505050505050565b66038d7ea4c68000610ba5858585858560006001610fa5565b6001600160a01b0385166000908152600360205260408120805460019290610bce90849061175d565b92505081905550836001600160a01b0316856001600160a01b03167fd0c53b207d305122b5aacd8b1f0fe866b2d54d178855a898537f585da629711e858585604051610c1c93929190611863565b60405180910390a35050505050565b6000610c3e66038d7ea4c680008361175d565b9050610c57868686868566038d7ea4c680006000610fa5565b6001600160a01b0386166000908152600260205260408120805460019290610c8090849061175d565b92505081905550846001600160a01b0316866001600160a01b03167f97be2867c06e807cd1c22a8bcf41d1a21da278ceb4db53ed9914bfba0228f953868685604051610cce93929190611863565b60405180910390a3505050505050565b3480610d2c5760405162461bcd60e51b815260206004820152601d60248201527f416d6f756e74206d7573742062652067726561746572207468616e20300000006044820152606401610728565b3360009081526020819052604081205490662386f26fc10000821015610d6257610d5d82662386f26fc10000611776565b610d65565b60005b90506000818410610d765781610d78565b835b90506000610d868286611776565b33600090815260208190526040812080549293508492909190610daa90849061175d565b90915550600090508115610e7557604051636e553f6560e01b8152600481018390523060248201527f00000000000000000000000000000000000000000000000000000000000000006001600160a01b031690636e553f6590849060440160206040518083038185885af1158015610e26573d6000803e3d6000fd5b50505050506040513d601f19601f82011682018060405250810190610e4b919061172e565b33600090815260016020526040812080549293508392909190610e6f90849061175d565b90915550505b604080518781526020810183905233917f73a19dd210f1a7f902193214c0ee91dd35ee5b4d920cba8d519eca65a7b488ca910160405180910390a2505050505050565b60008311610f085760405162461bcd60e51b815260206004820152601960248201527f436f6d6d656e74207072696365206d757374206265203e2030000000000000006044820152606401610728565b610f19878787878760006002610fa5565b6001600160a01b0387166000908152600460205260408120805460019290610f4290849061175d565b92505081905550856001600160a01b0316876001600160a01b03167fd23deecd596f2ffe93f23dc134450bbaec983c3a2ac4c92abfb3c37b5e782b358787878787604051610f94959493929190611887565b60405180910390a350505050505050565b6000610fb18385611776565b6001600160a01b038916600090815260208190526040902054909150848110611128576001600160a01b03891660009081526020819052604081208054879290610ffc908490611776565b9091555050831561109d5760007f00000000000000000000000000000000000000000000000000000000000000006001600160a01b03168560405160006040518083038185875af1925050503d8060008114611074576040519150601f19603f3d011682016040523d82523d6000602084013e611079565b606091505b505090508061109b576040516312171d8360e31b815260040160405180910390fd5b505b60405163bfbd979560e01b81526001600160a01b037f0000000000000000000000000000000000000000000000000000000000000000169063bfbd97959084906110f1908c908c908c908a9060040161180f565b6000604051808303818588803b15801561110a57600080fd5b505af115801561111e573d6000803e3d6000fd5b5050505050611440565b6040516363737ac960e11b8152600481018690526000907f00000000000000000000000000000000000000000000000000000000000000006001600160a01b03169063c6e6f59290602401602060405180830381865afa158015611190573d6000803e3d6000fd5b505050506040513d601f19601f820116820180604052508101906111b4919061172e565b6001600160a01b038b166000908152600160205260409020549091508111156111f057604051631e9acf1760e31b815260040160405180910390fd5b6001600160a01b038a1660009081526001602052604081208054839290611218908490611776565b9091555050604051635d043b2960e11b815260048101829052306024820181905260448201526000907f00000000000000000000000000000000000000000000000000000000000000006001600160a01b03169063ba087652906064016020604051808303816000875af1158015611294573d6000803e3d6000fd5b505050506040513d601f19601f820116820180604052508101906112b8919061172e565b9050868110156112db57604051631e9acf1760e31b815260040160405180910390fd5b85156113775760007f00000000000000000000000000000000000000000000000000000000000000006001600160a01b03168760405160006040518083038185875af1925050503d806000811461134e576040519150601f19603f3d011682016040523d82523d6000602084013e611353565b606091505b5050905080611375576040516312171d8360e31b815260040160405180910390fd5b505b60405163bfbd979560e01b81526001600160a01b037f0000000000000000000000000000000000000000000000000000000000000000169063bfbd97959086906113cb908e908e908e908c9060040161180f565b6000604051808303818588803b1580156113e457600080fd5b505af11580156113f8573d6000803e3d6000fd5b50505050508681111561143d5761140f8782611776565b6001600160a01b038c166000908152602081905260408120805490919061143790849061175d565b90915550505b50505b505050505050505050565b80356001600160a01b038116811461146257600080fd5b919050565b60006020828403121561147957600080fd5b6114828261144b565b9392505050565b60008083601f84011261149b57600080fd5b50813567ffffffffffffffff8111156114b357600080fd5b6020830191508360208260051b85010111156114ce57600080fd5b9250929050565b60008060008060008060008060a0898b0312156114f157600080fd5b6114fa8961144b565b9750602089013567ffffffffffffffff8082111561151757600080fd5b6115238c838d01611489565b909950975060408b013591508082111561153c57600080fd5b6115488c838d01611489565b909750955060608b013591508082111561156157600080fd5b5061156e8b828c01611489565b999c989b50969995989497949560800135949350505050565b60008083601f84011261159957600080fd5b50813567ffffffffffffffff8111156115b157600080fd5b6020830191508360208285010111156114ce57600080fd5b600080600080606085870312156115df57600080fd5b6115e88561144b565b93506115f66020860161144b565b9250604085013567ffffffffffffffff81111561161257600080fd5b61161e87828801611587565b95989497509550505050565b60008060008060006080868803121561164257600080fd5b61164b8661144b565b94506116596020870161144b565b9350604086013567ffffffffffffffff81111561167557600080fd5b61168188828901611587565b96999598509660600135949350505050565b600080600080600080600060a0888a0312156116ae57600080fd5b6116b78861144b565b96506116c56020890161144b565b9550604088013567ffffffffffffffff808211156116e257600080fd5b6116ee8b838c01611587565b909750955060608a0135945060808a013591508082111561170e57600080fd5b5061171b8a828b01611587565b989b979a50959850939692959293505050565b60006020828403121561174057600080fd5b5051919050565b634e487b7160e01b600052601160045260246000fd5b8082018082111561177057611770611747565b92915050565b8181038181111561177057611770611747565b634e487b7160e01b600052603260045260246000fd5b6000808335601e198436030181126117b657600080fd5b83018035915067ffffffffffffffff8211156117d157600080fd5b6020019150368190038213156114ce57600080fd5b81835281816020850137506000828201602090810191909152601f909101601f19169091010190565b6001600160a01b038516815260606020820181905260009061183490830185876117e6565b90506004831061185457634e487b7160e01b600052602160045260246000fd5b82604083015295945050505050565b6040815260006118776040830185876117e6565b9050826020830152949350505050565b60608152600061189b6060830187896117e6565b85602084015282810360408401526118b48185876117e6565b9897505050505050505056fea2646970667358221220bcddc4c68ac8020abe8e60ca628ea15659c19a109618cbbe54d34f0c989139a264736f6c63430008180033","opcodes":"PUSH2 0x100 PUSH1 0x40 MSTORE CALLVALUE DUP1 ISZERO PUSH3 0x12 JUMPI PUSH1 0x0 DUP1 REVERT JUMPDEST POP PUSH1 0x40 MLOAD PUSH3 0x1A49 CODESIZE SUB DUP1 PUSH3 0x1A49 DUP4 CODECOPY DUP2 ADD PUSH1 0x40 DUP2 SWAP1 MSTORE PUSH3 0x35 SWAP2 PUSH3 0x74 JUMP JUMPDEST PUSH1 0x1 PUSH1 0x1 PUSH1 0xA0 SHL SUB SWAP3 DUP4 AND PUSH1 0x80 MSTORE SWAP1 DUP3 AND PUSH1 0xA0 MSTORE AND PUSH1 0xC0 MSTORE CALLER PUSH1 0xE0 MSTORE PUSH3 0xBE JUMP JUMPDEST DUP1 MLOAD PUSH1 0x1 PUSH1 0x1 PUSH1 0xA0 SHL SUB DUP2 AND DUP2 EQ PUSH3 0x6F JUMPI PUSH1 0x0 DUP1 REVERT JUMPDEST SWAP2 SWAP1 POP JUMP JUMPDEST PUSH1 0x0 DUP1 PUSH1 0x0 PUSH1 0x60 DUP5 DUP7 SUB SLT ISZERO PUSH3 0x8A JUMPI PUSH1 0x0 DUP1 REVERT JUMPDEST PUSH3 0x95 DUP5 PUSH3 0x57 JUMP JUMPDEST SWAP3 POP PUSH3 0xA5 PUSH1 0x20 DUP6 ADD PUSH3 0x57 JUMP JUMPDEST SWAP2 POP PUSH3 0xB5 PUSH1 0x40 DUP6 ADD PUSH3 0x57 JUMP JUMPDEST SWAP1 POP SWAP3 POP SWAP3 POP SWAP3 JUMP JUMPDEST PUSH1 0x80 MLOAD PUSH1 0xA0 MLOAD PUSH1 0xC0 MLOAD PUSH1 0xE0 MLOAD PUSH2 0x18F6 PUSH3 0x153 PUSH1 0x0 CODECOPY PUSH1 0x0 DUP2 DUP2 PUSH2 0x2AB ADD MSTORE DUP2 DUP2 PUSH2 0xAA9 ADD MSTORE DUP2 DUP2 PUSH2 0x100B ADD MSTORE PUSH2 0x12E5 ADD MSTORE PUSH1 0x0 DUP2 DUP2 PUSH2 0x191 ADD MSTORE DUP2 DUP2 PUSH2 0x9BA ADD MSTORE DUP2 DUP2 PUSH2 0x10B4 ADD MSTORE PUSH2 0x138E ADD MSTORE PUSH1 0x0 DUP2 DUP2 PUSH2 0x20F ADD MSTORE DUP2 DUP2 PUSH2 0x4AF ADD MSTORE DUP2 DUP2 PUSH2 0x637 ADD MSTORE DUP2 DUP2 PUSH2 0x79E ADD MSTORE DUP2 DUP2 PUSH2 0x8A0 ADD MSTORE DUP2 DUP2 PUSH2 0xDD4 ADD MSTORE DUP2 DUP2 PUSH2 0x1141 ADD MSTORE PUSH2 0x1243 ADD MSTORE PUSH1 0x0 PUSH2 0x399 ADD MSTORE PUSH2 0x18F6 PUSH1 0x0 RETURN INVALID PUSH1 0x80 PUSH1 0x40 MSTORE PUSH1 0x4 CALLDATASIZE LT PUSH2 0x118 JUMPI PUSH1 0x0 CALLDATALOAD PUSH1 0xE0 SHR DUP1 PUSH4 0x9B185757 GT PUSH2 0xA0 JUMPI DUP1 PUSH4 0xCFE2D668 GT PUSH2 0x64 JUMPI DUP1 PUSH4 0xCFE2D668 EQ PUSH2 0x3BB JUMPI DUP1 PUSH4 0xD0E30DB0 EQ PUSH2 0x3DB JUMPI DUP1 PUSH4 0xD89CA275 EQ PUSH2 0x3E3 JUMPI DUP1 PUSH4 0xE2745D85 EQ PUSH2 0x403 JUMPI DUP1 PUSH4 0xE885C542 EQ PUSH2 0x430 JUMPI PUSH1 0x0 DUP1 REVERT JUMPDEST DUP1 PUSH4 0x9B185757 EQ PUSH2 0x2CD JUMPI DUP1 PUSH4 0xABB62556 EQ PUSH2 0x2FA JUMPI DUP1 PUSH4 0xBD96B123 EQ PUSH2 0x347 JUMPI DUP1 PUSH4 0xC37FDD72 EQ PUSH2 0x367 JUMPI DUP1 PUSH4 0xC8C3F366 EQ PUSH2 0x387 JUMPI PUSH1 0x0 DUP1 REVERT JUMPDEST DUP1 PUSH4 0x4CC61391 GT PUSH2 0xE7 JUMPI DUP1 PUSH4 0x4CC61391 EQ PUSH2 0x1E2 JUMPI DUP1 PUSH4 0x57EDAB4E EQ PUSH2 0x1FD JUMPI DUP1 PUSH4 0x70A08231 EQ PUSH2 0x231 JUMPI DUP1 PUSH4 0x77C947F8 EQ PUSH2 0x26C JUMPI DUP1 PUSH4 0x8DA5CB5B EQ PUSH2 0x299 JUMPI PUSH1 0x0 DUP1 REVERT JUMPDEST DUP1 PUSH4 0x2790FB4D EQ PUSH2 0x124 JUMPI DUP1 PUSH4 0x34FBC9A1 EQ PUSH2 0x164 JUMPI DUP1 PUSH4 0x35D29909 EQ PUSH2 0x17F JUMPI DUP1 PUSH4 0x3CCFD60B EQ PUSH2 0x1CB JUMPI PUSH1 0x0 DUP1 REVERT JUMPDEST CALLDATASIZE PUSH2 0x11F JUMPI STOP JUMPDEST PUSH1 0x0 DUP1 REVERT JUMPDEST CALLVALUE DUP1 ISZERO PUSH2 0x130 JUMPI PUSH1 0x0 DUP1 REVERT JUMPDEST POP PUSH2 0x151 PUSH2 0x13F CALLDATASIZE PUSH1 0x4 PUSH2 0x1467 JUMP JUMPDEST PUSH1 0x2 PUSH1 0x20 MSTORE PUSH1 0x0 SWAP1 DUP2 MSTORE PUSH1 0x40 SWAP1 KECCAK256 SLOAD DUP2 JUMP JUMPDEST PUSH1 0x40 MLOAD SWAP1 DUP2 MSTORE PUSH1 0x20 ADD JUMPDEST PUSH1 0x40 MLOAD DUP1 SWAP2 SUB SWAP1 RETURN JUMPDEST CALLVALUE DUP1 ISZERO PUSH2 0x170 JUMPI PUSH1 0x0 DUP1 REVERT JUMPDEST POP PUSH2 0x151 PUSH7 0x38D7EA4C68000 DUP2 JUMP JUMPDEST CALLVALUE DUP1 ISZERO PUSH2 0x18B JUMPI PUSH1 0x0 DUP1 REVERT JUMPDEST POP PUSH2 0x1B3 PUSH32 0x0 DUP2 JUMP JUMPDEST PUSH1 0x40 MLOAD PUSH1 0x1 PUSH1 0x1 PUSH1 0xA0 SHL SUB SWAP1 SWAP2 AND DUP2 MSTORE PUSH1 0x20 ADD PUSH2 0x15B JUMP JUMPDEST CALLVALUE DUP1 ISZERO PUSH2 0x1D7 JUMPI PUSH1 0x0 DUP1 REVERT JUMPDEST POP PUSH2 0x1E0 PUSH2 0x45D JUMP JUMPDEST STOP JUMPDEST CALLVALUE DUP1 ISZERO PUSH2 0x1EE JUMPI PUSH1 0x0 DUP1 REVERT JUMPDEST POP PUSH2 0x151 PUSH7 0x2386F26FC10000 DUP2 JUMP JUMPDEST CALLVALUE DUP1 ISZERO PUSH2 0x209 JUMPI PUSH1 0x0 DUP1 REVERT JUMPDEST POP PUSH2 0x1B3 PUSH32 0x0 DUP2 JUMP JUMPDEST CALLVALUE DUP1 ISZERO PUSH2 0x23D JUMPI PUSH1 0x0 DUP1 REVERT JUMPDEST POP PUSH2 0x251 PUSH2 0x24C CALLDATASIZE PUSH1 0x4 PUSH2 0x1467 JUMP JUMPDEST PUSH2 0x5F9 JUMP JUMPDEST PUSH1 0x40 DUP1 MLOAD SWAP4 DUP5 MSTORE PUSH1 0x20 DUP5 ADD SWAP3 SWAP1 SWAP3 MSTORE SWAP1 DUP3 ADD MSTORE PUSH1 0x60 ADD PUSH2 0x15B JUMP JUMPDEST CALLVALUE DUP1 ISZERO PUSH2 0x278 JUMPI PUSH1 0x0 DUP1 REVERT JUMPDEST POP PUSH2 0x151 PUSH2 0x287 CALLDATASIZE PUSH1 0x4 PUSH2 0x1467 JUMP JUMPDEST PUSH1 0x0 PUSH1 0x20 DUP2 SWAP1 MSTORE SWAP1 DUP2 MSTORE PUSH1 0x40 SWAP1 KECCAK256 SLOAD DUP2 JUMP JUMPDEST CALLVALUE DUP1 ISZERO PUSH2 0x2A5 JUMPI PUSH1 0x0 DUP1 REVERT JUMPDEST POP PUSH2 0x1B3 PUSH32 0x0 DUP2 JUMP JUMPDEST CALLVALUE DUP1 ISZERO PUSH2 0x2D9 JUMPI PUSH1 0x0 DUP1 REVERT JUMPDEST POP PUSH2 0x151 PUSH2 0x2E8 CALLDATASIZE PUSH1 0x4 PUSH2 0x1467 JUMP JUMPDEST PUSH1 0x3 PUSH1 0x20 MSTORE PUSH1 0x0 SWAP1 DUP2 MSTORE PUSH1 0x40 SWAP1 KECCAK256 SLOAD DUP2 JUMP JUMPDEST CALLVALUE DUP1 ISZERO PUSH2 0x306 JUMPI PUSH1 0x0 DUP1 REVERT JUMPDEST POP PUSH2 0x251 PUSH2 0x315 CALLDATASIZE PUSH1 0x4 PUSH2 0x1467 JUMP JUMPDEST PUSH1 0x1 PUSH1 0x1 PUSH1 0xA0 SHL SUB AND PUSH1 0x0 SWAP1 DUP2 MSTORE PUSH1 0x2 PUSH1 0x20 SWAP1 DUP2 MSTORE PUSH1 0x40 DUP1 DUP4 KECCAK256 SLOAD PUSH1 0x3 DUP4 MSTORE DUP2 DUP5 KECCAK256 SLOAD PUSH1 0x4 SWAP1 SWAP4 MSTORE SWAP3 KECCAK256 SLOAD SWAP2 SWAP3 SWAP1 SWAP2 SWAP1 JUMP JUMPDEST CALLVALUE DUP1 ISZERO PUSH2 0x353 JUMPI PUSH1 0x0 DUP1 REVERT JUMPDEST POP PUSH2 0x1E0 PUSH2 0x362 CALLDATASIZE PUSH1 0x4 PUSH2 0x14D5 JUMP JUMPDEST PUSH2 0x6B6 JUMP JUMPDEST CALLVALUE DUP1 ISZERO PUSH2 0x373 JUMPI PUSH1 0x0 DUP1 REVERT JUMPDEST POP PUSH2 0x1E0 PUSH2 0x382 CALLDATASIZE PUSH1 0x4 PUSH2 0x15C9 JUMP JUMPDEST PUSH2 0xB8C JUMP JUMPDEST CALLVALUE DUP1 ISZERO PUSH2 0x393 JUMPI PUSH1 0x0 DUP1 REVERT JUMPDEST POP PUSH2 0x1B3 PUSH32 0x0 DUP2 JUMP JUMPDEST CALLVALUE DUP1 ISZERO PUSH2 0x3C7 JUMPI PUSH1 0x0 DUP1 REVERT JUMPDEST POP PUSH2 0x1E0 PUSH2 0x3D6 CALLDATASIZE PUSH1 0x4 PUSH2 0x162A JUMP JUMPDEST PUSH2 0xC2B JUMP JUMPDEST PUSH2 0x1E0 PUSH2 0xCDE JUMP JUMPDEST CALLVALUE DUP1 ISZERO PUSH2 0x3EF JUMPI PUSH1 0x0 DUP1 REVERT JUMPDEST POP PUSH2 0x1E0 PUSH2 0x3FE CALLDATASIZE PUSH1 0x4 PUSH2 0x1693 JUMP JUMPDEST PUSH2 0xEB8 JUMP JUMPDEST CALLVALUE DUP1 ISZERO PUSH2 0x40F JUMPI PUSH1 0x0 DUP1 REVERT JUMPDEST POP PUSH2 0x151 PUSH2 0x41E CALLDATASIZE PUSH1 0x4 PUSH2 0x1467 JUMP JUMPDEST PUSH1 0x1 PUSH1 0x20 MSTORE PUSH1 0x0 SWAP1 DUP2 MSTORE PUSH1 0x40 SWAP1 KECCAK256 SLOAD DUP2 JUMP JUMPDEST CALLVALUE DUP1 ISZERO PUSH2 0x43C JUMPI PUSH1 0x0 DUP1 REVERT JUMPDEST POP PUSH2 0x151 PUSH2 0x44B CALLDATASIZE PUSH1 0x4 PUSH2 0x1467 JUMP JUMPDEST PUSH1 0x4 PUSH1 0x20 MSTORE PUSH1 0x0 SWAP1 DUP2 MSTORE PUSH1 0x40 SWAP1 KECCAK256 SLOAD DUP2 JUMP JUMPDEST CALLER PUSH1 0x0 SWAP1 DUP2 MSTORE PUSH1 0x20 DUP2 DUP2 MSTORE PUSH1 0x40 DUP1 DUP4 KECCAK256 DUP1 SLOAD PUSH1 0x1 SWAP1 SWAP4 MSTORE SWAP1 DUP4 KECCAK256 DUP1 SLOAD SWAP2 DUP5 SWAP1 SSTORE SWAP3 SWAP1 SWAP3 SSTORE SWAP1 DUP2 DUP2 ISZERO PUSH2 0x534 JUMPI PUSH1 0x40 MLOAD PUSH4 0x5D043B29 PUSH1 0xE1 SHL DUP2 MSTORE PUSH1 0x4 DUP2 ADD DUP4 SWAP1 MSTORE ADDRESS PUSH1 0x24 DUP3 ADD DUP2 SWAP1 MSTORE PUSH1 0x44 DUP3 ADD MSTORE PUSH1 0x0 SWAP1 PUSH32 0x0 PUSH1 0x1 PUSH1 0x1 PUSH1 0xA0 SHL SUB AND SWAP1 PUSH4 0xBA087652 SWAP1 PUSH1 0x64 ADD PUSH1 0x20 PUSH1 0x40 MLOAD DUP1 DUP4 SUB DUP2 PUSH1 0x0 DUP8 GAS CALL ISZERO DUP1 ISZERO PUSH2 0x500 JUMPI RETURNDATASIZE PUSH1 0x0 DUP1 RETURNDATACOPY RETURNDATASIZE PUSH1 0x0 REVERT JUMPDEST POP POP POP POP PUSH1 0x40 MLOAD RETURNDATASIZE PUSH1 0x1F NOT PUSH1 0x1F DUP3 ADD AND DUP3 ADD DUP1 PUSH1 0x40 MSTORE POP DUP2 ADD SWAP1 PUSH2 0x524 SWAP2 SWAP1 PUSH2 0x172E JUMP JUMPDEST SWAP1 POP PUSH2 0x530 DUP2 DUP4 PUSH2 0x175D JUMP JUMPDEST SWAP2 POP POP JUMPDEST DUP1 PUSH1 0x0 SUB PUSH2 0x555 JUMPI PUSH1 0x40 MLOAD PUSH4 0x1E9ACF17 PUSH1 0xE3 SHL DUP2 MSTORE PUSH1 0x4 ADD PUSH1 0x40 MLOAD DUP1 SWAP2 SUB SWAP1 REVERT JUMPDEST PUSH1 0x40 MLOAD PUSH1 0x0 SWAP1 CALLER SWAP1 DUP4 SWAP1 DUP4 DUP2 DUP2 DUP2 DUP6 DUP8 GAS CALL SWAP3 POP POP POP RETURNDATASIZE DUP1 PUSH1 0x0 DUP2 EQ PUSH2 0x597 JUMPI PUSH1 0x40 MLOAD SWAP2 POP PUSH1 0x1F NOT PUSH1 0x3F RETURNDATASIZE ADD AND DUP3 ADD PUSH1 0x40 MSTORE RETURNDATASIZE DUP3 MSTORE RETURNDATASIZE PUSH1 0x0 PUSH1 0x20 DUP5 ADD RETURNDATACOPY PUSH2 0x59C JUMP JUMPDEST PUSH1 0x60 SWAP2 POP JUMPDEST POP POP SWAP1 POP DUP1 PUSH2 0x5BE JUMPI PUSH1 0x40 MLOAD PUSH4 0x12171D83 PUSH1 0xE3 SHL DUP2 MSTORE PUSH1 0x4 ADD PUSH1 0x40 MLOAD DUP1 SWAP2 SUB SWAP1 REVERT JUMPDEST PUSH1 0x40 MLOAD DUP3 DUP2 MSTORE CALLER SWAP1 PUSH32 0x7084F5476618D8E60B11EF0D7D3F06914655ADB8793E28FF7F018D4C76D505D5 SWAP1 PUSH1 0x20 ADD PUSH1 0x40 MLOAD DUP1 SWAP2 SUB SWAP1 LOG2 POP POP POP POP JUMP JUMPDEST PUSH1 0x1 PUSH1 0x1 PUSH1 0xA0 SHL SUB DUP2 DUP2 AND PUSH1 0x0 SWAP1 DUP2 MSTORE PUSH1 0x20 DUP2 DUP2 MSTORE PUSH1 0x40 DUP1 DUP4 KECCAK256 SLOAD PUSH1 0x1 SWAP1 SWAP3 MSTORE DUP1 DUP4 KECCAK256 SLOAD SWAP1 MLOAD PUSH4 0x3D1689D PUSH1 0xE1 SHL DUP2 MSTORE PUSH1 0x4 DUP2 ADD DUP3 SWAP1 MSTORE SWAP2 SWAP4 SWAP1 SWAP3 SWAP2 PUSH32 0x0 SWAP1 SWAP2 AND SWAP1 PUSH4 0x7A2D13A SWAP1 PUSH1 0x24 ADD PUSH1 0x20 PUSH1 0x40 MLOAD DUP1 DUP4 SUB DUP2 DUP7 GAS STATICCALL ISZERO DUP1 ISZERO PUSH2 0x680 JUMPI RETURNDATASIZE PUSH1 0x0 DUP1 RETURNDATACOPY RETURNDATASIZE PUSH1 0x0 REVERT JUMPDEST POP POP POP POP PUSH1 0x40 MLOAD RETURNDATASIZE PUSH1 0x1F NOT PUSH1 0x1F DUP3 ADD AND DUP3 ADD DUP1 PUSH1 0x40 MSTORE POP DUP2 ADD SWAP1 PUSH2 0x6A4 SWAP2 SWAP1 PUSH2 0x172E JUMP JUMPDEST PUSH2 0x6AE SWAP1 DUP5 PUSH2 0x175D JUMP JUMPDEST SWAP3 SWAP5 SWAP2 SWAP4 POP POP JUMP JUMPDEST DUP6 DUP5 EQ ISZERO DUP1 PUSH2 0x6C5 JUMPI POP DUP6 DUP3 EQ ISZERO JUMPDEST ISZERO PUSH2 0x6E3 JUMPI PUSH1 0x40 MLOAD PUSH4 0x512509D3 PUSH1 0xE1 SHL DUP2 MSTORE PUSH1 0x4 ADD PUSH1 0x40 MLOAD DUP1 SWAP2 SUB SWAP1 REVERT JUMPDEST PUSH1 0x0 DUP2 GT PUSH2 0x731 JUMPI PUSH1 0x40 MLOAD PUSH3 0x461BCD PUSH1 0xE5 SHL DUP2 MSTORE PUSH1 0x20 PUSH1 0x4 DUP3 ADD MSTORE PUSH1 0x16 PUSH1 0x24 DUP3 ADD MSTORE PUSH22 0x53656172636820666565206D757374206265203E203 PUSH1 0x54 SHL PUSH1 0x44 DUP3 ADD MSTORE PUSH1 0x64 ADD JUMPDEST PUSH1 0x40 MLOAD DUP1 SWAP2 SUB SWAP1 REVERT JUMPDEST PUSH1 0x1 PUSH1 0x1 PUSH1 0xA0 SHL SUB DUP9 AND PUSH1 0x0 SWAP1 DUP2 MSTORE PUSH1 0x20 DUP2 SWAP1 MSTORE PUSH1 0x40 DUP2 KECCAK256 SLOAD SWAP1 DUP3 DUP3 LT PUSH2 0x785 JUMPI PUSH1 0x1 PUSH1 0x1 PUSH1 0xA0 SHL SUB DUP11 AND PUSH1 0x0 SWAP1 DUP2 MSTORE PUSH1 0x20 DUP2 SWAP1 MSTORE PUSH1 0x40 DUP2 KECCAK256 DUP1 SLOAD DUP6 SWAP3 SWAP1 PUSH2 0x77A SWAP1 DUP5 SWAP1 PUSH2 0x1776 JUMP JUMPDEST SWAP1 SWAP2 SSTORE POP PUSH2 0x97B SWAP1 POP JUMP JUMPDEST PUSH1 0x40 MLOAD PUSH4 0x63737AC9 PUSH1 0xE1 SHL DUP2 MSTORE PUSH1 0x4 DUP2 ADD DUP5 SWAP1 MSTORE PUSH1 0x0 SWAP1 PUSH32 0x0 PUSH1 0x1 PUSH1 0x1 PUSH1 0xA0 SHL SUB AND SWAP1 PUSH4 0xC6E6F592 SWAP1 PUSH1 0x24 ADD PUSH1 0x20 PUSH1 0x40 MLOAD DUP1 DUP4 SUB DUP2 DUP7 GAS STATICCALL ISZERO DUP1 ISZERO PUSH2 0x7ED JUMPI RETURNDATASIZE PUSH1 0x0 DUP1 RETURNDATACOPY RETURNDATASIZE PUSH1 0x0 REVERT JUMPDEST POP POP POP POP PUSH1 0x40 MLOAD RETURNDATASIZE PUSH1 0x1F NOT PUSH1 0x1F DUP3 ADD AND DUP3 ADD DUP1 PUSH1 0x40 MSTORE POP DUP2 ADD SWAP1 PUSH2 0x811 SWAP2 SWAP1 PUSH2 0x172E JUMP JUMPDEST PUSH1 0x1 PUSH1 0x1 PUSH1 0xA0 SHL SUB DUP13 AND PUSH1 0x0 SWAP1 DUP2 MSTORE PUSH1 0x1 PUSH1 0x20 MSTORE PUSH1 0x40 SWAP1 KECCAK256 SLOAD SWAP1 SWAP2 POP DUP2 GT ISZERO PUSH2 0x84D JUMPI PUSH1 0x40 MLOAD PUSH4 0x1E9ACF17 PUSH1 0xE3 SHL DUP2 MSTORE PUSH1 0x4 ADD PUSH1 0x40 MLOAD DUP1 SWAP2 SUB SWAP1 REVERT JUMPDEST PUSH1 0x1 PUSH1 0x1 PUSH1 0xA0 SHL SUB DUP12 AND PUSH1 0x0 SWAP1 DUP2 MSTORE PUSH1 0x1 PUSH1 0x20 MSTORE PUSH1 0x40 DUP2 KECCAK256 DUP1 SLOAD DUP4 SWAP3 SWAP1 PUSH2 0x875 SWAP1 DUP5 SWAP1 PUSH2 0x1776 JUMP JUMPDEST SWAP1 SWAP2 SSTORE POP POP PUSH1 0x40 MLOAD PUSH4 0x5D043B29 PUSH1 0xE1 SHL DUP2 MSTORE PUSH1 0x4 DUP2 ADD DUP3 SWAP1 MSTORE ADDRESS PUSH1 0x24 DUP3 ADD DUP2 SWAP1 MSTORE PUSH1 0x44 DUP3 ADD MSTORE PUSH1 0x0 SWAP1 PUSH32 0x0 PUSH1 0x1 PUSH1 0x1 PUSH1 0xA0 SHL SUB AND SWAP1 PUSH4 0xBA087652 SWAP1 PUSH1 0x64 ADD PUSH1 0x20 PUSH1 0x40 MLOAD DUP1 DUP4 SUB DUP2 PUSH1 0x0 DUP8 GAS CALL ISZERO DUP1 ISZERO PUSH2 0x8F1 JUMPI RETURNDATASIZE PUSH1 0x0 DUP1 RETURNDATACOPY RETURNDATASIZE PUSH1 0x0 REVERT JUMPDEST POP POP POP POP PUSH1 0x40 MLOAD RETURNDATASIZE PUSH1 0x1F NOT PUSH1 0x1F DUP3 ADD AND DUP3 ADD DUP1 PUSH1 0x40 MSTORE POP DUP2 ADD SWAP1 PUSH2 0x915 SWAP2 SWAP1 PUSH2 0x172E JUMP JUMPDEST SWAP1 POP DUP5 DUP2 LT ISZERO PUSH2 0x938 JUMPI PUSH1 0x40 MLOAD PUSH4 0x1E9ACF17 PUSH1 0xE3 SHL DUP2 MSTORE PUSH1 0x4 ADD PUSH1 0x40 MLOAD DUP1 SWAP2 SUB SWAP1 REVERT JUMPDEST DUP5 DUP2 GT ISZERO PUSH2 0x978 JUMPI PUSH2 0x94A DUP6 DUP3 PUSH2 0x1776 JUMP JUMPDEST PUSH1 0x1 PUSH1 0x1 PUSH1 0xA0 SHL SUB DUP14 AND PUSH1 0x0 SWAP1 DUP2 MSTORE PUSH1 0x20 DUP2 SWAP1 MSTORE PUSH1 0x40 DUP2 KECCAK256 DUP1 SLOAD SWAP1 SWAP2 SWAP1 PUSH2 0x972 SWAP1 DUP5 SWAP1 PUSH2 0x175D JUMP JUMPDEST SWAP1 SWAP2 SSTORE POP POP JUMPDEST POP POP JUMPDEST PUSH1 0x0 JUMPDEST DUP9 DUP2 LT ISZERO PUSH2 0xA90 JUMPI PUSH1 0x0 DUP7 DUP7 DUP4 DUP2 DUP2 LT PUSH2 0x99A JUMPI PUSH2 0x99A PUSH2 0x1789 JUMP JUMPDEST SWAP1 POP PUSH1 0x20 MUL ADD CALLDATALOAD SWAP1 POP PUSH1 0x0 DUP2 GT ISZERO PUSH2 0xA87 JUMPI PUSH2 0x9B6 DUP2 DUP5 PUSH2 0x175D JUMP JUMPDEST SWAP3 POP PUSH32 0x0 PUSH1 0x1 PUSH1 0x1 PUSH1 0xA0 SHL SUB AND PUSH4 0xBFBD9795 DUP3 DUP14 DUP14 DUP7 DUP2 DUP2 LT PUSH2 0x9FA JUMPI PUSH2 0x9FA PUSH2 0x1789 JUMP JUMPDEST SWAP1 POP PUSH1 0x20 MUL ADD PUSH1 0x20 DUP2 ADD SWAP1 PUSH2 0xA0F SWAP2 SWAP1 PUSH2 0x1467 JUMP JUMPDEST DUP13 DUP13 DUP8 DUP2 DUP2 LT PUSH2 0xA21 JUMPI PUSH2 0xA21 PUSH2 0x1789 JUMP JUMPDEST SWAP1 POP PUSH1 0x20 MUL DUP2 ADD SWAP1 PUSH2 0xA33 SWAP2 SWAP1 PUSH2 0x179F JUMP JUMPDEST PUSH1 0x3 PUSH1 0x40 MLOAD DUP7 PUSH4 0xFFFFFFFF AND PUSH1 0xE0 SHL DUP2 MSTORE PUSH1 0x4 ADD PUSH2 0xA54 SWAP5 SWAP4 SWAP3 SWAP2 SWAP1 PUSH2 0x180F JUMP JUMPDEST PUSH1 0x0 PUSH1 0x40 MLOAD DUP1 DUP4 SUB DUP2 DUP6 DUP9 DUP1 EXTCODESIZE ISZERO DUP1 ISZERO PUSH2 0xA6D JUMPI PUSH1 0x0 DUP1 REVERT JUMPDEST POP GAS CALL ISZERO DUP1 ISZERO PUSH2 0xA81 JUMPI RETURNDATASIZE PUSH1 0x0 DUP1 RETURNDATACOPY RETURNDATASIZE PUSH1 0x0 REVERT JUMPDEST POP POP POP POP POP JUMPDEST POP PUSH1 0x1 ADD PUSH2 0x97E JUMP JUMPDEST POP PUSH1 0x0 PUSH2 0xA9D DUP3 DUP6 PUSH2 0x1776 JUMP JUMPDEST SWAP1 POP DUP1 ISZERO PUSH2 0xB3B JUMPI PUSH1 0x0 PUSH32 0x0 PUSH1 0x1 PUSH1 0x1 PUSH1 0xA0 SHL SUB AND DUP3 PUSH1 0x40 MLOAD PUSH1 0x0 PUSH1 0x40 MLOAD DUP1 DUP4 SUB DUP2 DUP6 DUP8 GAS CALL SWAP3 POP POP POP RETURNDATASIZE DUP1 PUSH1 0x0 DUP2 EQ PUSH2 0xB12 JUMPI PUSH1 0x40 MLOAD SWAP2 POP PUSH1 0x1F NOT PUSH1 0x3F RETURNDATASIZE ADD AND DUP3 ADD PUSH1 0x40 MSTORE RETURNDATASIZE DUP3 MSTORE RETURNDATASIZE PUSH1 0x0 PUSH1 0x20 DUP5 ADD RETURNDATACOPY PUSH2 0xB17 JUMP JUMPDEST PUSH1 0x60 SWAP2 POP JUMPDEST POP POP SWAP1 POP DUP1 PUSH2 0xB39 JUMPI PUSH1 0x40 MLOAD PUSH4 0x12171D83 PUSH1 0xE3 SHL DUP2 MSTORE PUSH1 0x4 ADD PUSH1 0x40 MLOAD DUP1 SWAP2 SUB SWAP1 REVERT JUMPDEST POP JUMPDEST PUSH1 0x40 DUP1 MLOAD DUP6 DUP2 MSTORE PUSH1 0x20 DUP2 ADD DUP4 SWAP1 MSTORE PUSH1 0x1 PUSH1 0x1 PUSH1 0xA0 SHL SUB DUP14 AND SWAP2 PUSH32 0x7CFE7FEEAF05128465E7E59A67C9BCD580388D8F5427D50BAFB5EA6C00658109 SWAP2 ADD PUSH1 0x40 MLOAD DUP1 SWAP2 SUB SWAP1 LOG2 POP POP POP POP POP POP POP POP POP POP POP JUMP JUMPDEST PUSH7 0x38D7EA4C68000 PUSH2 0xBA5 DUP6 DUP6 DUP6 DUP6 DUP6 PUSH1 0x0 PUSH1 0x1 PUSH2 0xFA5 JUMP JUMPDEST PUSH1 0x1 PUSH1 0x1 PUSH1 0xA0 SHL SUB DUP6 AND PUSH1 0x0 SWAP1 DUP2 MSTORE PUSH1 0x3 PUSH1 0x20 MSTORE PUSH1 0x40 DUP2 KECCAK256 DUP1 SLOAD PUSH1 0x1 SWAP3 SWAP1 PUSH2 0xBCE SWAP1 DUP5 SWAP1 PUSH2 0x175D JUMP JUMPDEST SWAP3 POP POP DUP2 SWAP1 SSTORE POP DUP4 PUSH1 0x1 PUSH1 0x1 PUSH1 0xA0 SHL SUB AND DUP6 PUSH1 0x1 PUSH1 0x1 PUSH1 0xA0 SHL SUB AND PUSH32 0xD0C53B207D305122B5AACD8B1F0FE866B2D54D178855A898537F585DA629711E DUP6 DUP6 DUP6 PUSH1 0x40 MLOAD PUSH2 0xC1C SWAP4 SWAP3 SWAP2 SWAP1 PUSH2 0x1863 JUMP JUMPDEST PUSH1 0x40 MLOAD DUP1 SWAP2 SUB SWAP1 LOG3 POP POP POP POP POP JUMP JUMPDEST PUSH1 0x0 PUSH2 0xC3E PUSH7 0x38D7EA4C68000 DUP4 PUSH2 0x175D JUMP JUMPDEST SWAP1 POP PUSH2 0xC57 DUP7 DUP7 DUP7 DUP7 DUP6 PUSH7 0x38D7EA4C68000 PUSH1 0x0 PUSH2 0xFA5 JUMP JUMPDEST PUSH1 0x1 PUSH1 0x1 PUSH1 0xA0 SHL SUB DUP7 AND PUSH1 0x0 SWAP1 DUP2 MSTORE PUSH1 0x2 PUSH1 0x20 MSTORE PUSH1 0x40 DUP2 KECCAK256 DUP1 SLOAD PUSH1 0x1 SWAP3 SWAP1 PUSH2 0xC80 SWAP1 DUP5 SWAP1 PUSH2 0x175D JUMP JUMPDEST SWAP3 POP POP DUP2 SWAP1 SSTORE POP DUP5 PUSH1 0x1 PUSH1 0x1 PUSH1 0xA0 SHL SUB AND DUP7 PUSH1 0x1 PUSH1 0x1 PUSH1 0xA0 SHL SUB AND PUSH32 0x97BE2867C06E807CD1C22A8BCF41D1A21DA278CEB4DB53ED9914BFBA0228F953 DUP7 DUP7 DUP6 PUSH1 0x40 MLOAD PUSH2 0xCCE SWAP4 SWAP3 SWAP2 SWAP1 PUSH2 0x1863 JUMP JUMPDEST PUSH1 0x40 MLOAD DUP1 SWAP2 SUB SWAP1 LOG3 POP POP POP POP POP POP JUMP JUMPDEST CALLVALUE DUP1 PUSH2 0xD2C JUMPI PUSH1 0x40 MLOAD PUSH3 0x461BCD PUSH1 0xE5 SHL DUP2 MSTORE PUSH1 0x20 PUSH1 0x4 DUP3 ADD MSTORE PUSH1 0x1D PUSH1 0x24 DUP3 ADD MSTORE PUSH32 0x416D6F756E74206D7573742062652067726561746572207468616E2030000000 PUSH1 0x44 DUP3 ADD MSTORE PUSH1 0x64 ADD PUSH2 0x728 JUMP JUMPDEST CALLER PUSH1 0x0 SWAP1 DUP2 MSTORE PUSH1 0x20 DUP2 SWAP1 MSTORE PUSH1 0x40 DUP2 KECCAK256 SLOAD SWAP1 PUSH7 0x2386F26FC10000 DUP3 LT ISZERO PUSH2 0xD62 JUMPI PUSH2 0xD5D DUP3 PUSH7 0x2386F26FC10000 PUSH2 0x1776 JUMP JUMPDEST PUSH2 0xD65 JUMP JUMPDEST PUSH1 0x0 JUMPDEST SWAP1 POP PUSH1 0x0 DUP2 DUP5 LT PUSH2 0xD76 JUMPI DUP2 PUSH2 0xD78 JUMP JUMPDEST DUP4 JUMPDEST SWAP1 POP PUSH1 0x0 PUSH2 0xD86 DUP3 DUP7 PUSH2 0x1776 JUMP JUMPDEST CALLER PUSH1 0x0 SWAP1 DUP2 MSTORE PUSH1 0x20 DUP2 SWAP1 MSTORE PUSH1 0x40 DUP2 KECCAK256 DUP1 SLOAD SWAP3 SWAP4 POP DUP5 SWAP3 SWAP1 SWAP2 SWAP1 PUSH2 0xDAA SWAP1 DUP5 SWAP1 PUSH2 0x175D JUMP JUMPDEST SWAP1 SWAP2 SSTORE POP PUSH1 0x0 SWAP1 POP DUP2 ISZERO PUSH2 0xE75 JUMPI PUSH1 0x40 MLOAD PUSH4 0x6E553F65 PUSH1 0xE0 SHL DUP2 MSTORE PUSH1 0x4 DUP2 ADD DUP4 SWAP1 MSTORE ADDRESS PUSH1 0x24 DUP3 ADD MSTORE PUSH32 0x0 PUSH1 0x1 PUSH1 0x1 PUSH1 0xA0 SHL SUB AND SWAP1 PUSH4 0x6E553F65 SWAP1 DUP5 SWAP1 PUSH1 0x44 ADD PUSH1 0x20 PUSH1 0x40 MLOAD DUP1 DUP4 SUB DUP2 DUP6 DUP9 GAS CALL ISZERO DUP1 ISZERO PUSH2 0xE26 JUMPI RETURNDATASIZE PUSH1 0x0 DUP1 RETURNDATACOPY RETURNDATASIZE PUSH1 0x0 REVERT JUMPDEST POP POP POP POP POP PUSH1 0x40 MLOAD RETURNDATASIZE PUSH1 0x1F NOT PUSH1 0x1F DUP3 ADD AND DUP3 ADD DUP1 PUSH1 0x40 MSTORE POP DUP2 ADD SWAP1 PUSH2 0xE4B SWAP2 SWAP1 PUSH2 0x172E JUMP JUMPDEST CALLER PUSH1 0x0 SWAP1 DUP2 MSTORE PUSH1 0x1 PUSH1 0x20 MSTORE PUSH1 0x40 DUP2 KECCAK256 DUP1 SLOAD SWAP3 SWAP4 POP DUP4 SWAP3 SWAP1 SWAP2 SWAP1 PUSH2 0xE6F SWAP1 DUP5 SWAP1 PUSH2 0x175D JUMP JUMPDEST SWAP1 SWAP2 SSTORE POP POP JUMPDEST PUSH1 0x40 DUP1 MLOAD DUP8 DUP2 MSTORE PUSH1 0x20 DUP2 ADD DUP4 SWAP1 MSTORE CALLER SWAP2 PUSH32 0x73A19DD210F1A7F902193214C0EE91DD35EE5B4D920CBA8D519ECA65A7B488CA SWAP2 ADD PUSH1 0x40 MLOAD DUP1 SWAP2 SUB SWAP1 LOG2 POP POP POP POP POP POP JUMP JUMPDEST PUSH1 0x0 DUP4 GT PUSH2 0xF08 JUMPI PUSH1 0x40 MLOAD PUSH3 0x461BCD PUSH1 0xE5 SHL DUP2 MSTORE PUSH1 0x20 PUSH1 0x4 DUP3 ADD MSTORE PUSH1 0x19 PUSH1 0x24 DUP3 ADD MSTORE PUSH32 0x436F6D6D656E74207072696365206D757374206265203E203000000000000000 PUSH1 0x44 DUP3 ADD MSTORE PUSH1 0x64 ADD PUSH2 0x728 JUMP JUMPDEST PUSH2 0xF19 DUP8 DUP8 DUP8 DUP8 DUP8 PUSH1 0x0 PUSH1 0x2 PUSH2 0xFA5 JUMP JUMPDEST PUSH1 0x1 PUSH1 0x1 PUSH1 0xA0 SHL SUB DUP8 AND PUSH1 0x0 SWAP1 DUP2 MSTORE PUSH1 0x4 PUSH1 0x20 MSTORE PUSH1 0x40 DUP2 KECCAK256 DUP1 SLOAD PUSH1 0x1 SWAP3 SWAP1 PUSH2 0xF42 SWAP1 DUP5 SWAP1 PUSH2 0x175D JUMP JUMPDEST SWAP3 POP POP DUP2 SWAP1 SSTORE POP DUP6 PUSH1 0x1 PUSH1 0x1 PUSH1 0xA0 SHL SUB AND DUP8 PUSH1 0x1 PUSH1 0x1 PUSH1 0xA0 SHL SUB AND PUSH32 0xD23DEECD596F2FFE93F23DC134450BBAEC983C3A2AC4C92ABFB3C37B5E782B35 DUP8 DUP8 DUP8 DUP8 DUP8 PUSH1 0x40 MLOAD PUSH2 0xF94 SWAP6 SWAP5 SWAP4 SWAP3 SWAP2 SWAP1 PUSH2 0x1887 JUMP JUMPDEST PUSH1 0x40 MLOAD DUP1 SWAP2 SUB SWAP1 LOG3 POP POP POP POP POP POP POP JUMP JUMPDEST PUSH1 0x0 PUSH2 0xFB1 DUP4 DUP6 PUSH2 0x1776 JUMP JUMPDEST PUSH1 0x1 PUSH1 0x1 PUSH1 0xA0 SHL SUB DUP10 AND PUSH1 0x0 SWAP1 DUP2 MSTORE PUSH1 0x20 DUP2 SWAP1 MSTORE PUSH1 0x40 SWAP1 KECCAK256 SLOAD SWAP1 SWAP2 POP DUP5 DUP2 LT PUSH2 0x1128 JUMPI PUSH1 0x1 PUSH1 0x1 PUSH1 0xA0 SHL SUB DUP10 AND PUSH1 0x0 SWAP1 DUP2 MSTORE PUSH1 0x20 DUP2 SWAP1 MSTORE PUSH1 0x40 DUP2 KECCAK256 DUP1 SLOAD DUP8 SWAP3 SWAP1 PUSH2 0xFFC SWAP1 DUP5 SWAP1 PUSH2 0x1776 JUMP JUMPDEST SWAP1 SWAP2 SSTORE POP POP DUP4 ISZERO PUSH2 0x109D JUMPI PUSH1 0x0 PUSH32 0x0 PUSH1 0x1 PUSH1 0x1 PUSH1 0xA0 SHL SUB AND DUP6 PUSH1 0x40 MLOAD PUSH1 0x0 PUSH1 0x40 MLOAD DUP1 DUP4 SUB DUP2 DUP6 DUP8 GAS CALL SWAP3 POP POP POP RETURNDATASIZE DUP1 PUSH1 0x0 DUP2 EQ PUSH2 0x1074 JUMPI PUSH1 0x40 MLOAD SWAP2 POP PUSH1 0x1F NOT PUSH1 0x3F RETURNDATASIZE ADD AND DUP3 ADD PUSH1 0x40 MSTORE RETURNDATASIZE DUP3 MSTORE RETURNDATASIZE PUSH1 0x0 PUSH1 0x20 DUP5 ADD RETURNDATACOPY PUSH2 0x1079 JUMP JUMPDEST PUSH1 0x60 SWAP2 POP JUMPDEST POP POP SWAP1 POP DUP1 PUSH2 0x109B JUMPI PUSH1 0x40 MLOAD PUSH4 0x12171D83 PUSH1 0xE3 SHL DUP2 MSTORE PUSH1 0x4 ADD PUSH1 0x40 MLOAD DUP1 SWAP2 SUB SWAP1 REVERT JUMPDEST POP JUMPDEST PUSH1 0x40 MLOAD PUSH4 0xBFBD9795 PUSH1 0xE0 SHL DUP2 MSTORE PUSH1 0x1 PUSH1 0x1 PUSH1 0xA0 SHL SUB PUSH32 0x0 AND SWAP1 PUSH4 0xBFBD9795 SWAP1 DUP5 SWAP1 PUSH2 0x10F1 SWAP1 DUP13 SWAP1 DUP13 SWAP1 DUP13 SWAP1 DUP11 SWAP1 PUSH1 0x4 ADD PUSH2 0x180F JUMP JUMPDEST PUSH1 0x0 PUSH1 0x40 MLOAD DUP1 DUP4 SUB DUP2 DUP6 DUP9 DUP1 EXTCODESIZE ISZERO DUP1 ISZERO PUSH2 0x110A JUMPI PUSH1 0x0 DUP1 REVERT JUMPDEST POP GAS CALL ISZERO DUP1 ISZERO PUSH2 0x111E JUMPI RETURNDATASIZE PUSH1 0x0 DUP1 RETURNDATACOPY RETURNDATASIZE PUSH1 0x0 REVERT JUMPDEST POP POP POP POP POP PUSH2 0x1440 JUMP JUMPDEST PUSH1 0x40 MLOAD PUSH4 0x63737AC9 PUSH1 0xE1 SHL DUP2 MSTORE PUSH1 0x4 DUP2 ADD DUP7 SWAP1 MSTORE PUSH1 0x0 SWAP1 PUSH32 0x0 PUSH1 0x1 PUSH1 0x1 PUSH1 0xA0 SHL SUB AND SWAP1 PUSH4 0xC6E6F592 SWAP1 PUSH1 0x24 ADD PUSH1 0x20 PUSH1 0x40 MLOAD DUP1 DUP4 SUB DUP2 DUP7 GAS STATICCALL ISZERO DUP1 ISZERO PUSH2 0x1190 JUMPI RETURNDATASIZE PUSH1 0x0 DUP1 RETURNDATACOPY RETURNDATASIZE PUSH1 0x0 REVERT JUMPDEST POP POP POP POP PUSH1 0x40 MLOAD RETURNDATASIZE PUSH1 0x1F NOT PUSH1 0x1F DUP3 ADD AND DUP3 ADD DUP1 PUSH1 0x40 MSTORE POP DUP2 ADD SWAP1 PUSH2 0x11B4 SWAP2 SWAP1 PUSH2 0x172E JUMP JUMPDEST PUSH1 0x1 PUSH1 0x1 PUSH1 0xA0 SHL SUB DUP12 AND PUSH1 0x0 SWAP1 DUP2 MSTORE PUSH1 0x1 PUSH1 0x20 MSTORE PUSH1 0x40 SWAP1 KECCAK256 SLOAD SWAP1 SWAP2 POP DUP2 GT ISZERO PUSH2 0x11F0 JUMPI PUSH1 0x40 MLOAD PUSH4 0x1E9ACF17 PUSH1 0xE3 SHL DUP2 MSTORE PUSH1 0x4 ADD PUSH1 0x40 MLOAD DUP1 SWAP2 SUB SWAP1 REVERT JUMPDEST PUSH1 0x1 PUSH1 0x1 PUSH1 0xA0 SHL SUB DUP11 AND PUSH1 0x0 SWAP1 DUP2 MSTORE PUSH1 0x1 PUSH1 0x20 MSTORE PUSH1 0x40 DUP2 KECCAK256 DUP1 SLOAD DUP4 SWAP3 SWAP1 PUSH2 0x1218 SWAP1 DUP5 SWAP1 PUSH2 0x1776 JUMP JUMPDEST SWAP1 SWAP2 SSTORE POP POP PUSH1 0x40 MLOAD PUSH4 0x5D043B29 PUSH1 0xE1 SHL DUP2 MSTORE PUSH1 0x4 DUP2 ADD DUP3 SWAP1 MSTORE ADDRESS PUSH1 0x24 DUP3 ADD DUP2 SWAP1 MSTORE PUSH1 0x44 DUP3 ADD MSTORE PUSH1 0x0 SWAP1 PUSH32 0x0 PUSH1 0x1 PUSH1 0x1 PUSH1 0xA0 SHL SUB AND SWAP1 PUSH4 0xBA087652 SWAP1 PUSH1 0x64 ADD PUSH1 0x20 PUSH1 0x40 MLOAD DUP1 DUP4 SUB DUP2 PUSH1 0x0 DUP8 GAS CALL ISZERO DUP1 ISZERO PUSH2 0x1294 JUMPI RETURNDATASIZE PUSH1 0x0 DUP1 RETURNDATACOPY RETURNDATASIZE PUSH1 0x0 REVERT JUMPDEST POP POP POP POP PUSH1 0x40 MLOAD RETURNDATASIZE PUSH1 0x1F NOT PUSH1 0x1F DUP3 ADD AND DUP3 ADD DUP1 PUSH1 0x40 MSTORE POP DUP2 ADD SWAP1 PUSH2 0x12B8 SWAP2 SWAP1 PUSH2 0x172E JUMP JUMPDEST SWAP1 POP DUP7 DUP2 LT ISZERO PUSH2 0x12DB JUMPI PUSH1 0x40 MLOAD PUSH4 0x1E9ACF17 PUSH1 0xE3 SHL DUP2 MSTORE PUSH1 0x4 ADD PUSH1 0x40 MLOAD DUP1 SWAP2 SUB SWAP1 REVERT JUMPDEST DUP6 ISZERO PUSH2 0x1377 JUMPI PUSH1 0x0 PUSH32 0x0 PUSH1 0x1 PUSH1 0x1 PUSH1 0xA0 SHL SUB AND DUP8 PUSH1 0x40 MLOAD PUSH1 0x0 PUSH1 0x40 MLOAD DUP1 DUP4 SUB DUP2 DUP6 DUP8 GAS CALL SWAP3 POP POP POP RETURNDATASIZE DUP1 PUSH1 0x0 DUP2 EQ PUSH2 0x134E JUMPI PUSH1 0x40 MLOAD SWAP2 POP PUSH1 0x1F NOT PUSH1 0x3F RETURNDATASIZE ADD AND DUP3 ADD PUSH1 0x40 MSTORE RETURNDATASIZE DUP3 MSTORE RETURNDATASIZE PUSH1 0x0 PUSH1 0x20 DUP5 ADD RETURNDATACOPY PUSH2 0x1353 JUMP JUMPDEST PUSH1 0x60 SWAP2 POP JUMPDEST POP POP SWAP1 POP DUP1 PUSH2 0x1375 JUMPI PUSH1 0x40 MLOAD PUSH4 0x12171D83 PUSH1 0xE3 SHL DUP2 MSTORE PUSH1 0x4 ADD PUSH1 0x40 MLOAD DUP1 SWAP2 SUB SWAP1 REVERT JUMPDEST POP JUMPDEST PUSH1 0x40 MLOAD PUSH4 0xBFBD9795 PUSH1 0xE0 SHL DUP2 MSTORE PUSH1 0x1 PUSH1 0x1 PUSH1 0xA0 SHL SUB PUSH32 0x0 AND SWAP1 PUSH4 0xBFBD9795 SWAP1 DUP7 SWAP1 PUSH2 0x13CB SWAP1 DUP15 SWAP1 DUP15 SWAP1 DUP15 SWAP1 DUP13 SWAP1 PUSH1 0x4 ADD PUSH2 0x180F JUMP JUMPDEST PUSH1 0x0 PUSH1 0x40 MLOAD DUP1 DUP4 SUB DUP2 DUP6 DUP9 DUP1 EXTCODESIZE ISZERO DUP1 ISZERO PUSH2 0x13E4 JUMPI PUSH1 0x0 DUP1 REVERT JUMPDEST POP GAS CALL ISZERO DUP1 ISZERO PUSH2 0x13F8 JUMPI RETURNDATASIZE PUSH1 0x0 DUP1 RETURNDATACOPY RETURNDATASIZE PUSH1 0x0 REVERT JUMPDEST POP POP POP POP POP DUP7 DUP2 GT ISZERO PUSH2 0x143D JUMPI PUSH2 0x140F DUP8 DUP3 PUSH2 0x1776 JUMP JUMPDEST PUSH1 0x1 PUSH1 0x1 PUSH1 0xA0 SHL SUB DUP13 AND PUSH1 0x0 SWAP1 DUP2 MSTORE PUSH1 0x20 DUP2 SWAP1 MSTORE PUSH1 0x40 DUP2 KECCAK256 DUP1 SLOAD SWAP1 SWAP2 SWAP1 PUSH2 0x1437 SWAP1 DUP5 SWAP1 PUSH2 0x175D JUMP JUMPDEST SWAP1 SWAP2 SSTORE POP POP JUMPDEST POP POP JUMPDEST POP POP POP POP POP POP POP POP POP JUMP JUMPDEST DUP1 CALLDATALOAD PUSH1 0x1 PUSH1 0x1 PUSH1 0xA0 SHL SUB DUP2 AND DUP2 EQ PUSH2 0x1462 JUMPI PUSH1 0x0 DUP1 REVERT JUMPDEST SWAP2 SWAP1 POP JUMP JUMPDEST PUSH1 0x0 PUSH1 0x20 DUP3 DUP5 SUB SLT ISZERO PUSH2 0x1479 JUMPI PUSH1 0x0 DUP1 REVERT JUMPDEST PUSH2 0x1482 DUP3 PUSH2 0x144B JUMP JUMPDEST SWAP4 SWAP3 POP POP POP JUMP JUMPDEST PUSH1 0x0 DUP1 DUP4 PUSH1 0x1F DUP5 ADD SLT PUSH2 0x149B JUMPI PUSH1 0x0 DUP1 REVERT JUMPDEST POP DUP2 CALLDATALOAD PUSH8 0xFFFFFFFFFFFFFFFF DUP2 GT ISZERO PUSH2 0x14B3 JUMPI PUSH1 0x0 DUP1 REVERT JUMPDEST PUSH1 0x20 DUP4 ADD SWAP2 POP DUP4 PUSH1 0x20 DUP3 PUSH1 0x5 SHL DUP6 ADD ADD GT ISZERO PUSH2 0x14CE JUMPI PUSH1 0x0 DUP1 REVERT JUMPDEST SWAP3 POP SWAP3 SWAP1 POP JUMP JUMPDEST PUSH1 0x0 DUP1 PUSH1 0x0 DUP1 PUSH1 0x0 DUP1 PUSH1 0x0 DUP1 PUSH1 0xA0 DUP10 DUP12 SUB SLT ISZERO PUSH2 0x14F1 JUMPI PUSH1 0x0 DUP1 REVERT JUMPDEST PUSH2 0x14FA DUP10 PUSH2 0x144B JUMP JUMPDEST SWAP8 POP PUSH1 0x20 DUP10 ADD CALLDATALOAD PUSH8 0xFFFFFFFFFFFFFFFF DUP1 DUP3 GT ISZERO PUSH2 0x1517 JUMPI PUSH1 0x0 DUP1 REVERT JUMPDEST PUSH2 0x1523 DUP13 DUP4 DUP14 ADD PUSH2 0x1489 JUMP JUMPDEST SWAP1 SWAP10 POP SWAP8 POP PUSH1 0x40 DUP12 ADD CALLDATALOAD SWAP2 POP DUP1 DUP3 GT ISZERO PUSH2 0x153C JUMPI PUSH1 0x0 DUP1 REVERT JUMPDEST PUSH2 0x1548 DUP13 DUP4 DUP14 ADD PUSH2 0x1489 JUMP JUMPDEST SWAP1 SWAP8 POP SWAP6 POP PUSH1 0x60 DUP12 ADD CALLDATALOAD SWAP2 POP DUP1 DUP3 GT ISZERO PUSH2 0x1561 JUMPI PUSH1 0x0 DUP1 REVERT JUMPDEST POP PUSH2 0x156E DUP12 DUP3 DUP13 ADD PUSH2 0x1489 JUMP JUMPDEST SWAP10 SWAP13 SWAP9 SWAP12 POP SWAP7 SWAP10 SWAP6 SWAP9 SWAP5 SWAP8 SWAP5 SWAP6 PUSH1 0x80 ADD CALLDATALOAD SWAP5 SWAP4 POP POP POP POP JUMP JUMPDEST PUSH1 0x0 DUP1 DUP4 PUSH1 0x1F DUP5 ADD SLT PUSH2 0x1599 JUMPI PUSH1 0x0 DUP1 REVERT JUMPDEST POP DUP2 CALLDATALOAD PUSH8 0xFFFFFFFFFFFFFFFF DUP2 GT ISZERO PUSH2 0x15B1 JUMPI PUSH1 0x0 DUP1 REVERT JUMPDEST PUSH1 0x20 DUP4 ADD SWAP2 POP DUP4 PUSH1 0x20 DUP3 DUP6 ADD ADD GT ISZERO PUSH2 0x14CE JUMPI PUSH1 0x0 DUP1 REVERT JUMPDEST PUSH1 0x0 DUP1 PUSH1 0x0 DUP1 PUSH1 0x60 DUP6 DUP8 SUB SLT ISZERO PUSH2 0x15DF JUMPI PUSH1 0x0 DUP1 REVERT JUMPDEST PUSH2 0x15E8 DUP6 PUSH2 0x144B JUMP JUMPDEST SWAP4 POP PUSH2 0x15F6 PUSH1 0x20 DUP7 ADD PUSH2 0x144B JUMP JUMPDEST SWAP3 POP PUSH1 0x40 DUP6 ADD CALLDATALOAD PUSH8 0xFFFFFFFFFFFFFFFF DUP2 GT ISZERO PUSH2 0x1612 JUMPI PUSH1 0x0 DUP1 REVERT JUMPDEST PUSH2 0x161E DUP8 DUP3 DUP9 ADD PUSH2 0x1587 JUMP JUMPDEST SWAP6 SWAP9 SWAP5 SWAP8 POP SWAP6 POP POP POP POP JUMP JUMPDEST PUSH1 0x0 DUP1 PUSH1 0x0 DUP1 PUSH1 0x0 PUSH1 0x80 DUP7 DUP9 SUB SLT ISZERO PUSH2 0x1642 JUMPI PUSH1 0x0 DUP1 REVERT JUMPDEST PUSH2 0x164B DUP7 PUSH2 0x144B JUMP JUMPDEST SWAP5 POP PUSH2 0x1659 PUSH1 0x20 DUP8 ADD PUSH2 0x144B JUMP JUMPDEST SWAP4 POP PUSH1 0x40 DUP7 ADD CALLDATALOAD PUSH8 0xFFFFFFFFFFFFFFFF DUP2 GT ISZERO PUSH2 0x1675 JUMPI PUSH1 0x0 DUP1 REVERT JUMPDEST PUSH2 0x1681 DUP9 DUP3 DUP10 ADD PUSH2 0x1587 JUMP JUMPDEST SWAP7 SWAP10 SWAP6 SWAP9 POP SWAP7 PUSH1 0x60 ADD CALLDATALOAD SWAP5 SWAP4 POP POP POP POP JUMP JUMPDEST PUSH1 0x0 DUP1 PUSH1 0x0 DUP1 PUSH1 0x0 DUP1 PUSH1 0x0 PUSH1 0xA0 DUP9 DUP11 SUB SLT ISZERO PUSH2 0x16AE JUMPI PUSH1 0x0 DUP1 REVERT JUMPDEST PUSH2 0x16B7 DUP9 PUSH2 0x144B JUMP JUMPDEST SWAP7 POP PUSH2 0x16C5 PUSH1 0x20 DUP10 ADD PUSH2 0x144B JUMP JUMPDEST SWAP6 POP PUSH1 0x40 DUP9 ADD CALLDATALOAD PUSH8 0xFFFFFFFFFFFFFFFF DUP1 DUP3 GT ISZERO PUSH2 0x16E2 JUMPI PUSH1 0x0 DUP1 REVERT JUMPDEST PUSH2 0x16EE DUP12 DUP4 DUP13 ADD PUSH2 0x1587 JUMP JUMPDEST SWAP1 SWAP8 POP SWAP6 POP PUSH1 0x60 DUP11 ADD CALLDATALOAD SWAP5 POP PUSH1 0x80 DUP11 ADD CALLDATALOAD SWAP2 POP DUP1 DUP3 GT ISZERO PUSH2 0x170E JUMPI PUSH1 0x0 DUP1 REVERT JUMPDEST POP PUSH2 0x171B DUP11 DUP3 DUP12 ADD PUSH2 0x1587 JUMP JUMPDEST SWAP9 SWAP12 SWAP8 SWAP11 POP SWAP6 SWAP9 POP SWAP4 SWAP7 SWAP3 SWAP6 SWAP3 SWAP4 POP POP POP JUMP JUMPDEST PUSH1 0x0 PUSH1 0x20 DUP3 DUP5 SUB SLT ISZERO PUSH2 0x1740 JUMPI PUSH1 0x0 DUP1 REVERT JUMPDEST POP MLOAD SWAP2 SWAP1 POP JUMP JUMPDEST PUSH4 0x4E487B71 PUSH1 0xE0 SHL PUSH1 0x0 MSTORE PUSH1 0x11 PUSH1 0x4 MSTORE PUSH1 0x24 PUSH1 0x0 REVERT JUMPDEST DUP1 DUP3 ADD DUP1 DUP3 GT ISZERO PUSH2 0x1770 JUMPI PUSH2 0x1770 PUSH2 0x1747 JUMP JUMPDEST SWAP3 SWAP2 POP POP JUMP JUMPDEST DUP2 DUP2 SUB DUP2 DUP2 GT ISZERO PUSH2 0x1770 JUMPI PUSH2 0x1770 PUSH2 0x1747 JUMP JUMPDEST PUSH4 0x4E487B71 PUSH1 0xE0 SHL PUSH1 0x0 MSTORE PUSH1 0x32 PUSH1 0x4 MSTORE PUSH1 0x24 PUSH1 0x0 REVERT JUMPDEST PUSH1 0x0 DUP1 DUP4 CALLDATALOAD PUSH1 0x1E NOT DUP5 CALLDATASIZE SUB ADD DUP2 SLT PUSH2 0x17B6 JUMPI PUSH1 0x0 DUP1 REVERT JUMPDEST DUP4 ADD DUP1 CALLDATALOAD SWAP2 POP PUSH8 0xFFFFFFFFFFFFFFFF DUP3 GT ISZERO PUSH2 0x17D1 JUMPI PUSH1 0x0 DUP1 REVERT JUMPDEST PUSH1 0x20 ADD SWAP2 POP CALLDATASIZE DUP2 SWAP1 SUB DUP3 SGT ISZERO PUSH2 0x14CE JUMPI PUSH1 0x0 DUP1 REVERT JUMPDEST DUP2 DUP4 MSTORE DUP2 DUP2 PUSH1 0x20 DUP6 ADD CALLDATACOPY POP PUSH1 0x0 DUP3 DUP3 ADD PUSH1 0x20 SWAP1 DUP2 ADD SWAP2 SWAP1 SWAP2 MSTORE PUSH1 0x1F SWAP1 SWAP2 ADD PUSH1 0x1F NOT AND SWAP1 SWAP2 ADD ADD SWAP1 JUMP JUMPDEST PUSH1 0x1 PUSH1 0x1 PUSH1 0xA0 SHL SUB DUP6 AND DUP2 MSTORE PUSH1 0x60 PUSH1 0x20 DUP3 ADD DUP2 SWAP1 MSTORE PUSH1 0x0 SWAP1 PUSH2 0x1834 SWAP1 DUP4 ADD DUP6 DUP8 PUSH2 0x17E6 JUMP JUMPDEST SWAP1 POP PUSH1 0x4 DUP4 LT PUSH2 0x1854 JUMPI PUSH4 0x4E487B71 PUSH1 0xE0 SHL PUSH1 0x0 MSTORE PUSH1 0x21 PUSH1 0x4 MSTORE PUSH1 0x24 PUSH1 0x0 REVERT JUMPDEST DUP3 PUSH1 0x40 DUP4 ADD MSTORE SWAP6 SWAP5 POP POP POP POP POP JUMP JUMPDEST PUSH1 0x40 DUP2 MSTORE PUSH1 0x0 PUSH2 0x1877 PUSH1 0x40 DUP4 ADD DUP6 DUP8 PUSH2 0x17E6 JUMP JUMPDEST SWAP1 POP DUP3 PUSH1 0x20 DUP4 ADD MSTORE SWAP5 SWAP4 POP POP POP POP JUMP JUMPDEST PUSH1 0x60 DUP2 MSTORE PUSH1 0x0 PUSH2 0x189B PUSH1 0x60 DUP4 ADD DUP8 DUP10 PUSH2 0x17E6 JUMP JUMPDEST DUP6 PUSH1 0x20 DUP5 ADD MSTORE DUP3 DUP2 SUB PUSH1 0x40 DUP5 ADD MSTORE PUSH2 0x18B4 DUP2 DUP6 DUP8 PUSH2 0x17E6 JUMP JUMPDEST SWAP9 SWAP8 POP POP POP POP POP POP POP POP JUMP INVALID LOG2 PUSH5 0x6970667358 0x22 SLT KECCAK256 0xBC 0xDD 0xC4 0xC6 DUP11 0xC8 MUL EXP 0xBE DUP15 PUSH1 0xCA PUSH3 0x8EA156 MSIZE 0xC1 SWAP11 LT SWAP7 XOR 0xCB 0xBE SLOAD 0xD3 0x4F 0xC SWAP9 SWAP2 CODECOPY LOG2 PUSH5 0x736F6C6343 STOP ADDMOD XOR STOP CALLER "},"methodIdentifiers":{"FLOAT_AMOUNT()":"4cc61391","PLATFORM_FEE()":"34fbc9a1","activityOf(address)":"abb62556","balanceOf(address)":"70a08231","deposit()":"d0e30db0","owner()":"8da5cb5b","payForAgentSearch(address,address[],string[],uint256[],uint256)":"bd96b123","payForClap(address,address,string)":"c37fdd72","payForComment(address,address,string,uint256,string)":"d89ca275","payForRead(address,address,string,uint256)":"cfe2d668","teller()":"57edab4e","totalClapsGiven(address)":"9b185757","totalCommentsGiven(address)":"e885c542","totalReadsPerformed(address)":"2790fb4d","usdcFloat(address)":"77c947f8","usycStaked(address)":"e2745d85","usycToken()":"c8c3f366","withdraw()":"3ccfd60b","writerVault()":"35d29909"}}}}}