{"contracts/ReaderVault.sol":{"ReaderVault":{"abi":[{"inputs":[{"internalType":"address","name":"_usycToken","type":"address"},{"internalType":"address","name":"_teller","type":"address"},{"internalType":"address","name":"_writerVault","type":"address"}],"stateMutability":"nonpayable","type":"constructor"},{"inputs":[],"name":"InsufficientBalance","type":"error"},{"inputs":[],"name":"TransferFailed","type":"error"},{"anonymous":false,"inputs":[{"indexed":true,"internalType":"address","name":"reader","type":"address"},{"indexed":true,"internalType":"address","name":"writer","type":"address"},{"indexed":false,"internalType":"string","name":"slug","type":"string"},{"indexed":false,"internalType":"uint256","name":"usdcPaid","type":"uint256"}],"name":"ArticleRead","type":"event"},{"anonymous":false,"inputs":[{"indexed":true,"internalType":"address","name":"reader","type":"address"},{"indexed":false,"internalType":"uint256","name":"usdcAmount","type":"uint256"},{"indexed":false,"internalType":"uint256","name":"usycMinted","type":"uint256"}],"name":"Deposited","type":"event"},{"anonymous":false,"inputs":[{"indexed":true,"internalType":"address","name":"reader","type":"address"},{"indexed":false,"internalType":"uint256","name":"usdcAmount","type":"uint256"}],"name":"Withdrawn","type":"event"},{"inputs":[],"name":"FLOAT_AMOUNT","outputs":[{"internalType":"uint256","name":"","type":"uint256"}],"stateMutability":"view","type":"function"},{"inputs":[],"name":"PRICE_PER_READ","outputs":[{"internalType":"uint256","name":"","type":"uint256"}],"stateMutability":"view","type":"function"},{"inputs":[{"internalType":"address","name":"reader","type":"address"}],"name":"balanceOf","outputs":[{"internalType":"uint256","name":"usdcBalance","type":"uint256"},{"internalType":"uint256","name":"usycBalance","type":"uint256"},{"internalType":"uint256","name":"estimatedUsdcValue","type":"uint256"}],"stateMutability":"view","type":"function"},{"inputs":[],"name":"deposit","outputs":[],"stateMutability":"payable","type":"function"},{"inputs":[],"name":"owner","outputs":[{"internalType":"address","name":"","type":"address"}],"stateMutability":"view","type":"function"},{"inputs":[{"internalType":"address","name":"reader","type":"address"},{"internalType":"address","name":"writer","type":"address"},{"internalType":"string","name":"slug","type":"string"}],"name":"payForRead","outputs":[],"stateMutability":"nonpayable","type":"function"},{"inputs":[],"name":"teller","outputs":[{"internalType":"contract ITeller","name":"","type":"address"}],"stateMutability":"view","type":"function"},{"inputs":[{"internalType":"address","name":"","type":"address"}],"name":"usdcFloat","outputs":[{"internalType":"uint256","name":"","type":"uint256"}],"stateMutability":"view","type":"function"},{"inputs":[{"internalType":"address","name":"","type":"address"}],"name":"usycStaked","outputs":[{"internalType":"uint256","name":"","type":"uint256"}],"stateMutability":"view","type":"function"},{"inputs":[],"name":"usycToken","outputs":[{"internalType":"contract IUSYC","name":"","type":"address"}],"stateMutability":"view","type":"function"},{"inputs":[],"name":"withdraw","outputs":[],"stateMutability":"nonpayable","type":"function"},{"inputs":[],"name":"writerVault","outputs":[{"internalType":"address","name":"","type":"address"}],"stateMutability":"view","type":"function"},{"stateMutability":"payable","type":"receive"}],"evm":{"bytecode":{"linkReferences":{},"object":"61010060405234801561001157600080fd5b50604051610d5f380380610d5f8339810160408190526100309161006d565b6001600160a01b0392831660805290821660a0521660c0523360e0526100b0565b80516001600160a01b038116811461006857600080fd5b919050565b60008060006060848603121561008257600080fd5b61008b84610051565b925061009960208501610051565b91506100a760408501610051565b90509250925092565b60805160a05160c05160e051610c46610119600039600061022701526000818160c901528181610566015261079a015260008181610155015281816102f70152818161047f015281816105f4015281816106e9015261097e0152600061025b0152610c466000f3fe6080604052600436106100ab5760003560e01c806377c947f81161006457806377c947f8146101d25780637c40d546146101ff5780638da5cb5b14610215578063c8c3f36614610249578063d0e30db01461027d578063e2745d851461028557600080fd5b806335d29909146100b75780633ccfd60b146101085780634cc613911461011f57806357edab4e1461014357806370a082311461017757806371d73b08146101b257600080fd5b366100b257005b600080fd5b3480156100c357600080fd5b506100eb7f000000000000000000000000000000000000000000000000000000000000000081565b6040516001600160a01b0390911681526020015b60405180910390f35b34801561011457600080fd5b5061011d6102b2565b005b34801561012b57600080fd5b5061013561271081565b6040519081526020016100ff565b34801561014f57600080fd5b506100eb7f000000000000000000000000000000000000000000000000000000000000000081565b34801561018357600080fd5b50610197610192366004610a8a565b610441565b604080519384526020840192909252908201526060016100ff565b3480156101be57600080fd5b5061011d6101cd366004610aac565b6104fe565b3480156101de57600080fd5b506101356101ed366004610a8a565b60006020819052908152604090205481565b34801561020b57600080fd5b506101356103e881565b34801561022157600080fd5b506100eb7f000000000000000000000000000000000000000000000000000000000000000081565b34801561025557600080fd5b506100eb7f000000000000000000000000000000000000000000000000000000000000000081565b61011d6108a8565b34801561029157600080fd5b506101356102a0366004610a8a565b60016020526000908152604090205481565b3360009081526020818152604080832080546001909352908320805491849055929092559081811561037c5760405163db006a7560e01b8152600481018390526000907f00000000000000000000000000000000000000000000000000000000000000006001600160a01b03169063db006a75906024016020604051808303816000875af1158015610348573d6000803e3d6000fd5b505050506040513d601f19601f8201168201806040525081019061036c9190610b3a565b90506103788183610b69565b9150505b8060000361039d57604051631e9acf1760e31b815260040160405180910390fd5b604051600090339083908381818185875af1925050503d80600081146103df576040519150601f19603f3d011682016040523d82523d6000602084013e6103e4565b606091505b5050905080610406576040516312171d8360e31b815260040160405180910390fd5b60405182815233907f7084f5476618d8e60b11ef0d7d3f06914655adb8793e28ff7f018d4c76d505d59060200160405180910390a250505050565b6001600160a01b0381811660009081526020818152604080832054600190925280832054905163384a4d7160e21b81526004810182905291939092917f00000000000000000000000000000000000000000000000000000000000000009091169063e12935c490602401602060405180830381865afa1580156104c8573d6000803e3d6000fd5b505050506040513d601f19601f820116820180604052508101906104ec9190610b3a565b6104f69084610b69565b929491935050565b6001600160a01b0384166000908152602081905260409020546103e881106105da576001600160a01b038516600090815260208190526040812080546103e8929061054a908490610b82565b90915550506040516359aa04e760e01b81526001600160a01b037f000000000000000000000000000000000000000000000000000000000000000016906359aa04e7906103e8906105a390889088908890600401610bbe565b6000604051808303818588803b1580156105bc57600080fd5b505af11580156105d0573d6000803e3d6000fd5b5050505050610850565b604051635d13647960e01b81526103e860048201526000907f00000000000000000000000000000000000000000000000000000000000000006001600160a01b031690635d13647990602401602060405180830381865afa158015610643573d6000803e3d6000fd5b505050506040513d601f19601f820116820180604052508101906106679190610b3a565b6001600160a01b0387166000908152600160205260409020549091508111156106a357604051631e9acf1760e31b815260040160405180910390fd5b6001600160a01b038616600090815260016020526040812080548392906106cb908490610b82565b909155505060405163db006a7560e01b8152600481018290526000907f00000000000000000000000000000000000000000000000000000000000000006001600160a01b03169063db006a75906024016020604051808303816000875af115801561073a573d6000803e3d6000fd5b505050506040513d601f19601f8201168201806040525081019061075e9190610b3a565b90506103e881101561078357604051631e9acf1760e31b815260040160405180910390fd5b6040516359aa04e760e01b81526001600160a01b037f000000000000000000000000000000000000000000000000000000000000000016906359aa04e7906103e8906107d7908a908a908a90600401610bbe565b6000604051808303818588803b1580156107f057600080fd5b505af1158015610804573d6000803e3d6000fd5b50505050506103e881111561084d5761081f6103e882610b82565b6001600160a01b03881660009081526020819052604081208054909190610847908490610b69565b90915550505b50505b836001600160a01b0316856001600160a01b03167f97be2867c06e807cd1c22a8bcf41d1a21da278ceb4db53ed9914bfba0228f95385856103e860405161089993929190610bec565b60405180910390a35050505050565b34806108fa5760405162461bcd60e51b815260206004820152601d60248201527f416d6f756e74206d7573742062652067726561746572207468616e2030000000604482015260640160405180910390fd5b33600090815260208190526040812054906127108210156109265761092182612710610b82565b610929565b60005b9050600081841061093a578161093c565b835b9050600061094a8286610b82565b3360009081526020819052604081208054929350849290919061096e908490610b69565b90915550600090508115610a2b577f00000000000000000000000000000000000000000000000000000000000000006001600160a01b0316638f449a05836040518263ffffffff1660e01b815260040160206040518083038185885af11580156109dc573d6000803e3d6000fd5b50505050506040513d601f19601f82011682018060405250810190610a019190610b3a565b33600090815260016020526040812080549293508392909190610a25908490610b69565b90915550505b604080518781526020810183905233917f73a19dd210f1a7f902193214c0ee91dd35ee5b4d920cba8d519eca65a7b488ca910160405180910390a2505050505050565b80356001600160a01b0381168114610a8557600080fd5b919050565b600060208284031215610a9c57600080fd5b610aa582610a6e565b9392505050565b60008060008060608587031215610ac257600080fd5b610acb85610a6e565b9350610ad960208601610a6e565b9250604085013567ffffffffffffffff80821115610af657600080fd5b818701915087601f830112610b0a57600080fd5b813581811115610b1957600080fd5b886020828501011115610b2b57600080fd5b95989497505060200194505050565b600060208284031215610b4c57600080fd5b5051919050565b634e487b7160e01b600052601160045260246000fd5b80820180821115610b7c57610b7c610b53565b92915050565b81810381811115610b7c57610b7c610b53565b81835281816020850137506000828201602090810191909152601f909101601f19169091010190565b6001600160a01b0384168152604060208201819052600090610be39083018486610b95565b95945050505050565b604081526000610c00604083018587610b95565b905082602083015294935050505056fea264697066735822122019c585ef00ac3d59eca0b4703c7c9e6c85b25f918aaa168848117d5604268f5664736f6c63430008180033","opcodes":"PUSH2 0x100 PUSH1 0x40 MSTORE CALLVALUE DUP1 ISZERO PUSH2 0x11 JUMPI PUSH1 0x0 DUP1 REVERT JUMPDEST POP PUSH1 0x40 MLOAD PUSH2 0xD5F CODESIZE SUB DUP1 PUSH2 0xD5F DUP4 CODECOPY DUP2 ADD PUSH1 0x40 DUP2 SWAP1 MSTORE PUSH2 0x30 SWAP2 PUSH2 0x6D JUMP JUMPDEST PUSH1 0x1 PUSH1 0x1 PUSH1 0xA0 SHL SUB SWAP3 DUP4 AND PUSH1 0x80 MSTORE SWAP1 DUP3 AND PUSH1 0xA0 MSTORE AND PUSH1 0xC0 MSTORE CALLER PUSH1 0xE0 MSTORE PUSH2 0xB0 JUMP JUMPDEST DUP1 MLOAD PUSH1 0x1 PUSH1 0x1 PUSH1 0xA0 SHL SUB DUP2 AND DUP2 EQ PUSH2 0x68 JUMPI PUSH1 0x0 DUP1 REVERT JUMPDEST SWAP2 SWAP1 POP JUMP JUMPDEST PUSH1 0x0 DUP1 PUSH1 0x0 PUSH1 0x60 DUP5 DUP7 SUB SLT ISZERO PUSH2 0x82 JUMPI PUSH1 0x0 DUP1 REVERT JUMPDEST PUSH2 0x8B DUP5 PUSH2 0x51 JUMP JUMPDEST SWAP3 POP PUSH2 0x99 PUSH1 0x20 DUP6 ADD PUSH2 0x51 JUMP JUMPDEST SWAP2 POP PUSH2 0xA7 PUSH1 0x40 DUP6 ADD PUSH2 0x51 JUMP JUMPDEST SWAP1 POP SWAP3 POP SWAP3 POP SWAP3 JUMP JUMPDEST PUSH1 0x80 MLOAD PUSH1 0xA0 MLOAD PUSH1 0xC0 MLOAD PUSH1 0xE0 MLOAD PUSH2 0xC46 PUSH2 0x119 PUSH1 0x0 CODECOPY PUSH1 0x0 PUSH2 0x227 ADD MSTORE PUSH1 0x0 DUP2 DUP2 PUSH1 0xC9 ADD MSTORE DUP2 DUP2 PUSH2 0x566 ADD MSTORE PUSH2 0x79A ADD MSTORE PUSH1 0x0 DUP2 DUP2 PUSH2 0x155 ADD MSTORE DUP2 DUP2 PUSH2 0x2F7 ADD MSTORE DUP2 DUP2 PUSH2 0x47F ADD MSTORE DUP2 DUP2 PUSH2 0x5F4 ADD MSTORE DUP2 DUP2 PUSH2 0x6E9 ADD MSTORE PUSH2 0x97E ADD MSTORE PUSH1 0x0 PUSH2 0x25B ADD MSTORE PUSH2 0xC46 PUSH1 0x0 RETURN INVALID PUSH1 0x80 PUSH1 0x40 MSTORE PUSH1 0x4 CALLDATASIZE LT PUSH2 0xAB JUMPI PUSH1 0x0 CALLDATALOAD PUSH1 0xE0 SHR DUP1 PUSH4 0x77C947F8 GT PUSH2 0x64 JUMPI DUP1 PUSH4 0x77C947F8 EQ PUSH2 0x1D2 JUMPI DUP1 PUSH4 0x7C40D546 EQ PUSH2 0x1FF JUMPI DUP1 PUSH4 0x8DA5CB5B EQ PUSH2 0x215 JUMPI DUP1 PUSH4 0xC8C3F366 EQ PUSH2 0x249 JUMPI DUP1 PUSH4 0xD0E30DB0 EQ PUSH2 0x27D JUMPI DUP1 PUSH4 0xE2745D85 EQ PUSH2 0x285 JUMPI PUSH1 0x0 DUP1 REVERT JUMPDEST DUP1 PUSH4 0x35D29909 EQ PUSH2 0xB7 JUMPI DUP1 PUSH4 0x3CCFD60B EQ PUSH2 0x108 JUMPI DUP1 PUSH4 0x4CC61391 EQ PUSH2 0x11F JUMPI DUP1 PUSH4 0x57EDAB4E EQ PUSH2 0x143 JUMPI DUP1 PUSH4 0x70A08231 EQ PUSH2 0x177 JUMPI DUP1 PUSH4 0x71D73B08 EQ PUSH2 0x1B2 JUMPI PUSH1 0x0 DUP1 REVERT JUMPDEST CALLDATASIZE PUSH2 0xB2 JUMPI STOP JUMPDEST PUSH1 0x0 DUP1 REVERT JUMPDEST CALLVALUE DUP1 ISZERO PUSH2 0xC3 JUMPI PUSH1 0x0 DUP1 REVERT JUMPDEST POP PUSH2 0xEB PUSH32 0x0 DUP2 JUMP JUMPDEST PUSH1 0x40 MLOAD PUSH1 0x1 PUSH1 0x1 PUSH1 0xA0 SHL SUB SWAP1 SWAP2 AND DUP2 MSTORE PUSH1 0x20 ADD JUMPDEST PUSH1 0x40 MLOAD DUP1 SWAP2 SUB SWAP1 RETURN JUMPDEST CALLVALUE DUP1 ISZERO PUSH2 0x114 JUMPI PUSH1 0x0 DUP1 REVERT JUMPDEST POP PUSH2 0x11D PUSH2 0x2B2 JUMP JUMPDEST STOP JUMPDEST CALLVALUE DUP1 ISZERO PUSH2 0x12B JUMPI PUSH1 0x0 DUP1 REVERT JUMPDEST POP PUSH2 0x135 PUSH2 0x2710 DUP2 JUMP JUMPDEST PUSH1 0x40 MLOAD SWAP1 DUP2 MSTORE PUSH1 0x20 ADD PUSH2 0xFF JUMP JUMPDEST CALLVALUE DUP1 ISZERO PUSH2 0x14F JUMPI PUSH1 0x0 DUP1 REVERT JUMPDEST POP PUSH2 0xEB PUSH32 0x0 DUP2 JUMP JUMPDEST CALLVALUE DUP1 ISZERO PUSH2 0x183 JUMPI PUSH1 0x0 DUP1 REVERT JUMPDEST POP PUSH2 0x197 PUSH2 0x192 CALLDATASIZE PUSH1 0x4 PUSH2 0xA8A JUMP JUMPDEST PUSH2 0x441 JUMP JUMPDEST PUSH1 0x40 DUP1 MLOAD SWAP4 DUP5 MSTORE PUSH1 0x20 DUP5 ADD SWAP3 SWAP1 SWAP3 MSTORE SWAP1 DUP3 ADD MSTORE PUSH1 0x60 ADD PUSH2 0xFF JUMP JUMPDEST CALLVALUE DUP1 ISZERO PUSH2 0x1BE JUMPI PUSH1 0x0 DUP1 REVERT JUMPDEST POP PUSH2 0x11D PUSH2 0x1CD CALLDATASIZE PUSH1 0x4 PUSH2 0xAAC JUMP JUMPDEST PUSH2 0x4FE JUMP JUMPDEST CALLVALUE DUP1 ISZERO PUSH2 0x1DE JUMPI PUSH1 0x0 DUP1 REVERT JUMPDEST POP PUSH2 0x135 PUSH2 0x1ED CALLDATASIZE PUSH1 0x4 PUSH2 0xA8A JUMP JUMPDEST PUSH1 0x0 PUSH1 0x20 DUP2 SWAP1 MSTORE SWAP1 DUP2 MSTORE PUSH1 0x40 SWAP1 KECCAK256 SLOAD DUP2 JUMP JUMPDEST CALLVALUE DUP1 ISZERO PUSH2 0x20B JUMPI PUSH1 0x0 DUP1 REVERT JUMPDEST POP PUSH2 0x135 PUSH2 0x3E8 DUP2 JUMP JUMPDEST CALLVALUE DUP1 ISZERO PUSH2 0x221 JUMPI PUSH1 0x0 DUP1 REVERT JUMPDEST POP PUSH2 0xEB PUSH32 0x0 DUP2 JUMP JUMPDEST CALLVALUE DUP1 ISZERO PUSH2 0x255 JUMPI PUSH1 0x0 DUP1 REVERT JUMPDEST POP PUSH2 0xEB PUSH32 0x0 DUP2 JUMP JUMPDEST PUSH2 0x11D PUSH2 0x8A8 JUMP JUMPDEST CALLVALUE DUP1 ISZERO PUSH2 0x291 JUMPI PUSH1 0x0 DUP1 REVERT JUMPDEST POP PUSH2 0x135 PUSH2 0x2A0 CALLDATASIZE PUSH1 0x4 PUSH2 0xA8A JUMP JUMPDEST PUSH1 0x1 PUSH1 0x20 MSTORE PUSH1 0x0 SWAP1 DUP2 MSTORE PUSH1 0x40 SWAP1 KECCAK256 SLOAD DUP2 JUMP JUMPDEST CALLER PUSH1 0x0 SWAP1 DUP2 MSTORE PUSH1 0x20 DUP2 DUP2 MSTORE PUSH1 0x40 DUP1 DUP4 KECCAK256 DUP1 SLOAD PUSH1 0x1 SWAP1 SWAP4 MSTORE SWAP1 DUP4 KECCAK256 DUP1 SLOAD SWAP2 DUP5 SWAP1 SSTORE SWAP3 SWAP1 SWAP3 SSTORE SWAP1 DUP2 DUP2 ISZERO PUSH2 0x37C JUMPI PUSH1 0x40 MLOAD PUSH4 0xDB006A75 PUSH1 0xE0 SHL DUP2 MSTORE PUSH1 0x4 DUP2 ADD DUP4 SWAP1 MSTORE PUSH1 0x0 SWAP1 PUSH32 0x0 PUSH1 0x1 PUSH1 0x1 PUSH1 0xA0 SHL SUB AND SWAP1 PUSH4 0xDB006A75 SWAP1 PUSH1 0x24 ADD PUSH1 0x20 PUSH1 0x40 MLOAD DUP1 DUP4 SUB DUP2 PUSH1 0x0 DUP8 GAS CALL ISZERO DUP1 ISZERO PUSH2 0x348 JUMPI RETURNDATASIZE PUSH1 0x0 DUP1 RETURNDATACOPY RETURNDATASIZE PUSH1 0x0 REVERT JUMPDEST POP POP POP POP PUSH1 0x40 MLOAD RETURNDATASIZE PUSH1 0x1F NOT PUSH1 0x1F DUP3 ADD AND DUP3 ADD DUP1 PUSH1 0x40 MSTORE POP DUP2 ADD SWAP1 PUSH2 0x36C SWAP2 SWAP1 PUSH2 0xB3A JUMP JUMPDEST SWAP1 POP PUSH2 0x378 DUP2 DUP4 PUSH2 0xB69 JUMP JUMPDEST SWAP2 POP POP JUMPDEST DUP1 PUSH1 0x0 SUB PUSH2 0x39D JUMPI PUSH1 0x40 MLOAD PUSH4 0x1E9ACF17 PUSH1 0xE3 SHL DUP2 MSTORE PUSH1 0x4 ADD PUSH1 0x40 MLOAD DUP1 SWAP2 SUB SWAP1 REVERT JUMPDEST PUSH1 0x40 MLOAD PUSH1 0x0 SWAP1 CALLER SWAP1 DUP4 SWAP1 DUP4 DUP2 DUP2 DUP2 DUP6 DUP8 GAS CALL SWAP3 POP POP POP RETURNDATASIZE DUP1 PUSH1 0x0 DUP2 EQ PUSH2 0x3DF JUMPI PUSH1 0x40 MLOAD SWAP2 POP PUSH1 0x1F NOT PUSH1 0x3F RETURNDATASIZE ADD AND DUP3 ADD PUSH1 0x40 MSTORE RETURNDATASIZE DUP3 MSTORE RETURNDATASIZE PUSH1 0x0 PUSH1 0x20 DUP5 ADD RETURNDATACOPY PUSH2 0x3E4 JUMP JUMPDEST PUSH1 0x60 SWAP2 POP JUMPDEST POP POP SWAP1 POP DUP1 PUSH2 0x406 JUMPI PUSH1 0x40 MLOAD PUSH4 0x12171D83 PUSH1 0xE3 SHL DUP2 MSTORE PUSH1 0x4 ADD PUSH1 0x40 MLOAD DUP1 SWAP2 SUB SWAP1 REVERT JUMPDEST PUSH1 0x40 MLOAD DUP3 DUP2 MSTORE CALLER SWAP1 PUSH32 0x7084F5476618D8E60B11EF0D7D3F06914655ADB8793E28FF7F018D4C76D505D5 SWAP1 PUSH1 0x20 ADD PUSH1 0x40 MLOAD DUP1 SWAP2 SUB SWAP1 LOG2 POP POP POP POP JUMP JUMPDEST PUSH1 0x1 PUSH1 0x1 PUSH1 0xA0 SHL SUB DUP2 DUP2 AND PUSH1 0x0 SWAP1 DUP2 MSTORE PUSH1 0x20 DUP2 DUP2 MSTORE PUSH1 0x40 DUP1 DUP4 KECCAK256 SLOAD PUSH1 0x1 SWAP1 SWAP3 MSTORE DUP1 DUP4 KECCAK256 SLOAD SWAP1 MLOAD PUSH4 0x384A4D71 PUSH1 0xE2 SHL DUP2 MSTORE PUSH1 0x4 DUP2 ADD DUP3 SWAP1 MSTORE SWAP2 SWAP4 SWAP1 SWAP3 SWAP2 PUSH32 0x0 SWAP1 SWAP2 AND SWAP1 PUSH4 0xE12935C4 SWAP1 PUSH1 0x24 ADD PUSH1 0x20 PUSH1 0x40 MLOAD DUP1 DUP4 SUB DUP2 DUP7 GAS STATICCALL ISZERO DUP1 ISZERO PUSH2 0x4C8 JUMPI RETURNDATASIZE PUSH1 0x0 DUP1 RETURNDATACOPY RETURNDATASIZE PUSH1 0x0 REVERT JUMPDEST POP POP POP POP PUSH1 0x40 MLOAD RETURNDATASIZE PUSH1 0x1F NOT PUSH1 0x1F DUP3 ADD AND DUP3 ADD DUP1 PUSH1 0x40 MSTORE POP DUP2 ADD SWAP1 PUSH2 0x4EC SWAP2 SWAP1 PUSH2 0xB3A JUMP JUMPDEST PUSH2 0x4F6 SWAP1 DUP5 PUSH2 0xB69 JUMP JUMPDEST SWAP3 SWAP5 SWAP2 SWAP4 POP POP JUMP JUMPDEST PUSH1 0x1 PUSH1 0x1 PUSH1 0xA0 SHL SUB DUP5 AND PUSH1 0x0 SWAP1 DUP2 MSTORE PUSH1 0x20 DUP2 SWAP1 MSTORE PUSH1 0x40 SWAP1 KECCAK256 SLOAD PUSH2 0x3E8 DUP2 LT PUSH2 0x5DA JUMPI PUSH1 0x1 PUSH1 0x1 PUSH1 0xA0 SHL SUB DUP6 AND PUSH1 0x0 SWAP1 DUP2 MSTORE PUSH1 0x20 DUP2 SWAP1 MSTORE PUSH1 0x40 DUP2 KECCAK256 DUP1 SLOAD PUSH2 0x3E8 SWAP3 SWAP1 PUSH2 0x54A SWAP1 DUP5 SWAP1 PUSH2 0xB82 JUMP JUMPDEST SWAP1 SWAP2 SSTORE POP POP PUSH1 0x40 MLOAD PUSH4 0x59AA04E7 PUSH1 0xE0 SHL DUP2 MSTORE PUSH1 0x1 PUSH1 0x1 PUSH1 0xA0 SHL SUB PUSH32 0x0 AND SWAP1 PUSH4 0x59AA04E7 SWAP1 PUSH2 0x3E8 SWAP1 PUSH2 0x5A3 SWAP1 DUP9 SWAP1 DUP9 SWAP1 DUP9 SWAP1 PUSH1 0x4 ADD PUSH2 0xBBE JUMP JUMPDEST PUSH1 0x0 PUSH1 0x40 MLOAD DUP1 DUP4 SUB DUP2 DUP6 DUP9 DUP1 EXTCODESIZE ISZERO DUP1 ISZERO PUSH2 0x5BC JUMPI PUSH1 0x0 DUP1 REVERT JUMPDEST POP GAS CALL ISZERO DUP1 ISZERO PUSH2 0x5D0 JUMPI RETURNDATASIZE PUSH1 0x0 DUP1 RETURNDATACOPY RETURNDATASIZE PUSH1 0x0 REVERT JUMPDEST POP POP POP POP POP PUSH2 0x850 JUMP JUMPDEST PUSH1 0x40 MLOAD PUSH4 0x5D136479 PUSH1 0xE0 SHL DUP2 MSTORE PUSH2 0x3E8 PUSH1 0x4 DUP3 ADD MSTORE PUSH1 0x0 SWAP1 PUSH32 0x0 PUSH1 0x1 PUSH1 0x1 PUSH1 0xA0 SHL SUB AND SWAP1 PUSH4 0x5D136479 SWAP1 PUSH1 0x24 ADD PUSH1 0x20 PUSH1 0x40 MLOAD DUP1 DUP4 SUB DUP2 DUP7 GAS STATICCALL ISZERO DUP1 ISZERO PUSH2 0x643 JUMPI RETURNDATASIZE PUSH1 0x0 DUP1 RETURNDATACOPY RETURNDATASIZE PUSH1 0x0 REVERT JUMPDEST POP POP POP POP PUSH1 0x40 MLOAD RETURNDATASIZE PUSH1 0x1F NOT PUSH1 0x1F DUP3 ADD AND DUP3 ADD DUP1 PUSH1 0x40 MSTORE POP DUP2 ADD SWAP1 PUSH2 0x667 SWAP2 SWAP1 PUSH2 0xB3A JUMP JUMPDEST PUSH1 0x1 PUSH1 0x1 PUSH1 0xA0 SHL SUB DUP8 AND PUSH1 0x0 SWAP1 DUP2 MSTORE PUSH1 0x1 PUSH1 0x20 MSTORE PUSH1 0x40 SWAP1 KECCAK256 SLOAD SWAP1 SWAP2 POP DUP2 GT ISZERO PUSH2 0x6A3 JUMPI PUSH1 0x40 MLOAD PUSH4 0x1E9ACF17 PUSH1 0xE3 SHL DUP2 MSTORE PUSH1 0x4 ADD PUSH1 0x40 MLOAD DUP1 SWAP2 SUB SWAP1 REVERT JUMPDEST PUSH1 0x1 PUSH1 0x1 PUSH1 0xA0 SHL SUB DUP7 AND PUSH1 0x0 SWAP1 DUP2 MSTORE PUSH1 0x1 PUSH1 0x20 MSTORE PUSH1 0x40 DUP2 KECCAK256 DUP1 SLOAD DUP4 SWAP3 SWAP1 PUSH2 0x6CB SWAP1 DUP5 SWAP1 PUSH2 0xB82 JUMP JUMPDEST SWAP1 SWAP2 SSTORE POP POP PUSH1 0x40 MLOAD PUSH4 0xDB006A75 PUSH1 0xE0 SHL DUP2 MSTORE PUSH1 0x4 DUP2 ADD DUP3 SWAP1 MSTORE PUSH1 0x0 SWAP1 PUSH32 0x0 PUSH1 0x1 PUSH1 0x1 PUSH1 0xA0 SHL SUB AND SWAP1 PUSH4 0xDB006A75 SWAP1 PUSH1 0x24 ADD PUSH1 0x20 PUSH1 0x40 MLOAD DUP1 DUP4 SUB DUP2 PUSH1 0x0 DUP8 GAS CALL ISZERO DUP1 ISZERO PUSH2 0x73A JUMPI RETURNDATASIZE PUSH1 0x0 DUP1 RETURNDATACOPY RETURNDATASIZE PUSH1 0x0 REVERT JUMPDEST POP POP POP POP PUSH1 0x40 MLOAD RETURNDATASIZE PUSH1 0x1F NOT PUSH1 0x1F DUP3 ADD AND DUP3 ADD DUP1 PUSH1 0x40 MSTORE POP DUP2 ADD SWAP1 PUSH2 0x75E SWAP2 SWAP1 PUSH2 0xB3A JUMP JUMPDEST SWAP1 POP PUSH2 0x3E8 DUP2 LT ISZERO PUSH2 0x783 JUMPI PUSH1 0x40 MLOAD PUSH4 0x1E9ACF17 PUSH1 0xE3 SHL DUP2 MSTORE PUSH1 0x4 ADD PUSH1 0x40 MLOAD DUP1 SWAP2 SUB SWAP1 REVERT JUMPDEST PUSH1 0x40 MLOAD PUSH4 0x59AA04E7 PUSH1 0xE0 SHL DUP2 MSTORE PUSH1 0x1 PUSH1 0x1 PUSH1 0xA0 SHL SUB PUSH32 0x0 AND SWAP1 PUSH4 0x59AA04E7 SWAP1 PUSH2 0x3E8 SWAP1 PUSH2 0x7D7 SWAP1 DUP11 SWAP1 DUP11 SWAP1 DUP11 SWAP1 PUSH1 0x4 ADD PUSH2 0xBBE JUMP JUMPDEST PUSH1 0x0 PUSH1 0x40 MLOAD DUP1 DUP4 SUB DUP2 DUP6 DUP9 DUP1 EXTCODESIZE ISZERO DUP1 ISZERO PUSH2 0x7F0 JUMPI PUSH1 0x0 DUP1 REVERT JUMPDEST POP GAS CALL ISZERO DUP1 ISZERO PUSH2 0x804 JUMPI RETURNDATASIZE PUSH1 0x0 DUP1 RETURNDATACOPY RETURNDATASIZE PUSH1 0x0 REVERT JUMPDEST POP POP POP POP POP PUSH2 0x3E8 DUP2 GT ISZERO PUSH2 0x84D JUMPI PUSH2 0x81F PUSH2 0x3E8 DUP3 PUSH2 0xB82 JUMP JUMPDEST PUSH1 0x1 PUSH1 0x1 PUSH1 0xA0 SHL SUB DUP9 AND PUSH1 0x0 SWAP1 DUP2 MSTORE PUSH1 0x20 DUP2 SWAP1 MSTORE PUSH1 0x40 DUP2 KECCAK256 DUP1 SLOAD SWAP1 SWAP2 SWAP1 PUSH2 0x847 SWAP1 DUP5 SWAP1 PUSH2 0xB69 JUMP JUMPDEST SWAP1 SWAP2 SSTORE POP POP JUMPDEST POP POP JUMPDEST DUP4 PUSH1 0x1 PUSH1 0x1 PUSH1 0xA0 SHL SUB AND DUP6 PUSH1 0x1 PUSH1 0x1 PUSH1 0xA0 SHL SUB AND PUSH32 0x97BE2867C06E807CD1C22A8BCF41D1A21DA278CEB4DB53ED9914BFBA0228F953 DUP6 DUP6 PUSH2 0x3E8 PUSH1 0x40 MLOAD PUSH2 0x899 SWAP4 SWAP3 SWAP2 SWAP1 PUSH2 0xBEC JUMP JUMPDEST PUSH1 0x40 MLOAD DUP1 SWAP2 SUB SWAP1 LOG3 POP POP POP POP POP JUMP JUMPDEST CALLVALUE DUP1 PUSH2 0x8FA JUMPI PUSH1 0x40 MLOAD PUSH3 0x461BCD PUSH1 0xE5 SHL DUP2 MSTORE PUSH1 0x20 PUSH1 0x4 DUP3 ADD MSTORE PUSH1 0x1D PUSH1 0x24 DUP3 ADD MSTORE PUSH32 0x416D6F756E74206D7573742062652067726561746572207468616E2030000000 PUSH1 0x44 DUP3 ADD MSTORE PUSH1 0x64 ADD PUSH1 0x40 MLOAD DUP1 SWAP2 SUB SWAP1 REVERT JUMPDEST CALLER PUSH1 0x0 SWAP1 DUP2 MSTORE PUSH1 0x20 DUP2 SWAP1 MSTORE PUSH1 0x40 DUP2 KECCAK256 SLOAD SWAP1 PUSH2 0x2710 DUP3 LT ISZERO PUSH2 0x926 JUMPI PUSH2 0x921 DUP3 PUSH2 0x2710 PUSH2 0xB82 JUMP JUMPDEST PUSH2 0x929 JUMP JUMPDEST PUSH1 0x0 JUMPDEST SWAP1 POP PUSH1 0x0 DUP2 DUP5 LT PUSH2 0x93A JUMPI DUP2 PUSH2 0x93C JUMP JUMPDEST DUP4 JUMPDEST SWAP1 POP PUSH1 0x0 PUSH2 0x94A DUP3 DUP7 PUSH2 0xB82 JUMP JUMPDEST CALLER PUSH1 0x0 SWAP1 DUP2 MSTORE PUSH1 0x20 DUP2 SWAP1 MSTORE PUSH1 0x40 DUP2 KECCAK256 DUP1 SLOAD SWAP3 SWAP4 POP DUP5 SWAP3 SWAP1 SWAP2 SWAP1 PUSH2 0x96E SWAP1 DUP5 SWAP1 PUSH2 0xB69 JUMP JUMPDEST SWAP1 SWAP2 SSTORE POP PUSH1 0x0 SWAP1 POP DUP2 ISZERO PUSH2 0xA2B JUMPI PUSH32 0x0 PUSH1 0x1 PUSH1 0x1 PUSH1 0xA0 SHL SUB AND PUSH4 0x8F449A05 DUP4 PUSH1 0x40 MLOAD DUP3 PUSH4 0xFFFFFFFF AND PUSH1 0xE0 SHL DUP2 MSTORE PUSH1 0x4 ADD PUSH1 0x20 PUSH1 0x40 MLOAD DUP1 DUP4 SUB DUP2 DUP6 DUP9 GAS CALL ISZERO DUP1 ISZERO PUSH2 0x9DC JUMPI RETURNDATASIZE PUSH1 0x0 DUP1 RETURNDATACOPY RETURNDATASIZE PUSH1 0x0 REVERT JUMPDEST POP POP POP POP POP PUSH1 0x40 MLOAD RETURNDATASIZE PUSH1 0x1F NOT PUSH1 0x1F DUP3 ADD AND DUP3 ADD DUP1 PUSH1 0x40 MSTORE POP DUP2 ADD SWAP1 PUSH2 0xA01 SWAP2 SWAP1 PUSH2 0xB3A JUMP JUMPDEST CALLER PUSH1 0x0 SWAP1 DUP2 MSTORE PUSH1 0x1 PUSH1 0x20 MSTORE PUSH1 0x40 DUP2 KECCAK256 DUP1 SLOAD SWAP3 SWAP4 POP DUP4 SWAP3 SWAP1 SWAP2 SWAP1 PUSH2 0xA25 SWAP1 DUP5 SWAP1 PUSH2 0xB69 JUMP JUMPDEST SWAP1 SWAP2 SSTORE POP POP JUMPDEST PUSH1 0x40 DUP1 MLOAD DUP8 DUP2 MSTORE PUSH1 0x20 DUP2 ADD DUP4 SWAP1 MSTORE CALLER SWAP2 PUSH32 0x73A19DD210F1A7F902193214C0EE91DD35EE5B4D920CBA8D519ECA65A7B488CA SWAP2 ADD PUSH1 0x40 MLOAD DUP1 SWAP2 SUB SWAP1 LOG2 POP POP POP POP POP POP JUMP JUMPDEST DUP1 CALLDATALOAD PUSH1 0x1 PUSH1 0x1 PUSH1 0xA0 SHL SUB DUP2 AND DUP2 EQ PUSH2 0xA85 JUMPI PUSH1 0x0 DUP1 REVERT JUMPDEST SWAP2 SWAP1 POP JUMP JUMPDEST PUSH1 0x0 PUSH1 0x20 DUP3 DUP5 SUB SLT ISZERO PUSH2 0xA9C JUMPI PUSH1 0x0 DUP1 REVERT JUMPDEST PUSH2 0xAA5 DUP3 PUSH2 0xA6E JUMP JUMPDEST SWAP4 SWAP3 POP POP POP JUMP JUMPDEST PUSH1 0x0 DUP1 PUSH1 0x0 DUP1 PUSH1 0x60 DUP6 DUP8 SUB SLT ISZERO PUSH2 0xAC2 JUMPI PUSH1 0x0 DUP1 REVERT JUMPDEST PUSH2 0xACB DUP6 PUSH2 0xA6E JUMP JUMPDEST SWAP4 POP PUSH2 0xAD9 PUSH1 0x20 DUP7 ADD PUSH2 0xA6E JUMP JUMPDEST SWAP3 POP PUSH1 0x40 DUP6 ADD CALLDATALOAD PUSH8 0xFFFFFFFFFFFFFFFF DUP1 DUP3 GT ISZERO PUSH2 0xAF6 JUMPI PUSH1 0x0 DUP1 REVERT JUMPDEST DUP2 DUP8 ADD SWAP2 POP DUP8 PUSH1 0x1F DUP4 ADD SLT PUSH2 0xB0A JUMPI PUSH1 0x0 DUP1 REVERT JUMPDEST DUP2 CALLDATALOAD DUP2 DUP2 GT ISZERO PUSH2 0xB19 JUMPI PUSH1 0x0 DUP1 REVERT JUMPDEST DUP9 PUSH1 0x20 DUP3 DUP6 ADD ADD GT ISZERO PUSH2 0xB2B JUMPI PUSH1 0x0 DUP1 REVERT JUMPDEST SWAP6 SWAP9 SWAP5 SWAP8 POP POP PUSH1 0x20 ADD SWAP5 POP POP POP JUMP JUMPDEST PUSH1 0x0 PUSH1 0x20 DUP3 DUP5 SUB SLT ISZERO PUSH2 0xB4C JUMPI PUSH1 0x0 DUP1 REVERT JUMPDEST POP MLOAD SWAP2 SWAP1 POP JUMP JUMPDEST PUSH4 0x4E487B71 PUSH1 0xE0 SHL PUSH1 0x0 MSTORE PUSH1 0x11 PUSH1 0x4 MSTORE PUSH1 0x24 PUSH1 0x0 REVERT JUMPDEST DUP1 DUP3 ADD DUP1 DUP3 GT ISZERO PUSH2 0xB7C JUMPI PUSH2 0xB7C PUSH2 0xB53 JUMP JUMPDEST SWAP3 SWAP2 POP POP JUMP JUMPDEST DUP2 DUP2 SUB DUP2 DUP2 GT ISZERO PUSH2 0xB7C JUMPI PUSH2 0xB7C PUSH2 0xB53 JUMP JUMPDEST DUP2 DUP4 MSTORE DUP2 DUP2 PUSH1 0x20 DUP6 ADD CALLDATACOPY POP PUSH1 0x0 DUP3 DUP3 ADD PUSH1 0x20 SWAP1 DUP2 ADD SWAP2 SWAP1 SWAP2 MSTORE PUSH1 0x1F SWAP1 SWAP2 ADD PUSH1 0x1F NOT AND SWAP1 SWAP2 ADD ADD SWAP1 JUMP JUMPDEST PUSH1 0x1 PUSH1 0x1 PUSH1 0xA0 SHL SUB DUP5 AND DUP2 MSTORE PUSH1 0x40 PUSH1 0x20 DUP3 ADD DUP2 SWAP1 MSTORE PUSH1 0x0 SWAP1 PUSH2 0xBE3 SWAP1 DUP4 ADD DUP5 DUP7 PUSH2 0xB95 JUMP JUMPDEST SWAP6 SWAP5 POP POP POP POP POP JUMP JUMPDEST PUSH1 0x40 DUP2 MSTORE PUSH1 0x0 PUSH2 0xC00 PUSH1 0x40 DUP4 ADD DUP6 DUP8 PUSH2 0xB95 JUMP JUMPDEST SWAP1 POP DUP3 PUSH1 0x20 DUP4 ADD MSTORE SWAP5 SWAP4 POP POP POP POP JUMP INVALID LOG2 PUSH5 0x6970667358 0x22 SLT KECCAK256 NOT 0xC5 DUP6 0xEF STOP 0xAC RETURNDATASIZE MSIZE 0xEC LOG0 0xB4 PUSH17 0x3C7C9E6C85B25F918AAA168848117D5604 0x26 DUP16 JUMP PUSH5 0x736F6C6343 STOP ADDMOD XOR STOP CALLER "},"methodIdentifiers":{"FLOAT_AMOUNT()":"4cc61391","PRICE_PER_READ()":"7c40d546","balanceOf(address)":"70a08231","deposit()":"d0e30db0","owner()":"8da5cb5b","payForRead(address,address,string)":"71d73b08","teller()":"57edab4e","usdcFloat(address)":"77c947f8","usycStaked(address)":"e2745d85","usycToken()":"c8c3f366","withdraw()":"3ccfd60b","writerVault()":"35d29909"}}}}}