{"contracts/WriterVault.sol":{"WriterVault":{"abi":[{"inputs":[{"internalType":"address","name":"_usycToken","type":"address"},{"internalType":"address","name":"_teller","type":"address"}],"stateMutability":"nonpayable","type":"constructor"},{"inputs":[],"name":"InsufficientBalance","type":"error"},{"inputs":[],"name":"TransferFailed","type":"error"},{"inputs":[],"name":"Unauthorized","type":"error"},{"anonymous":false,"inputs":[{"indexed":true,"internalType":"address","name":"writer","type":"address"},{"indexed":false,"internalType":"uint256","name":"usdcAmount","type":"uint256"},{"indexed":false,"internalType":"uint256","name":"usycMinted","type":"uint256"},{"indexed":false,"internalType":"string","name":"slug","type":"string"}],"name":"EarningsReceived","type":"event"},{"anonymous":false,"inputs":[{"indexed":true,"internalType":"address","name":"writer","type":"address"},{"indexed":false,"internalType":"uint256","name":"usdcAmount","type":"uint256"}],"name":"EarningsWithdrawn","type":"event"},{"inputs":[{"internalType":"address","name":"writer","type":"address"}],"name":"earningsOf","outputs":[{"internalType":"uint256","name":"usyc","type":"uint256"},{"internalType":"uint256","name":"estimatedUsdc","type":"uint256"},{"internalType":"uint256","name":"reads","type":"uint256"},{"internalType":"uint256","name":"lifetimeUsdc","type":"uint256"}],"stateMutability":"view","type":"function"},{"inputs":[],"name":"owner","outputs":[{"internalType":"address","name":"","type":"address"}],"stateMutability":"view","type":"function"},{"inputs":[{"internalType":"address","name":"writer","type":"address"},{"internalType":"string","name":"slug","type":"string"}],"name":"receivePayment","outputs":[],"stateMutability":"payable","type":"function"},{"inputs":[],"name":"teller","outputs":[{"internalType":"contract ITeller","name":"","type":"address"}],"stateMutability":"view","type":"function"},{"inputs":[{"internalType":"address","name":"","type":"address"}],"name":"totalReads","outputs":[{"internalType":"uint256","name":"","type":"uint256"}],"stateMutability":"view","type":"function"},{"inputs":[{"internalType":"address","name":"","type":"address"}],"name":"totalUsdcEarned","outputs":[{"internalType":"uint256","name":"","type":"uint256"}],"stateMutability":"view","type":"function"},{"inputs":[{"internalType":"address","name":"","type":"address"}],"name":"usycBalance","outputs":[{"internalType":"uint256","name":"","type":"uint256"}],"stateMutability":"view","type":"function"},{"inputs":[],"name":"usycToken","outputs":[{"internalType":"contract IUSYC","name":"","type":"address"}],"stateMutability":"view","type":"function"},{"inputs":[],"name":"withdraw","outputs":[],"stateMutability":"nonpayable","type":"function"},{"stateMutability":"payable","type":"receive"}],"evm":{"bytecode":{"linkReferences":{},"object":"60e060405234801561001057600080fd5b506040516108a33803806108a383398101604081905261002f91610066565b6001600160a01b039182166080521660a0523360c052610099565b80516001600160a01b038116811461006157600080fd5b919050565b6000806040838503121561007957600080fd5b6100828361004a565b91506100906020840161004a565b90509250929050565b60805160a05160c0516107c66100dd60003960006101b801526000818161012c015281816102ae0152818161041701526105b60152600061022c01526107c66000f3fe60806040526004361061008a5760003560e01c806359aa04e71161005957806359aa04e7146101665780635c15eae9146101795780638da5cb5b146101a65780638df08bd4146101da578063c8c3f3661461021a57600080fd5b80632cd7b40914610096578063355a18ec146100d65780633ccfd60b1461010357806357edab4e1461011a57600080fd5b3661009157005b600080fd5b3480156100a257600080fd5b506100c36100b136600461066e565b60026020526000908152604090205481565b6040519081526020015b60405180910390f35b3480156100e257600080fd5b506100c36100f136600461066e565b60016020526000908152604090205481565b34801561010f57600080fd5b5061011861024e565b005b34801561012657600080fd5b5061014e7f000000000000000000000000000000000000000000000000000000000000000081565b6040516001600160a01b0390911681526020016100cd565b610118610174366004610690565b6103c1565b34801561018557600080fd5b506100c361019436600461066e565b60006020819052908152604090205481565b3480156101b257600080fd5b5061014e7f000000000000000000000000000000000000000000000000000000000000000081565b3480156101e657600080fd5b506101fa6101f536600461066e565b610580565b6040805194855260208501939093529183015260608201526080016100cd565b34801561022657600080fd5b5061014e7f000000000000000000000000000000000000000000000000000000000000000081565b336000908152602081905260408120549081900361027f57604051631e9acf1760e31b815260040160405180910390fd5b336000908152602081905260408082208290555163db006a7560e01b8152600481018390526001600160a01b037f0000000000000000000000000000000000000000000000000000000000000000169063db006a75906024016020604051808303816000875af11580156102f7573d6000803e3d6000fd5b505050506040513d601f19601f8201168201806040525081019061031b9190610713565b604051909150600090339083908381818185875af1925050503d8060008114610360576040519150601f19603f3d011682016040523d82523d6000602084013e610365565b606091505b5050905080610387576040516312171d8360e31b815260040160405180910390fd5b60405182815233907f48dc35af7b45e2a81fffad55f6e2fafacdb1d3d0d50d24ebdc16324f5ba757f19060200160405180910390a2505050565b34806104135760405162461bcd60e51b815260206004820152601d60248201527f416d6f756e74206d7573742062652067726561746572207468616e2030000000604482015260640160405180910390fd5b60007f00000000000000000000000000000000000000000000000000000000000000006001600160a01b0316638f449a05836040518263ffffffff1660e01b815260040160206040518083038185885af1158015610475573d6000803e3d6000fd5b50505050506040513d601f19601f8201168201806040525081019061049a9190610713565b905080600080876001600160a01b03166001600160a01b0316815260200190815260200160002060008282546104d0919061072c565b90915550506001600160a01b038516600090815260016020526040812080548492906104fd90849061072c565b90915550506001600160a01b038516600090815260026020526040812080546001929061052b90849061072c565b92505081905550846001600160a01b03167f85f3d1024291dbc747673ed0f71cc843ac07dcd7130c6446041e0f0aa277101f838387876040516105719493929190610753565b60405180910390a25050505050565b6001600160a01b0381811660009081526020819052604080822054905163384a4d7160e21b8152600481018290529092829182917f0000000000000000000000000000000000000000000000000000000000000000169063e12935c490602401602060405180830381865afa1580156105fd573d6000803e3d6000fd5b505050506040513d601f19601f820116820180604052508101906106219190610713565b6001600160a01b03909516600090815260026020908152604080832054600190925290912054949690949350915050565b80356001600160a01b038116811461066957600080fd5b919050565b60006020828403121561068057600080fd5b61068982610652565b9392505050565b6000806000604084860312156106a557600080fd5b6106ae84610652565b9250602084013567ffffffffffffffff808211156106cb57600080fd5b818601915086601f8301126106df57600080fd5b8135818111156106ee57600080fd5b87602082850101111561070057600080fd5b6020830194508093505050509250925092565b60006020828403121561072557600080fd5b5051919050565b8082018082111561074d57634e487b7160e01b600052601160045260246000fd5b92915050565b84815283602082015260606040820152816060820152818360808301376000818301608090810191909152601f909201601f19160101939250505056fea26469706673582212209354bf48f35d87416197c3aacb03b57d46c1472ba18beb9c970640aba4d0bb3264736f6c63430008180033","opcodes":"PUSH1 0xE0 PUSH1 0x40 MSTORE CALLVALUE DUP1 ISZERO PUSH2 0x10 JUMPI PUSH1 0x0 DUP1 REVERT JUMPDEST POP PUSH1 0x40 MLOAD PUSH2 0x8A3 CODESIZE SUB DUP1 PUSH2 0x8A3 DUP4 CODECOPY DUP2 ADD PUSH1 0x40 DUP2 SWAP1 MSTORE PUSH2 0x2F SWAP2 PUSH2 0x66 JUMP JUMPDEST PUSH1 0x1 PUSH1 0x1 PUSH1 0xA0 SHL SUB SWAP2 DUP3 AND PUSH1 0x80 MSTORE AND PUSH1 0xA0 MSTORE CALLER PUSH1 0xC0 MSTORE PUSH2 0x99 JUMP JUMPDEST DUP1 MLOAD PUSH1 0x1 PUSH1 0x1 PUSH1 0xA0 SHL SUB DUP2 AND DUP2 EQ PUSH2 0x61 JUMPI PUSH1 0x0 DUP1 REVERT JUMPDEST SWAP2 SWAP1 POP JUMP JUMPDEST PUSH1 0x0 DUP1 PUSH1 0x40 DUP4 DUP6 SUB SLT ISZERO PUSH2 0x79 JUMPI PUSH1 0x0 DUP1 REVERT JUMPDEST PUSH2 0x82 DUP4 PUSH2 0x4A JUMP JUMPDEST SWAP2 POP PUSH2 0x90 PUSH1 0x20 DUP5 ADD PUSH2 0x4A JUMP JUMPDEST SWAP1 POP SWAP3 POP SWAP3 SWAP1 POP JUMP JUMPDEST PUSH1 0x80 MLOAD PUSH1 0xA0 MLOAD PUSH1 0xC0 MLOAD PUSH2 0x7C6 PUSH2 0xDD PUSH1 0x0 CODECOPY PUSH1 0x0 PUSH2 0x1B8 ADD MSTORE PUSH1 0x0 DUP2 DUP2 PUSH2 0x12C ADD MSTORE DUP2 DUP2 PUSH2 0x2AE ADD MSTORE DUP2 DUP2 PUSH2 0x417 ADD MSTORE PUSH2 0x5B6 ADD MSTORE PUSH1 0x0 PUSH2 0x22C ADD MSTORE PUSH2 0x7C6 PUSH1 0x0 RETURN INVALID PUSH1 0x80 PUSH1 0x40 MSTORE PUSH1 0x4 CALLDATASIZE LT PUSH2 0x8A JUMPI PUSH1 0x0 CALLDATALOAD PUSH1 0xE0 SHR DUP1 PUSH4 0x59AA04E7 GT PUSH2 0x59 JUMPI DUP1 PUSH4 0x59AA04E7 EQ PUSH2 0x166 JUMPI DUP1 PUSH4 0x5C15EAE9 EQ PUSH2 0x179 JUMPI DUP1 PUSH4 0x8DA5CB5B EQ PUSH2 0x1A6 JUMPI DUP1 PUSH4 0x8DF08BD4 EQ PUSH2 0x1DA JUMPI DUP1 PUSH4 0xC8C3F366 EQ PUSH2 0x21A JUMPI PUSH1 0x0 DUP1 REVERT JUMPDEST DUP1 PUSH4 0x2CD7B409 EQ PUSH2 0x96 JUMPI DUP1 PUSH4 0x355A18EC EQ PUSH2 0xD6 JUMPI DUP1 PUSH4 0x3CCFD60B EQ PUSH2 0x103 JUMPI DUP1 PUSH4 0x57EDAB4E EQ PUSH2 0x11A JUMPI PUSH1 0x0 DUP1 REVERT JUMPDEST CALLDATASIZE PUSH2 0x91 JUMPI STOP JUMPDEST PUSH1 0x0 DUP1 REVERT JUMPDEST CALLVALUE DUP1 ISZERO PUSH2 0xA2 JUMPI PUSH1 0x0 DUP1 REVERT JUMPDEST POP PUSH2 0xC3 PUSH2 0xB1 CALLDATASIZE PUSH1 0x4 PUSH2 0x66E JUMP JUMPDEST PUSH1 0x2 PUSH1 0x20 MSTORE PUSH1 0x0 SWAP1 DUP2 MSTORE PUSH1 0x40 SWAP1 KECCAK256 SLOAD DUP2 JUMP JUMPDEST PUSH1 0x40 MLOAD SWAP1 DUP2 MSTORE PUSH1 0x20 ADD JUMPDEST PUSH1 0x40 MLOAD DUP1 SWAP2 SUB SWAP1 RETURN JUMPDEST CALLVALUE DUP1 ISZERO PUSH2 0xE2 JUMPI PUSH1 0x0 DUP1 REVERT JUMPDEST POP PUSH2 0xC3 PUSH2 0xF1 CALLDATASIZE PUSH1 0x4 PUSH2 0x66E JUMP JUMPDEST PUSH1 0x1 PUSH1 0x20 MSTORE PUSH1 0x0 SWAP1 DUP2 MSTORE PUSH1 0x40 SWAP1 KECCAK256 SLOAD DUP2 JUMP JUMPDEST CALLVALUE DUP1 ISZERO PUSH2 0x10F JUMPI PUSH1 0x0 DUP1 REVERT JUMPDEST POP PUSH2 0x118 PUSH2 0x24E JUMP JUMPDEST STOP JUMPDEST CALLVALUE DUP1 ISZERO PUSH2 0x126 JUMPI PUSH1 0x0 DUP1 REVERT JUMPDEST POP PUSH2 0x14E PUSH32 0x0 DUP2 JUMP JUMPDEST PUSH1 0x40 MLOAD PUSH1 0x1 PUSH1 0x1 PUSH1 0xA0 SHL SUB SWAP1 SWAP2 AND DUP2 MSTORE PUSH1 0x20 ADD PUSH2 0xCD JUMP JUMPDEST PUSH2 0x118 PUSH2 0x174 CALLDATASIZE PUSH1 0x4 PUSH2 0x690 JUMP JUMPDEST PUSH2 0x3C1 JUMP JUMPDEST CALLVALUE DUP1 ISZERO PUSH2 0x185 JUMPI PUSH1 0x0 DUP1 REVERT JUMPDEST POP PUSH2 0xC3 PUSH2 0x194 CALLDATASIZE PUSH1 0x4 PUSH2 0x66E JUMP JUMPDEST PUSH1 0x0 PUSH1 0x20 DUP2 SWAP1 MSTORE SWAP1 DUP2 MSTORE PUSH1 0x40 SWAP1 KECCAK256 SLOAD DUP2 JUMP JUMPDEST CALLVALUE DUP1 ISZERO PUSH2 0x1B2 JUMPI PUSH1 0x0 DUP1 REVERT JUMPDEST POP PUSH2 0x14E PUSH32 0x0 DUP2 JUMP JUMPDEST CALLVALUE DUP1 ISZERO PUSH2 0x1E6 JUMPI PUSH1 0x0 DUP1 REVERT JUMPDEST POP PUSH2 0x1FA PUSH2 0x1F5 CALLDATASIZE PUSH1 0x4 PUSH2 0x66E JUMP JUMPDEST PUSH2 0x580 JUMP JUMPDEST PUSH1 0x40 DUP1 MLOAD SWAP5 DUP6 MSTORE PUSH1 0x20 DUP6 ADD SWAP4 SWAP1 SWAP4 MSTORE SWAP2 DUP4 ADD MSTORE PUSH1 0x60 DUP3 ADD MSTORE PUSH1 0x80 ADD PUSH2 0xCD JUMP JUMPDEST CALLVALUE DUP1 ISZERO PUSH2 0x226 JUMPI PUSH1 0x0 DUP1 REVERT JUMPDEST POP PUSH2 0x14E PUSH32 0x0 DUP2 JUMP JUMPDEST CALLER PUSH1 0x0 SWAP1 DUP2 MSTORE PUSH1 0x20 DUP2 SWAP1 MSTORE PUSH1 0x40 DUP2 KECCAK256 SLOAD SWAP1 DUP2 SWAP1 SUB PUSH2 0x27F JUMPI PUSH1 0x40 MLOAD PUSH4 0x1E9ACF17 PUSH1 0xE3 SHL DUP2 MSTORE PUSH1 0x4 ADD PUSH1 0x40 MLOAD DUP1 SWAP2 SUB SWAP1 REVERT JUMPDEST CALLER PUSH1 0x0 SWAP1 DUP2 MSTORE PUSH1 0x20 DUP2 SWAP1 MSTORE PUSH1 0x40 DUP1 DUP3 KECCAK256 DUP3 SWAP1 SSTORE MLOAD PUSH4 0xDB006A75 PUSH1 0xE0 SHL DUP2 MSTORE PUSH1 0x4 DUP2 ADD DUP4 SWAP1 MSTORE PUSH1 0x1 PUSH1 0x1 PUSH1 0xA0 SHL SUB PUSH32 0x0 AND SWAP1 PUSH4 0xDB006A75 SWAP1 PUSH1 0x24 ADD PUSH1 0x20 PUSH1 0x40 MLOAD DUP1 DUP4 SUB DUP2 PUSH1 0x0 DUP8 GAS CALL ISZERO DUP1 ISZERO PUSH2 0x2F7 JUMPI RETURNDATASIZE PUSH1 0x0 DUP1 RETURNDATACOPY RETURNDATASIZE PUSH1 0x0 REVERT JUMPDEST POP POP POP POP PUSH1 0x40 MLOAD RETURNDATASIZE PUSH1 0x1F NOT PUSH1 0x1F DUP3 ADD AND DUP3 ADD DUP1 PUSH1 0x40 MSTORE POP DUP2 ADD SWAP1 PUSH2 0x31B SWAP2 SWAP1 PUSH2 0x713 JUMP JUMPDEST PUSH1 0x40 MLOAD SWAP1 SWAP2 POP PUSH1 0x0 SWAP1 CALLER SWAP1 DUP4 SWAP1 DUP4 DUP2 DUP2 DUP2 DUP6 DUP8 GAS CALL SWAP3 POP POP POP RETURNDATASIZE DUP1 PUSH1 0x0 DUP2 EQ PUSH2 0x360 JUMPI PUSH1 0x40 MLOAD SWAP2 POP PUSH1 0x1F NOT PUSH1 0x3F RETURNDATASIZE ADD AND DUP3 ADD PUSH1 0x40 MSTORE RETURNDATASIZE DUP3 MSTORE RETURNDATASIZE PUSH1 0x0 PUSH1 0x20 DUP5 ADD RETURNDATACOPY PUSH2 0x365 JUMP JUMPDEST PUSH1 0x60 SWAP2 POP JUMPDEST POP POP SWAP1 POP DUP1 PUSH2 0x387 JUMPI PUSH1 0x40 MLOAD PUSH4 0x12171D83 PUSH1 0xE3 SHL DUP2 MSTORE PUSH1 0x4 ADD PUSH1 0x40 MLOAD DUP1 SWAP2 SUB SWAP1 REVERT JUMPDEST PUSH1 0x40 MLOAD DUP3 DUP2 MSTORE CALLER SWAP1 PUSH32 0x48DC35AF7B45E2A81FFFAD55F6E2FAFACDB1D3D0D50D24EBDC16324F5BA757F1 SWAP1 PUSH1 0x20 ADD PUSH1 0x40 MLOAD DUP1 SWAP2 SUB SWAP1 LOG2 POP POP POP JUMP JUMPDEST CALLVALUE DUP1 PUSH2 0x413 JUMPI PUSH1 0x40 MLOAD PUSH3 0x461BCD PUSH1 0xE5 SHL DUP2 MSTORE PUSH1 0x20 PUSH1 0x4 DUP3 ADD MSTORE PUSH1 0x1D PUSH1 0x24 DUP3 ADD MSTORE PUSH32 0x416D6F756E74206D7573742062652067726561746572207468616E2030000000 PUSH1 0x44 DUP3 ADD MSTORE PUSH1 0x64 ADD PUSH1 0x40 MLOAD DUP1 SWAP2 SUB SWAP1 REVERT JUMPDEST PUSH1 0x0 PUSH32 0x0 PUSH1 0x1 PUSH1 0x1 PUSH1 0xA0 SHL SUB AND PUSH4 0x8F449A05 DUP4 PUSH1 0x40 MLOAD DUP3 PUSH4 0xFFFFFFFF AND PUSH1 0xE0 SHL DUP2 MSTORE PUSH1 0x4 ADD PUSH1 0x20 PUSH1 0x40 MLOAD DUP1 DUP4 SUB DUP2 DUP6 DUP9 GAS CALL ISZERO DUP1 ISZERO PUSH2 0x475 JUMPI RETURNDATASIZE PUSH1 0x0 DUP1 RETURNDATACOPY RETURNDATASIZE PUSH1 0x0 REVERT JUMPDEST POP POP POP POP POP PUSH1 0x40 MLOAD RETURNDATASIZE PUSH1 0x1F NOT PUSH1 0x1F DUP3 ADD AND DUP3 ADD DUP1 PUSH1 0x40 MSTORE POP DUP2 ADD SWAP1 PUSH2 0x49A SWAP2 SWAP1 PUSH2 0x713 JUMP JUMPDEST SWAP1 POP DUP1 PUSH1 0x0 DUP1 DUP8 PUSH1 0x1 PUSH1 0x1 PUSH1 0xA0 SHL SUB AND PUSH1 0x1 PUSH1 0x1 PUSH1 0xA0 SHL SUB AND DUP2 MSTORE PUSH1 0x20 ADD SWAP1 DUP2 MSTORE PUSH1 0x20 ADD PUSH1 0x0 KECCAK256 PUSH1 0x0 DUP3 DUP3 SLOAD PUSH2 0x4D0 SWAP2 SWAP1 PUSH2 0x72C JUMP JUMPDEST SWAP1 SWAP2 SSTORE POP POP PUSH1 0x1 PUSH1 0x1 PUSH1 0xA0 SHL SUB DUP6 AND PUSH1 0x0 SWAP1 DUP2 MSTORE PUSH1 0x1 PUSH1 0x20 MSTORE PUSH1 0x40 DUP2 KECCAK256 DUP1 SLOAD DUP5 SWAP3 SWAP1 PUSH2 0x4FD SWAP1 DUP5 SWAP1 PUSH2 0x72C JUMP JUMPDEST SWAP1 SWAP2 SSTORE POP POP PUSH1 0x1 PUSH1 0x1 PUSH1 0xA0 SHL SUB DUP6 AND PUSH1 0x0 SWAP1 DUP2 MSTORE PUSH1 0x2 PUSH1 0x20 MSTORE PUSH1 0x40 DUP2 KECCAK256 DUP1 SLOAD PUSH1 0x1 SWAP3 SWAP1 PUSH2 0x52B SWAP1 DUP5 SWAP1 PUSH2 0x72C JUMP JUMPDEST SWAP3 POP POP DUP2 SWAP1 SSTORE POP DUP5 PUSH1 0x1 PUSH1 0x1 PUSH1 0xA0 SHL SUB AND PUSH32 0x85F3D1024291DBC747673ED0F71CC843AC07DCD7130C6446041E0F0AA277101F DUP4 DUP4 DUP8 DUP8 PUSH1 0x40 MLOAD PUSH2 0x571 SWAP5 SWAP4 SWAP3 SWAP2 SWAP1 PUSH2 0x753 JUMP JUMPDEST PUSH1 0x40 MLOAD DUP1 SWAP2 SUB SWAP1 LOG2 POP POP POP POP POP JUMP JUMPDEST PUSH1 0x1 PUSH1 0x1 PUSH1 0xA0 SHL SUB DUP2 DUP2 AND PUSH1 0x0 SWAP1 DUP2 MSTORE PUSH1 0x20 DUP2 SWAP1 MSTORE PUSH1 0x40 DUP1 DUP3 KECCAK256 SLOAD SWAP1 MLOAD PUSH4 0x384A4D71 PUSH1 0xE2 SHL DUP2 MSTORE PUSH1 0x4 DUP2 ADD DUP3 SWAP1 MSTORE SWAP1 SWAP3 DUP3 SWAP2 DUP3 SWAP2 PUSH32 0x0 AND SWAP1 PUSH4 0xE12935C4 SWAP1 PUSH1 0x24 ADD PUSH1 0x20 PUSH1 0x40 MLOAD DUP1 DUP4 SUB DUP2 DUP7 GAS STATICCALL ISZERO DUP1 ISZERO PUSH2 0x5FD JUMPI RETURNDATASIZE PUSH1 0x0 DUP1 RETURNDATACOPY RETURNDATASIZE PUSH1 0x0 REVERT JUMPDEST POP POP POP POP PUSH1 0x40 MLOAD RETURNDATASIZE PUSH1 0x1F NOT PUSH1 0x1F DUP3 ADD AND DUP3 ADD DUP1 PUSH1 0x40 MSTORE POP DUP2 ADD SWAP1 PUSH2 0x621 SWAP2 SWAP1 PUSH2 0x713 JUMP JUMPDEST PUSH1 0x1 PUSH1 0x1 PUSH1 0xA0 SHL SUB SWAP1 SWAP6 AND PUSH1 0x0 SWAP1 DUP2 MSTORE PUSH1 0x2 PUSH1 0x20 SWAP1 DUP2 MSTORE PUSH1 0x40 DUP1 DUP4 KECCAK256 SLOAD PUSH1 0x1 SWAP1 SWAP3 MSTORE SWAP1 SWAP2 KECCAK256 SLOAD SWAP5 SWAP7 SWAP1 SWAP5 SWAP4 POP SWAP2 POP POP JUMP JUMPDEST DUP1 CALLDATALOAD PUSH1 0x1 PUSH1 0x1 PUSH1 0xA0 SHL SUB DUP2 AND DUP2 EQ PUSH2 0x669 JUMPI PUSH1 0x0 DUP1 REVERT JUMPDEST SWAP2 SWAP1 POP JUMP JUMPDEST PUSH1 0x0 PUSH1 0x20 DUP3 DUP5 SUB SLT ISZERO PUSH2 0x680 JUMPI PUSH1 0x0 DUP1 REVERT JUMPDEST PUSH2 0x689 DUP3 PUSH2 0x652 JUMP JUMPDEST SWAP4 SWAP3 POP POP POP JUMP JUMPDEST PUSH1 0x0 DUP1 PUSH1 0x0 PUSH1 0x40 DUP5 DUP7 SUB SLT ISZERO PUSH2 0x6A5 JUMPI PUSH1 0x0 DUP1 REVERT JUMPDEST PUSH2 0x6AE DUP5 PUSH2 0x652 JUMP JUMPDEST SWAP3 POP PUSH1 0x20 DUP5 ADD CALLDATALOAD PUSH8 0xFFFFFFFFFFFFFFFF DUP1 DUP3 GT ISZERO PUSH2 0x6CB JUMPI PUSH1 0x0 DUP1 REVERT JUMPDEST DUP2 DUP7 ADD SWAP2 POP DUP7 PUSH1 0x1F DUP4 ADD SLT PUSH2 0x6DF JUMPI PUSH1 0x0 DUP1 REVERT JUMPDEST DUP2 CALLDATALOAD DUP2 DUP2 GT ISZERO PUSH2 0x6EE JUMPI PUSH1 0x0 DUP1 REVERT JUMPDEST DUP8 PUSH1 0x20 DUP3 DUP6 ADD ADD GT ISZERO PUSH2 0x700 JUMPI PUSH1 0x0 DUP1 REVERT JUMPDEST PUSH1 0x20 DUP4 ADD SWAP5 POP DUP1 SWAP4 POP POP POP POP SWAP3 POP SWAP3 POP SWAP3 JUMP JUMPDEST PUSH1 0x0 PUSH1 0x20 DUP3 DUP5 SUB SLT ISZERO PUSH2 0x725 JUMPI PUSH1 0x0 DUP1 REVERT JUMPDEST POP MLOAD SWAP2 SWAP1 POP JUMP JUMPDEST DUP1 DUP3 ADD DUP1 DUP3 GT ISZERO PUSH2 0x74D JUMPI PUSH4 0x4E487B71 PUSH1 0xE0 SHL PUSH1 0x0 MSTORE PUSH1 0x11 PUSH1 0x4 MSTORE PUSH1 0x24 PUSH1 0x0 REVERT JUMPDEST SWAP3 SWAP2 POP POP JUMP JUMPDEST DUP5 DUP2 MSTORE DUP4 PUSH1 0x20 DUP3 ADD MSTORE PUSH1 0x60 PUSH1 0x40 DUP3 ADD MSTORE DUP2 PUSH1 0x60 DUP3 ADD MSTORE DUP2 DUP4 PUSH1 0x80 DUP4 ADD CALLDATACOPY PUSH1 0x0 DUP2 DUP4 ADD PUSH1 0x80 SWAP1 DUP2 ADD SWAP2 SWAP1 SWAP2 MSTORE PUSH1 0x1F SWAP1 SWAP3 ADD PUSH1 0x1F NOT AND ADD ADD SWAP4 SWAP3 POP POP POP JUMP INVALID LOG2 PUSH5 0x6970667358 0x22 SLT KECCAK256 SWAP4 SLOAD 0xBF BASEFEE RETURN TSTORE DUP8 COINBASE PUSH2 0x97C3 0xAA 0xCB SUB 0xB5 PUSH30 0x46C1472BA18BEB9C970640ABA4D0BB3264736F6C63430008180033000000 "},"methodIdentifiers":{"earningsOf(address)":"8df08bd4","owner()":"8da5cb5b","receivePayment(address,string)":"59aa04e7","teller()":"57edab4e","totalReads(address)":"2cd7b409","totalUsdcEarned(address)":"355a18ec","usycBalance(address)":"5c15eae9","usycToken()":"c8c3f366","withdraw()":"3ccfd60b"}}}}}