{"contracts/ReaderVault.sol":{"ReaderVault":{"abi":[{"inputs":[{"internalType":"address","name":"_usycToken","type":"address"},{"internalType":"address","name":"_teller","type":"address"},{"internalType":"address","name":"_writerVault","type":"address"}],"stateMutability":"nonpayable","type":"constructor"},{"inputs":[],"name":"InsufficientBalance","type":"error"},{"inputs":[],"name":"TransferFailed","type":"error"},{"anonymous":false,"inputs":[{"indexed":true,"internalType":"address","name":"reader","type":"address"},{"indexed":true,"internalType":"address","name":"writer","type":"address"},{"indexed":false,"internalType":"string","name":"slug","type":"string"},{"indexed":false,"internalType":"uint256","name":"usdcPaid","type":"uint256"}],"name":"ArticleRead","type":"event"},{"anonymous":false,"inputs":[{"indexed":true,"internalType":"address","name":"reader","type":"address"},{"indexed":false,"internalType":"uint256","name":"usdcAmount","type":"uint256"},{"indexed":false,"internalType":"uint256","name":"usycMinted","type":"uint256"}],"name":"Deposited","type":"event"},{"anonymous":false,"inputs":[{"indexed":true,"internalType":"address","name":"reader","type":"address"},{"indexed":false,"internalType":"uint256","name":"usdcAmount","type":"uint256"}],"name":"Withdrawn","type":"event"},{"inputs":[],"name":"FLOAT_AMOUNT","outputs":[{"internalType":"uint256","name":"","type":"uint256"}],"stateMutability":"view","type":"function"},{"inputs":[],"name":"PRICE_PER_READ","outputs":[{"internalType":"uint256","name":"","type":"uint256"}],"stateMutability":"view","type":"function"},{"inputs":[{"internalType":"address","name":"reader","type":"address"}],"name":"balanceOf","outputs":[{"internalType":"uint256","name":"usdcBalance","type":"uint256"},{"internalType":"uint256","name":"usycBalance","type":"uint256"},{"internalType":"uint256","name":"estimatedUsdcValue","type":"uint256"}],"stateMutability":"view","type":"function"},{"inputs":[],"name":"deposit","outputs":[],"stateMutability":"payable","type":"function"},{"inputs":[],"name":"owner","outputs":[{"internalType":"address","name":"","type":"address"}],"stateMutability":"view","type":"function"},{"inputs":[{"internalType":"address","name":"reader","type":"address"},{"internalType":"address","name":"writer","type":"address"},{"internalType":"string","name":"slug","type":"string"}],"name":"payForRead","outputs":[],"stateMutability":"nonpayable","type":"function"},{"inputs":[],"name":"teller","outputs":[{"internalType":"contract ITeller","name":"","type":"address"}],"stateMutability":"view","type":"function"},{"inputs":[{"internalType":"address","name":"","type":"address"}],"name":"usdcFloat","outputs":[{"internalType":"uint256","name":"","type":"uint256"}],"stateMutability":"view","type":"function"},{"inputs":[{"internalType":"address","name":"","type":"address"}],"name":"usycStaked","outputs":[{"internalType":"uint256","name":"","type":"uint256"}],"stateMutability":"view","type":"function"},{"inputs":[],"name":"usycToken","outputs":[{"internalType":"contract IUSYC","name":"","type":"address"}],"stateMutability":"view","type":"function"},{"inputs":[],"name":"withdraw","outputs":[],"stateMutability":"nonpayable","type":"function"},{"inputs":[],"name":"writerVault","outputs":[{"internalType":"address","name":"","type":"address"}],"stateMutability":"view","type":"function"},{"stateMutability":"payable","type":"receive"}],"evm":{"bytecode":{"linkReferences":{},"object":"61010060405234801561001157600080fd5b50604051610d3d380380610d3d8339810160408190526100309161006d565b6001600160a01b0392831660805290821660a0521660c0523360e0526100b0565b80516001600160a01b038116811461006857600080fd5b919050565b60008060006060848603121561008257600080fd5b61008b84610051565b925061009960208501610051565b91506100a760408501610051565b90509250925092565b60805160a05160c05160e051610c24610119600039600061022701526000818160c90152818161055f0152610796015260008181610155015281816102f70152818161047f01528181610603015281816106f8015261099e0152600061025b0152610c246000f3fe6080604052600436106100ab5760003560e01c806377c947f81161006457806377c947f8146101d25780637c40d546146101ff5780638da5cb5b14610215578063c8c3f36614610249578063d0e30db01461027d578063e2745d851461028557600080fd5b806335d29909146100b75780633ccfd60b146101085780634cc613911461011f57806357edab4e1461014357806370a082311461017757806371d73b08146101b257600080fd5b366100b257005b600080fd5b3480156100c357600080fd5b506100eb7f000000000000000000000000000000000000000000000000000000000000000081565b6040516001600160a01b0390911681526020015b60405180910390f35b34801561011457600080fd5b5061011d6102b2565b005b34801561012b57600080fd5b5061013561271081565b6040519081526020016100ff565b34801561014f57600080fd5b506100eb7f000000000000000000000000000000000000000000000000000000000000000081565b34801561018357600080fd5b50610197610192366004610aaa565b610441565b604080519384526020840192909252908201526060016100ff565b3480156101be57600080fd5b5061011d6101cd366004610acc565b6104fe565b3480156101de57600080fd5b506101356101ed366004610aaa565b60006020819052908152604090205481565b34801561020b57600080fd5b506101356103e881565b34801561022157600080fd5b506100eb7f000000000000000000000000000000000000000000000000000000000000000081565b34801561025557600080fd5b506100eb7f000000000000000000000000000000000000000000000000000000000000000081565b61011d6108c8565b34801561029157600080fd5b506101356102a0366004610aaa565b60016020526000908152604090205481565b3360009081526020818152604080832080546001909352908320805491849055929092559081811561037c5760405163db006a7560e01b8152600481018390526000907f00000000000000000000000000000000000000000000000000000000000000006001600160a01b03169063db006a75906024016020604051808303816000875af1158015610348573d6000803e3d6000fd5b505050506040513d601f19601f8201168201806040525081019061036c9190610b5a565b90506103788183610b89565b9150505b8060000361039d57604051631e9acf1760e31b815260040160405180910390fd5b604051600090339083908381818185875af1925050503d80600081146103df576040519150601f19603f3d011682016040523d82523d6000602084013e6103e4565b606091505b5050905080610406576040516312171d8360e31b815260040160405180910390fd5b60405182815233907f7084f5476618d8e60b11ef0d7d3f06914655adb8793e28ff7f018d4c76d505d59060200160405180910390a250505050565b6001600160a01b0381811660009081526020818152604080832054600190925280832054905163384a4d7160e21b81526004810182905291939092917f00000000000000000000000000000000000000000000000000000000000000009091169063e12935c490602401602060405180830381865afa1580156104c8573d6000803e3d6000fd5b505050506040513d601f19601f820116820180604052508101906104ec9190610b5a565b6104f69084610b89565b929491935050565b6001600160a01b0384166000908152602081905260409020546103e881106105e9576001600160a01b038516600090815260208190526040812080546103e8929061054a908490610ba2565b90915550506040516000906001600160a01b037f000000000000000000000000000000000000000000000000000000000000000016906103e8908381818185875af1925050503d80600081146105bc576040519150601f19603f3d011682016040523d82523d6000602084013e6105c1565b606091505b50509050806105e3576040516312171d8360e31b815260040160405180910390fd5b50610870565b604051635d13647960e01b81526103e860048201526000907f00000000000000000000000000000000000000000000000000000000000000006001600160a01b031690635d13647990602401602060405180830381865afa158015610652573d6000803e3d6000fd5b505050506040513d601f19601f820116820180604052508101906106769190610b5a565b6001600160a01b0387166000908152600160205260409020549091508111156106b257604051631e9acf1760e31b815260040160405180910390fd5b6001600160a01b038616600090815260016020526040812080548392906106da908490610ba2565b909155505060405163db006a7560e01b8152600481018290526000907f00000000000000000000000000000000000000000000000000000000000000006001600160a01b03169063db006a75906024016020604051808303816000875af1158015610749573d6000803e3d6000fd5b505050506040513d601f19601f8201168201806040525081019061076d9190610b5a565b90506103e881101561079257604051631e9acf1760e31b815260040160405180910390fd5b60007f00000000000000000000000000000000000000000000000000000000000000006001600160a01b03166103e860405160006040518083038185875af1925050503d8060008114610801576040519150601f19603f3d011682016040523d82523d6000602084013e610806565b606091505b5050905080610828576040516312171d8360e31b815260040160405180910390fd5b6103e882111561086c5761083e6103e883610ba2565b6001600160a01b03891660009081526020819052604081208054909190610866908490610b89565b90915550505b5050505b836001600160a01b0316856001600160a01b03167f97be2867c06e807cd1c22a8bcf41d1a21da278ceb4db53ed9914bfba0228f95385856103e86040516108b993929190610bb5565b60405180910390a35050505050565b348061091a5760405162461bcd60e51b815260206004820152601d60248201527f416d6f756e74206d7573742062652067726561746572207468616e2030000000604482015260640160405180910390fd5b33600090815260208190526040812054906127108210156109465761094182612710610ba2565b610949565b60005b9050600081841061095a578161095c565b835b9050600061096a8286610ba2565b3360009081526020819052604081208054929350849290919061098e908490610b89565b90915550600090508115610a4b577f00000000000000000000000000000000000000000000000000000000000000006001600160a01b0316638f449a05836040518263ffffffff1660e01b815260040160206040518083038185885af11580156109fc573d6000803e3d6000fd5b50505050506040513d601f19601f82011682018060405250810190610a219190610b5a565b33600090815260016020526040812080549293508392909190610a45908490610b89565b90915550505b604080518781526020810183905233917f73a19dd210f1a7f902193214c0ee91dd35ee5b4d920cba8d519eca65a7b488ca910160405180910390a2505050505050565b80356001600160a01b0381168114610aa557600080fd5b919050565b600060208284031215610abc57600080fd5b610ac582610a8e565b9392505050565b60008060008060608587031215610ae257600080fd5b610aeb85610a8e565b9350610af960208601610a8e565b9250604085013567ffffffffffffffff80821115610b1657600080fd5b818701915087601f830112610b2a57600080fd5b813581811115610b3957600080fd5b886020828501011115610b4b57600080fd5b95989497505060200194505050565b600060208284031215610b6c57600080fd5b5051919050565b634e487b7160e01b600052601160045260246000fd5b80820180821115610b9c57610b9c610b73565b92915050565b81810381811115610b9c57610b9c610b73565b604081528260408201528284606083013760006060848301015260006060601f19601f860116830101905082602083015294935050505056fea2646970667358221220b7933c8de2dc066fb60dc54f2e45176455e741cb930102c7fb9e8fd6f68de47264736f6c63430008180033","opcodes":"PUSH2 0x100 PUSH1 0x40 MSTORE CALLVALUE DUP1 ISZERO PUSH2 0x11 JUMPI PUSH1 0x0 DUP1 REVERT JUMPDEST POP PUSH1 0x40 MLOAD PUSH2 0xD3D CODESIZE SUB DUP1 PUSH2 0xD3D DUP4 CODECOPY DUP2 ADD PUSH1 0x40 DUP2 SWAP1 MSTORE PUSH2 0x30 SWAP2 PUSH2 0x6D JUMP JUMPDEST PUSH1 0x1 PUSH1 0x1 PUSH1 0xA0 SHL SUB SWAP3 DUP4 AND PUSH1 0x80 MSTORE SWAP1 DUP3 AND PUSH1 0xA0 MSTORE AND PUSH1 0xC0 MSTORE CALLER PUSH1 0xE0 MSTORE PUSH2 0xB0 JUMP JUMPDEST DUP1 MLOAD PUSH1 0x1 PUSH1 0x1 PUSH1 0xA0 SHL SUB DUP2 AND DUP2 EQ PUSH2 0x68 JUMPI PUSH1 0x0 DUP1 REVERT JUMPDEST SWAP2 SWAP1 POP JUMP JUMPDEST PUSH1 0x0 DUP1 PUSH1 0x0 PUSH1 0x60 DUP5 DUP7 SUB SLT ISZERO PUSH2 0x82 JUMPI PUSH1 0x0 DUP1 REVERT JUMPDEST PUSH2 0x8B DUP5 PUSH2 0x51 JUMP JUMPDEST SWAP3 POP PUSH2 0x99 PUSH1 0x20 DUP6 ADD PUSH2 0x51 JUMP JUMPDEST SWAP2 POP PUSH2 0xA7 PUSH1 0x40 DUP6 ADD PUSH2 0x51 JUMP JUMPDEST SWAP1 POP SWAP3 POP SWAP3 POP SWAP3 JUMP JUMPDEST PUSH1 0x80 MLOAD PUSH1 0xA0 MLOAD PUSH1 0xC0 MLOAD PUSH1 0xE0 MLOAD PUSH2 0xC24 PUSH2 0x119 PUSH1 0x0 CODECOPY PUSH1 0x0 PUSH2 0x227 ADD MSTORE PUSH1 0x0 DUP2 DUP2 PUSH1 0xC9 ADD MSTORE DUP2 DUP2 PUSH2 0x55F ADD MSTORE PUSH2 0x796 ADD MSTORE PUSH1 0x0 DUP2 DUP2 PUSH2 0x155 ADD MSTORE DUP2 DUP2 PUSH2 0x2F7 ADD MSTORE DUP2 DUP2 PUSH2 0x47F ADD MSTORE DUP2 DUP2 PUSH2 0x603 ADD MSTORE DUP2 DUP2 PUSH2 0x6F8 ADD MSTORE PUSH2 0x99E ADD MSTORE PUSH1 0x0 PUSH2 0x25B ADD MSTORE PUSH2 0xC24 PUSH1 0x0 RETURN INVALID PUSH1 0x80 PUSH1 0x40 MSTORE PUSH1 0x4 CALLDATASIZE LT PUSH2 0xAB JUMPI PUSH1 0x0 CALLDATALOAD PUSH1 0xE0 SHR DUP1 PUSH4 0x77C947F8 GT PUSH2 0x64 JUMPI DUP1 PUSH4 0x77C947F8 EQ PUSH2 0x1D2 JUMPI DUP1 PUSH4 0x7C40D546 EQ PUSH2 0x1FF JUMPI DUP1 PUSH4 0x8DA5CB5B EQ PUSH2 0x215 JUMPI DUP1 PUSH4 0xC8C3F366 EQ PUSH2 0x249 JUMPI DUP1 PUSH4 0xD0E30DB0 EQ PUSH2 0x27D JUMPI DUP1 PUSH4 0xE2745D85 EQ PUSH2 0x285 JUMPI PUSH1 0x0 DUP1 REVERT JUMPDEST DUP1 PUSH4 0x35D29909 EQ PUSH2 0xB7 JUMPI DUP1 PUSH4 0x3CCFD60B EQ PUSH2 0x108 JUMPI DUP1 PUSH4 0x4CC61391 EQ PUSH2 0x11F JUMPI DUP1 PUSH4 0x57EDAB4E EQ PUSH2 0x143 JUMPI DUP1 PUSH4 0x70A08231 EQ PUSH2 0x177 JUMPI DUP1 PUSH4 0x71D73B08 EQ PUSH2 0x1B2 JUMPI PUSH1 0x0 DUP1 REVERT JUMPDEST CALLDATASIZE PUSH2 0xB2 JUMPI STOP JUMPDEST PUSH1 0x0 DUP1 REVERT JUMPDEST CALLVALUE DUP1 ISZERO PUSH2 0xC3 JUMPI PUSH1 0x0 DUP1 REVERT JUMPDEST POP PUSH2 0xEB PUSH32 0x0 DUP2 JUMP JUMPDEST PUSH1 0x40 MLOAD PUSH1 0x1 PUSH1 0x1 PUSH1 0xA0 SHL SUB SWAP1 SWAP2 AND DUP2 MSTORE PUSH1 0x20 ADD JUMPDEST PUSH1 0x40 MLOAD DUP1 SWAP2 SUB SWAP1 RETURN JUMPDEST CALLVALUE DUP1 ISZERO PUSH2 0x114 JUMPI PUSH1 0x0 DUP1 REVERT JUMPDEST POP PUSH2 0x11D PUSH2 0x2B2 JUMP JUMPDEST STOP JUMPDEST CALLVALUE DUP1 ISZERO PUSH2 0x12B JUMPI PUSH1 0x0 DUP1 REVERT JUMPDEST POP PUSH2 0x135 PUSH2 0x2710 DUP2 JUMP JUMPDEST PUSH1 0x40 MLOAD SWAP1 DUP2 MSTORE PUSH1 0x20 ADD PUSH2 0xFF JUMP JUMPDEST CALLVALUE DUP1 ISZERO PUSH2 0x14F JUMPI PUSH1 0x0 DUP1 REVERT JUMPDEST POP PUSH2 0xEB PUSH32 0x0 DUP2 JUMP JUMPDEST CALLVALUE DUP1 ISZERO PUSH2 0x183 JUMPI PUSH1 0x0 DUP1 REVERT JUMPDEST POP PUSH2 0x197 PUSH2 0x192 CALLDATASIZE PUSH1 0x4 PUSH2 0xAAA JUMP JUMPDEST PUSH2 0x441 JUMP JUMPDEST PUSH1 0x40 DUP1 MLOAD SWAP4 DUP5 MSTORE PUSH1 0x20 DUP5 ADD SWAP3 SWAP1 SWAP3 MSTORE SWAP1 DUP3 ADD MSTORE PUSH1 0x60 ADD PUSH2 0xFF JUMP JUMPDEST CALLVALUE DUP1 ISZERO PUSH2 0x1BE JUMPI PUSH1 0x0 DUP1 REVERT JUMPDEST POP PUSH2 0x11D PUSH2 0x1CD CALLDATASIZE PUSH1 0x4 PUSH2 0xACC JUMP JUMPDEST PUSH2 0x4FE JUMP JUMPDEST CALLVALUE DUP1 ISZERO PUSH2 0x1DE JUMPI PUSH1 0x0 DUP1 REVERT JUMPDEST POP PUSH2 0x135 PUSH2 0x1ED CALLDATASIZE PUSH1 0x4 PUSH2 0xAAA JUMP JUMPDEST PUSH1 0x0 PUSH1 0x20 DUP2 SWAP1 MSTORE SWAP1 DUP2 MSTORE PUSH1 0x40 SWAP1 KECCAK256 SLOAD DUP2 JUMP JUMPDEST CALLVALUE DUP1 ISZERO PUSH2 0x20B JUMPI PUSH1 0x0 DUP1 REVERT JUMPDEST POP PUSH2 0x135 PUSH2 0x3E8 DUP2 JUMP JUMPDEST CALLVALUE DUP1 ISZERO PUSH2 0x221 JUMPI PUSH1 0x0 DUP1 REVERT JUMPDEST POP PUSH2 0xEB PUSH32 0x0 DUP2 JUMP JUMPDEST CALLVALUE DUP1 ISZERO PUSH2 0x255 JUMPI PUSH1 0x0 DUP1 REVERT JUMPDEST POP PUSH2 0xEB PUSH32 0x0 DUP2 JUMP JUMPDEST PUSH2 0x11D PUSH2 0x8C8 JUMP JUMPDEST CALLVALUE DUP1 ISZERO PUSH2 0x291 JUMPI PUSH1 0x0 DUP1 REVERT JUMPDEST POP PUSH2 0x135 PUSH2 0x2A0 CALLDATASIZE PUSH1 0x4 PUSH2 0xAAA JUMP JUMPDEST PUSH1 0x1 PUSH1 0x20 MSTORE PUSH1 0x0 SWAP1 DUP2 MSTORE PUSH1 0x40 SWAP1 KECCAK256 SLOAD DUP2 JUMP JUMPDEST CALLER PUSH1 0x0 SWAP1 DUP2 MSTORE PUSH1 0x20 DUP2 DUP2 MSTORE PUSH1 0x40 DUP1 DUP4 KECCAK256 DUP1 SLOAD PUSH1 0x1 SWAP1 SWAP4 MSTORE SWAP1 DUP4 KECCAK256 DUP1 SLOAD SWAP2 DUP5 SWAP1 SSTORE SWAP3 SWAP1 SWAP3 SSTORE SWAP1 DUP2 DUP2 ISZERO PUSH2 0x37C JUMPI PUSH1 0x40 MLOAD PUSH4 0xDB006A75 PUSH1 0xE0 SHL DUP2 MSTORE PUSH1 0x4 DUP2 ADD DUP4 SWAP1 MSTORE PUSH1 0x0 SWAP1 PUSH32 0x0 PUSH1 0x1 PUSH1 0x1 PUSH1 0xA0 SHL SUB AND SWAP1 PUSH4 0xDB006A75 SWAP1 PUSH1 0x24 ADD PUSH1 0x20 PUSH1 0x40 MLOAD DUP1 DUP4 SUB DUP2 PUSH1 0x0 DUP8 GAS CALL ISZERO DUP1 ISZERO PUSH2 0x348 JUMPI RETURNDATASIZE PUSH1 0x0 DUP1 RETURNDATACOPY RETURNDATASIZE PUSH1 0x0 REVERT JUMPDEST POP POP POP POP PUSH1 0x40 MLOAD RETURNDATASIZE PUSH1 0x1F NOT PUSH1 0x1F DUP3 ADD AND DUP3 ADD DUP1 PUSH1 0x40 MSTORE POP DUP2 ADD SWAP1 PUSH2 0x36C SWAP2 SWAP1 PUSH2 0xB5A JUMP JUMPDEST SWAP1 POP PUSH2 0x378 DUP2 DUP4 PUSH2 0xB89 JUMP JUMPDEST SWAP2 POP POP JUMPDEST DUP1 PUSH1 0x0 SUB PUSH2 0x39D JUMPI PUSH1 0x40 MLOAD PUSH4 0x1E9ACF17 PUSH1 0xE3 SHL DUP2 MSTORE PUSH1 0x4 ADD PUSH1 0x40 MLOAD DUP1 SWAP2 SUB SWAP1 REVERT JUMPDEST PUSH1 0x40 MLOAD PUSH1 0x0 SWAP1 CALLER SWAP1 DUP4 SWAP1 DUP4 DUP2 DUP2 DUP2 DUP6 DUP8 GAS CALL SWAP3 POP POP POP RETURNDATASIZE DUP1 PUSH1 0x0 DUP2 EQ PUSH2 0x3DF JUMPI PUSH1 0x40 MLOAD SWAP2 POP PUSH1 0x1F NOT PUSH1 0x3F RETURNDATASIZE ADD AND DUP3 ADD PUSH1 0x40 MSTORE RETURNDATASIZE DUP3 MSTORE RETURNDATASIZE PUSH1 0x0 PUSH1 0x20 DUP5 ADD RETURNDATACOPY PUSH2 0x3E4 JUMP JUMPDEST PUSH1 0x60 SWAP2 POP JUMPDEST POP POP SWAP1 POP DUP1 PUSH2 0x406 JUMPI PUSH1 0x40 MLOAD PUSH4 0x12171D83 PUSH1 0xE3 SHL DUP2 MSTORE PUSH1 0x4 ADD PUSH1 0x40 MLOAD DUP1 SWAP2 SUB SWAP1 REVERT JUMPDEST PUSH1 0x40 MLOAD DUP3 DUP2 MSTORE CALLER SWAP1 PUSH32 0x7084F5476618D8E60B11EF0D7D3F06914655ADB8793E28FF7F018D4C76D505D5 SWAP1 PUSH1 0x20 ADD PUSH1 0x40 MLOAD DUP1 SWAP2 SUB SWAP1 LOG2 POP POP POP POP JUMP JUMPDEST PUSH1 0x1 PUSH1 0x1 PUSH1 0xA0 SHL SUB DUP2 DUP2 AND PUSH1 0x0 SWAP1 DUP2 MSTORE PUSH1 0x20 DUP2 DUP2 MSTORE PUSH1 0x40 DUP1 DUP4 KECCAK256 SLOAD PUSH1 0x1 SWAP1 SWAP3 MSTORE DUP1 DUP4 KECCAK256 SLOAD SWAP1 MLOAD PUSH4 0x384A4D71 PUSH1 0xE2 SHL DUP2 MSTORE PUSH1 0x4 DUP2 ADD DUP3 SWAP1 MSTORE SWAP2 SWAP4 SWAP1 SWAP3 SWAP2 PUSH32 0x0 SWAP1 SWAP2 AND SWAP1 PUSH4 0xE12935C4 SWAP1 PUSH1 0x24 ADD PUSH1 0x20 PUSH1 0x40 MLOAD DUP1 DUP4 SUB DUP2 DUP7 GAS STATICCALL ISZERO DUP1 ISZERO PUSH2 0x4C8 JUMPI RETURNDATASIZE PUSH1 0x0 DUP1 RETURNDATACOPY RETURNDATASIZE PUSH1 0x0 REVERT JUMPDEST POP POP POP POP PUSH1 0x40 MLOAD RETURNDATASIZE PUSH1 0x1F NOT PUSH1 0x1F DUP3 ADD AND DUP3 ADD DUP1 PUSH1 0x40 MSTORE POP DUP2 ADD SWAP1 PUSH2 0x4EC SWAP2 SWAP1 PUSH2 0xB5A JUMP JUMPDEST PUSH2 0x4F6 SWAP1 DUP5 PUSH2 0xB89 JUMP JUMPDEST SWAP3 SWAP5 SWAP2 SWAP4 POP POP JUMP JUMPDEST PUSH1 0x1 PUSH1 0x1 PUSH1 0xA0 SHL SUB DUP5 AND PUSH1 0x0 SWAP1 DUP2 MSTORE PUSH1 0x20 DUP2 SWAP1 MSTORE PUSH1 0x40 SWAP1 KECCAK256 SLOAD PUSH2 0x3E8 DUP2 LT PUSH2 0x5E9 JUMPI PUSH1 0x1 PUSH1 0x1 PUSH1 0xA0 SHL SUB DUP6 AND PUSH1 0x0 SWAP1 DUP2 MSTORE PUSH1 0x20 DUP2 SWAP1 MSTORE PUSH1 0x40 DUP2 KECCAK256 DUP1 SLOAD PUSH2 0x3E8 SWAP3 SWAP1 PUSH2 0x54A SWAP1 DUP5 SWAP1 PUSH2 0xBA2 JUMP JUMPDEST SWAP1 SWAP2 SSTORE POP POP PUSH1 0x40 MLOAD PUSH1 0x0 SWAP1 PUSH1 0x1 PUSH1 0x1 PUSH1 0xA0 SHL SUB PUSH32 0x0 AND SWAP1 PUSH2 0x3E8 SWAP1 DUP4 DUP2 DUP2 DUP2 DUP6 DUP8 GAS CALL SWAP3 POP POP POP RETURNDATASIZE DUP1 PUSH1 0x0 DUP2 EQ PUSH2 0x5BC JUMPI PUSH1 0x40 MLOAD SWAP2 POP PUSH1 0x1F NOT PUSH1 0x3F RETURNDATASIZE ADD AND DUP3 ADD PUSH1 0x40 MSTORE RETURNDATASIZE DUP3 MSTORE RETURNDATASIZE PUSH1 0x0 PUSH1 0x20 DUP5 ADD RETURNDATACOPY PUSH2 0x5C1 JUMP JUMPDEST PUSH1 0x60 SWAP2 POP JUMPDEST POP POP SWAP1 POP DUP1 PUSH2 0x5E3 JUMPI PUSH1 0x40 MLOAD PUSH4 0x12171D83 PUSH1 0xE3 SHL DUP2 MSTORE PUSH1 0x4 ADD PUSH1 0x40 MLOAD DUP1 SWAP2 SUB SWAP1 REVERT JUMPDEST POP PUSH2 0x870 JUMP JUMPDEST PUSH1 0x40 MLOAD PUSH4 0x5D136479 PUSH1 0xE0 SHL DUP2 MSTORE PUSH2 0x3E8 PUSH1 0x4 DUP3 ADD MSTORE PUSH1 0x0 SWAP1 PUSH32 0x0 PUSH1 0x1 PUSH1 0x1 PUSH1 0xA0 SHL SUB AND SWAP1 PUSH4 0x5D136479 SWAP1 PUSH1 0x24 ADD PUSH1 0x20 PUSH1 0x40 MLOAD DUP1 DUP4 SUB DUP2 DUP7 GAS STATICCALL ISZERO DUP1 ISZERO PUSH2 0x652 JUMPI RETURNDATASIZE PUSH1 0x0 DUP1 RETURNDATACOPY RETURNDATASIZE PUSH1 0x0 REVERT JUMPDEST POP POP POP POP PUSH1 0x40 MLOAD RETURNDATASIZE PUSH1 0x1F NOT PUSH1 0x1F DUP3 ADD AND DUP3 ADD DUP1 PUSH1 0x40 MSTORE POP DUP2 ADD SWAP1 PUSH2 0x676 SWAP2 SWAP1 PUSH2 0xB5A JUMP JUMPDEST PUSH1 0x1 PUSH1 0x1 PUSH1 0xA0 SHL SUB DUP8 AND PUSH1 0x0 SWAP1 DUP2 MSTORE PUSH1 0x1 PUSH1 0x20 MSTORE PUSH1 0x40 SWAP1 KECCAK256 SLOAD SWAP1 SWAP2 POP DUP2 GT ISZERO PUSH2 0x6B2 JUMPI PUSH1 0x40 MLOAD PUSH4 0x1E9ACF17 PUSH1 0xE3 SHL DUP2 MSTORE PUSH1 0x4 ADD PUSH1 0x40 MLOAD DUP1 SWAP2 SUB SWAP1 REVERT JUMPDEST PUSH1 0x1 PUSH1 0x1 PUSH1 0xA0 SHL SUB DUP7 AND PUSH1 0x0 SWAP1 DUP2 MSTORE PUSH1 0x1 PUSH1 0x20 MSTORE PUSH1 0x40 DUP2 KECCAK256 DUP1 SLOAD DUP4 SWAP3 SWAP1 PUSH2 0x6DA SWAP1 DUP5 SWAP1 PUSH2 0xBA2 JUMP JUMPDEST SWAP1 SWAP2 SSTORE POP POP PUSH1 0x40 MLOAD PUSH4 0xDB006A75 PUSH1 0xE0 SHL DUP2 MSTORE PUSH1 0x4 DUP2 ADD DUP3 SWAP1 MSTORE PUSH1 0x0 SWAP1 PUSH32 0x0 PUSH1 0x1 PUSH1 0x1 PUSH1 0xA0 SHL SUB AND SWAP1 PUSH4 0xDB006A75 SWAP1 PUSH1 0x24 ADD PUSH1 0x20 PUSH1 0x40 MLOAD DUP1 DUP4 SUB DUP2 PUSH1 0x0 DUP8 GAS CALL ISZERO DUP1 ISZERO PUSH2 0x749 JUMPI RETURNDATASIZE PUSH1 0x0 DUP1 RETURNDATACOPY RETURNDATASIZE PUSH1 0x0 REVERT JUMPDEST POP POP POP POP PUSH1 0x40 MLOAD RETURNDATASIZE PUSH1 0x1F NOT PUSH1 0x1F DUP3 ADD AND DUP3 ADD DUP1 PUSH1 0x40 MSTORE POP DUP2 ADD SWAP1 PUSH2 0x76D SWAP2 SWAP1 PUSH2 0xB5A JUMP JUMPDEST SWAP1 POP PUSH2 0x3E8 DUP2 LT ISZERO PUSH2 0x792 JUMPI PUSH1 0x40 MLOAD PUSH4 0x1E9ACF17 PUSH1 0xE3 SHL DUP2 MSTORE PUSH1 0x4 ADD PUSH1 0x40 MLOAD DUP1 SWAP2 SUB SWAP1 REVERT JUMPDEST PUSH1 0x0 PUSH32 0x0 PUSH1 0x1 PUSH1 0x1 PUSH1 0xA0 SHL SUB AND PUSH2 0x3E8 PUSH1 0x40 MLOAD PUSH1 0x0 PUSH1 0x40 MLOAD DUP1 DUP4 SUB DUP2 DUP6 DUP8 GAS CALL SWAP3 POP POP POP RETURNDATASIZE DUP1 PUSH1 0x0 DUP2 EQ PUSH2 0x801 JUMPI PUSH1 0x40 MLOAD SWAP2 POP PUSH1 0x1F NOT PUSH1 0x3F RETURNDATASIZE ADD AND DUP3 ADD PUSH1 0x40 MSTORE RETURNDATASIZE DUP3 MSTORE RETURNDATASIZE PUSH1 0x0 PUSH1 0x20 DUP5 ADD RETURNDATACOPY PUSH2 0x806 JUMP JUMPDEST PUSH1 0x60 SWAP2 POP JUMPDEST POP POP SWAP1 POP DUP1 PUSH2 0x828 JUMPI PUSH1 0x40 MLOAD PUSH4 0x12171D83 PUSH1 0xE3 SHL DUP2 MSTORE PUSH1 0x4 ADD PUSH1 0x40 MLOAD DUP1 SWAP2 SUB SWAP1 REVERT JUMPDEST PUSH2 0x3E8 DUP3 GT ISZERO PUSH2 0x86C JUMPI PUSH2 0x83E PUSH2 0x3E8 DUP4 PUSH2 0xBA2 JUMP JUMPDEST PUSH1 0x1 PUSH1 0x1 PUSH1 0xA0 SHL SUB DUP10 AND PUSH1 0x0 SWAP1 DUP2 MSTORE PUSH1 0x20 DUP2 SWAP1 MSTORE PUSH1 0x40 DUP2 KECCAK256 DUP1 SLOAD SWAP1 SWAP2 SWAP1 PUSH2 0x866 SWAP1 DUP5 SWAP1 PUSH2 0xB89 JUMP JUMPDEST SWAP1 SWAP2 SSTORE POP POP JUMPDEST POP POP POP JUMPDEST DUP4 PUSH1 0x1 PUSH1 0x1 PUSH1 0xA0 SHL SUB AND DUP6 PUSH1 0x1 PUSH1 0x1 PUSH1 0xA0 SHL SUB AND PUSH32 0x97BE2867C06E807CD1C22A8BCF41D1A21DA278CEB4DB53ED9914BFBA0228F953 DUP6 DUP6 PUSH2 0x3E8 PUSH1 0x40 MLOAD PUSH2 0x8B9 SWAP4 SWAP3 SWAP2 SWAP1 PUSH2 0xBB5 JUMP JUMPDEST PUSH1 0x40 MLOAD DUP1 SWAP2 SUB SWAP1 LOG3 POP POP POP POP POP JUMP JUMPDEST CALLVALUE DUP1 PUSH2 0x91A JUMPI PUSH1 0x40 MLOAD PUSH3 0x461BCD PUSH1 0xE5 SHL DUP2 MSTORE PUSH1 0x20 PUSH1 0x4 DUP3 ADD MSTORE PUSH1 0x1D PUSH1 0x24 DUP3 ADD MSTORE PUSH32 0x416D6F756E74206D7573742062652067726561746572207468616E2030000000 PUSH1 0x44 DUP3 ADD MSTORE PUSH1 0x64 ADD PUSH1 0x40 MLOAD DUP1 SWAP2 SUB SWAP1 REVERT JUMPDEST CALLER PUSH1 0x0 SWAP1 DUP2 MSTORE PUSH1 0x20 DUP2 SWAP1 MSTORE PUSH1 0x40 DUP2 KECCAK256 SLOAD SWAP1 PUSH2 0x2710 DUP3 LT ISZERO PUSH2 0x946 JUMPI PUSH2 0x941 DUP3 PUSH2 0x2710 PUSH2 0xBA2 JUMP JUMPDEST PUSH2 0x949 JUMP JUMPDEST PUSH1 0x0 JUMPDEST SWAP1 POP PUSH1 0x0 DUP2 DUP5 LT PUSH2 0x95A JUMPI DUP2 PUSH2 0x95C JUMP JUMPDEST DUP4 JUMPDEST SWAP1 POP PUSH1 0x0 PUSH2 0x96A DUP3 DUP7 PUSH2 0xBA2 JUMP JUMPDEST CALLER PUSH1 0x0 SWAP1 DUP2 MSTORE PUSH1 0x20 DUP2 SWAP1 MSTORE PUSH1 0x40 DUP2 KECCAK256 DUP1 SLOAD SWAP3 SWAP4 POP DUP5 SWAP3 SWAP1 SWAP2 SWAP1 PUSH2 0x98E SWAP1 DUP5 SWAP1 PUSH2 0xB89 JUMP JUMPDEST SWAP1 SWAP2 SSTORE POP PUSH1 0x0 SWAP1 POP DUP2 ISZERO PUSH2 0xA4B JUMPI PUSH32 0x0 PUSH1 0x1 PUSH1 0x1 PUSH1 0xA0 SHL SUB AND PUSH4 0x8F449A05 DUP4 PUSH1 0x40 MLOAD DUP3 PUSH4 0xFFFFFFFF AND PUSH1 0xE0 SHL DUP2 MSTORE PUSH1 0x4 ADD PUSH1 0x20 PUSH1 0x40 MLOAD DUP1 DUP4 SUB DUP2 DUP6 DUP9 GAS CALL ISZERO DUP1 ISZERO PUSH2 0x9FC JUMPI RETURNDATASIZE PUSH1 0x0 DUP1 RETURNDATACOPY RETURNDATASIZE PUSH1 0x0 REVERT JUMPDEST POP POP POP POP POP PUSH1 0x40 MLOAD RETURNDATASIZE PUSH1 0x1F NOT PUSH1 0x1F DUP3 ADD AND DUP3 ADD DUP1 PUSH1 0x40 MSTORE POP DUP2 ADD SWAP1 PUSH2 0xA21 SWAP2 SWAP1 PUSH2 0xB5A JUMP JUMPDEST CALLER PUSH1 0x0 SWAP1 DUP2 MSTORE PUSH1 0x1 PUSH1 0x20 MSTORE PUSH1 0x40 DUP2 KECCAK256 DUP1 SLOAD SWAP3 SWAP4 POP DUP4 SWAP3 SWAP1 SWAP2 SWAP1 PUSH2 0xA45 SWAP1 DUP5 SWAP1 PUSH2 0xB89 JUMP JUMPDEST SWAP1 SWAP2 SSTORE POP POP JUMPDEST PUSH1 0x40 DUP1 MLOAD DUP8 DUP2 MSTORE PUSH1 0x20 DUP2 ADD DUP4 SWAP1 MSTORE CALLER SWAP2 PUSH32 0x73A19DD210F1A7F902193214C0EE91DD35EE5B4D920CBA8D519ECA65A7B488CA SWAP2 ADD PUSH1 0x40 MLOAD DUP1 SWAP2 SUB SWAP1 LOG2 POP POP POP POP POP POP JUMP JUMPDEST DUP1 CALLDATALOAD PUSH1 0x1 PUSH1 0x1 PUSH1 0xA0 SHL SUB DUP2 AND DUP2 EQ PUSH2 0xAA5 JUMPI PUSH1 0x0 DUP1 REVERT JUMPDEST SWAP2 SWAP1 POP JUMP JUMPDEST PUSH1 0x0 PUSH1 0x20 DUP3 DUP5 SUB SLT ISZERO PUSH2 0xABC JUMPI PUSH1 0x0 DUP1 REVERT JUMPDEST PUSH2 0xAC5 DUP3 PUSH2 0xA8E JUMP JUMPDEST SWAP4 SWAP3 POP POP POP JUMP JUMPDEST PUSH1 0x0 DUP1 PUSH1 0x0 DUP1 PUSH1 0x60 DUP6 DUP8 SUB SLT ISZERO PUSH2 0xAE2 JUMPI PUSH1 0x0 DUP1 REVERT JUMPDEST PUSH2 0xAEB DUP6 PUSH2 0xA8E JUMP JUMPDEST SWAP4 POP PUSH2 0xAF9 PUSH1 0x20 DUP7 ADD PUSH2 0xA8E JUMP JUMPDEST SWAP3 POP PUSH1 0x40 DUP6 ADD CALLDATALOAD PUSH8 0xFFFFFFFFFFFFFFFF DUP1 DUP3 GT ISZERO PUSH2 0xB16 JUMPI PUSH1 0x0 DUP1 REVERT JUMPDEST DUP2 DUP8 ADD SWAP2 POP DUP8 PUSH1 0x1F DUP4 ADD SLT PUSH2 0xB2A JUMPI PUSH1 0x0 DUP1 REVERT JUMPDEST DUP2 CALLDATALOAD DUP2 DUP2 GT ISZERO PUSH2 0xB39 JUMPI PUSH1 0x0 DUP1 REVERT JUMPDEST DUP9 PUSH1 0x20 DUP3 DUP6 ADD ADD GT ISZERO PUSH2 0xB4B JUMPI PUSH1 0x0 DUP1 REVERT JUMPDEST SWAP6 SWAP9 SWAP5 SWAP8 POP POP PUSH1 0x20 ADD SWAP5 POP POP POP JUMP JUMPDEST PUSH1 0x0 PUSH1 0x20 DUP3 DUP5 SUB SLT ISZERO PUSH2 0xB6C JUMPI PUSH1 0x0 DUP1 REVERT JUMPDEST POP MLOAD SWAP2 SWAP1 POP JUMP JUMPDEST PUSH4 0x4E487B71 PUSH1 0xE0 SHL PUSH1 0x0 MSTORE PUSH1 0x11 PUSH1 0x4 MSTORE PUSH1 0x24 PUSH1 0x0 REVERT JUMPDEST DUP1 DUP3 ADD DUP1 DUP3 GT ISZERO PUSH2 0xB9C JUMPI PUSH2 0xB9C PUSH2 0xB73 JUMP JUMPDEST SWAP3 SWAP2 POP POP JUMP JUMPDEST DUP2 DUP2 SUB DUP2 DUP2 GT ISZERO PUSH2 0xB9C JUMPI PUSH2 0xB9C PUSH2 0xB73 JUMP JUMPDEST PUSH1 0x40 DUP2 MSTORE DUP3 PUSH1 0x40 DUP3 ADD MSTORE DUP3 DUP5 PUSH1 0x60 DUP4 ADD CALLDATACOPY PUSH1 0x0 PUSH1 0x60 DUP5 DUP4 ADD ADD MSTORE PUSH1 0x0 PUSH1 0x60 PUSH1 0x1F NOT PUSH1 0x1F DUP7 ADD AND DUP4 ADD ADD SWAP1 POP DUP3 PUSH1 0x20 DUP4 ADD MSTORE SWAP5 SWAP4 POP POP POP POP JUMP INVALID LOG2 PUSH5 0x6970667358 0x22 SLT KECCAK256 0xB7 SWAP4 EXTCODECOPY DUP14 0xE2 0xDC MOD PUSH16 0xB60DC54F2E45176455E741CB930102C7 0xFB SWAP15 DUP16 0xD6 0xF6 DUP14 0xE4 PUSH19 0x64736F6C634300081800330000000000000000 "},"methodIdentifiers":{"FLOAT_AMOUNT()":"4cc61391","PRICE_PER_READ()":"7c40d546","balanceOf(address)":"70a08231","deposit()":"d0e30db0","owner()":"8da5cb5b","payForRead(address,address,string)":"71d73b08","teller()":"57edab4e","usdcFloat(address)":"77c947f8","usycStaked(address)":"e2745d85","usycToken()":"c8c3f366","withdraw()":"3ccfd60b","writerVault()":"35d29909"}}}}}