{"contracts/WriterVault.sol":{"WriterVault":{"abi":[{"inputs":[{"internalType":"address","name":"_usycToken","type":"address"},{"internalType":"address","name":"_teller","type":"address"}],"stateMutability":"nonpayable","type":"constructor"},{"inputs":[],"name":"InsufficientBalance","type":"error"},{"inputs":[],"name":"TransferFailed","type":"error"},{"inputs":[],"name":"Unauthorized","type":"error"},{"anonymous":false,"inputs":[{"indexed":true,"internalType":"address","name":"writer","type":"address"},{"indexed":false,"internalType":"uint256","name":"usdcAmount","type":"uint256"},{"indexed":false,"internalType":"uint256","name":"usycMinted","type":"uint256"},{"indexed":false,"internalType":"string","name":"slug","type":"string"},{"indexed":false,"internalType":"enum IWriterVault.PaymentType","name":"pType","type":"uint8"}],"name":"EarningsReceived","type":"event"},{"anonymous":false,"inputs":[{"indexed":true,"internalType":"address","name":"writer","type":"address"},{"indexed":false,"internalType":"uint256","name":"usdcAmount","type":"uint256"}],"name":"EarningsWithdrawn","type":"event"},{"inputs":[{"internalType":"address","name":"writer","type":"address"}],"name":"earningsOf","outputs":[{"internalType":"uint256","name":"usyc","type":"uint256"},{"internalType":"uint256","name":"estimatedUsdc","type":"uint256"},{"internalType":"uint256","name":"reads","type":"uint256"},{"internalType":"uint256","name":"claps","type":"uint256"},{"internalType":"uint256","name":"comments","type":"uint256"},{"internalType":"uint256","name":"lifetimeUsdc","type":"uint256"}],"stateMutability":"view","type":"function"},{"inputs":[],"name":"owner","outputs":[{"internalType":"address","name":"","type":"address"}],"stateMutability":"view","type":"function"},{"inputs":[{"internalType":"address","name":"writer","type":"address"},{"internalType":"string","name":"slug","type":"string"},{"internalType":"enum IWriterVault.PaymentType","name":"pType","type":"uint8"}],"name":"receivePayment","outputs":[],"stateMutability":"payable","type":"function"},{"inputs":[],"name":"teller","outputs":[{"internalType":"contract ITeller","name":"","type":"address"}],"stateMutability":"view","type":"function"},{"inputs":[{"internalType":"address","name":"","type":"address"}],"name":"totalClaps","outputs":[{"internalType":"uint256","name":"","type":"uint256"}],"stateMutability":"view","type":"function"},{"inputs":[{"internalType":"address","name":"","type":"address"}],"name":"totalComments","outputs":[{"internalType":"uint256","name":"","type":"uint256"}],"stateMutability":"view","type":"function"},{"inputs":[{"internalType":"address","name":"","type":"address"}],"name":"totalReads","outputs":[{"internalType":"uint256","name":"","type":"uint256"}],"stateMutability":"view","type":"function"},{"inputs":[{"internalType":"address","name":"","type":"address"}],"name":"totalUsdcEarned","outputs":[{"internalType":"uint256","name":"","type":"uint256"}],"stateMutability":"view","type":"function"},{"inputs":[{"internalType":"address","name":"","type":"address"}],"name":"usycBalance","outputs":[{"internalType":"uint256","name":"","type":"uint256"}],"stateMutability":"view","type":"function"},{"inputs":[],"name":"usycToken","outputs":[{"internalType":"contract IUSYC","name":"","type":"address"}],"stateMutability":"view","type":"function"},{"inputs":[],"name":"withdraw","outputs":[],"stateMutability":"nonpayable","type":"function"},{"stateMutability":"payable","type":"receive"}],"evm":{"bytecode":{"linkReferences":{},"object":"60e060405234801561001057600080fd5b50604051610a0b380380610a0b83398101604081905261002f91610066565b6001600160a01b039182166080521660a0523360c052610099565b80516001600160a01b038116811461006157600080fd5b919050565b6000806040838503121561007957600080fd5b6100828361004a565b91506100906020840161004a565b90509250929050565b60805160a05160c05161092e6100dd600039600061021501526000818161019c0152818161033801528181610485015261055d015260006102a9015261092e6000f3fe6080604052600436106100a05760003560e01c806357edab4e1161006457806357edab4e1461018a5780635c15eae9146101d65780638da5cb5b146102035780638df08bd414610237578063bfbd979514610284578063c8c3f3661461029757600080fd5b80632cd7b409146100ac578063355a18ec146100ec5780633ccfd60b146101195780635185342014610130578063556c5a121461015d57600080fd5b366100a757005b600080fd5b3480156100b857600080fd5b506100d96100c7366004610781565b60026020526000908152604090205481565b6040519081526020015b60405180910390f35b3480156100f857600080fd5b506100d9610107366004610781565b60016020526000908152604090205481565b34801561012557600080fd5b5061012e6102cb565b005b34801561013c57600080fd5b506100d961014b366004610781565b60036020526000908152604090205481565b34801561016957600080fd5b506100d9610178366004610781565b60046020526000908152604090205481565b34801561019657600080fd5b506101be7f000000000000000000000000000000000000000000000000000000000000000081565b6040516001600160a01b0390911681526020016100e3565b3480156101e257600080fd5b506100d96101f1366004610781565b60006020819052908152604090205481565b34801561020f57600080fd5b506101be7f000000000000000000000000000000000000000000000000000000000000000081565b34801561024357600080fd5b50610257610252366004610781565b61044b565b604080519687526020870195909552938501929092526060840152608083015260a082015260c0016100e3565b61012e6102923660046107a3565b610538565b3480156102a357600080fd5b506101be7f000000000000000000000000000000000000000000000000000000000000000081565b33600090815260208190526040812054908190036102fc57604051631e9acf1760e31b815260040160405180910390fd5b3360009081526020819052604080822082905551635d043b2960e11b815260048101839052306024820181905260448201526001600160a01b037f0000000000000000000000000000000000000000000000000000000000000000169063ba087652906064016020604051808303816000875af1158015610381573d6000803e3d6000fd5b505050506040513d601f19601f820116820180604052508101906103a5919061083d565b604051909150600090339083908381818185875af1925050503d80600081146103ea576040519150601f19603f3d011682016040523d82523d6000602084013e6103ef565b606091505b5050905080610411576040516312171d8360e31b815260040160405180910390fd5b60405182815233907f48dc35af7b45e2a81fffad55f6e2fafacdb1d3d0d50d24ebdc16324f5ba757f19060200160405180910390a2505050565b6001600160a01b038181166000908152602081905260408082205490516303d1689d60e11b815260048101829052909282918291829182917f000000000000000000000000000000000000000000000000000000000000000016906307a2d13a90602401602060405180830381865afa1580156104cc573d6000803e3d6000fd5b505050506040513d601f19601f820116820180604052508101906104f0919061083d565b6001600160a01b039097166000908152600260209081526040808320546003835281842054600484528285205460019094529190932054989a92989097509095509350915050565b346000811561063d57604051636e553f6560e01b8152600481018390523060248201527f00000000000000000000000000000000000000000000000000000000000000006001600160a01b031690636e553f6590849060440160206040518083038185885af11580156105af573d6000803e3d6000fd5b50505050506040513d601f19601f820116820180604052508101906105d4919061083d565b905080600080886001600160a01b03166001600160a01b03168152602001908152602001600020600082825461060a9190610856565b90915550506001600160a01b03861660009081526001602052604081208054849290610637908490610856565b90915550505b60008360028111156106515761065161087d565b0361068a576001600160a01b038616600090815260026020526040812080546001929061067f908490610856565b909155506107149050565b600183600281111561069e5761069e61087d565b036106cc576001600160a01b038616600090815260036020526040812080546001929061067f908490610856565b60028360028111156106e0576106e061087d565b03610714576001600160a01b038616600090815260046020526040812080546001929061070e908490610856565b90915550505b856001600160a01b03167f273a241b024d104d3f3d5b337e8b2aecacaf3e59ba7fa41bbc4cd1d9511b07468383888888604051610755959493929190610893565b60405180910390a2505050505050565b80356001600160a01b038116811461077c57600080fd5b919050565b60006020828403121561079357600080fd5b61079c82610765565b9392505050565b600080600080606085870312156107b957600080fd5b6107c285610765565b9350602085013567ffffffffffffffff808211156107df57600080fd5b818701915087601f8301126107f357600080fd5b81358181111561080257600080fd5b88602082850101111561081457600080fd5b60208301955080945050505060408501356003811061083257600080fd5b939692955090935050565b60006020828403121561084f57600080fd5b5051919050565b8082018082111561087757634e487b7160e01b600052601160045260246000fd5b92915050565b634e487b7160e01b600052602160045260246000fd5b85815284602082015260806040820152826080820152828460a0830137600060a08483010152600060a0601f19601f8601168301019050600383106108e857634e487b7160e01b600052602160045260246000fd5b826060830152969550505050505056fea26469706673582212205459eca402fc69522d9aa29c73d5b6d2529bcdbf95fc58c0680f3e3fa87c08a764736f6c63430008180033","opcodes":"PUSH1 0xE0 PUSH1 0x40 MSTORE CALLVALUE DUP1 ISZERO PUSH2 0x10 JUMPI PUSH1 0x0 DUP1 REVERT JUMPDEST POP PUSH1 0x40 MLOAD PUSH2 0xA0B CODESIZE SUB DUP1 PUSH2 0xA0B DUP4 CODECOPY DUP2 ADD PUSH1 0x40 DUP2 SWAP1 MSTORE PUSH2 0x2F SWAP2 PUSH2 0x66 JUMP JUMPDEST PUSH1 0x1 PUSH1 0x1 PUSH1 0xA0 SHL SUB SWAP2 DUP3 AND PUSH1 0x80 MSTORE AND PUSH1 0xA0 MSTORE CALLER PUSH1 0xC0 MSTORE PUSH2 0x99 JUMP JUMPDEST DUP1 MLOAD PUSH1 0x1 PUSH1 0x1 PUSH1 0xA0 SHL SUB DUP2 AND DUP2 EQ PUSH2 0x61 JUMPI PUSH1 0x0 DUP1 REVERT JUMPDEST SWAP2 SWAP1 POP JUMP JUMPDEST PUSH1 0x0 DUP1 PUSH1 0x40 DUP4 DUP6 SUB SLT ISZERO PUSH2 0x79 JUMPI PUSH1 0x0 DUP1 REVERT JUMPDEST PUSH2 0x82 DUP4 PUSH2 0x4A JUMP JUMPDEST SWAP2 POP PUSH2 0x90 PUSH1 0x20 DUP5 ADD PUSH2 0x4A JUMP JUMPDEST SWAP1 POP SWAP3 POP SWAP3 SWAP1 POP JUMP JUMPDEST PUSH1 0x80 MLOAD PUSH1 0xA0 MLOAD PUSH1 0xC0 MLOAD PUSH2 0x92E PUSH2 0xDD PUSH1 0x0 CODECOPY PUSH1 0x0 PUSH2 0x215 ADD MSTORE PUSH1 0x0 DUP2 DUP2 PUSH2 0x19C ADD MSTORE DUP2 DUP2 PUSH2 0x338 ADD MSTORE DUP2 DUP2 PUSH2 0x485 ADD MSTORE PUSH2 0x55D ADD MSTORE PUSH1 0x0 PUSH2 0x2A9 ADD MSTORE PUSH2 0x92E PUSH1 0x0 RETURN INVALID PUSH1 0x80 PUSH1 0x40 MSTORE PUSH1 0x4 CALLDATASIZE LT PUSH2 0xA0 JUMPI PUSH1 0x0 CALLDATALOAD PUSH1 0xE0 SHR DUP1 PUSH4 0x57EDAB4E GT PUSH2 0x64 JUMPI DUP1 PUSH4 0x57EDAB4E EQ PUSH2 0x18A JUMPI DUP1 PUSH4 0x5C15EAE9 EQ PUSH2 0x1D6 JUMPI DUP1 PUSH4 0x8DA5CB5B EQ PUSH2 0x203 JUMPI DUP1 PUSH4 0x8DF08BD4 EQ PUSH2 0x237 JUMPI DUP1 PUSH4 0xBFBD9795 EQ PUSH2 0x284 JUMPI DUP1 PUSH4 0xC8C3F366 EQ PUSH2 0x297 JUMPI PUSH1 0x0 DUP1 REVERT JUMPDEST DUP1 PUSH4 0x2CD7B409 EQ PUSH2 0xAC JUMPI DUP1 PUSH4 0x355A18EC EQ PUSH2 0xEC JUMPI DUP1 PUSH4 0x3CCFD60B EQ PUSH2 0x119 JUMPI DUP1 PUSH4 0x51853420 EQ PUSH2 0x130 JUMPI DUP1 PUSH4 0x556C5A12 EQ PUSH2 0x15D JUMPI PUSH1 0x0 DUP1 REVERT JUMPDEST CALLDATASIZE PUSH2 0xA7 JUMPI STOP JUMPDEST PUSH1 0x0 DUP1 REVERT JUMPDEST CALLVALUE DUP1 ISZERO PUSH2 0xB8 JUMPI PUSH1 0x0 DUP1 REVERT JUMPDEST POP PUSH2 0xD9 PUSH2 0xC7 CALLDATASIZE PUSH1 0x4 PUSH2 0x781 JUMP JUMPDEST PUSH1 0x2 PUSH1 0x20 MSTORE PUSH1 0x0 SWAP1 DUP2 MSTORE PUSH1 0x40 SWAP1 KECCAK256 SLOAD DUP2 JUMP JUMPDEST PUSH1 0x40 MLOAD SWAP1 DUP2 MSTORE PUSH1 0x20 ADD JUMPDEST PUSH1 0x40 MLOAD DUP1 SWAP2 SUB SWAP1 RETURN JUMPDEST CALLVALUE DUP1 ISZERO PUSH2 0xF8 JUMPI PUSH1 0x0 DUP1 REVERT JUMPDEST POP PUSH2 0xD9 PUSH2 0x107 CALLDATASIZE PUSH1 0x4 PUSH2 0x781 JUMP JUMPDEST PUSH1 0x1 PUSH1 0x20 MSTORE PUSH1 0x0 SWAP1 DUP2 MSTORE PUSH1 0x40 SWAP1 KECCAK256 SLOAD DUP2 JUMP JUMPDEST CALLVALUE DUP1 ISZERO PUSH2 0x125 JUMPI PUSH1 0x0 DUP1 REVERT JUMPDEST POP PUSH2 0x12E PUSH2 0x2CB JUMP JUMPDEST STOP JUMPDEST CALLVALUE DUP1 ISZERO PUSH2 0x13C JUMPI PUSH1 0x0 DUP1 REVERT JUMPDEST POP PUSH2 0xD9 PUSH2 0x14B CALLDATASIZE PUSH1 0x4 PUSH2 0x781 JUMP JUMPDEST PUSH1 0x3 PUSH1 0x20 MSTORE PUSH1 0x0 SWAP1 DUP2 MSTORE PUSH1 0x40 SWAP1 KECCAK256 SLOAD DUP2 JUMP JUMPDEST CALLVALUE DUP1 ISZERO PUSH2 0x169 JUMPI PUSH1 0x0 DUP1 REVERT JUMPDEST POP PUSH2 0xD9 PUSH2 0x178 CALLDATASIZE PUSH1 0x4 PUSH2 0x781 JUMP JUMPDEST PUSH1 0x4 PUSH1 0x20 MSTORE PUSH1 0x0 SWAP1 DUP2 MSTORE PUSH1 0x40 SWAP1 KECCAK256 SLOAD DUP2 JUMP JUMPDEST CALLVALUE DUP1 ISZERO PUSH2 0x196 JUMPI PUSH1 0x0 DUP1 REVERT JUMPDEST POP PUSH2 0x1BE PUSH32 0x0 DUP2 JUMP JUMPDEST PUSH1 0x40 MLOAD PUSH1 0x1 PUSH1 0x1 PUSH1 0xA0 SHL SUB SWAP1 SWAP2 AND DUP2 MSTORE PUSH1 0x20 ADD PUSH2 0xE3 JUMP JUMPDEST CALLVALUE DUP1 ISZERO PUSH2 0x1E2 JUMPI PUSH1 0x0 DUP1 REVERT JUMPDEST POP PUSH2 0xD9 PUSH2 0x1F1 CALLDATASIZE PUSH1 0x4 PUSH2 0x781 JUMP JUMPDEST PUSH1 0x0 PUSH1 0x20 DUP2 SWAP1 MSTORE SWAP1 DUP2 MSTORE PUSH1 0x40 SWAP1 KECCAK256 SLOAD DUP2 JUMP JUMPDEST CALLVALUE DUP1 ISZERO PUSH2 0x20F JUMPI PUSH1 0x0 DUP1 REVERT JUMPDEST POP PUSH2 0x1BE PUSH32 0x0 DUP2 JUMP JUMPDEST CALLVALUE DUP1 ISZERO PUSH2 0x243 JUMPI PUSH1 0x0 DUP1 REVERT JUMPDEST POP PUSH2 0x257 PUSH2 0x252 CALLDATASIZE PUSH1 0x4 PUSH2 0x781 JUMP JUMPDEST PUSH2 0x44B JUMP JUMPDEST PUSH1 0x40 DUP1 MLOAD SWAP7 DUP8 MSTORE PUSH1 0x20 DUP8 ADD SWAP6 SWAP1 SWAP6 MSTORE SWAP4 DUP6 ADD SWAP3 SWAP1 SWAP3 MSTORE PUSH1 0x60 DUP5 ADD MSTORE PUSH1 0x80 DUP4 ADD MSTORE PUSH1 0xA0 DUP3 ADD MSTORE PUSH1 0xC0 ADD PUSH2 0xE3 JUMP JUMPDEST PUSH2 0x12E PUSH2 0x292 CALLDATASIZE PUSH1 0x4 PUSH2 0x7A3 JUMP JUMPDEST PUSH2 0x538 JUMP JUMPDEST CALLVALUE DUP1 ISZERO PUSH2 0x2A3 JUMPI PUSH1 0x0 DUP1 REVERT JUMPDEST POP PUSH2 0x1BE PUSH32 0x0 DUP2 JUMP JUMPDEST CALLER PUSH1 0x0 SWAP1 DUP2 MSTORE PUSH1 0x20 DUP2 SWAP1 MSTORE PUSH1 0x40 DUP2 KECCAK256 SLOAD SWAP1 DUP2 SWAP1 SUB PUSH2 0x2FC JUMPI PUSH1 0x40 MLOAD PUSH4 0x1E9ACF17 PUSH1 0xE3 SHL DUP2 MSTORE PUSH1 0x4 ADD PUSH1 0x40 MLOAD DUP1 SWAP2 SUB SWAP1 REVERT JUMPDEST CALLER PUSH1 0x0 SWAP1 DUP2 MSTORE PUSH1 0x20 DUP2 SWAP1 MSTORE PUSH1 0x40 DUP1 DUP3 KECCAK256 DUP3 SWAP1 SSTORE MLOAD PUSH4 0x5D043B29 PUSH1 0xE1 SHL DUP2 MSTORE PUSH1 0x4 DUP2 ADD DUP4 SWAP1 MSTORE ADDRESS PUSH1 0x24 DUP3 ADD DUP2 SWAP1 MSTORE PUSH1 0x44 DUP3 ADD MSTORE PUSH1 0x1 PUSH1 0x1 PUSH1 0xA0 SHL SUB PUSH32 0x0 AND SWAP1 PUSH4 0xBA087652 SWAP1 PUSH1 0x64 ADD PUSH1 0x20 PUSH1 0x40 MLOAD DUP1 DUP4 SUB DUP2 PUSH1 0x0 DUP8 GAS CALL ISZERO DUP1 ISZERO PUSH2 0x381 JUMPI RETURNDATASIZE PUSH1 0x0 DUP1 RETURNDATACOPY RETURNDATASIZE PUSH1 0x0 REVERT JUMPDEST POP POP POP POP PUSH1 0x40 MLOAD RETURNDATASIZE PUSH1 0x1F NOT PUSH1 0x1F DUP3 ADD AND DUP3 ADD DUP1 PUSH1 0x40 MSTORE POP DUP2 ADD SWAP1 PUSH2 0x3A5 SWAP2 SWAP1 PUSH2 0x83D JUMP JUMPDEST PUSH1 0x40 MLOAD SWAP1 SWAP2 POP PUSH1 0x0 SWAP1 CALLER SWAP1 DUP4 SWAP1 DUP4 DUP2 DUP2 DUP2 DUP6 DUP8 GAS CALL SWAP3 POP POP POP RETURNDATASIZE DUP1 PUSH1 0x0 DUP2 EQ PUSH2 0x3EA JUMPI PUSH1 0x40 MLOAD SWAP2 POP PUSH1 0x1F NOT PUSH1 0x3F RETURNDATASIZE ADD AND DUP3 ADD PUSH1 0x40 MSTORE RETURNDATASIZE DUP3 MSTORE RETURNDATASIZE PUSH1 0x0 PUSH1 0x20 DUP5 ADD RETURNDATACOPY PUSH2 0x3EF JUMP JUMPDEST PUSH1 0x60 SWAP2 POP JUMPDEST POP POP SWAP1 POP DUP1 PUSH2 0x411 JUMPI PUSH1 0x40 MLOAD PUSH4 0x12171D83 PUSH1 0xE3 SHL DUP2 MSTORE PUSH1 0x4 ADD PUSH1 0x40 MLOAD DUP1 SWAP2 SUB SWAP1 REVERT JUMPDEST PUSH1 0x40 MLOAD DUP3 DUP2 MSTORE CALLER SWAP1 PUSH32 0x48DC35AF7B45E2A81FFFAD55F6E2FAFACDB1D3D0D50D24EBDC16324F5BA757F1 SWAP1 PUSH1 0x20 ADD PUSH1 0x40 MLOAD DUP1 SWAP2 SUB SWAP1 LOG2 POP POP POP JUMP JUMPDEST PUSH1 0x1 PUSH1 0x1 PUSH1 0xA0 SHL SUB DUP2 DUP2 AND PUSH1 0x0 SWAP1 DUP2 MSTORE PUSH1 0x20 DUP2 SWAP1 MSTORE PUSH1 0x40 DUP1 DUP3 KECCAK256 SLOAD SWAP1 MLOAD PUSH4 0x3D1689D PUSH1 0xE1 SHL DUP2 MSTORE PUSH1 0x4 DUP2 ADD DUP3 SWAP1 MSTORE SWAP1 SWAP3 DUP3 SWAP2 DUP3 SWAP2 DUP3 SWAP2 DUP3 SWAP2 PUSH32 0x0 AND SWAP1 PUSH4 0x7A2D13A SWAP1 PUSH1 0x24 ADD PUSH1 0x20 PUSH1 0x40 MLOAD DUP1 DUP4 SUB DUP2 DUP7 GAS STATICCALL ISZERO DUP1 ISZERO PUSH2 0x4CC JUMPI RETURNDATASIZE PUSH1 0x0 DUP1 RETURNDATACOPY RETURNDATASIZE PUSH1 0x0 REVERT JUMPDEST POP POP POP POP PUSH1 0x40 MLOAD RETURNDATASIZE PUSH1 0x1F NOT PUSH1 0x1F DUP3 ADD AND DUP3 ADD DUP1 PUSH1 0x40 MSTORE POP DUP2 ADD SWAP1 PUSH2 0x4F0 SWAP2 SWAP1 PUSH2 0x83D JUMP JUMPDEST PUSH1 0x1 PUSH1 0x1 PUSH1 0xA0 SHL SUB SWAP1 SWAP8 AND PUSH1 0x0 SWAP1 DUP2 MSTORE PUSH1 0x2 PUSH1 0x20 SWAP1 DUP2 MSTORE PUSH1 0x40 DUP1 DUP4 KECCAK256 SLOAD PUSH1 0x3 DUP4 MSTORE DUP2 DUP5 KECCAK256 SLOAD PUSH1 0x4 DUP5 MSTORE DUP3 DUP6 KECCAK256 SLOAD PUSH1 0x1 SWAP1 SWAP5 MSTORE SWAP2 SWAP1 SWAP4 KECCAK256 SLOAD SWAP9 SWAP11 SWAP3 SWAP9 SWAP1 SWAP8 POP SWAP1 SWAP6 POP SWAP4 POP SWAP2 POP POP JUMP JUMPDEST CALLVALUE PUSH1 0x0 DUP2 ISZERO PUSH2 0x63D JUMPI PUSH1 0x40 MLOAD PUSH4 0x6E553F65 PUSH1 0xE0 SHL DUP2 MSTORE PUSH1 0x4 DUP2 ADD DUP4 SWAP1 MSTORE ADDRESS PUSH1 0x24 DUP3 ADD MSTORE PUSH32 0x0 PUSH1 0x1 PUSH1 0x1 PUSH1 0xA0 SHL SUB AND SWAP1 PUSH4 0x6E553F65 SWAP1 DUP5 SWAP1 PUSH1 0x44 ADD PUSH1 0x20 PUSH1 0x40 MLOAD DUP1 DUP4 SUB DUP2 DUP6 DUP9 GAS CALL ISZERO DUP1 ISZERO PUSH2 0x5AF JUMPI RETURNDATASIZE PUSH1 0x0 DUP1 RETURNDATACOPY RETURNDATASIZE PUSH1 0x0 REVERT JUMPDEST POP POP POP POP POP PUSH1 0x40 MLOAD RETURNDATASIZE PUSH1 0x1F NOT PUSH1 0x1F DUP3 ADD AND DUP3 ADD DUP1 PUSH1 0x40 MSTORE POP DUP2 ADD SWAP1 PUSH2 0x5D4 SWAP2 SWAP1 PUSH2 0x83D JUMP JUMPDEST SWAP1 POP DUP1 PUSH1 0x0 DUP1 DUP9 PUSH1 0x1 PUSH1 0x1 PUSH1 0xA0 SHL SUB AND PUSH1 0x1 PUSH1 0x1 PUSH1 0xA0 SHL SUB AND DUP2 MSTORE PUSH1 0x20 ADD SWAP1 DUP2 MSTORE PUSH1 0x20 ADD PUSH1 0x0 KECCAK256 PUSH1 0x0 DUP3 DUP3 SLOAD PUSH2 0x60A SWAP2 SWAP1 PUSH2 0x856 JUMP JUMPDEST SWAP1 SWAP2 SSTORE POP POP PUSH1 0x1 PUSH1 0x1 PUSH1 0xA0 SHL SUB DUP7 AND PUSH1 0x0 SWAP1 DUP2 MSTORE PUSH1 0x1 PUSH1 0x20 MSTORE PUSH1 0x40 DUP2 KECCAK256 DUP1 SLOAD DUP5 SWAP3 SWAP1 PUSH2 0x637 SWAP1 DUP5 SWAP1 PUSH2 0x856 JUMP JUMPDEST SWAP1 SWAP2 SSTORE POP POP JUMPDEST PUSH1 0x0 DUP4 PUSH1 0x2 DUP2 GT ISZERO PUSH2 0x651 JUMPI PUSH2 0x651 PUSH2 0x87D JUMP JUMPDEST SUB PUSH2 0x68A JUMPI PUSH1 0x1 PUSH1 0x1 PUSH1 0xA0 SHL SUB DUP7 AND PUSH1 0x0 SWAP1 DUP2 MSTORE PUSH1 0x2 PUSH1 0x20 MSTORE PUSH1 0x40 DUP2 KECCAK256 DUP1 SLOAD PUSH1 0x1 SWAP3 SWAP1 PUSH2 0x67F SWAP1 DUP5 SWAP1 PUSH2 0x856 JUMP JUMPDEST SWAP1 SWAP2 SSTORE POP PUSH2 0x714 SWAP1 POP JUMP JUMPDEST PUSH1 0x1 DUP4 PUSH1 0x2 DUP2 GT ISZERO PUSH2 0x69E JUMPI PUSH2 0x69E PUSH2 0x87D JUMP JUMPDEST SUB PUSH2 0x6CC JUMPI PUSH1 0x1 PUSH1 0x1 PUSH1 0xA0 SHL SUB DUP7 AND PUSH1 0x0 SWAP1 DUP2 MSTORE PUSH1 0x3 PUSH1 0x20 MSTORE PUSH1 0x40 DUP2 KECCAK256 DUP1 SLOAD PUSH1 0x1 SWAP3 SWAP1 PUSH2 0x67F SWAP1 DUP5 SWAP1 PUSH2 0x856 JUMP JUMPDEST PUSH1 0x2 DUP4 PUSH1 0x2 DUP2 GT ISZERO PUSH2 0x6E0 JUMPI PUSH2 0x6E0 PUSH2 0x87D JUMP JUMPDEST SUB PUSH2 0x714 JUMPI PUSH1 0x1 PUSH1 0x1 PUSH1 0xA0 SHL SUB DUP7 AND PUSH1 0x0 SWAP1 DUP2 MSTORE PUSH1 0x4 PUSH1 0x20 MSTORE PUSH1 0x40 DUP2 KECCAK256 DUP1 SLOAD PUSH1 0x1 SWAP3 SWAP1 PUSH2 0x70E SWAP1 DUP5 SWAP1 PUSH2 0x856 JUMP JUMPDEST SWAP1 SWAP2 SSTORE POP POP JUMPDEST DUP6 PUSH1 0x1 PUSH1 0x1 PUSH1 0xA0 SHL SUB AND PUSH32 0x273A241B024D104D3F3D5B337E8B2AECACAF3E59BA7FA41BBC4CD1D9511B0746 DUP4 DUP4 DUP9 DUP9 DUP9 PUSH1 0x40 MLOAD PUSH2 0x755 SWAP6 SWAP5 SWAP4 SWAP3 SWAP2 SWAP1 PUSH2 0x893 JUMP JUMPDEST PUSH1 0x40 MLOAD DUP1 SWAP2 SUB SWAP1 LOG2 POP POP POP POP POP POP JUMP JUMPDEST DUP1 CALLDATALOAD PUSH1 0x1 PUSH1 0x1 PUSH1 0xA0 SHL SUB DUP2 AND DUP2 EQ PUSH2 0x77C JUMPI PUSH1 0x0 DUP1 REVERT JUMPDEST SWAP2 SWAP1 POP JUMP JUMPDEST PUSH1 0x0 PUSH1 0x20 DUP3 DUP5 SUB SLT ISZERO PUSH2 0x793 JUMPI PUSH1 0x0 DUP1 REVERT JUMPDEST PUSH2 0x79C DUP3 PUSH2 0x765 JUMP JUMPDEST SWAP4 SWAP3 POP POP POP JUMP JUMPDEST PUSH1 0x0 DUP1 PUSH1 0x0 DUP1 PUSH1 0x60 DUP6 DUP8 SUB SLT ISZERO PUSH2 0x7B9 JUMPI PUSH1 0x0 DUP1 REVERT JUMPDEST PUSH2 0x7C2 DUP6 PUSH2 0x765 JUMP JUMPDEST SWAP4 POP PUSH1 0x20 DUP6 ADD CALLDATALOAD PUSH8 0xFFFFFFFFFFFFFFFF DUP1 DUP3 GT ISZERO PUSH2 0x7DF JUMPI PUSH1 0x0 DUP1 REVERT JUMPDEST DUP2 DUP8 ADD SWAP2 POP DUP8 PUSH1 0x1F DUP4 ADD SLT PUSH2 0x7F3 JUMPI PUSH1 0x0 DUP1 REVERT JUMPDEST DUP2 CALLDATALOAD DUP2 DUP2 GT ISZERO PUSH2 0x802 JUMPI PUSH1 0x0 DUP1 REVERT JUMPDEST DUP9 PUSH1 0x20 DUP3 DUP6 ADD ADD GT ISZERO PUSH2 0x814 JUMPI PUSH1 0x0 DUP1 REVERT JUMPDEST PUSH1 0x20 DUP4 ADD SWAP6 POP DUP1 SWAP5 POP POP POP POP PUSH1 0x40 DUP6 ADD CALLDATALOAD PUSH1 0x3 DUP2 LT PUSH2 0x832 JUMPI PUSH1 0x0 DUP1 REVERT JUMPDEST SWAP4 SWAP7 SWAP3 SWAP6 POP SWAP1 SWAP4 POP POP JUMP JUMPDEST PUSH1 0x0 PUSH1 0x20 DUP3 DUP5 SUB SLT ISZERO PUSH2 0x84F JUMPI PUSH1 0x0 DUP1 REVERT JUMPDEST POP MLOAD SWAP2 SWAP1 POP JUMP JUMPDEST DUP1 DUP3 ADD DUP1 DUP3 GT ISZERO PUSH2 0x877 JUMPI PUSH4 0x4E487B71 PUSH1 0xE0 SHL PUSH1 0x0 MSTORE PUSH1 0x11 PUSH1 0x4 MSTORE PUSH1 0x24 PUSH1 0x0 REVERT JUMPDEST SWAP3 SWAP2 POP POP JUMP JUMPDEST PUSH4 0x4E487B71 PUSH1 0xE0 SHL PUSH1 0x0 MSTORE PUSH1 0x21 PUSH1 0x4 MSTORE PUSH1 0x24 PUSH1 0x0 REVERT JUMPDEST DUP6 DUP2 MSTORE DUP5 PUSH1 0x20 DUP3 ADD MSTORE PUSH1 0x80 PUSH1 0x40 DUP3 ADD MSTORE DUP3 PUSH1 0x80 DUP3 ADD MSTORE DUP3 DUP5 PUSH1 0xA0 DUP4 ADD CALLDATACOPY PUSH1 0x0 PUSH1 0xA0 DUP5 DUP4 ADD ADD MSTORE PUSH1 0x0 PUSH1 0xA0 PUSH1 0x1F NOT PUSH1 0x1F DUP7 ADD AND DUP4 ADD ADD SWAP1 POP PUSH1 0x3 DUP4 LT PUSH2 0x8E8 JUMPI PUSH4 0x4E487B71 PUSH1 0xE0 SHL PUSH1 0x0 MSTORE PUSH1 0x21 PUSH1 0x4 MSTORE PUSH1 0x24 PUSH1 0x0 REVERT JUMPDEST DUP3 PUSH1 0x60 DUP4 ADD MSTORE SWAP7 SWAP6 POP POP POP POP POP POP JUMP INVALID LOG2 PUSH5 0x6970667358 0x22 SLT KECCAK256 SLOAD MSIZE 0xEC LOG4 MUL 0xFC PUSH10 0x522D9AA29C73D5B6D252 SWAP12 0xCD 0xBF SWAP6 0xFC PC 0xC0 PUSH9 0xF3E3FA87C08A76473 PUSH16 0x6C634300081800330000000000000000 "},"methodIdentifiers":{"earningsOf(address)":"8df08bd4","owner()":"8da5cb5b","receivePayment(address,string,uint8)":"bfbd9795","teller()":"57edab4e","totalClaps(address)":"51853420","totalComments(address)":"556c5a12","totalReads(address)":"2cd7b409","totalUsdcEarned(address)":"355a18ec","usycBalance(address)":"5c15eae9","usycToken()":"c8c3f366","withdraw()":"3ccfd60b"}}}}}