{"contracts/ReaderVault.sol":{"ReaderVault":{"abi":[{"inputs":[{"internalType":"address","name":"_usycToken","type":"address"},{"internalType":"address","name":"_teller","type":"address"},{"internalType":"address","name":"_writerVault","type":"address"}],"stateMutability":"nonpayable","type":"constructor"},{"inputs":[],"name":"InsufficientBalance","type":"error"},{"inputs":[],"name":"TransferFailed","type":"error"},{"anonymous":false,"inputs":[{"indexed":true,"internalType":"address","name":"reader","type":"address"},{"indexed":true,"internalType":"address","name":"writer","type":"address"},{"indexed":false,"internalType":"string","name":"slug","type":"string"},{"indexed":false,"internalType":"uint256","name":"usdcPaid","type":"uint256"}],"name":"ArticleRead","type":"event"},{"anonymous":false,"inputs":[{"indexed":true,"internalType":"address","name":"reader","type":"address"},{"indexed":true,"internalType":"address","name":"writer","type":"address"},{"indexed":false,"internalType":"string","name":"slug","type":"string"},{"indexed":false,"internalType":"uint256","name":"usdcPaid","type":"uint256"}],"name":"ClapPaid","type":"event"},{"anonymous":false,"inputs":[{"indexed":true,"internalType":"address","name":"reader","type":"address"},{"indexed":true,"internalType":"address","name":"writer","type":"address"},{"indexed":false,"internalType":"string","name":"slug","type":"string"},{"indexed":false,"internalType":"uint256","name":"usdcPaid","type":"uint256"},{"indexed":false,"internalType":"string","name":"commentHash","type":"string"}],"name":"CommentPaid","type":"event"},{"anonymous":false,"inputs":[{"indexed":true,"internalType":"address","name":"reader","type":"address"},{"indexed":false,"internalType":"uint256","name":"usdcAmount","type":"uint256"},{"indexed":false,"internalType":"uint256","name":"usycMinted","type":"uint256"}],"name":"Deposited","type":"event"},{"anonymous":false,"inputs":[{"indexed":true,"internalType":"address","name":"reader","type":"address"},{"indexed":false,"internalType":"uint256","name":"usdcAmount","type":"uint256"}],"name":"Withdrawn","type":"event"},{"inputs":[],"name":"FLOAT_AMOUNT","outputs":[{"internalType":"uint256","name":"","type":"uint256"}],"stateMutability":"view","type":"function"},{"inputs":[],"name":"PLATFORM_FEE","outputs":[{"internalType":"uint256","name":"","type":"uint256"}],"stateMutability":"view","type":"function"},{"inputs":[{"internalType":"address","name":"reader","type":"address"}],"name":"activityOf","outputs":[{"internalType":"uint256","name":"reads","type":"uint256"},{"internalType":"uint256","name":"claps","type":"uint256"},{"internalType":"uint256","name":"comments","type":"uint256"}],"stateMutability":"view","type":"function"},{"inputs":[{"internalType":"address","name":"reader","type":"address"}],"name":"balanceOf","outputs":[{"internalType":"uint256","name":"usdcBalance","type":"uint256"},{"internalType":"uint256","name":"usycBalance","type":"uint256"},{"internalType":"uint256","name":"estimatedUsdcValue","type":"uint256"}],"stateMutability":"view","type":"function"},{"inputs":[],"name":"deposit","outputs":[],"stateMutability":"payable","type":"function"},{"inputs":[],"name":"owner","outputs":[{"internalType":"address","name":"","type":"address"}],"stateMutability":"view","type":"function"},{"inputs":[{"internalType":"address","name":"reader","type":"address"},{"internalType":"address","name":"writer","type":"address"},{"internalType":"string","name":"slug","type":"string"}],"name":"payForClap","outputs":[],"stateMutability":"nonpayable","type":"function"},{"inputs":[{"internalType":"address","name":"reader","type":"address"},{"internalType":"address","name":"writer","type":"address"},{"internalType":"string","name":"slug","type":"string"},{"internalType":"uint256","name":"price","type":"uint256"},{"internalType":"string","name":"commentHash","type":"string"}],"name":"payForComment","outputs":[],"stateMutability":"nonpayable","type":"function"},{"inputs":[{"internalType":"address","name":"reader","type":"address"},{"internalType":"address","name":"writer","type":"address"},{"internalType":"string","name":"slug","type":"string"},{"internalType":"uint256","name":"price","type":"uint256"}],"name":"payForRead","outputs":[],"stateMutability":"nonpayable","type":"function"},{"inputs":[],"name":"teller","outputs":[{"internalType":"contract ITeller","name":"","type":"address"}],"stateMutability":"view","type":"function"},{"inputs":[{"internalType":"address","name":"","type":"address"}],"name":"totalClapsGiven","outputs":[{"internalType":"uint256","name":"","type":"uint256"}],"stateMutability":"view","type":"function"},{"inputs":[{"internalType":"address","name":"","type":"address"}],"name":"totalCommentsGiven","outputs":[{"internalType":"uint256","name":"","type":"uint256"}],"stateMutability":"view","type":"function"},{"inputs":[{"internalType":"address","name":"","type":"address"}],"name":"totalReadsPerformed","outputs":[{"internalType":"uint256","name":"","type":"uint256"}],"stateMutability":"view","type":"function"},{"inputs":[{"internalType":"address","name":"","type":"address"}],"name":"usdcFloat","outputs":[{"internalType":"uint256","name":"","type":"uint256"}],"stateMutability":"view","type":"function"},{"inputs":[{"internalType":"address","name":"","type":"address"}],"name":"usycStaked","outputs":[{"internalType":"uint256","name":"","type":"uint256"}],"stateMutability":"view","type":"function"},{"inputs":[],"name":"usycToken","outputs":[{"internalType":"contract IUSYC","name":"","type":"address"}],"stateMutability":"view","type":"function"},{"inputs":[],"name":"withdraw","outputs":[],"stateMutability":"nonpayable","type":"function"},{"inputs":[],"name":"writerVault","outputs":[{"internalType":"address","name":"","type":"address"}],"stateMutability":"view","type":"function"},{"stateMutability":"payable","type":"receive"}],"evm":{"bytecode":{"linkReferences":{},"object":"61010060405234801561001157600080fd5b506040516200140f3803806200140f8339810160408190526100329161006f565b6001600160a01b0392831660805290821660a0521660c0523360e0526100b2565b80516001600160a01b038116811461006a57600080fd5b919050565b60008060006060848603121561008457600080fd5b61008d84610053565b925061009b60208501610053565b91506100a960408501610053565b90509250925092565b60805160a05160c05160e0516112e46200012b600039600081816102a001528181610b4d0152610e2701526000818161018601528181610bf60152610ed0015260008181610204015281816104840152818161060c0152818161091601528181610c830152610d850152600061036e01526112e46000f3fe60806040526004361061010d5760003560e01c80639b18575711610095578063cfe2d66811610064578063cfe2d66814610390578063d0e30db0146103b0578063d89ca275146103b8578063e2745d85146103d8578063e885c5421461040557600080fd5b80639b185757146102c2578063abb62556146102ef578063c37fdd721461033c578063c8c3f3661461035c57600080fd5b80634cc61391116100dc5780634cc61391146101d757806357edab4e146101f257806370a082311461022657806377c947f8146102615780638da5cb5b1461028e57600080fd5b80632790fb4d1461011957806334fbc9a11461015957806335d29909146101745780633ccfd60b146101c057600080fd5b3661011457005b600080fd5b34801561012557600080fd5b50610146610134366004610fa9565b60026020526000908152604090205481565b6040519081526020015b60405180910390f35b34801561016557600080fd5b5061014666038d7ea4c6800081565b34801561018057600080fd5b506101a87f000000000000000000000000000000000000000000000000000000000000000081565b6040516001600160a01b039091168152602001610150565b3480156101cc57600080fd5b506101d5610432565b005b3480156101e357600080fd5b50610146662386f26fc1000081565b3480156101fe57600080fd5b506101a87f000000000000000000000000000000000000000000000000000000000000000081565b34801561023257600080fd5b50610246610241366004610fa9565b6105ce565b60408051938452602084019290925290820152606001610150565b34801561026d57600080fd5b5061014661027c366004610fa9565b60006020819052908152604090205481565b34801561029a57600080fd5b506101a87f000000000000000000000000000000000000000000000000000000000000000081565b3480156102ce57600080fd5b506101466102dd366004610fa9565b60036020526000908152604090205481565b3480156102fb57600080fd5b5061024661030a366004610fa9565b6001600160a01b0316600090815260026020908152604080832054600383528184205460049093529220549192909190565b34801561034857600080fd5b506101d5610357366004611014565b61068b565b34801561036857600080fd5b506101a87f000000000000000000000000000000000000000000000000000000000000000081565b34801561039c57600080fd5b506101d56103ab366004611075565b61072a565b6101d5610820565b3480156103c457600080fd5b506101d56103d33660046110de565b6109fa565b3480156103e457600080fd5b506101466103f3366004610fa9565b60016020526000908152604090205481565b34801561041157600080fd5b50610146610420366004610fa9565b60046020526000908152604090205481565b3360009081526020818152604080832080546001909352908320805491849055929092559081811561050957604051635d043b2960e11b815260048101839052306024820181905260448201526000907f00000000000000000000000000000000000000000000000000000000000000006001600160a01b03169063ba087652906064016020604051808303816000875af11580156104d5573d6000803e3d6000fd5b505050506040513d601f19601f820116820180604052508101906104f99190611179565b905061050581836111a8565b9150505b8060000361052a57604051631e9acf1760e31b815260040160405180910390fd5b604051600090339083908381818185875af1925050503d806000811461056c576040519150601f19603f3d011682016040523d82523d6000602084013e610571565b606091505b5050905080610593576040516312171d8360e31b815260040160405180910390fd5b60405182815233907f7084f5476618d8e60b11ef0d7d3f06914655adb8793e28ff7f018d4c76d505d59060200160405180910390a250505050565b6001600160a01b038181166000908152602081815260408083205460019092528083205490516303d1689d60e11b81526004810182905291939092917f0000000000000000000000000000000000000000000000000000000000000000909116906307a2d13a90602401602060405180830381865afa158015610655573d6000803e3d6000fd5b505050506040513d601f19601f820116820180604052508101906106799190611179565b61068390846111a8565b929491935050565b66038d7ea4c680006106a4858585858560006001610ae7565b6001600160a01b03851660009081526003602052604081208054600192906106cd9084906111a8565b92505081905550836001600160a01b0316856001600160a01b03167fd0c53b207d305122b5aacd8b1f0fe866b2d54d178855a898537f585da629711e85858560405161071b939291906111ea565b60405180910390a35050505050565b66038d7ea4c680008110156107925760405162461bcd60e51b815260206004820152602360248201527f5072696365206d757374206265206174206c6561737420706c6174666f726d2060448201526266656560e81b60648201526084015b60405180910390fd5b6107a9858585858566038d7ea4c680006000610ae7565b6001600160a01b03851660009081526002602052604081208054600192906107d29084906111a8565b92505081905550836001600160a01b0316856001600160a01b03167f97be2867c06e807cd1c22a8bcf41d1a21da278ceb4db53ed9914bfba0228f95385858560405161071b939291906111ea565b348061086e5760405162461bcd60e51b815260206004820152601d60248201527f416d6f756e74206d7573742062652067726561746572207468616e20300000006044820152606401610789565b3360009081526020819052604081205490662386f26fc100008210156108a45761089f82662386f26fc1000061120e565b6108a7565b60005b905060008184106108b857816108ba565b835b905060006108c8828661120e565b336000908152602081905260408120805492935084929091906108ec9084906111a8565b909155506000905081156109b757604051636e553f6560e01b8152600481018390523060248201527f00000000000000000000000000000000000000000000000000000000000000006001600160a01b031690636e553f6590849060440160206040518083038185885af1158015610968573d6000803e3d6000fd5b50505050506040513d601f19601f8201168201806040525081019061098d9190611179565b336000908152600160205260408120805492935083929091906109b19084906111a8565b90915550505b604080518781526020810183905233917f73a19dd210f1a7f902193214c0ee91dd35ee5b4d920cba8d519eca65a7b488ca910160405180910390a2505050505050565b60008311610a4a5760405162461bcd60e51b815260206004820152601960248201527f436f6d6d656e74207072696365206d757374206265203e2030000000000000006044820152606401610789565b610a5b878787878760006002610ae7565b6001600160a01b0387166000908152600460205260408120805460019290610a849084906111a8565b92505081905550856001600160a01b0316876001600160a01b03167fd23deecd596f2ffe93f23dc134450bbaec983c3a2ac4c92abfb3c37b5e782b358787878787604051610ad6959493929190611221565b60405180910390a350505050505050565b6000610af3838561120e565b6001600160a01b038916600090815260208190526040902054909150848110610c6a576001600160a01b03891660009081526020819052604081208054879290610b3e90849061120e565b90915550508315610bdf5760007f00000000000000000000000000000000000000000000000000000000000000006001600160a01b03168560405160006040518083038185875af1925050503d8060008114610bb6576040519150601f19603f3d011682016040523d82523d6000602084013e610bbb565b606091505b5050905080610bdd576040516312171d8360e31b815260040160405180910390fd5b505b60405163bfbd979560e01b81526001600160a01b037f0000000000000000000000000000000000000000000000000000000000000000169063bfbd9795908490610c33908c908c908c908a9060040161125a565b6000604051808303818588803b158015610c4c57600080fd5b505af1158015610c60573d6000803e3d6000fd5b5050505050610f82565b6040516363737ac960e11b8152600481018690526000907f00000000000000000000000000000000000000000000000000000000000000006001600160a01b03169063c6e6f59290602401602060405180830381865afa158015610cd2573d6000803e3d6000fd5b505050506040513d601f19601f82011682018060405250810190610cf69190611179565b6001600160a01b038b16600090815260016020526040902054909150811115610d3257604051631e9acf1760e31b815260040160405180910390fd5b6001600160a01b038a1660009081526001602052604081208054839290610d5a90849061120e565b9091555050604051635d043b2960e11b815260048101829052306024820181905260448201526000907f00000000000000000000000000000000000000000000000000000000000000006001600160a01b03169063ba087652906064016020604051808303816000875af1158015610dd6573d6000803e3d6000fd5b505050506040513d601f19601f82011682018060405250810190610dfa9190611179565b905086811015610e1d57604051631e9acf1760e31b815260040160405180910390fd5b8515610eb95760007f00000000000000000000000000000000000000000000000000000000000000006001600160a01b03168760405160006040518083038185875af1925050503d8060008114610e90576040519150601f19603f3d011682016040523d82523d6000602084013e610e95565b606091505b5050905080610eb7576040516312171d8360e31b815260040160405180910390fd5b505b60405163bfbd979560e01b81526001600160a01b037f0000000000000000000000000000000000000000000000000000000000000000169063bfbd9795908690610f0d908e908e908e908c9060040161125a565b6000604051808303818588803b158015610f2657600080fd5b505af1158015610f3a573d6000803e3d6000fd5b505050505086811115610f7f57610f51878261120e565b6001600160a01b038c1660009081526020819052604081208054909190610f799084906111a8565b90915550505b50505b505050505050505050565b80356001600160a01b0381168114610fa457600080fd5b919050565b600060208284031215610fbb57600080fd5b610fc482610f8d565b9392505050565b60008083601f840112610fdd57600080fd5b50813567ffffffffffffffff811115610ff557600080fd5b60208301915083602082850101111561100d57600080fd5b9250929050565b6000806000806060858703121561102a57600080fd5b61103385610f8d565b935061104160208601610f8d565b9250604085013567ffffffffffffffff81111561105d57600080fd5b61106987828801610fcb565b95989497509550505050565b60008060008060006080868803121561108d57600080fd5b61109686610f8d565b94506110a460208701610f8d565b9350604086013567ffffffffffffffff8111156110c057600080fd5b6110cc88828901610fcb565b96999598509660600135949350505050565b600080600080600080600060a0888a0312156110f957600080fd5b61110288610f8d565b965061111060208901610f8d565b9550604088013567ffffffffffffffff8082111561112d57600080fd5b6111398b838c01610fcb565b909750955060608a0135945060808a013591508082111561115957600080fd5b506111668a828b01610fcb565b989b979a50959850939692959293505050565b60006020828403121561118b57600080fd5b5051919050565b634e487b7160e01b600052601160045260246000fd5b808201808211156111bb576111bb611192565b92915050565b81835281816020850137506000828201602090810191909152601f909101601f19169091010190565b6040815260006111fe6040830185876111c1565b9050826020830152949350505050565b818103818111156111bb576111bb611192565b6060815260006112356060830187896111c1565b856020840152828103604084015261124e8185876111c1565b98975050505050505050565b6001600160a01b038516815260606020820181905260009061127f90830185876111c1565b90506003831061129f57634e487b7160e01b600052602160045260246000fd5b8260408301529594505050505056fea2646970667358221220929e2ffe7023009cc00bf7bf76f208e1f56abf6081e8ed4af4cbc573f29c428464736f6c63430008180033","opcodes":"PUSH2 0x100 PUSH1 0x40 MSTORE CALLVALUE DUP1 ISZERO PUSH2 0x11 JUMPI PUSH1 0x0 DUP1 REVERT JUMPDEST POP PUSH1 0x40 MLOAD PUSH3 0x140F CODESIZE SUB DUP1 PUSH3 0x140F DUP4 CODECOPY DUP2 ADD PUSH1 0x40 DUP2 SWAP1 MSTORE PUSH2 0x32 SWAP2 PUSH2 0x6F JUMP JUMPDEST PUSH1 0x1 PUSH1 0x1 PUSH1 0xA0 SHL SUB SWAP3 DUP4 AND PUSH1 0x80 MSTORE SWAP1 DUP3 AND PUSH1 0xA0 MSTORE AND PUSH1 0xC0 MSTORE CALLER PUSH1 0xE0 MSTORE PUSH2 0xB2 JUMP JUMPDEST DUP1 MLOAD PUSH1 0x1 PUSH1 0x1 PUSH1 0xA0 SHL SUB DUP2 AND DUP2 EQ PUSH2 0x6A JUMPI PUSH1 0x0 DUP1 REVERT JUMPDEST SWAP2 SWAP1 POP JUMP JUMPDEST PUSH1 0x0 DUP1 PUSH1 0x0 PUSH1 0x60 DUP5 DUP7 SUB SLT ISZERO PUSH2 0x84 JUMPI PUSH1 0x0 DUP1 REVERT JUMPDEST PUSH2 0x8D DUP5 PUSH2 0x53 JUMP JUMPDEST SWAP3 POP PUSH2 0x9B PUSH1 0x20 DUP6 ADD PUSH2 0x53 JUMP JUMPDEST SWAP2 POP PUSH2 0xA9 PUSH1 0x40 DUP6 ADD PUSH2 0x53 JUMP JUMPDEST SWAP1 POP SWAP3 POP SWAP3 POP SWAP3 JUMP JUMPDEST PUSH1 0x80 MLOAD PUSH1 0xA0 MLOAD PUSH1 0xC0 MLOAD PUSH1 0xE0 MLOAD PUSH2 0x12E4 PUSH3 0x12B PUSH1 0x0 CODECOPY PUSH1 0x0 DUP2 DUP2 PUSH2 0x2A0 ADD MSTORE DUP2 DUP2 PUSH2 0xB4D ADD MSTORE PUSH2 0xE27 ADD MSTORE PUSH1 0x0 DUP2 DUP2 PUSH2 0x186 ADD MSTORE DUP2 DUP2 PUSH2 0xBF6 ADD MSTORE PUSH2 0xED0 ADD MSTORE PUSH1 0x0 DUP2 DUP2 PUSH2 0x204 ADD MSTORE DUP2 DUP2 PUSH2 0x484 ADD MSTORE DUP2 DUP2 PUSH2 0x60C ADD MSTORE DUP2 DUP2 PUSH2 0x916 ADD MSTORE DUP2 DUP2 PUSH2 0xC83 ADD MSTORE PUSH2 0xD85 ADD MSTORE PUSH1 0x0 PUSH2 0x36E ADD MSTORE PUSH2 0x12E4 PUSH1 0x0 RETURN INVALID PUSH1 0x80 PUSH1 0x40 MSTORE PUSH1 0x4 CALLDATASIZE LT PUSH2 0x10D JUMPI PUSH1 0x0 CALLDATALOAD PUSH1 0xE0 SHR DUP1 PUSH4 0x9B185757 GT PUSH2 0x95 JUMPI DUP1 PUSH4 0xCFE2D668 GT PUSH2 0x64 JUMPI DUP1 PUSH4 0xCFE2D668 EQ PUSH2 0x390 JUMPI DUP1 PUSH4 0xD0E30DB0 EQ PUSH2 0x3B0 JUMPI DUP1 PUSH4 0xD89CA275 EQ PUSH2 0x3B8 JUMPI DUP1 PUSH4 0xE2745D85 EQ PUSH2 0x3D8 JUMPI DUP1 PUSH4 0xE885C542 EQ PUSH2 0x405 JUMPI PUSH1 0x0 DUP1 REVERT JUMPDEST DUP1 PUSH4 0x9B185757 EQ PUSH2 0x2C2 JUMPI DUP1 PUSH4 0xABB62556 EQ PUSH2 0x2EF JUMPI DUP1 PUSH4 0xC37FDD72 EQ PUSH2 0x33C JUMPI DUP1 PUSH4 0xC8C3F366 EQ PUSH2 0x35C JUMPI PUSH1 0x0 DUP1 REVERT JUMPDEST DUP1 PUSH4 0x4CC61391 GT PUSH2 0xDC JUMPI DUP1 PUSH4 0x4CC61391 EQ PUSH2 0x1D7 JUMPI DUP1 PUSH4 0x57EDAB4E EQ PUSH2 0x1F2 JUMPI DUP1 PUSH4 0x70A08231 EQ PUSH2 0x226 JUMPI DUP1 PUSH4 0x77C947F8 EQ PUSH2 0x261 JUMPI DUP1 PUSH4 0x8DA5CB5B EQ PUSH2 0x28E JUMPI PUSH1 0x0 DUP1 REVERT JUMPDEST DUP1 PUSH4 0x2790FB4D EQ PUSH2 0x119 JUMPI DUP1 PUSH4 0x34FBC9A1 EQ PUSH2 0x159 JUMPI DUP1 PUSH4 0x35D29909 EQ PUSH2 0x174 JUMPI DUP1 PUSH4 0x3CCFD60B EQ PUSH2 0x1C0 JUMPI PUSH1 0x0 DUP1 REVERT JUMPDEST CALLDATASIZE PUSH2 0x114 JUMPI STOP JUMPDEST PUSH1 0x0 DUP1 REVERT JUMPDEST CALLVALUE DUP1 ISZERO PUSH2 0x125 JUMPI PUSH1 0x0 DUP1 REVERT JUMPDEST POP PUSH2 0x146 PUSH2 0x134 CALLDATASIZE PUSH1 0x4 PUSH2 0xFA9 JUMP JUMPDEST PUSH1 0x2 PUSH1 0x20 MSTORE PUSH1 0x0 SWAP1 DUP2 MSTORE PUSH1 0x40 SWAP1 KECCAK256 SLOAD DUP2 JUMP JUMPDEST PUSH1 0x40 MLOAD SWAP1 DUP2 MSTORE PUSH1 0x20 ADD JUMPDEST PUSH1 0x40 MLOAD DUP1 SWAP2 SUB SWAP1 RETURN JUMPDEST CALLVALUE DUP1 ISZERO PUSH2 0x165 JUMPI PUSH1 0x0 DUP1 REVERT JUMPDEST POP PUSH2 0x146 PUSH7 0x38D7EA4C68000 DUP2 JUMP JUMPDEST CALLVALUE DUP1 ISZERO PUSH2 0x180 JUMPI PUSH1 0x0 DUP1 REVERT JUMPDEST POP PUSH2 0x1A8 PUSH32 0x0 DUP2 JUMP JUMPDEST PUSH1 0x40 MLOAD PUSH1 0x1 PUSH1 0x1 PUSH1 0xA0 SHL SUB SWAP1 SWAP2 AND DUP2 MSTORE PUSH1 0x20 ADD PUSH2 0x150 JUMP JUMPDEST CALLVALUE DUP1 ISZERO PUSH2 0x1CC JUMPI PUSH1 0x0 DUP1 REVERT JUMPDEST POP PUSH2 0x1D5 PUSH2 0x432 JUMP JUMPDEST STOP JUMPDEST CALLVALUE DUP1 ISZERO PUSH2 0x1E3 JUMPI PUSH1 0x0 DUP1 REVERT JUMPDEST POP PUSH2 0x146 PUSH7 0x2386F26FC10000 DUP2 JUMP JUMPDEST CALLVALUE DUP1 ISZERO PUSH2 0x1FE JUMPI PUSH1 0x0 DUP1 REVERT JUMPDEST POP PUSH2 0x1A8 PUSH32 0x0 DUP2 JUMP JUMPDEST CALLVALUE DUP1 ISZERO PUSH2 0x232 JUMPI PUSH1 0x0 DUP1 REVERT JUMPDEST POP PUSH2 0x246 PUSH2 0x241 CALLDATASIZE PUSH1 0x4 PUSH2 0xFA9 JUMP JUMPDEST PUSH2 0x5CE JUMP JUMPDEST PUSH1 0x40 DUP1 MLOAD SWAP4 DUP5 MSTORE PUSH1 0x20 DUP5 ADD SWAP3 SWAP1 SWAP3 MSTORE SWAP1 DUP3 ADD MSTORE PUSH1 0x60 ADD PUSH2 0x150 JUMP JUMPDEST CALLVALUE DUP1 ISZERO PUSH2 0x26D JUMPI PUSH1 0x0 DUP1 REVERT JUMPDEST POP PUSH2 0x146 PUSH2 0x27C CALLDATASIZE PUSH1 0x4 PUSH2 0xFA9 JUMP JUMPDEST PUSH1 0x0 PUSH1 0x20 DUP2 SWAP1 MSTORE SWAP1 DUP2 MSTORE PUSH1 0x40 SWAP1 KECCAK256 SLOAD DUP2 JUMP JUMPDEST CALLVALUE DUP1 ISZERO PUSH2 0x29A JUMPI PUSH1 0x0 DUP1 REVERT JUMPDEST POP PUSH2 0x1A8 PUSH32 0x0 DUP2 JUMP JUMPDEST CALLVALUE DUP1 ISZERO PUSH2 0x2CE JUMPI PUSH1 0x0 DUP1 REVERT JUMPDEST POP PUSH2 0x146 PUSH2 0x2DD CALLDATASIZE PUSH1 0x4 PUSH2 0xFA9 JUMP JUMPDEST PUSH1 0x3 PUSH1 0x20 MSTORE PUSH1 0x0 SWAP1 DUP2 MSTORE PUSH1 0x40 SWAP1 KECCAK256 SLOAD DUP2 JUMP JUMPDEST CALLVALUE DUP1 ISZERO PUSH2 0x2FB JUMPI PUSH1 0x0 DUP1 REVERT JUMPDEST POP PUSH2 0x246 PUSH2 0x30A CALLDATASIZE PUSH1 0x4 PUSH2 0xFA9 JUMP JUMPDEST PUSH1 0x1 PUSH1 0x1 PUSH1 0xA0 SHL SUB AND PUSH1 0x0 SWAP1 DUP2 MSTORE PUSH1 0x2 PUSH1 0x20 SWAP1 DUP2 MSTORE PUSH1 0x40 DUP1 DUP4 KECCAK256 SLOAD PUSH1 0x3 DUP4 MSTORE DUP2 DUP5 KECCAK256 SLOAD PUSH1 0x4 SWAP1 SWAP4 MSTORE SWAP3 KECCAK256 SLOAD SWAP2 SWAP3 SWAP1 SWAP2 SWAP1 JUMP JUMPDEST CALLVALUE DUP1 ISZERO PUSH2 0x348 JUMPI PUSH1 0x0 DUP1 REVERT JUMPDEST POP PUSH2 0x1D5 PUSH2 0x357 CALLDATASIZE PUSH1 0x4 PUSH2 0x1014 JUMP JUMPDEST PUSH2 0x68B JUMP JUMPDEST CALLVALUE DUP1 ISZERO PUSH2 0x368 JUMPI PUSH1 0x0 DUP1 REVERT JUMPDEST POP PUSH2 0x1A8 PUSH32 0x0 DUP2 JUMP JUMPDEST CALLVALUE DUP1 ISZERO PUSH2 0x39C JUMPI PUSH1 0x0 DUP1 REVERT JUMPDEST POP PUSH2 0x1D5 PUSH2 0x3AB CALLDATASIZE PUSH1 0x4 PUSH2 0x1075 JUMP JUMPDEST PUSH2 0x72A JUMP JUMPDEST PUSH2 0x1D5 PUSH2 0x820 JUMP JUMPDEST CALLVALUE DUP1 ISZERO PUSH2 0x3C4 JUMPI PUSH1 0x0 DUP1 REVERT JUMPDEST POP PUSH2 0x1D5 PUSH2 0x3D3 CALLDATASIZE PUSH1 0x4 PUSH2 0x10DE JUMP JUMPDEST PUSH2 0x9FA JUMP JUMPDEST CALLVALUE DUP1 ISZERO PUSH2 0x3E4 JUMPI PUSH1 0x0 DUP1 REVERT JUMPDEST POP PUSH2 0x146 PUSH2 0x3F3 CALLDATASIZE PUSH1 0x4 PUSH2 0xFA9 JUMP JUMPDEST PUSH1 0x1 PUSH1 0x20 MSTORE PUSH1 0x0 SWAP1 DUP2 MSTORE PUSH1 0x40 SWAP1 KECCAK256 SLOAD DUP2 JUMP JUMPDEST CALLVALUE DUP1 ISZERO PUSH2 0x411 JUMPI PUSH1 0x0 DUP1 REVERT JUMPDEST POP PUSH2 0x146 PUSH2 0x420 CALLDATASIZE PUSH1 0x4 PUSH2 0xFA9 JUMP JUMPDEST PUSH1 0x4 PUSH1 0x20 MSTORE PUSH1 0x0 SWAP1 DUP2 MSTORE PUSH1 0x40 SWAP1 KECCAK256 SLOAD DUP2 JUMP JUMPDEST CALLER PUSH1 0x0 SWAP1 DUP2 MSTORE PUSH1 0x20 DUP2 DUP2 MSTORE PUSH1 0x40 DUP1 DUP4 KECCAK256 DUP1 SLOAD PUSH1 0x1 SWAP1 SWAP4 MSTORE SWAP1 DUP4 KECCAK256 DUP1 SLOAD SWAP2 DUP5 SWAP1 SSTORE SWAP3 SWAP1 SWAP3 SSTORE SWAP1 DUP2 DUP2 ISZERO PUSH2 0x509 JUMPI PUSH1 0x40 MLOAD PUSH4 0x5D043B29 PUSH1 0xE1 SHL DUP2 MSTORE PUSH1 0x4 DUP2 ADD DUP4 SWAP1 MSTORE ADDRESS PUSH1 0x24 DUP3 ADD DUP2 SWAP1 MSTORE PUSH1 0x44 DUP3 ADD MSTORE PUSH1 0x0 SWAP1 PUSH32 0x0 PUSH1 0x1 PUSH1 0x1 PUSH1 0xA0 SHL SUB AND SWAP1 PUSH4 0xBA087652 SWAP1 PUSH1 0x64 ADD PUSH1 0x20 PUSH1 0x40 MLOAD DUP1 DUP4 SUB DUP2 PUSH1 0x0 DUP8 GAS CALL ISZERO DUP1 ISZERO PUSH2 0x4D5 JUMPI RETURNDATASIZE PUSH1 0x0 DUP1 RETURNDATACOPY RETURNDATASIZE PUSH1 0x0 REVERT JUMPDEST POP POP POP POP PUSH1 0x40 MLOAD RETURNDATASIZE PUSH1 0x1F NOT PUSH1 0x1F DUP3 ADD AND DUP3 ADD DUP1 PUSH1 0x40 MSTORE POP DUP2 ADD SWAP1 PUSH2 0x4F9 SWAP2 SWAP1 PUSH2 0x1179 JUMP JUMPDEST SWAP1 POP PUSH2 0x505 DUP2 DUP4 PUSH2 0x11A8 JUMP JUMPDEST SWAP2 POP POP JUMPDEST DUP1 PUSH1 0x0 SUB PUSH2 0x52A JUMPI PUSH1 0x40 MLOAD PUSH4 0x1E9ACF17 PUSH1 0xE3 SHL DUP2 MSTORE PUSH1 0x4 ADD PUSH1 0x40 MLOAD DUP1 SWAP2 SUB SWAP1 REVERT JUMPDEST PUSH1 0x40 MLOAD PUSH1 0x0 SWAP1 CALLER SWAP1 DUP4 SWAP1 DUP4 DUP2 DUP2 DUP2 DUP6 DUP8 GAS CALL SWAP3 POP POP POP RETURNDATASIZE DUP1 PUSH1 0x0 DUP2 EQ PUSH2 0x56C JUMPI PUSH1 0x40 MLOAD SWAP2 POP PUSH1 0x1F NOT PUSH1 0x3F RETURNDATASIZE ADD AND DUP3 ADD PUSH1 0x40 MSTORE RETURNDATASIZE DUP3 MSTORE RETURNDATASIZE PUSH1 0x0 PUSH1 0x20 DUP5 ADD RETURNDATACOPY PUSH2 0x571 JUMP JUMPDEST PUSH1 0x60 SWAP2 POP JUMPDEST POP POP SWAP1 POP DUP1 PUSH2 0x593 JUMPI PUSH1 0x40 MLOAD PUSH4 0x12171D83 PUSH1 0xE3 SHL DUP2 MSTORE PUSH1 0x4 ADD PUSH1 0x40 MLOAD DUP1 SWAP2 SUB SWAP1 REVERT JUMPDEST PUSH1 0x40 MLOAD DUP3 DUP2 MSTORE CALLER SWAP1 PUSH32 0x7084F5476618D8E60B11EF0D7D3F06914655ADB8793E28FF7F018D4C76D505D5 SWAP1 PUSH1 0x20 ADD PUSH1 0x40 MLOAD DUP1 SWAP2 SUB SWAP1 LOG2 POP POP POP POP JUMP JUMPDEST PUSH1 0x1 PUSH1 0x1 PUSH1 0xA0 SHL SUB DUP2 DUP2 AND PUSH1 0x0 SWAP1 DUP2 MSTORE PUSH1 0x20 DUP2 DUP2 MSTORE PUSH1 0x40 DUP1 DUP4 KECCAK256 SLOAD PUSH1 0x1 SWAP1 SWAP3 MSTORE DUP1 DUP4 KECCAK256 SLOAD SWAP1 MLOAD PUSH4 0x3D1689D PUSH1 0xE1 SHL DUP2 MSTORE PUSH1 0x4 DUP2 ADD DUP3 SWAP1 MSTORE SWAP2 SWAP4 SWAP1 SWAP3 SWAP2 PUSH32 0x0 SWAP1 SWAP2 AND SWAP1 PUSH4 0x7A2D13A SWAP1 PUSH1 0x24 ADD PUSH1 0x20 PUSH1 0x40 MLOAD DUP1 DUP4 SUB DUP2 DUP7 GAS STATICCALL ISZERO DUP1 ISZERO PUSH2 0x655 JUMPI RETURNDATASIZE PUSH1 0x0 DUP1 RETURNDATACOPY RETURNDATASIZE PUSH1 0x0 REVERT JUMPDEST POP POP POP POP PUSH1 0x40 MLOAD RETURNDATASIZE PUSH1 0x1F NOT PUSH1 0x1F DUP3 ADD AND DUP3 ADD DUP1 PUSH1 0x40 MSTORE POP DUP2 ADD SWAP1 PUSH2 0x679 SWAP2 SWAP1 PUSH2 0x1179 JUMP JUMPDEST PUSH2 0x683 SWAP1 DUP5 PUSH2 0x11A8 JUMP JUMPDEST SWAP3 SWAP5 SWAP2 SWAP4 POP POP JUMP JUMPDEST PUSH7 0x38D7EA4C68000 PUSH2 0x6A4 DUP6 DUP6 DUP6 DUP6 DUP6 PUSH1 0x0 PUSH1 0x1 PUSH2 0xAE7 JUMP JUMPDEST PUSH1 0x1 PUSH1 0x1 PUSH1 0xA0 SHL SUB DUP6 AND PUSH1 0x0 SWAP1 DUP2 MSTORE PUSH1 0x3 PUSH1 0x20 MSTORE PUSH1 0x40 DUP2 KECCAK256 DUP1 SLOAD PUSH1 0x1 SWAP3 SWAP1 PUSH2 0x6CD SWAP1 DUP5 SWAP1 PUSH2 0x11A8 JUMP JUMPDEST SWAP3 POP POP DUP2 SWAP1 SSTORE POP DUP4 PUSH1 0x1 PUSH1 0x1 PUSH1 0xA0 SHL SUB AND DUP6 PUSH1 0x1 PUSH1 0x1 PUSH1 0xA0 SHL SUB AND PUSH32 0xD0C53B207D305122B5AACD8B1F0FE866B2D54D178855A898537F585DA629711E DUP6 DUP6 DUP6 PUSH1 0x40 MLOAD PUSH2 0x71B SWAP4 SWAP3 SWAP2 SWAP1 PUSH2 0x11EA JUMP JUMPDEST PUSH1 0x40 MLOAD DUP1 SWAP2 SUB SWAP1 LOG3 POP POP POP POP POP JUMP JUMPDEST PUSH7 0x38D7EA4C68000 DUP2 LT ISZERO PUSH2 0x792 JUMPI PUSH1 0x40 MLOAD PUSH3 0x461BCD PUSH1 0xE5 SHL DUP2 MSTORE PUSH1 0x20 PUSH1 0x4 DUP3 ADD MSTORE PUSH1 0x23 PUSH1 0x24 DUP3 ADD MSTORE PUSH32 0x5072696365206D757374206265206174206C6561737420706C6174666F726D20 PUSH1 0x44 DUP3 ADD MSTORE PUSH3 0x666565 PUSH1 0xE8 SHL PUSH1 0x64 DUP3 ADD MSTORE PUSH1 0x84 ADD JUMPDEST PUSH1 0x40 MLOAD DUP1 SWAP2 SUB SWAP1 REVERT JUMPDEST PUSH2 0x7A9 DUP6 DUP6 DUP6 DUP6 DUP6 PUSH7 0x38D7EA4C68000 PUSH1 0x0 PUSH2 0xAE7 JUMP JUMPDEST PUSH1 0x1 PUSH1 0x1 PUSH1 0xA0 SHL SUB DUP6 AND PUSH1 0x0 SWAP1 DUP2 MSTORE PUSH1 0x2 PUSH1 0x20 MSTORE PUSH1 0x40 DUP2 KECCAK256 DUP1 SLOAD PUSH1 0x1 SWAP3 SWAP1 PUSH2 0x7D2 SWAP1 DUP5 SWAP1 PUSH2 0x11A8 JUMP JUMPDEST SWAP3 POP POP DUP2 SWAP1 SSTORE POP DUP4 PUSH1 0x1 PUSH1 0x1 PUSH1 0xA0 SHL SUB AND DUP6 PUSH1 0x1 PUSH1 0x1 PUSH1 0xA0 SHL SUB AND PUSH32 0x97BE2867C06E807CD1C22A8BCF41D1A21DA278CEB4DB53ED9914BFBA0228F953 DUP6 DUP6 DUP6 PUSH1 0x40 MLOAD PUSH2 0x71B SWAP4 SWAP3 SWAP2 SWAP1 PUSH2 0x11EA JUMP JUMPDEST CALLVALUE DUP1 PUSH2 0x86E JUMPI PUSH1 0x40 MLOAD PUSH3 0x461BCD PUSH1 0xE5 SHL DUP2 MSTORE PUSH1 0x20 PUSH1 0x4 DUP3 ADD MSTORE PUSH1 0x1D PUSH1 0x24 DUP3 ADD MSTORE PUSH32 0x416D6F756E74206D7573742062652067726561746572207468616E2030000000 PUSH1 0x44 DUP3 ADD MSTORE PUSH1 0x64 ADD PUSH2 0x789 JUMP JUMPDEST CALLER PUSH1 0x0 SWAP1 DUP2 MSTORE PUSH1 0x20 DUP2 SWAP1 MSTORE PUSH1 0x40 DUP2 KECCAK256 SLOAD SWAP1 PUSH7 0x2386F26FC10000 DUP3 LT ISZERO PUSH2 0x8A4 JUMPI PUSH2 0x89F DUP3 PUSH7 0x2386F26FC10000 PUSH2 0x120E JUMP JUMPDEST PUSH2 0x8A7 JUMP JUMPDEST PUSH1 0x0 JUMPDEST SWAP1 POP PUSH1 0x0 DUP2 DUP5 LT PUSH2 0x8B8 JUMPI DUP2 PUSH2 0x8BA JUMP JUMPDEST DUP4 JUMPDEST SWAP1 POP PUSH1 0x0 PUSH2 0x8C8 DUP3 DUP7 PUSH2 0x120E JUMP JUMPDEST CALLER PUSH1 0x0 SWAP1 DUP2 MSTORE PUSH1 0x20 DUP2 SWAP1 MSTORE PUSH1 0x40 DUP2 KECCAK256 DUP1 SLOAD SWAP3 SWAP4 POP DUP5 SWAP3 SWAP1 SWAP2 SWAP1 PUSH2 0x8EC SWAP1 DUP5 SWAP1 PUSH2 0x11A8 JUMP JUMPDEST SWAP1 SWAP2 SSTORE POP PUSH1 0x0 SWAP1 POP DUP2 ISZERO PUSH2 0x9B7 JUMPI PUSH1 0x40 MLOAD PUSH4 0x6E553F65 PUSH1 0xE0 SHL DUP2 MSTORE PUSH1 0x4 DUP2 ADD DUP4 SWAP1 MSTORE ADDRESS PUSH1 0x24 DUP3 ADD MSTORE PUSH32 0x0 PUSH1 0x1 PUSH1 0x1 PUSH1 0xA0 SHL SUB AND SWAP1 PUSH4 0x6E553F65 SWAP1 DUP5 SWAP1 PUSH1 0x44 ADD PUSH1 0x20 PUSH1 0x40 MLOAD DUP1 DUP4 SUB DUP2 DUP6 DUP9 GAS CALL ISZERO DUP1 ISZERO PUSH2 0x968 JUMPI RETURNDATASIZE PUSH1 0x0 DUP1 RETURNDATACOPY RETURNDATASIZE PUSH1 0x0 REVERT JUMPDEST POP POP POP POP POP PUSH1 0x40 MLOAD RETURNDATASIZE PUSH1 0x1F NOT PUSH1 0x1F DUP3 ADD AND DUP3 ADD DUP1 PUSH1 0x40 MSTORE POP DUP2 ADD SWAP1 PUSH2 0x98D SWAP2 SWAP1 PUSH2 0x1179 JUMP JUMPDEST CALLER PUSH1 0x0 SWAP1 DUP2 MSTORE PUSH1 0x1 PUSH1 0x20 MSTORE PUSH1 0x40 DUP2 KECCAK256 DUP1 SLOAD SWAP3 SWAP4 POP DUP4 SWAP3 SWAP1 SWAP2 SWAP1 PUSH2 0x9B1 SWAP1 DUP5 SWAP1 PUSH2 0x11A8 JUMP JUMPDEST SWAP1 SWAP2 SSTORE POP POP JUMPDEST PUSH1 0x40 DUP1 MLOAD DUP8 DUP2 MSTORE PUSH1 0x20 DUP2 ADD DUP4 SWAP1 MSTORE CALLER SWAP2 PUSH32 0x73A19DD210F1A7F902193214C0EE91DD35EE5B4D920CBA8D519ECA65A7B488CA SWAP2 ADD PUSH1 0x40 MLOAD DUP1 SWAP2 SUB SWAP1 LOG2 POP POP POP POP POP POP JUMP JUMPDEST PUSH1 0x0 DUP4 GT PUSH2 0xA4A JUMPI PUSH1 0x40 MLOAD PUSH3 0x461BCD PUSH1 0xE5 SHL DUP2 MSTORE PUSH1 0x20 PUSH1 0x4 DUP3 ADD MSTORE PUSH1 0x19 PUSH1 0x24 DUP3 ADD MSTORE PUSH32 0x436F6D6D656E74207072696365206D757374206265203E203000000000000000 PUSH1 0x44 DUP3 ADD MSTORE PUSH1 0x64 ADD PUSH2 0x789 JUMP JUMPDEST PUSH2 0xA5B DUP8 DUP8 DUP8 DUP8 DUP8 PUSH1 0x0 PUSH1 0x2 PUSH2 0xAE7 JUMP JUMPDEST PUSH1 0x1 PUSH1 0x1 PUSH1 0xA0 SHL SUB DUP8 AND PUSH1 0x0 SWAP1 DUP2 MSTORE PUSH1 0x4 PUSH1 0x20 MSTORE PUSH1 0x40 DUP2 KECCAK256 DUP1 SLOAD PUSH1 0x1 SWAP3 SWAP1 PUSH2 0xA84 SWAP1 DUP5 SWAP1 PUSH2 0x11A8 JUMP JUMPDEST SWAP3 POP POP DUP2 SWAP1 SSTORE POP DUP6 PUSH1 0x1 PUSH1 0x1 PUSH1 0xA0 SHL SUB AND DUP8 PUSH1 0x1 PUSH1 0x1 PUSH1 0xA0 SHL SUB AND PUSH32 0xD23DEECD596F2FFE93F23DC134450BBAEC983C3A2AC4C92ABFB3C37B5E782B35 DUP8 DUP8 DUP8 DUP8 DUP8 PUSH1 0x40 MLOAD PUSH2 0xAD6 SWAP6 SWAP5 SWAP4 SWAP3 SWAP2 SWAP1 PUSH2 0x1221 JUMP JUMPDEST PUSH1 0x40 MLOAD DUP1 SWAP2 SUB SWAP1 LOG3 POP POP POP POP POP POP POP JUMP JUMPDEST PUSH1 0x0 PUSH2 0xAF3 DUP4 DUP6 PUSH2 0x120E JUMP JUMPDEST PUSH1 0x1 PUSH1 0x1 PUSH1 0xA0 SHL SUB DUP10 AND PUSH1 0x0 SWAP1 DUP2 MSTORE PUSH1 0x20 DUP2 SWAP1 MSTORE PUSH1 0x40 SWAP1 KECCAK256 SLOAD SWAP1 SWAP2 POP DUP5 DUP2 LT PUSH2 0xC6A JUMPI PUSH1 0x1 PUSH1 0x1 PUSH1 0xA0 SHL SUB DUP10 AND PUSH1 0x0 SWAP1 DUP2 MSTORE PUSH1 0x20 DUP2 SWAP1 MSTORE PUSH1 0x40 DUP2 KECCAK256 DUP1 SLOAD DUP8 SWAP3 SWAP1 PUSH2 0xB3E SWAP1 DUP5 SWAP1 PUSH2 0x120E JUMP JUMPDEST SWAP1 SWAP2 SSTORE POP POP DUP4 ISZERO PUSH2 0xBDF JUMPI PUSH1 0x0 PUSH32 0x0 PUSH1 0x1 PUSH1 0x1 PUSH1 0xA0 SHL SUB AND DUP6 PUSH1 0x40 MLOAD PUSH1 0x0 PUSH1 0x40 MLOAD DUP1 DUP4 SUB DUP2 DUP6 DUP8 GAS CALL SWAP3 POP POP POP RETURNDATASIZE DUP1 PUSH1 0x0 DUP2 EQ PUSH2 0xBB6 JUMPI PUSH1 0x40 MLOAD SWAP2 POP PUSH1 0x1F NOT PUSH1 0x3F RETURNDATASIZE ADD AND DUP3 ADD PUSH1 0x40 MSTORE RETURNDATASIZE DUP3 MSTORE RETURNDATASIZE PUSH1 0x0 PUSH1 0x20 DUP5 ADD RETURNDATACOPY PUSH2 0xBBB JUMP JUMPDEST PUSH1 0x60 SWAP2 POP JUMPDEST POP POP SWAP1 POP DUP1 PUSH2 0xBDD JUMPI PUSH1 0x40 MLOAD PUSH4 0x12171D83 PUSH1 0xE3 SHL DUP2 MSTORE PUSH1 0x4 ADD PUSH1 0x40 MLOAD DUP1 SWAP2 SUB SWAP1 REVERT JUMPDEST POP JUMPDEST PUSH1 0x40 MLOAD PUSH4 0xBFBD9795 PUSH1 0xE0 SHL DUP2 MSTORE PUSH1 0x1 PUSH1 0x1 PUSH1 0xA0 SHL SUB PUSH32 0x0 AND SWAP1 PUSH4 0xBFBD9795 SWAP1 DUP5 SWAP1 PUSH2 0xC33 SWAP1 DUP13 SWAP1 DUP13 SWAP1 DUP13 SWAP1 DUP11 SWAP1 PUSH1 0x4 ADD PUSH2 0x125A JUMP JUMPDEST PUSH1 0x0 PUSH1 0x40 MLOAD DUP1 DUP4 SUB DUP2 DUP6 DUP9 DUP1 EXTCODESIZE ISZERO DUP1 ISZERO PUSH2 0xC4C JUMPI PUSH1 0x0 DUP1 REVERT JUMPDEST POP GAS CALL ISZERO DUP1 ISZERO PUSH2 0xC60 JUMPI RETURNDATASIZE PUSH1 0x0 DUP1 RETURNDATACOPY RETURNDATASIZE PUSH1 0x0 REVERT JUMPDEST POP POP POP POP POP PUSH2 0xF82 JUMP JUMPDEST PUSH1 0x40 MLOAD PUSH4 0x63737AC9 PUSH1 0xE1 SHL DUP2 MSTORE PUSH1 0x4 DUP2 ADD DUP7 SWAP1 MSTORE PUSH1 0x0 SWAP1 PUSH32 0x0 PUSH1 0x1 PUSH1 0x1 PUSH1 0xA0 SHL SUB AND SWAP1 PUSH4 0xC6E6F592 SWAP1 PUSH1 0x24 ADD PUSH1 0x20 PUSH1 0x40 MLOAD DUP1 DUP4 SUB DUP2 DUP7 GAS STATICCALL ISZERO DUP1 ISZERO PUSH2 0xCD2 JUMPI RETURNDATASIZE PUSH1 0x0 DUP1 RETURNDATACOPY RETURNDATASIZE PUSH1 0x0 REVERT JUMPDEST POP POP POP POP PUSH1 0x40 MLOAD RETURNDATASIZE PUSH1 0x1F NOT PUSH1 0x1F DUP3 ADD AND DUP3 ADD DUP1 PUSH1 0x40 MSTORE POP DUP2 ADD SWAP1 PUSH2 0xCF6 SWAP2 SWAP1 PUSH2 0x1179 JUMP JUMPDEST PUSH1 0x1 PUSH1 0x1 PUSH1 0xA0 SHL SUB DUP12 AND PUSH1 0x0 SWAP1 DUP2 MSTORE PUSH1 0x1 PUSH1 0x20 MSTORE PUSH1 0x40 SWAP1 KECCAK256 SLOAD SWAP1 SWAP2 POP DUP2 GT ISZERO PUSH2 0xD32 JUMPI PUSH1 0x40 MLOAD PUSH4 0x1E9ACF17 PUSH1 0xE3 SHL DUP2 MSTORE PUSH1 0x4 ADD PUSH1 0x40 MLOAD DUP1 SWAP2 SUB SWAP1 REVERT JUMPDEST PUSH1 0x1 PUSH1 0x1 PUSH1 0xA0 SHL SUB DUP11 AND PUSH1 0x0 SWAP1 DUP2 MSTORE PUSH1 0x1 PUSH1 0x20 MSTORE PUSH1 0x40 DUP2 KECCAK256 DUP1 SLOAD DUP4 SWAP3 SWAP1 PUSH2 0xD5A SWAP1 DUP5 SWAP1 PUSH2 0x120E JUMP JUMPDEST SWAP1 SWAP2 SSTORE POP POP PUSH1 0x40 MLOAD PUSH4 0x5D043B29 PUSH1 0xE1 SHL DUP2 MSTORE PUSH1 0x4 DUP2 ADD DUP3 SWAP1 MSTORE ADDRESS PUSH1 0x24 DUP3 ADD DUP2 SWAP1 MSTORE PUSH1 0x44 DUP3 ADD MSTORE PUSH1 0x0 SWAP1 PUSH32 0x0 PUSH1 0x1 PUSH1 0x1 PUSH1 0xA0 SHL SUB AND SWAP1 PUSH4 0xBA087652 SWAP1 PUSH1 0x64 ADD PUSH1 0x20 PUSH1 0x40 MLOAD DUP1 DUP4 SUB DUP2 PUSH1 0x0 DUP8 GAS CALL ISZERO DUP1 ISZERO PUSH2 0xDD6 JUMPI RETURNDATASIZE PUSH1 0x0 DUP1 RETURNDATACOPY RETURNDATASIZE PUSH1 0x0 REVERT JUMPDEST POP POP POP POP PUSH1 0x40 MLOAD RETURNDATASIZE PUSH1 0x1F NOT PUSH1 0x1F DUP3 ADD AND DUP3 ADD DUP1 PUSH1 0x40 MSTORE POP DUP2 ADD SWAP1 PUSH2 0xDFA SWAP2 SWAP1 PUSH2 0x1179 JUMP JUMPDEST SWAP1 POP DUP7 DUP2 LT ISZERO PUSH2 0xE1D JUMPI PUSH1 0x40 MLOAD PUSH4 0x1E9ACF17 PUSH1 0xE3 SHL DUP2 MSTORE PUSH1 0x4 ADD PUSH1 0x40 MLOAD DUP1 SWAP2 SUB SWAP1 REVERT JUMPDEST DUP6 ISZERO PUSH2 0xEB9 JUMPI PUSH1 0x0 PUSH32 0x0 PUSH1 0x1 PUSH1 0x1 PUSH1 0xA0 SHL SUB AND DUP8 PUSH1 0x40 MLOAD PUSH1 0x0 PUSH1 0x40 MLOAD DUP1 DUP4 SUB DUP2 DUP6 DUP8 GAS CALL SWAP3 POP POP POP RETURNDATASIZE DUP1 PUSH1 0x0 DUP2 EQ PUSH2 0xE90 JUMPI PUSH1 0x40 MLOAD SWAP2 POP PUSH1 0x1F NOT PUSH1 0x3F RETURNDATASIZE ADD AND DUP3 ADD PUSH1 0x40 MSTORE RETURNDATASIZE DUP3 MSTORE RETURNDATASIZE PUSH1 0x0 PUSH1 0x20 DUP5 ADD RETURNDATACOPY PUSH2 0xE95 JUMP JUMPDEST PUSH1 0x60 SWAP2 POP JUMPDEST POP POP SWAP1 POP DUP1 PUSH2 0xEB7 JUMPI PUSH1 0x40 MLOAD PUSH4 0x12171D83 PUSH1 0xE3 SHL DUP2 MSTORE PUSH1 0x4 ADD PUSH1 0x40 MLOAD DUP1 SWAP2 SUB SWAP1 REVERT JUMPDEST POP JUMPDEST PUSH1 0x40 MLOAD PUSH4 0xBFBD9795 PUSH1 0xE0 SHL DUP2 MSTORE PUSH1 0x1 PUSH1 0x1 PUSH1 0xA0 SHL SUB PUSH32 0x0 AND SWAP1 PUSH4 0xBFBD9795 SWAP1 DUP7 SWAP1 PUSH2 0xF0D SWAP1 DUP15 SWAP1 DUP15 SWAP1 DUP15 SWAP1 DUP13 SWAP1 PUSH1 0x4 ADD PUSH2 0x125A JUMP JUMPDEST PUSH1 0x0 PUSH1 0x40 MLOAD DUP1 DUP4 SUB DUP2 DUP6 DUP9 DUP1 EXTCODESIZE ISZERO DUP1 ISZERO PUSH2 0xF26 JUMPI PUSH1 0x0 DUP1 REVERT JUMPDEST POP GAS CALL ISZERO DUP1 ISZERO PUSH2 0xF3A JUMPI RETURNDATASIZE PUSH1 0x0 DUP1 RETURNDATACOPY RETURNDATASIZE PUSH1 0x0 REVERT JUMPDEST POP POP POP POP POP DUP7 DUP2 GT ISZERO PUSH2 0xF7F JUMPI PUSH2 0xF51 DUP8 DUP3 PUSH2 0x120E JUMP JUMPDEST PUSH1 0x1 PUSH1 0x1 PUSH1 0xA0 SHL SUB DUP13 AND PUSH1 0x0 SWAP1 DUP2 MSTORE PUSH1 0x20 DUP2 SWAP1 MSTORE PUSH1 0x40 DUP2 KECCAK256 DUP1 SLOAD SWAP1 SWAP2 SWAP1 PUSH2 0xF79 SWAP1 DUP5 SWAP1 PUSH2 0x11A8 JUMP JUMPDEST SWAP1 SWAP2 SSTORE POP POP JUMPDEST POP POP JUMPDEST POP POP POP POP POP POP POP POP POP JUMP JUMPDEST DUP1 CALLDATALOAD PUSH1 0x1 PUSH1 0x1 PUSH1 0xA0 SHL SUB DUP2 AND DUP2 EQ PUSH2 0xFA4 JUMPI PUSH1 0x0 DUP1 REVERT JUMPDEST SWAP2 SWAP1 POP JUMP JUMPDEST PUSH1 0x0 PUSH1 0x20 DUP3 DUP5 SUB SLT ISZERO PUSH2 0xFBB JUMPI PUSH1 0x0 DUP1 REVERT JUMPDEST PUSH2 0xFC4 DUP3 PUSH2 0xF8D JUMP JUMPDEST SWAP4 SWAP3 POP POP POP JUMP JUMPDEST PUSH1 0x0 DUP1 DUP4 PUSH1 0x1F DUP5 ADD SLT PUSH2 0xFDD JUMPI PUSH1 0x0 DUP1 REVERT JUMPDEST POP DUP2 CALLDATALOAD PUSH8 0xFFFFFFFFFFFFFFFF DUP2 GT ISZERO PUSH2 0xFF5 JUMPI PUSH1 0x0 DUP1 REVERT JUMPDEST PUSH1 0x20 DUP4 ADD SWAP2 POP DUP4 PUSH1 0x20 DUP3 DUP6 ADD ADD GT ISZERO PUSH2 0x100D JUMPI PUSH1 0x0 DUP1 REVERT JUMPDEST SWAP3 POP SWAP3 SWAP1 POP JUMP JUMPDEST PUSH1 0x0 DUP1 PUSH1 0x0 DUP1 PUSH1 0x60 DUP6 DUP8 SUB SLT ISZERO PUSH2 0x102A JUMPI PUSH1 0x0 DUP1 REVERT JUMPDEST PUSH2 0x1033 DUP6 PUSH2 0xF8D JUMP JUMPDEST SWAP4 POP PUSH2 0x1041 PUSH1 0x20 DUP7 ADD PUSH2 0xF8D JUMP JUMPDEST SWAP3 POP PUSH1 0x40 DUP6 ADD CALLDATALOAD PUSH8 0xFFFFFFFFFFFFFFFF DUP2 GT ISZERO PUSH2 0x105D JUMPI PUSH1 0x0 DUP1 REVERT JUMPDEST PUSH2 0x1069 DUP8 DUP3 DUP9 ADD PUSH2 0xFCB JUMP JUMPDEST SWAP6 SWAP9 SWAP5 SWAP8 POP SWAP6 POP POP POP POP JUMP JUMPDEST PUSH1 0x0 DUP1 PUSH1 0x0 DUP1 PUSH1 0x0 PUSH1 0x80 DUP7 DUP9 SUB SLT ISZERO PUSH2 0x108D JUMPI PUSH1 0x0 DUP1 REVERT JUMPDEST PUSH2 0x1096 DUP7 PUSH2 0xF8D JUMP JUMPDEST SWAP5 POP PUSH2 0x10A4 PUSH1 0x20 DUP8 ADD PUSH2 0xF8D JUMP JUMPDEST SWAP4 POP PUSH1 0x40 DUP7 ADD CALLDATALOAD PUSH8 0xFFFFFFFFFFFFFFFF DUP2 GT ISZERO PUSH2 0x10C0 JUMPI PUSH1 0x0 DUP1 REVERT JUMPDEST PUSH2 0x10CC DUP9 DUP3 DUP10 ADD PUSH2 0xFCB JUMP JUMPDEST SWAP7 SWAP10 SWAP6 SWAP9 POP SWAP7 PUSH1 0x60 ADD CALLDATALOAD SWAP5 SWAP4 POP POP POP POP JUMP JUMPDEST PUSH1 0x0 DUP1 PUSH1 0x0 DUP1 PUSH1 0x0 DUP1 PUSH1 0x0 PUSH1 0xA0 DUP9 DUP11 SUB SLT ISZERO PUSH2 0x10F9 JUMPI PUSH1 0x0 DUP1 REVERT JUMPDEST PUSH2 0x1102 DUP9 PUSH2 0xF8D JUMP JUMPDEST SWAP7 POP PUSH2 0x1110 PUSH1 0x20 DUP10 ADD PUSH2 0xF8D JUMP JUMPDEST SWAP6 POP PUSH1 0x40 DUP9 ADD CALLDATALOAD PUSH8 0xFFFFFFFFFFFFFFFF DUP1 DUP3 GT ISZERO PUSH2 0x112D JUMPI PUSH1 0x0 DUP1 REVERT JUMPDEST PUSH2 0x1139 DUP12 DUP4 DUP13 ADD PUSH2 0xFCB JUMP JUMPDEST SWAP1 SWAP8 POP SWAP6 POP PUSH1 0x60 DUP11 ADD CALLDATALOAD SWAP5 POP PUSH1 0x80 DUP11 ADD CALLDATALOAD SWAP2 POP DUP1 DUP3 GT ISZERO PUSH2 0x1159 JUMPI PUSH1 0x0 DUP1 REVERT JUMPDEST POP PUSH2 0x1166 DUP11 DUP3 DUP12 ADD PUSH2 0xFCB JUMP JUMPDEST SWAP9 SWAP12 SWAP8 SWAP11 POP SWAP6 SWAP9 POP SWAP4 SWAP7 SWAP3 SWAP6 SWAP3 SWAP4 POP POP POP JUMP JUMPDEST PUSH1 0x0 PUSH1 0x20 DUP3 DUP5 SUB SLT ISZERO PUSH2 0x118B JUMPI PUSH1 0x0 DUP1 REVERT JUMPDEST POP MLOAD SWAP2 SWAP1 POP JUMP JUMPDEST PUSH4 0x4E487B71 PUSH1 0xE0 SHL PUSH1 0x0 MSTORE PUSH1 0x11 PUSH1 0x4 MSTORE PUSH1 0x24 PUSH1 0x0 REVERT JUMPDEST DUP1 DUP3 ADD DUP1 DUP3 GT ISZERO PUSH2 0x11BB JUMPI PUSH2 0x11BB PUSH2 0x1192 JUMP JUMPDEST SWAP3 SWAP2 POP POP JUMP JUMPDEST DUP2 DUP4 MSTORE DUP2 DUP2 PUSH1 0x20 DUP6 ADD CALLDATACOPY POP PUSH1 0x0 DUP3 DUP3 ADD PUSH1 0x20 SWAP1 DUP2 ADD SWAP2 SWAP1 SWAP2 MSTORE PUSH1 0x1F SWAP1 SWAP2 ADD PUSH1 0x1F NOT AND SWAP1 SWAP2 ADD ADD SWAP1 JUMP JUMPDEST PUSH1 0x40 DUP2 MSTORE PUSH1 0x0 PUSH2 0x11FE PUSH1 0x40 DUP4 ADD DUP6 DUP8 PUSH2 0x11C1 JUMP JUMPDEST SWAP1 POP DUP3 PUSH1 0x20 DUP4 ADD MSTORE SWAP5 SWAP4 POP POP POP POP JUMP JUMPDEST DUP2 DUP2 SUB DUP2 DUP2 GT ISZERO PUSH2 0x11BB JUMPI PUSH2 0x11BB PUSH2 0x1192 JUMP JUMPDEST PUSH1 0x60 DUP2 MSTORE PUSH1 0x0 PUSH2 0x1235 PUSH1 0x60 DUP4 ADD DUP8 DUP10 PUSH2 0x11C1 JUMP JUMPDEST DUP6 PUSH1 0x20 DUP5 ADD MSTORE DUP3 DUP2 SUB PUSH1 0x40 DUP5 ADD MSTORE PUSH2 0x124E DUP2 DUP6 DUP8 PUSH2 0x11C1 JUMP JUMPDEST SWAP9 SWAP8 POP POP POP POP POP POP POP POP JUMP JUMPDEST PUSH1 0x1 PUSH1 0x1 PUSH1 0xA0 SHL SUB DUP6 AND DUP2 MSTORE PUSH1 0x60 PUSH1 0x20 DUP3 ADD DUP2 SWAP1 MSTORE PUSH1 0x0 SWAP1 PUSH2 0x127F SWAP1 DUP4 ADD DUP6 DUP8 PUSH2 0x11C1 JUMP JUMPDEST SWAP1 POP PUSH1 0x3 DUP4 LT PUSH2 0x129F JUMPI PUSH4 0x4E487B71 PUSH1 0xE0 SHL PUSH1 0x0 MSTORE PUSH1 0x21 PUSH1 0x4 MSTORE PUSH1 0x24 PUSH1 0x0 REVERT JUMPDEST DUP3 PUSH1 0x40 DUP4 ADD MSTORE SWAP6 SWAP5 POP POP POP POP POP JUMP INVALID LOG2 PUSH5 0x6970667358 0x22 SLT KECCAK256 SWAP3 SWAP15 0x2F INVALID PUSH17 0x23009CC00BF7BF76F208E1F56ABF6081E8 0xED BLOBBASEFEE DELEGATECALL 0xCB 0xC5 PUSH20 0xF29C428464736F6C634300081800330000000000 "},"methodIdentifiers":{"FLOAT_AMOUNT()":"4cc61391","PLATFORM_FEE()":"34fbc9a1","activityOf(address)":"abb62556","balanceOf(address)":"70a08231","deposit()":"d0e30db0","owner()":"8da5cb5b","payForClap(address,address,string)":"c37fdd72","payForComment(address,address,string,uint256,string)":"d89ca275","payForRead(address,address,string,uint256)":"cfe2d668","teller()":"57edab4e","totalClapsGiven(address)":"9b185757","totalCommentsGiven(address)":"e885c542","totalReadsPerformed(address)":"2790fb4d","usdcFloat(address)":"77c947f8","usycStaked(address)":"e2745d85","usycToken()":"c8c3f366","withdraw()":"3ccfd60b","writerVault()":"35d29909"}}}}}