{
  "_format": "hh-sol-artifact-1",
  "contractName": "ReaderVault",
  "sourceName": "contracts/ReaderVault.sol",
  "abi": [
    {
      "inputs": [
        {
          "internalType": "address",
          "name": "_usycToken",
          "type": "address"
        },
        {
          "internalType": "address",
          "name": "_teller",
          "type": "address"
        },
        {
          "internalType": "address",
          "name": "_writerVault",
          "type": "address"
        }
      ],
      "stateMutability": "nonpayable",
      "type": "constructor"
    },
    {
      "inputs": [],
      "name": "InsufficientBalance",
      "type": "error"
    },
    {
      "inputs": [],
      "name": "TransferFailed",
      "type": "error"
    },
    {
      "anonymous": false,
      "inputs": [
        {
          "indexed": true,
          "internalType": "address",
          "name": "reader",
          "type": "address"
        },
        {
          "indexed": true,
          "internalType": "address",
          "name": "writer",
          "type": "address"
        },
        {
          "indexed": false,
          "internalType": "string",
          "name": "slug",
          "type": "string"
        },
        {
          "indexed": false,
          "internalType": "uint256",
          "name": "usdcPaid",
          "type": "uint256"
        }
      ],
      "name": "ArticleRead",
      "type": "event"
    },
    {
      "anonymous": false,
      "inputs": [
        {
          "indexed": true,
          "internalType": "address",
          "name": "reader",
          "type": "address"
        },
        {
          "indexed": true,
          "internalType": "address",
          "name": "writer",
          "type": "address"
        },
        {
          "indexed": false,
          "internalType": "string",
          "name": "slug",
          "type": "string"
        },
        {
          "indexed": false,
          "internalType": "uint256",
          "name": "usdcPaid",
          "type": "uint256"
        }
      ],
      "name": "ClapPaid",
      "type": "event"
    },
    {
      "anonymous": false,
      "inputs": [
        {
          "indexed": true,
          "internalType": "address",
          "name": "reader",
          "type": "address"
        },
        {
          "indexed": true,
          "internalType": "address",
          "name": "writer",
          "type": "address"
        },
        {
          "indexed": false,
          "internalType": "string",
          "name": "slug",
          "type": "string"
        },
        {
          "indexed": false,
          "internalType": "uint256",
          "name": "usdcPaid",
          "type": "uint256"
        },
        {
          "indexed": false,
          "internalType": "string",
          "name": "commentHash",
          "type": "string"
        }
      ],
      "name": "CommentPaid",
      "type": "event"
    },
    {
      "anonymous": false,
      "inputs": [
        {
          "indexed": true,
          "internalType": "address",
          "name": "reader",
          "type": "address"
        },
        {
          "indexed": false,
          "internalType": "uint256",
          "name": "usdcAmount",
          "type": "uint256"
        },
        {
          "indexed": false,
          "internalType": "uint256",
          "name": "usycMinted",
          "type": "uint256"
        }
      ],
      "name": "Deposited",
      "type": "event"
    },
    {
      "anonymous": false,
      "inputs": [
        {
          "indexed": true,
          "internalType": "address",
          "name": "reader",
          "type": "address"
        },
        {
          "indexed": false,
          "internalType": "uint256",
          "name": "usdcAmount",
          "type": "uint256"
        }
      ],
      "name": "Withdrawn",
      "type": "event"
    },
    {
      "inputs": [],
      "name": "FLOAT_AMOUNT",
      "outputs": [
        {
          "internalType": "uint256",
          "name": "",
          "type": "uint256"
        }
      ],
      "stateMutability": "view",
      "type": "function"
    },
    {
      "inputs": [],
      "name": "PLATFORM_FEE",
      "outputs": [
        {
          "internalType": "uint256",
          "name": "",
          "type": "uint256"
        }
      ],
      "stateMutability": "view",
      "type": "function"
    },
    {
      "inputs": [
        {
          "internalType": "address",
          "name": "reader",
          "type": "address"
        }
      ],
      "name": "balanceOf",
      "outputs": [
        {
          "internalType": "uint256",
          "name": "usdcBalance",
          "type": "uint256"
        },
        {
          "internalType": "uint256",
          "name": "usycBalance",
          "type": "uint256"
        },
        {
          "internalType": "uint256",
          "name": "estimatedUsdcValue",
          "type": "uint256"
        }
      ],
      "stateMutability": "view",
      "type": "function"
    },
    {
      "inputs": [],
      "name": "deposit",
      "outputs": [],
      "stateMutability": "payable",
      "type": "function"
    },
    {
      "inputs": [],
      "name": "owner",
      "outputs": [
        {
          "internalType": "address",
          "name": "",
          "type": "address"
        }
      ],
      "stateMutability": "view",
      "type": "function"
    },
    {
      "inputs": [
        {
          "internalType": "address",
          "name": "reader",
          "type": "address"
        },
        {
          "internalType": "address",
          "name": "writer",
          "type": "address"
        },
        {
          "internalType": "string",
          "name": "slug",
          "type": "string"
        }
      ],
      "name": "payForClap",
      "outputs": [],
      "stateMutability": "nonpayable",
      "type": "function"
    },
    {
      "inputs": [
        {
          "internalType": "address",
          "name": "reader",
          "type": "address"
        },
        {
          "internalType": "address",
          "name": "writer",
          "type": "address"
        },
        {
          "internalType": "string",
          "name": "slug",
          "type": "string"
        },
        {
          "internalType": "uint256",
          "name": "price",
          "type": "uint256"
        },
        {
          "internalType": "string",
          "name": "commentHash",
          "type": "string"
        }
      ],
      "name": "payForComment",
      "outputs": [],
      "stateMutability": "nonpayable",
      "type": "function"
    },
    {
      "inputs": [
        {
          "internalType": "address",
          "name": "reader",
          "type": "address"
        },
        {
          "internalType": "address",
          "name": "writer",
          "type": "address"
        },
        {
          "internalType": "string",
          "name": "slug",
          "type": "string"
        },
        {
          "internalType": "uint256",
          "name": "price",
          "type": "uint256"
        }
      ],
      "name": "payForRead",
      "outputs": [],
      "stateMutability": "nonpayable",
      "type": "function"
    },
    {
      "inputs": [],
      "name": "teller",
      "outputs": [
        {
          "internalType": "contract ITeller",
          "name": "",
          "type": "address"
        }
      ],
      "stateMutability": "view",
      "type": "function"
    },
    {
      "inputs": [
        {
          "internalType": "address",
          "name": "",
          "type": "address"
        }
      ],
      "name": "usdcFloat",
      "outputs": [
        {
          "internalType": "uint256",
          "name": "",
          "type": "uint256"
        }
      ],
      "stateMutability": "view",
      "type": "function"
    },
    {
      "inputs": [
        {
          "internalType": "address",
          "name": "",
          "type": "address"
        }
      ],
      "name": "usycStaked",
      "outputs": [
        {
          "internalType": "uint256",
          "name": "",
          "type": "uint256"
        }
      ],
      "stateMutability": "view",
      "type": "function"
    },
    {
      "inputs": [],
      "name": "usycToken",
      "outputs": [
        {
          "internalType": "contract IUSYC",
          "name": "",
          "type": "address"
        }
      ],
      "stateMutability": "view",
      "type": "function"
    },
    {
      "inputs": [],
      "name": "withdraw",
      "outputs": [],
      "stateMutability": "nonpayable",
      "type": "function"
    },
    {
      "inputs": [],
      "name": "writerVault",
      "outputs": [
        {
          "internalType": "address",
          "name": "",
          "type": "address"
        }
      ],
      "stateMutability": "view",
      "type": "function"
    },
    {
      "stateMutability": "payable",
      "type": "receive"
    }
  ],
  "bytecode": "0x61010060405234801561001157600080fd5b506040516112ec3803806112ec8339810160408190526100309161006d565b6001600160a01b0392831660805290821660a0521660c0523360e0526100b0565b80516001600160a01b038116811461006857600080fd5b919050565b60008060006060848603121561008257600080fd5b61008b84610051565b925061009960208501610051565b91506100a760408501610051565b90509250925092565b60805160a05160c05160e0516111bd61012f60003960008181610247015281816109b70152610d2201526000818161012d01528181610a660152610dd10152600081816101ab015281816103840152818161050c015281816107b201528181610af201528181610b7e0152610c800152600061029b01526111bd6000f3fe6080604052600436106100e15760003560e01c80638da5cb5b1161007f578063cfe2d66811610059578063cfe2d668146102bd578063d0e30db0146102dd578063d89ca275146102e5578063e2745d851461030557600080fd5b80638da5cb5b14610235578063c37fdd7214610269578063c8c3f3661461028957600080fd5b80634cc61391116100bb5780634cc613911461017e57806357edab4e1461019957806370a08231146101cd57806377c947f81461020857600080fd5b806334fbc9a1146100ed57806335d299091461011b5780633ccfd60b1461016757600080fd5b366100e857005b600080fd5b3480156100f957600080fd5b5061010866038d7ea4c6800081565b6040519081526020015b60405180910390f35b34801561012757600080fd5b5061014f7f000000000000000000000000000000000000000000000000000000000000000081565b6040516001600160a01b039091168152602001610112565b34801561017357600080fd5b5061017c610332565b005b34801561018a57600080fd5b50610108662386f26fc1000081565b3480156101a557600080fd5b5061014f7f000000000000000000000000000000000000000000000000000000000000000081565b3480156101d957600080fd5b506101ed6101e8366004610ea8565b6104ce565b60408051938452602084019290925290820152606001610112565b34801561021457600080fd5b50610108610223366004610ea8565b60006020819052908152604090205481565b34801561024157600080fd5b5061014f7f000000000000000000000000000000000000000000000000000000000000000081565b34801561027557600080fd5b5061017c610284366004610f13565b61058b565b34801561029557600080fd5b5061014f7f000000000000000000000000000000000000000000000000000000000000000081565b3480156102c957600080fd5b5061017c6102d8366004610f74565b6105f8565b61017c6106bc565b3480156102f157600080fd5b5061017c610300366004610fdd565b610896565b34801561031157600080fd5b50610108610320366004610ea8565b60016020526000908152604090205481565b3360009081526020818152604080832080546001909352908320805491849055929092559081811561040957604051635d043b2960e11b815260048101839052306024820181905260448201526000907f00000000000000000000000000000000000000000000000000000000000000006001600160a01b03169063ba087652906064016020604051808303816000875af11580156103d5573d6000803e3d6000fd5b505050506040513d601f19601f820116820180604052508101906103f99190611078565b905061040581836110a7565b9150505b8060000361042a57604051631e9acf1760e31b815260040160405180910390fd5b604051600090339083908381818185875af1925050503d806000811461046c576040519150601f19603f3d011682016040523d82523d6000602084013e610471565b606091505b5050905080610493576040516312171d8360e31b815260040160405180910390fd5b60405182815233907f7084f5476618d8e60b11ef0d7d3f06914655adb8793e28ff7f018d4c76d505d59060200160405180910390a250505050565b6001600160a01b038181166000908152602081815260408083205460019092528083205490516303d1689d60e11b81526004810182905291939092917f0000000000000000000000000000000000000000000000000000000000000000909116906307a2d13a90602401602060405180830381865afa158015610555573d6000803e3d6000fd5b505050506040513d601f19601f820116820180604052508101906105799190611078565b61058390846110a7565b929491935050565b66038d7ea4c680006105a285858585856000610951565b836001600160a01b0316856001600160a01b03167fd0c53b207d305122b5aacd8b1f0fe866b2d54d178855a898537f585da629711e8585856040516105e9939291906110e9565b60405180910390a35050505050565b66038d7ea4c680008110156106605760405162461bcd60e51b815260206004820152602360248201527f5072696365206d757374206265206174206c6561737420706c6174666f726d2060448201526266656560e81b60648201526084015b60405180910390fd5b610675858585858566038d7ea4c68000610951565b836001600160a01b0316856001600160a01b03167f97be2867c06e807cd1c22a8bcf41d1a21da278ceb4db53ed9914bfba0228f9538585856040516105e9939291906110e9565b348061070a5760405162461bcd60e51b815260206004820152601d60248201527f416d6f756e74206d7573742062652067726561746572207468616e20300000006044820152606401610657565b3360009081526020819052604081205490662386f26fc100008210156107405761073b82662386f26fc1000061110d565b610743565b60005b905060008184106107545781610756565b835b90506000610764828661110d565b336000908152602081905260408120805492935084929091906107889084906110a7565b9091555060009050811561085357604051636e553f6560e01b8152600481018390523060248201527f00000000000000000000000000000000000000000000000000000000000000006001600160a01b031690636e553f6590849060440160206040518083038185885af1158015610804573d6000803e3d6000fd5b50505050506040513d601f19601f820116820180604052508101906108299190611078565b3360009081526001602052604081208054929350839290919061084d9084906110a7565b90915550505b604080518781526020810183905233917f73a19dd210f1a7f902193214c0ee91dd35ee5b4d920cba8d519eca65a7b488ca910160405180910390a2505050505050565b600083116108e65760405162461bcd60e51b815260206004820152601960248201527f436f6d6d656e74207072696365206d757374206265203e2030000000000000006044820152606401610657565b6108f587878787876000610951565b856001600160a01b0316876001600160a01b03167fd23deecd596f2ffe93f23dc134450bbaec983c3a2ac4c92abfb3c37b5e782b358787878787604051610940959493929190611120565b60405180910390a350505050505050565b600061095d828461110d565b6001600160a01b038816600090815260208190526040902054909150838110610ad9576001600160a01b038816600090815260208190526040812080548692906109a890849061110d565b90915550508215610a495760007f00000000000000000000000000000000000000000000000000000000000000006001600160a01b03168460405160006040518083038185875af1925050503d8060008114610a20576040519150601f19603f3d011682016040523d82523d6000602084013e610a25565b606091505b5050905080610a47576040516312171d8360e31b815260040160405180910390fd5b505b8115610ad4576040516359aa04e760e01b81526001600160a01b037f000000000000000000000000000000000000000000000000000000000000000016906359aa04e7908490610aa1908b908b908b90600401611159565b6000604051808303818588803b158015610aba57600080fd5b505af1158015610ace573d6000803e3d6000fd5b50505050505b610e82565b60405163ef8b30f760e01b8152600481018590526000907f00000000000000000000000000000000000000000000000000000000000000006001600160a01b03169063ef8b30f790602401602060405180830381865afa158015610b41573d6000803e3d6000fd5b505050506040513d601f19601f82011682018060405250810190610b659190611078565b6040516363737ac960e11b8152600481018790529091507f00000000000000000000000000000000000000000000000000000000000000006001600160a01b03169063c6e6f59290602401602060405180830381865afa158015610bcd573d6000803e3d6000fd5b505050506040513d601f19601f82011682018060405250810190610bf19190611078565b6001600160a01b038a16600090815260016020526040902054909150811115610c2d57604051631e9acf1760e31b815260040160405180910390fd5b6001600160a01b03891660009081526001602052604081208054839290610c5590849061110d565b9091555050604051635d043b2960e11b815260048101829052306024820181905260448201526000907f00000000000000000000000000000000000000000000000000000000000000006001600160a01b03169063ba087652906064016020604051808303816000875af1158015610cd1573d6000803e3d6000fd5b505050506040513d601f19601f82011682018060405250810190610cf59190611078565b905085811015610d1857604051631e9acf1760e31b815260040160405180910390fd5b8415610db45760007f00000000000000000000000000000000000000000000000000000000000000006001600160a01b03168660405160006040518083038185875af1925050503d8060008114610d8b576040519150601f19603f3d011682016040523d82523d6000602084013e610d90565b606091505b5050905080610db2576040516312171d8360e31b815260040160405180910390fd5b505b8315610e3f576040516359aa04e760e01b81526001600160a01b037f000000000000000000000000000000000000000000000000000000000000000016906359aa04e7908690610e0c908d908d908d90600401611159565b6000604051808303818588803b158015610e2557600080fd5b505af1158015610e39573d6000803e3d6000fd5b50505050505b85811115610e7f57610e51868261110d565b6001600160a01b038b1660009081526020819052604081208054909190610e799084906110a7565b90915550505b50505b5050505050505050565b80356001600160a01b0381168114610ea357600080fd5b919050565b600060208284031215610eba57600080fd5b610ec382610e8c565b9392505050565b60008083601f840112610edc57600080fd5b50813567ffffffffffffffff811115610ef457600080fd5b602083019150836020828501011115610f0c57600080fd5b9250929050565b60008060008060608587031215610f2957600080fd5b610f3285610e8c565b9350610f4060208601610e8c565b9250604085013567ffffffffffffffff811115610f5c57600080fd5b610f6887828801610eca565b95989497509550505050565b600080600080600060808688031215610f8c57600080fd5b610f9586610e8c565b9450610fa360208701610e8c565b9350604086013567ffffffffffffffff811115610fbf57600080fd5b610fcb88828901610eca565b96999598509660600135949350505050565b600080600080600080600060a0888a031215610ff857600080fd5b61100188610e8c565b965061100f60208901610e8c565b9550604088013567ffffffffffffffff8082111561102c57600080fd5b6110388b838c01610eca565b909750955060608a0135945060808a013591508082111561105857600080fd5b506110658a828b01610eca565b989b979a50959850939692959293505050565b60006020828403121561108a57600080fd5b5051919050565b634e487b7160e01b600052601160045260246000fd5b808201808211156110ba576110ba611091565b92915050565b81835281816020850137506000828201602090810191909152601f909101601f19169091010190565b6040815260006110fd6040830185876110c0565b9050826020830152949350505050565b818103818111156110ba576110ba611091565b6060815260006111346060830187896110c0565b856020840152828103604084015261114d8185876110c0565b98975050505050505050565b6001600160a01b038416815260406020820181905260009061117e90830184866110c0565b9594505050505056fea2646970667358221220a8425711bb9834d245ebec0d6d6da5dfe6c37e5cd891c67b54fd00848114dae464736f6c63430008180033",
  "linkReferences": {},
  "deployedLinkReferences": {}
}