{
  "_format": "hh-sol-artifact-1",
  "contractName": "ReaderVault",
  "sourceName": "contracts/ReaderVault.sol",
  "abi": [
    {
      "inputs": [
        {
          "internalType": "address",
          "name": "_usycToken",
          "type": "address"
        },
        {
          "internalType": "address",
          "name": "_teller",
          "type": "address"
        },
        {
          "internalType": "address",
          "name": "_writerVault",
          "type": "address"
        }
      ],
      "stateMutability": "nonpayable",
      "type": "constructor"
    },
    {
      "inputs": [],
      "name": "ArrayLengthMismatch",
      "type": "error"
    },
    {
      "inputs": [],
      "name": "InsufficientBalance",
      "type": "error"
    },
    {
      "inputs": [],
      "name": "TransferFailed",
      "type": "error"
    },
    {
      "anonymous": false,
      "inputs": [
        {
          "indexed": true,
          "internalType": "address",
          "name": "reader",
          "type": "address"
        },
        {
          "indexed": false,
          "internalType": "uint256",
          "name": "totalFee",
          "type": "uint256"
        },
        {
          "indexed": false,
          "internalType": "uint256",
          "name": "platformFee",
          "type": "uint256"
        }
      ],
      "name": "AgentSearchPaid",
      "type": "event"
    },
    {
      "anonymous": false,
      "inputs": [
        {
          "indexed": true,
          "internalType": "address",
          "name": "reader",
          "type": "address"
        },
        {
          "indexed": true,
          "internalType": "address",
          "name": "writer",
          "type": "address"
        },
        {
          "indexed": false,
          "internalType": "string",
          "name": "slug",
          "type": "string"
        },
        {
          "indexed": false,
          "internalType": "uint256",
          "name": "usdcPaid",
          "type": "uint256"
        }
      ],
      "name": "ArticleRead",
      "type": "event"
    },
    {
      "anonymous": false,
      "inputs": [
        {
          "indexed": true,
          "internalType": "address",
          "name": "reader",
          "type": "address"
        },
        {
          "indexed": true,
          "internalType": "address",
          "name": "writer",
          "type": "address"
        },
        {
          "indexed": false,
          "internalType": "string",
          "name": "slug",
          "type": "string"
        },
        {
          "indexed": false,
          "internalType": "uint256",
          "name": "usdcPaid",
          "type": "uint256"
        }
      ],
      "name": "ClapPaid",
      "type": "event"
    },
    {
      "anonymous": false,
      "inputs": [
        {
          "indexed": true,
          "internalType": "address",
          "name": "reader",
          "type": "address"
        },
        {
          "indexed": true,
          "internalType": "address",
          "name": "writer",
          "type": "address"
        },
        {
          "indexed": false,
          "internalType": "string",
          "name": "slug",
          "type": "string"
        },
        {
          "indexed": false,
          "internalType": "uint256",
          "name": "usdcPaid",
          "type": "uint256"
        },
        {
          "indexed": false,
          "internalType": "string",
          "name": "commentHash",
          "type": "string"
        }
      ],
      "name": "CommentPaid",
      "type": "event"
    },
    {
      "anonymous": false,
      "inputs": [
        {
          "indexed": true,
          "internalType": "address",
          "name": "reader",
          "type": "address"
        },
        {
          "indexed": false,
          "internalType": "uint256",
          "name": "usdcAmount",
          "type": "uint256"
        },
        {
          "indexed": false,
          "internalType": "uint256",
          "name": "usycMinted",
          "type": "uint256"
        }
      ],
      "name": "Deposited",
      "type": "event"
    },
    {
      "anonymous": false,
      "inputs": [
        {
          "indexed": true,
          "internalType": "address",
          "name": "reader",
          "type": "address"
        },
        {
          "indexed": false,
          "internalType": "uint256",
          "name": "usdcAmount",
          "type": "uint256"
        }
      ],
      "name": "Withdrawn",
      "type": "event"
    },
    {
      "inputs": [],
      "name": "FLOAT_AMOUNT",
      "outputs": [
        {
          "internalType": "uint256",
          "name": "",
          "type": "uint256"
        }
      ],
      "stateMutability": "view",
      "type": "function"
    },
    {
      "inputs": [],
      "name": "PLATFORM_FEE",
      "outputs": [
        {
          "internalType": "uint256",
          "name": "",
          "type": "uint256"
        }
      ],
      "stateMutability": "view",
      "type": "function"
    },
    {
      "inputs": [
        {
          "internalType": "address",
          "name": "reader",
          "type": "address"
        }
      ],
      "name": "activityOf",
      "outputs": [
        {
          "internalType": "uint256",
          "name": "reads",
          "type": "uint256"
        },
        {
          "internalType": "uint256",
          "name": "claps",
          "type": "uint256"
        },
        {
          "internalType": "uint256",
          "name": "comments",
          "type": "uint256"
        }
      ],
      "stateMutability": "view",
      "type": "function"
    },
    {
      "inputs": [
        {
          "internalType": "address",
          "name": "reader",
          "type": "address"
        }
      ],
      "name": "balanceOf",
      "outputs": [
        {
          "internalType": "uint256",
          "name": "usdcBalance",
          "type": "uint256"
        },
        {
          "internalType": "uint256",
          "name": "usycBalance",
          "type": "uint256"
        },
        {
          "internalType": "uint256",
          "name": "estimatedUsdcValue",
          "type": "uint256"
        }
      ],
      "stateMutability": "view",
      "type": "function"
    },
    {
      "inputs": [],
      "name": "deposit",
      "outputs": [],
      "stateMutability": "payable",
      "type": "function"
    },
    {
      "inputs": [],
      "name": "owner",
      "outputs": [
        {
          "internalType": "address",
          "name": "",
          "type": "address"
        }
      ],
      "stateMutability": "view",
      "type": "function"
    },
    {
      "inputs": [
        {
          "internalType": "address",
          "name": "reader",
          "type": "address"
        },
        {
          "internalType": "address[]",
          "name": "writers",
          "type": "address[]"
        },
        {
          "internalType": "string[]",
          "name": "slugs",
          "type": "string[]"
        },
        {
          "internalType": "uint256[]",
          "name": "authorShares",
          "type": "uint256[]"
        },
        {
          "internalType": "uint256",
          "name": "totalPrice",
          "type": "uint256"
        }
      ],
      "name": "payForAgentSearch",
      "outputs": [],
      "stateMutability": "nonpayable",
      "type": "function"
    },
    {
      "inputs": [
        {
          "internalType": "address",
          "name": "reader",
          "type": "address"
        },
        {
          "internalType": "address",
          "name": "writer",
          "type": "address"
        },
        {
          "internalType": "string",
          "name": "slug",
          "type": "string"
        }
      ],
      "name": "payForClap",
      "outputs": [],
      "stateMutability": "nonpayable",
      "type": "function"
    },
    {
      "inputs": [
        {
          "internalType": "address",
          "name": "reader",
          "type": "address"
        },
        {
          "internalType": "address",
          "name": "writer",
          "type": "address"
        },
        {
          "internalType": "string",
          "name": "slug",
          "type": "string"
        },
        {
          "internalType": "uint256",
          "name": "price",
          "type": "uint256"
        },
        {
          "internalType": "string",
          "name": "commentHash",
          "type": "string"
        }
      ],
      "name": "payForComment",
      "outputs": [],
      "stateMutability": "nonpayable",
      "type": "function"
    },
    {
      "inputs": [
        {
          "internalType": "address",
          "name": "reader",
          "type": "address"
        },
        {
          "internalType": "address",
          "name": "writer",
          "type": "address"
        },
        {
          "internalType": "string",
          "name": "slug",
          "type": "string"
        },
        {
          "internalType": "uint256",
          "name": "price",
          "type": "uint256"
        }
      ],
      "name": "payForRead",
      "outputs": [],
      "stateMutability": "nonpayable",
      "type": "function"
    },
    {
      "inputs": [],
      "name": "teller",
      "outputs": [
        {
          "internalType": "contract ITeller",
          "name": "",
          "type": "address"
        }
      ],
      "stateMutability": "view",
      "type": "function"
    },
    {
      "inputs": [
        {
          "internalType": "address",
          "name": "",
          "type": "address"
        }
      ],
      "name": "totalClapsGiven",
      "outputs": [
        {
          "internalType": "uint256",
          "name": "",
          "type": "uint256"
        }
      ],
      "stateMutability": "view",
      "type": "function"
    },
    {
      "inputs": [
        {
          "internalType": "address",
          "name": "",
          "type": "address"
        }
      ],
      "name": "totalCommentsGiven",
      "outputs": [
        {
          "internalType": "uint256",
          "name": "",
          "type": "uint256"
        }
      ],
      "stateMutability": "view",
      "type": "function"
    },
    {
      "inputs": [
        {
          "internalType": "address",
          "name": "",
          "type": "address"
        }
      ],
      "name": "totalReadsPerformed",
      "outputs": [
        {
          "internalType": "uint256",
          "name": "",
          "type": "uint256"
        }
      ],
      "stateMutability": "view",
      "type": "function"
    },
    {
      "inputs": [
        {
          "internalType": "address",
          "name": "",
          "type": "address"
        }
      ],
      "name": "usdcFloat",
      "outputs": [
        {
          "internalType": "uint256",
          "name": "",
          "type": "uint256"
        }
      ],
      "stateMutability": "view",
      "type": "function"
    },
    {
      "inputs": [
        {
          "internalType": "address",
          "name": "",
          "type": "address"
        }
      ],
      "name": "usycStaked",
      "outputs": [
        {
          "internalType": "uint256",
          "name": "",
          "type": "uint256"
        }
      ],
      "stateMutability": "view",
      "type": "function"
    },
    {
      "inputs": [],
      "name": "usycToken",
      "outputs": [
        {
          "internalType": "contract IUSYC",
          "name": "",
          "type": "address"
        }
      ],
      "stateMutability": "view",
      "type": "function"
    },
    {
      "inputs": [],
      "name": "withdraw",
      "outputs": [],
      "stateMutability": "nonpayable",
      "type": "function"
    },
    {
      "inputs": [],
      "name": "writerVault",
      "outputs": [
        {
          "internalType": "address",
          "name": "",
          "type": "address"
        }
      ],
      "stateMutability": "view",
      "type": "function"
    },
    {
      "stateMutability": "payable",
      "type": "receive"
    }
  ],
  "bytecode": "0x6101006040523480156200001257600080fd5b5060405162001a4938038062001a49833981016040819052620000359162000074565b6001600160a01b0392831660805290821660a0521660c0523360e052620000be565b80516001600160a01b03811681146200006f57600080fd5b919050565b6000806000606084860312156200008a57600080fd5b620000958462000057565b9250620000a56020850162000057565b9150620000b56040850162000057565b90509250925092565b60805160a05160c05160e0516118f662000153600039600081816102ab01528181610aa90152818161100b01526112e5015260008181610191015281816109ba015281816110b4015261138e01526000818161020f015281816104af015281816106370152818161079e015281816108a001528181610dd40152818161114101526112430152600061039901526118f66000f3fe6080604052600436106101185760003560e01c80639b185757116100a0578063cfe2d66811610064578063cfe2d668146103bb578063d0e30db0146103db578063d89ca275146103e3578063e2745d8514610403578063e885c5421461043057600080fd5b80639b185757146102cd578063abb62556146102fa578063bd96b12314610347578063c37fdd7214610367578063c8c3f3661461038757600080fd5b80634cc61391116100e75780634cc61391146101e257806357edab4e146101fd57806370a082311461023157806377c947f81461026c5780638da5cb5b1461029957600080fd5b80632790fb4d1461012457806334fbc9a11461016457806335d299091461017f5780633ccfd60b146101cb57600080fd5b3661011f57005b600080fd5b34801561013057600080fd5b5061015161013f366004611467565b60026020526000908152604090205481565b6040519081526020015b60405180910390f35b34801561017057600080fd5b5061015166038d7ea4c6800081565b34801561018b57600080fd5b506101b37f000000000000000000000000000000000000000000000000000000000000000081565b6040516001600160a01b03909116815260200161015b565b3480156101d757600080fd5b506101e061045d565b005b3480156101ee57600080fd5b50610151662386f26fc1000081565b34801561020957600080fd5b506101b37f000000000000000000000000000000000000000000000000000000000000000081565b34801561023d57600080fd5b5061025161024c366004611467565b6105f9565b6040805193845260208401929092529082015260600161015b565b34801561027857600080fd5b50610151610287366004611467565b60006020819052908152604090205481565b3480156102a557600080fd5b506101b37f000000000000000000000000000000000000000000000000000000000000000081565b3480156102d957600080fd5b506101516102e8366004611467565b60036020526000908152604090205481565b34801561030657600080fd5b50610251610315366004611467565b6001600160a01b0316600090815260026020908152604080832054600383528184205460049093529220549192909190565b34801561035357600080fd5b506101e06103623660046114d5565b6106b6565b34801561037357600080fd5b506101e06103823660046115c9565b610b8c565b34801561039357600080fd5b506101b37f000000000000000000000000000000000000000000000000000000000000000081565b3480156103c757600080fd5b506101e06103d636600461162a565b610c2b565b6101e0610cde565b3480156103ef57600080fd5b506101e06103fe366004611693565b610eb8565b34801561040f57600080fd5b5061015161041e366004611467565b60016020526000908152604090205481565b34801561043c57600080fd5b5061015161044b366004611467565b60046020526000908152604090205481565b3360009081526020818152604080832080546001909352908320805491849055929092559081811561053457604051635d043b2960e11b815260048101839052306024820181905260448201526000907f00000000000000000000000000000000000000000000000000000000000000006001600160a01b03169063ba087652906064016020604051808303816000875af1158015610500573d6000803e3d6000fd5b505050506040513d601f19601f82011682018060405250810190610524919061172e565b9050610530818361175d565b9150505b8060000361055557604051631e9acf1760e31b815260040160405180910390fd5b604051600090339083908381818185875af1925050503d8060008114610597576040519150601f19603f3d011682016040523d82523d6000602084013e61059c565b606091505b50509050806105be576040516312171d8360e31b815260040160405180910390fd5b60405182815233907f7084f5476618d8e60b11ef0d7d3f06914655adb8793e28ff7f018d4c76d505d59060200160405180910390a250505050565b6001600160a01b038181166000908152602081815260408083205460019092528083205490516303d1689d60e11b81526004810182905291939092917f0000000000000000000000000000000000000000000000000000000000000000909116906307a2d13a90602401602060405180830381865afa158015610680573d6000803e3d6000fd5b505050506040513d601f19601f820116820180604052508101906106a4919061172e565b6106ae908461175d565b929491935050565b85841415806106c55750858214155b156106e35760405163512509d360e11b815260040160405180910390fd5b600081116107315760405162461bcd60e51b8152602060048201526016602482015275053656172636820666565206d757374206265203e20360541b60448201526064015b60405180910390fd5b6001600160a01b03881660009081526020819052604081205490828210610785576001600160a01b038a166000908152602081905260408120805485929061077a908490611776565b9091555061097b9050565b6040516363737ac960e11b8152600481018490526000907f00000000000000000000000000000000000000000000000000000000000000006001600160a01b03169063c6e6f59290602401602060405180830381865afa1580156107ed573d6000803e3d6000fd5b505050506040513d601f19601f82011682018060405250810190610811919061172e565b6001600160a01b038c1660009081526001602052604090205490915081111561084d57604051631e9acf1760e31b815260040160405180910390fd5b6001600160a01b038b1660009081526001602052604081208054839290610875908490611776565b9091555050604051635d043b2960e11b815260048101829052306024820181905260448201526000907f00000000000000000000000000000000000000000000000000000000000000006001600160a01b03169063ba087652906064016020604051808303816000875af11580156108f1573d6000803e3d6000fd5b505050506040513d601f19601f82011682018060405250810190610915919061172e565b90508481101561093857604051631e9acf1760e31b815260040160405180910390fd5b848111156109785761094a8582611776565b6001600160a01b038d166000908152602081905260408120805490919061097290849061175d565b90915550505b50505b60005b88811015610a9057600086868381811061099a5761099a611789565b9050602002013590506000811115610a87576109b6818461175d565b92507f00000000000000000000000000000000000000000000000000000000000000006001600160a01b031663bfbd9795828d8d868181106109fa576109fa611789565b9050602002016020810190610a0f9190611467565b8c8c87818110610a2157610a21611789565b9050602002810190610a33919061179f565b60036040518663ffffffff1660e01b8152600401610a54949392919061180f565b6000604051808303818588803b158015610a6d57600080fd5b505af1158015610a81573d6000803e3d6000fd5b50505050505b5060010161097e565b506000610a9d8285611776565b90508015610b3b5760007f00000000000000000000000000000000000000000000000000000000000000006001600160a01b03168260405160006040518083038185875af1925050503d8060008114610b12576040519150601f19603f3d011682016040523d82523d6000602084013e610b17565b606091505b5050905080610b39576040516312171d8360e31b815260040160405180910390fd5b505b60408051858152602081018390526001600160a01b038d16917f7cfe7feeaf05128465e7e59a67c9bcd580388d8f5427d50bafb5ea6c00658109910160405180910390a25050505050505050505050565b66038d7ea4c68000610ba5858585858560006001610fa5565b6001600160a01b0385166000908152600360205260408120805460019290610bce90849061175d565b92505081905550836001600160a01b0316856001600160a01b03167fd0c53b207d305122b5aacd8b1f0fe866b2d54d178855a898537f585da629711e858585604051610c1c93929190611863565b60405180910390a35050505050565b6000610c3e66038d7ea4c680008361175d565b9050610c57868686868566038d7ea4c680006000610fa5565b6001600160a01b0386166000908152600260205260408120805460019290610c8090849061175d565b92505081905550846001600160a01b0316866001600160a01b03167f97be2867c06e807cd1c22a8bcf41d1a21da278ceb4db53ed9914bfba0228f953868685604051610cce93929190611863565b60405180910390a3505050505050565b3480610d2c5760405162461bcd60e51b815260206004820152601d60248201527f416d6f756e74206d7573742062652067726561746572207468616e20300000006044820152606401610728565b3360009081526020819052604081205490662386f26fc10000821015610d6257610d5d82662386f26fc10000611776565b610d65565b60005b90506000818410610d765781610d78565b835b90506000610d868286611776565b33600090815260208190526040812080549293508492909190610daa90849061175d565b90915550600090508115610e7557604051636e553f6560e01b8152600481018390523060248201527f00000000000000000000000000000000000000000000000000000000000000006001600160a01b031690636e553f6590849060440160206040518083038185885af1158015610e26573d6000803e3d6000fd5b50505050506040513d601f19601f82011682018060405250810190610e4b919061172e565b33600090815260016020526040812080549293508392909190610e6f90849061175d565b90915550505b604080518781526020810183905233917f73a19dd210f1a7f902193214c0ee91dd35ee5b4d920cba8d519eca65a7b488ca910160405180910390a2505050505050565b60008311610f085760405162461bcd60e51b815260206004820152601960248201527f436f6d6d656e74207072696365206d757374206265203e2030000000000000006044820152606401610728565b610f19878787878760006002610fa5565b6001600160a01b0387166000908152600460205260408120805460019290610f4290849061175d565b92505081905550856001600160a01b0316876001600160a01b03167fd23deecd596f2ffe93f23dc134450bbaec983c3a2ac4c92abfb3c37b5e782b358787878787604051610f94959493929190611887565b60405180910390a350505050505050565b6000610fb18385611776565b6001600160a01b038916600090815260208190526040902054909150848110611128576001600160a01b03891660009081526020819052604081208054879290610ffc908490611776565b9091555050831561109d5760007f00000000000000000000000000000000000000000000000000000000000000006001600160a01b03168560405160006040518083038185875af1925050503d8060008114611074576040519150601f19603f3d011682016040523d82523d6000602084013e611079565b606091505b505090508061109b576040516312171d8360e31b815260040160405180910390fd5b505b60405163bfbd979560e01b81526001600160a01b037f0000000000000000000000000000000000000000000000000000000000000000169063bfbd97959084906110f1908c908c908c908a9060040161180f565b6000604051808303818588803b15801561110a57600080fd5b505af115801561111e573d6000803e3d6000fd5b5050505050611440565b6040516363737ac960e11b8152600481018690526000907f00000000000000000000000000000000000000000000000000000000000000006001600160a01b03169063c6e6f59290602401602060405180830381865afa158015611190573d6000803e3d6000fd5b505050506040513d601f19601f820116820180604052508101906111b4919061172e565b6001600160a01b038b166000908152600160205260409020549091508111156111f057604051631e9acf1760e31b815260040160405180910390fd5b6001600160a01b038a1660009081526001602052604081208054839290611218908490611776565b9091555050604051635d043b2960e11b815260048101829052306024820181905260448201526000907f00000000000000000000000000000000000000000000000000000000000000006001600160a01b03169063ba087652906064016020604051808303816000875af1158015611294573d6000803e3d6000fd5b505050506040513d601f19601f820116820180604052508101906112b8919061172e565b9050868110156112db57604051631e9acf1760e31b815260040160405180910390fd5b85156113775760007f00000000000000000000000000000000000000000000000000000000000000006001600160a01b03168760405160006040518083038185875af1925050503d806000811461134e576040519150601f19603f3d011682016040523d82523d6000602084013e611353565b606091505b5050905080611375576040516312171d8360e31b815260040160405180910390fd5b505b60405163bfbd979560e01b81526001600160a01b037f0000000000000000000000000000000000000000000000000000000000000000169063bfbd97959086906113cb908e908e908e908c9060040161180f565b6000604051808303818588803b1580156113e457600080fd5b505af11580156113f8573d6000803e3d6000fd5b50505050508681111561143d5761140f8782611776565b6001600160a01b038c166000908152602081905260408120805490919061143790849061175d565b90915550505b50505b505050505050505050565b80356001600160a01b038116811461146257600080fd5b919050565b60006020828403121561147957600080fd5b6114828261144b565b9392505050565b60008083601f84011261149b57600080fd5b50813567ffffffffffffffff8111156114b357600080fd5b6020830191508360208260051b85010111156114ce57600080fd5b9250929050565b60008060008060008060008060a0898b0312156114f157600080fd5b6114fa8961144b565b9750602089013567ffffffffffffffff8082111561151757600080fd5b6115238c838d01611489565b909950975060408b013591508082111561153c57600080fd5b6115488c838d01611489565b909750955060608b013591508082111561156157600080fd5b5061156e8b828c01611489565b999c989b50969995989497949560800135949350505050565b60008083601f84011261159957600080fd5b50813567ffffffffffffffff8111156115b157600080fd5b6020830191508360208285010111156114ce57600080fd5b600080600080606085870312156115df57600080fd5b6115e88561144b565b93506115f66020860161144b565b9250604085013567ffffffffffffffff81111561161257600080fd5b61161e87828801611587565b95989497509550505050565b60008060008060006080868803121561164257600080fd5b61164b8661144b565b94506116596020870161144b565b9350604086013567ffffffffffffffff81111561167557600080fd5b61168188828901611587565b96999598509660600135949350505050565b600080600080600080600060a0888a0312156116ae57600080fd5b6116b78861144b565b96506116c56020890161144b565b9550604088013567ffffffffffffffff808211156116e257600080fd5b6116ee8b838c01611587565b909750955060608a0135945060808a013591508082111561170e57600080fd5b5061171b8a828b01611587565b989b979a50959850939692959293505050565b60006020828403121561174057600080fd5b5051919050565b634e487b7160e01b600052601160045260246000fd5b8082018082111561177057611770611747565b92915050565b8181038181111561177057611770611747565b634e487b7160e01b600052603260045260246000fd5b6000808335601e198436030181126117b657600080fd5b83018035915067ffffffffffffffff8211156117d157600080fd5b6020019150368190038213156114ce57600080fd5b81835281816020850137506000828201602090810191909152601f909101601f19169091010190565b6001600160a01b038516815260606020820181905260009061183490830185876117e6565b90506004831061185457634e487b7160e01b600052602160045260246000fd5b82604083015295945050505050565b6040815260006118776040830185876117e6565b9050826020830152949350505050565b60608152600061189b6060830187896117e6565b85602084015282810360408401526118b48185876117e6565b9897505050505050505056fea2646970667358221220bcddc4c68ac8020abe8e60ca628ea15659c19a109618cbbe54d34f0c989139a264736f6c63430008180033",
  "linkReferences": {},
  "deployedLinkReferences": {}
}