{
  "_format": "hh-sol-artifact-1",
  "contractName": "ReaderVault",
  "sourceName": "contracts/ReaderVault.sol",
  "abi": [
    {
      "inputs": [
        {
          "internalType": "address",
          "name": "_usycToken",
          "type": "address"
        },
        {
          "internalType": "address",
          "name": "_teller",
          "type": "address"
        },
        {
          "internalType": "address",
          "name": "_writerVault",
          "type": "address"
        }
      ],
      "stateMutability": "nonpayable",
      "type": "constructor"
    },
    {
      "inputs": [],
      "name": "InsufficientBalance",
      "type": "error"
    },
    {
      "inputs": [],
      "name": "TransferFailed",
      "type": "error"
    },
    {
      "anonymous": false,
      "inputs": [
        {
          "indexed": true,
          "internalType": "address",
          "name": "reader",
          "type": "address"
        },
        {
          "indexed": true,
          "internalType": "address",
          "name": "writer",
          "type": "address"
        },
        {
          "indexed": false,
          "internalType": "string",
          "name": "slug",
          "type": "string"
        },
        {
          "indexed": false,
          "internalType": "uint256",
          "name": "usdcPaid",
          "type": "uint256"
        }
      ],
      "name": "ArticleRead",
      "type": "event"
    },
    {
      "anonymous": false,
      "inputs": [
        {
          "indexed": true,
          "internalType": "address",
          "name": "reader",
          "type": "address"
        },
        {
          "indexed": true,
          "internalType": "address",
          "name": "writer",
          "type": "address"
        },
        {
          "indexed": false,
          "internalType": "string",
          "name": "slug",
          "type": "string"
        },
        {
          "indexed": false,
          "internalType": "uint256",
          "name": "usdcPaid",
          "type": "uint256"
        }
      ],
      "name": "ClapPaid",
      "type": "event"
    },
    {
      "anonymous": false,
      "inputs": [
        {
          "indexed": true,
          "internalType": "address",
          "name": "reader",
          "type": "address"
        },
        {
          "indexed": true,
          "internalType": "address",
          "name": "writer",
          "type": "address"
        },
        {
          "indexed": false,
          "internalType": "string",
          "name": "slug",
          "type": "string"
        },
        {
          "indexed": false,
          "internalType": "uint256",
          "name": "usdcPaid",
          "type": "uint256"
        },
        {
          "indexed": false,
          "internalType": "string",
          "name": "commentHash",
          "type": "string"
        }
      ],
      "name": "CommentPaid",
      "type": "event"
    },
    {
      "anonymous": false,
      "inputs": [
        {
          "indexed": true,
          "internalType": "address",
          "name": "reader",
          "type": "address"
        },
        {
          "indexed": false,
          "internalType": "uint256",
          "name": "usdcAmount",
          "type": "uint256"
        },
        {
          "indexed": false,
          "internalType": "uint256",
          "name": "usycMinted",
          "type": "uint256"
        }
      ],
      "name": "Deposited",
      "type": "event"
    },
    {
      "anonymous": false,
      "inputs": [
        {
          "indexed": true,
          "internalType": "address",
          "name": "reader",
          "type": "address"
        },
        {
          "indexed": false,
          "internalType": "uint256",
          "name": "usdcAmount",
          "type": "uint256"
        }
      ],
      "name": "Withdrawn",
      "type": "event"
    },
    {
      "inputs": [],
      "name": "FLOAT_AMOUNT",
      "outputs": [
        {
          "internalType": "uint256",
          "name": "",
          "type": "uint256"
        }
      ],
      "stateMutability": "view",
      "type": "function"
    },
    {
      "inputs": [],
      "name": "PLATFORM_FEE",
      "outputs": [
        {
          "internalType": "uint256",
          "name": "",
          "type": "uint256"
        }
      ],
      "stateMutability": "view",
      "type": "function"
    },
    {
      "inputs": [
        {
          "internalType": "address",
          "name": "reader",
          "type": "address"
        }
      ],
      "name": "balanceOf",
      "outputs": [
        {
          "internalType": "uint256",
          "name": "usdcBalance",
          "type": "uint256"
        },
        {
          "internalType": "uint256",
          "name": "usycBalance",
          "type": "uint256"
        },
        {
          "internalType": "uint256",
          "name": "estimatedUsdcValue",
          "type": "uint256"
        }
      ],
      "stateMutability": "view",
      "type": "function"
    },
    {
      "inputs": [],
      "name": "deposit",
      "outputs": [],
      "stateMutability": "payable",
      "type": "function"
    },
    {
      "inputs": [],
      "name": "owner",
      "outputs": [
        {
          "internalType": "address",
          "name": "",
          "type": "address"
        }
      ],
      "stateMutability": "view",
      "type": "function"
    },
    {
      "inputs": [
        {
          "internalType": "address",
          "name": "reader",
          "type": "address"
        },
        {
          "internalType": "address",
          "name": "writer",
          "type": "address"
        },
        {
          "internalType": "string",
          "name": "slug",
          "type": "string"
        }
      ],
      "name": "payForClap",
      "outputs": [],
      "stateMutability": "nonpayable",
      "type": "function"
    },
    {
      "inputs": [
        {
          "internalType": "address",
          "name": "reader",
          "type": "address"
        },
        {
          "internalType": "address",
          "name": "writer",
          "type": "address"
        },
        {
          "internalType": "string",
          "name": "slug",
          "type": "string"
        },
        {
          "internalType": "uint256",
          "name": "price",
          "type": "uint256"
        },
        {
          "internalType": "string",
          "name": "commentHash",
          "type": "string"
        }
      ],
      "name": "payForComment",
      "outputs": [],
      "stateMutability": "nonpayable",
      "type": "function"
    },
    {
      "inputs": [
        {
          "internalType": "address",
          "name": "reader",
          "type": "address"
        },
        {
          "internalType": "address",
          "name": "writer",
          "type": "address"
        },
        {
          "internalType": "string",
          "name": "slug",
          "type": "string"
        },
        {
          "internalType": "uint256",
          "name": "price",
          "type": "uint256"
        }
      ],
      "name": "payForRead",
      "outputs": [],
      "stateMutability": "nonpayable",
      "type": "function"
    },
    {
      "inputs": [],
      "name": "teller",
      "outputs": [
        {
          "internalType": "contract ITeller",
          "name": "",
          "type": "address"
        }
      ],
      "stateMutability": "view",
      "type": "function"
    },
    {
      "inputs": [
        {
          "internalType": "address",
          "name": "",
          "type": "address"
        }
      ],
      "name": "usdcFloat",
      "outputs": [
        {
          "internalType": "uint256",
          "name": "",
          "type": "uint256"
        }
      ],
      "stateMutability": "view",
      "type": "function"
    },
    {
      "inputs": [
        {
          "internalType": "address",
          "name": "",
          "type": "address"
        }
      ],
      "name": "usycStaked",
      "outputs": [
        {
          "internalType": "uint256",
          "name": "",
          "type": "uint256"
        }
      ],
      "stateMutability": "view",
      "type": "function"
    },
    {
      "inputs": [],
      "name": "usycToken",
      "outputs": [
        {
          "internalType": "contract IUSYC",
          "name": "",
          "type": "address"
        }
      ],
      "stateMutability": "view",
      "type": "function"
    },
    {
      "inputs": [],
      "name": "withdraw",
      "outputs": [],
      "stateMutability": "nonpayable",
      "type": "function"
    },
    {
      "inputs": [],
      "name": "writerVault",
      "outputs": [
        {
          "internalType": "address",
          "name": "",
          "type": "address"
        }
      ],
      "stateMutability": "view",
      "type": "function"
    },
    {
      "stateMutability": "payable",
      "type": "receive"
    }
  ],
  "bytecode": "0x61010060405234801561001157600080fd5b5060405162001461380380620014618339810160408190526100329161006f565b6001600160a01b0392831660805290821660a0521660c0523360e0526100b2565b80516001600160a01b038116811461006a57600080fd5b919050565b60008060006060848603121561008457600080fd5b61008d84610053565b925061009b60208501610053565b91506100a960408501610053565b90509250925092565b60805160a05160c05160e051611321620001406000396000818161024701528181610ad20152610e3d01526000818161012d01528181610b810152610eec0152600081816101ab015281816103840152818161050c0152818161079a01528181610831015281816108ce01528181610c0d01528181610c990152610d9b0152600061029b01526113216000f3fe6080604052600436106100e15760003560e01c80638da5cb5b1161007f578063cfe2d66811610059578063cfe2d668146102bd578063d0e30db0146102dd578063d89ca275146102e5578063e2745d851461030557600080fd5b80638da5cb5b14610235578063c37fdd7214610269578063c8c3f3661461028957600080fd5b80634cc61391116100bb5780634cc613911461017e57806357edab4e1461019957806370a08231146101cd57806377c947f81461020857600080fd5b806334fbc9a1146100ed57806335d299091461011b5780633ccfd60b1461016757600080fd5b366100e857005b600080fd5b3480156100f957600080fd5b5061010866038d7ea4c6800081565b6040519081526020015b60405180910390f35b34801561012757600080fd5b5061014f7f000000000000000000000000000000000000000000000000000000000000000081565b6040516001600160a01b039091168152602001610112565b34801561017357600080fd5b5061017c610332565b005b34801561018a57600080fd5b50610108662386f26fc1000081565b3480156101a557600080fd5b5061014f7f000000000000000000000000000000000000000000000000000000000000000081565b3480156101d957600080fd5b506101ed6101e8366004610fbf565b6104ce565b60408051938452602084019290925290820152606001610112565b34801561021457600080fd5b50610108610223366004610fbf565b60006020819052908152604090205481565b34801561024157600080fd5b5061014f7f000000000000000000000000000000000000000000000000000000000000000081565b34801561027557600080fd5b5061017c61028436600461102c565b61058b565b34801561029557600080fd5b5061014f7f000000000000000000000000000000000000000000000000000000000000000081565b3480156102c957600080fd5b5061017c6102d8366004611091565b6105f8565b61017c6106bc565b3480156102f157600080fd5b5061017c6103003660046110fe565b6109b1565b34801561031157600080fd5b50610108610320366004610fbf565b60016020526000908152604090205481565b3360009081526020818152604080832080546001909352908320805491849055929092559081811561040957604051635d043b2960e11b815260048101839052306024820181905260448201526000907f00000000000000000000000000000000000000000000000000000000000000006001600160a01b03169063ba087652906064016020604051808303816000875af11580156103d5573d6000803e3d6000fd5b505050506040513d601f19601f820116820180604052508101906103f9919061119d565b905061040581836111cc565b9150505b8060000361042a57604051631e9acf1760e31b815260040160405180910390fd5b604051600090339083908381818185875af1925050503d806000811461046c576040519150601f19603f3d011682016040523d82523d6000602084013e610471565b606091505b5050905080610493576040516312171d8360e31b815260040160405180910390fd5b60405182815233907f7084f5476618d8e60b11ef0d7d3f06914655adb8793e28ff7f018d4c76d505d59060200160405180910390a250505050565b6001600160a01b038181166000908152602081815260408083205460019092528083205490516303d1689d60e11b81526004810182905291939092917f0000000000000000000000000000000000000000000000000000000000000000909116906307a2d13a90602401602060405180830381865afa158015610555573d6000803e3d6000fd5b505050506040513d601f19601f82011682018060405250810190610579919061119d565b61058390846111cc565b929491935050565b66038d7ea4c680006105a285858585856000610a6c565b836001600160a01b0316856001600160a01b03167fd0c53b207d305122b5aacd8b1f0fe866b2d54d178855a898537f585da629711e8585856040516105e99392919061120e565b60405180910390a35050505050565b66038d7ea4c680008110156106605760405162461bcd60e51b815260206004820152602360248201527f5072696365206d757374206265206174206c6561737420706c6174666f726d2060448201526266656560e81b60648201526084015b60405180910390fd5b610675858585858566038d7ea4c68000610a6c565b836001600160a01b0316856001600160a01b03167f97be2867c06e807cd1c22a8bcf41d1a21da278ceb4db53ed9914bfba0228f9538585856040516105e99392919061120e565b348061070a5760405162461bcd60e51b815260206004820152601d60248201527f416d6f756e74206d7573742062652067726561746572207468616e20300000006044820152606401610657565b3360009081526020819052604081205490662386f26fc100008210156107405761073b82662386f26fc10000611232565b610743565b60005b905060008184106107545781610756565b835b905060006107648286611232565b336000908152602081905260408120805492935084929091906107889084906111cc565b9091555060009050811561096e5760007f00000000000000000000000000000000000000000000000000000000000000006001600160a01b03166338d52e0f6040518163ffffffff1660e01b8152600401602060405180830381865afa1580156107f6573d6000803e3d6000fd5b505050506040513d601f19601f8201168201806040525081019061081a9190611245565b60405163095ea7b360e01b81526001600160a01b037f000000000000000000000000000000000000000000000000000000000000000081166004830152602482018690529192509082169063095ea7b3906044016020604051808303816000875af115801561088d573d6000803e3d6000fd5b505050506040513d601f19601f820116820180604052508101906108b19190611262565b50604051636e553f6560e01b8152600481018490523060248201527f00000000000000000000000000000000000000000000000000000000000000006001600160a01b031690636e553f65906044016020604051808303816000875af115801561091f573d6000803e3d6000fd5b505050506040513d601f19601f82011682018060405250810190610943919061119d565b336000908152600160205260408120805492945084929091906109679084906111cc565b9091555050505b604080518781526020810183905233917f73a19dd210f1a7f902193214c0ee91dd35ee5b4d920cba8d519eca65a7b488ca910160405180910390a2505050505050565b60008311610a015760405162461bcd60e51b815260206004820152601960248201527f436f6d6d656e74207072696365206d757374206265203e2030000000000000006044820152606401610657565b610a1087878787876000610a6c565b856001600160a01b0316876001600160a01b03167fd23deecd596f2ffe93f23dc134450bbaec983c3a2ac4c92abfb3c37b5e782b358787878787604051610a5b959493929190611284565b60405180910390a350505050505050565b6000610a788284611232565b6001600160a01b038816600090815260208190526040902054909150838110610bf4576001600160a01b03881660009081526020819052604081208054869290610ac3908490611232565b90915550508215610b645760007f00000000000000000000000000000000000000000000000000000000000000006001600160a01b03168460405160006040518083038185875af1925050503d8060008114610b3b576040519150601f19603f3d011682016040523d82523d6000602084013e610b40565b606091505b5050905080610b62576040516312171d8360e31b815260040160405180910390fd5b505b8115610bef576040516359aa04e760e01b81526001600160a01b037f000000000000000000000000000000000000000000000000000000000000000016906359aa04e7908490610bbc908b908b908b906004016112bd565b6000604051808303818588803b158015610bd557600080fd5b505af1158015610be9573d6000803e3d6000fd5b50505050505b610f9d565b60405163ef8b30f760e01b8152600481018590526000907f00000000000000000000000000000000000000000000000000000000000000006001600160a01b03169063ef8b30f790602401602060405180830381865afa158015610c5c573d6000803e3d6000fd5b505050506040513d601f19601f82011682018060405250810190610c80919061119d565b6040516363737ac960e11b8152600481018790529091507f00000000000000000000000000000000000000000000000000000000000000006001600160a01b03169063c6e6f59290602401602060405180830381865afa158015610ce8573d6000803e3d6000fd5b505050506040513d601f19601f82011682018060405250810190610d0c919061119d565b6001600160a01b038a16600090815260016020526040902054909150811115610d4857604051631e9acf1760e31b815260040160405180910390fd5b6001600160a01b03891660009081526001602052604081208054839290610d70908490611232565b9091555050604051635d043b2960e11b815260048101829052306024820181905260448201526000907f00000000000000000000000000000000000000000000000000000000000000006001600160a01b03169063ba087652906064016020604051808303816000875af1158015610dec573d6000803e3d6000fd5b505050506040513d601f19601f82011682018060405250810190610e10919061119d565b905085811015610e3357604051631e9acf1760e31b815260040160405180910390fd5b8415610ecf5760007f00000000000000000000000000000000000000000000000000000000000000006001600160a01b03168660405160006040518083038185875af1925050503d8060008114610ea6576040519150601f19603f3d011682016040523d82523d6000602084013e610eab565b606091505b5050905080610ecd576040516312171d8360e31b815260040160405180910390fd5b505b8315610f5a576040516359aa04e760e01b81526001600160a01b037f000000000000000000000000000000000000000000000000000000000000000016906359aa04e7908690610f27908d908d908d906004016112bd565b6000604051808303818588803b158015610f4057600080fd5b505af1158015610f54573d6000803e3d6000fd5b50505050505b85811115610f9a57610f6c8682611232565b6001600160a01b038b1660009081526020819052604081208054909190610f949084906111cc565b90915550505b50505b5050505050505050565b6001600160a01b0381168114610fbc57600080fd5b50565b600060208284031215610fd157600080fd5b8135610fdc81610fa7565b9392505050565b60008083601f840112610ff557600080fd5b50813567ffffffffffffffff81111561100d57600080fd5b60208301915083602082850101111561102557600080fd5b9250929050565b6000806000806060858703121561104257600080fd5b843561104d81610fa7565b9350602085013561105d81610fa7565b9250604085013567ffffffffffffffff81111561107957600080fd5b61108587828801610fe3565b95989497509550505050565b6000806000806000608086880312156110a957600080fd5b85356110b481610fa7565b945060208601356110c481610fa7565b9350604086013567ffffffffffffffff8111156110e057600080fd5b6110ec88828901610fe3565b96999598509660600135949350505050565b600080600080600080600060a0888a03121561111957600080fd5b873561112481610fa7565b9650602088013561113481610fa7565b9550604088013567ffffffffffffffff8082111561115157600080fd5b61115d8b838c01610fe3565b909750955060608a0135945060808a013591508082111561117d57600080fd5b5061118a8a828b01610fe3565b989b979a50959850939692959293505050565b6000602082840312156111af57600080fd5b5051919050565b634e487b7160e01b600052601160045260246000fd5b808201808211156111df576111df6111b6565b92915050565b81835281816020850137506000828201602090810191909152601f909101601f19169091010190565b6040815260006112226040830185876111e5565b9050826020830152949350505050565b818103818111156111df576111df6111b6565b60006020828403121561125757600080fd5b8151610fdc81610fa7565b60006020828403121561127457600080fd5b81518015158114610fdc57600080fd5b6060815260006112986060830187896111e5565b85602084015282810360408401526112b18185876111e5565b98975050505050505050565b6001600160a01b03841681526040602082018190526000906112e290830184866111e5565b9594505050505056fea264697066735822122089d6dcd44998937054c2c609510369dd6c3ad6499314856d24b1d3645b811f9e64736f6c63430008180033",
  "linkReferences": {},
  "deployedLinkReferences": {}
}